{
  "contractName": "ArbitrationFactory",
  "abi": [
    {
      "constant": true,
      "inputs": [],
      "name": "jurToken",
      "outputs": [
        {
          "name": "",
          "type": "address"
        }
      ],
      "payable": false,
      "stateMutability": "view",
      "type": "function"
    },
    {
      "constant": true,
      "inputs": [],
      "name": "owner",
      "outputs": [
        {
          "name": "",
          "type": "address"
        }
      ],
      "payable": false,
      "stateMutability": "view",
      "type": "function"
    },
    {
      "constant": true,
      "inputs": [
        {
          "name": "",
          "type": "uint256"
        }
      ],
      "name": "arbirations",
      "outputs": [
        {
          "name": "",
          "type": "address"
        }
      ],
      "payable": false,
      "stateMutability": "view",
      "type": "function"
    },
    {
      "constant": false,
      "inputs": [
        {
          "name": "newOwner",
          "type": "address"
        }
      ],
      "name": "transferOwnership",
      "outputs": [],
      "payable": false,
      "stateMutability": "nonpayable",
      "type": "function"
    },
    {
      "inputs": [
        {
          "name": "_jurToken",
          "type": "address"
        }
      ],
      "payable": false,
      "stateMutability": "nonpayable",
      "type": "constructor"
    },
    {
      "anonymous": false,
      "inputs": [
        {
          "indexed": true,
          "name": "_creator",
          "type": "address"
        },
        {
          "indexed": false,
          "name": "_arbitration",
          "type": "address"
        },
        {
          "indexed": true,
          "name": "_party1",
          "type": "address"
        },
        {
          "indexed": true,
          "name": "_party2",
          "type": "address"
        },
        {
          "indexed": false,
          "name": "_dispersal",
          "type": "uint256[]"
        },
        {
          "indexed": false,
          "name": "_funding",
          "type": "uint256[]"
        },
        {
          "indexed": false,
          "name": "_agreementHash",
          "type": "bytes32"
        }
      ],
      "name": "ArbitrationCreated",
      "type": "event"
    },
    {
      "anonymous": false,
      "inputs": [
        {
          "indexed": true,
          "name": "previousOwner",
          "type": "address"
        },
        {
          "indexed": true,
          "name": "newOwner",
          "type": "address"
        }
      ],
      "name": "OwnershipTransferred",
      "type": "event"
    },
    {
      "constant": false,
      "inputs": [
        {
          "name": "_parties",
          "type": "address[]"
        },
        {
          "name": "_dispersal",
          "type": "uint256[]"
        },
        {
          "name": "_funding",
          "type": "uint256[]"
        },
        {
          "name": "_agreementHash",
          "type": "bytes32"
        }
      ],
      "name": "createArbitration",
      "outputs": [],
      "payable": false,
      "stateMutability": "nonpayable",
      "type": "function"
    },
    {
      "constant": false,
      "inputs": [
        {
          "name": "_jurToken",
          "type": "address"
        }
      ],
      "name": "changeToken",
      "outputs": [],
      "payable": false,
      "stateMutability": "nonpayable",
      "type": "function"
    },
    {
      "constant": true,
      "inputs": [
        {
          "name": "_input",
          "type": "string"
        }
      ],
      "name": "generateHash",
      "outputs": [
        {
          "name": "",
          "type": "bytes32"
        }
      ],
      "payable": false,
      "stateMutability": "pure",
      "type": "function"
    },
    {
      "constant": false,
      "inputs": [
        {
          "name": "_jurTokenAddress",
          "type": "address"
        }
      ],
      "name": "updateTokenAddress",
      "outputs": [],
      "payable": false,
      "stateMutability": "nonpayable",
      "type": "function"
    }
  ],
  "bytecode": "0x608060405234801561001057600080fd5b50604051602080613ef3833981016040525160008054600160a060020a03338116600160a060020a03199283161790925560018054929093169116179055613e968061005d6000396000f30060806040526004361061008d5763ffffffff7c01000000000000000000000000000000000000000000000000000000006000350416635f068b43811461009257806366829b16146100c35780636691461a146100c35780638da5cb5b146100e6578063b063152a146100fb578063bfabc1e014610166578063dabf142d1461022f578063f2fde38b14610247575b600080fd5b34801561009e57600080fd5b506100a7610268565b60408051600160a060020a039092168252519081900360200190f35b3480156100cf57600080fd5b506100e4600160a060020a0360043516610277565b005b3480156100f257600080fd5b506100a76102c1565b34801561010757600080fd5b506040805160206004803580820135601f81018490048402850184019095528484526101549436949293602493928401919081908401838280828437509497506102d09650505050505050565b60408051918252519081900360200190f35b34801561017257600080fd5b50604080516020600480358082013583810280860185019096528085526100e495369593946024949385019291829185019084908082843750506040805187358901803560208181028481018201909552818452989b9a998901989297509082019550935083925085019084908082843750506040805187358901803560208181028481018201909552818452989b9a99890198929750908201955093508392508501908490808284375094975050933594506103349350505050565b34801561023b57600080fd5b506100a76004356105e8565b34801561025357600080fd5b506100e4600160a060020a0360043516610610565b600154600160a060020a031681565b60005433600160a060020a0390811691161461029257600080fd5b6001805473ffffffffffffffffffffffffffffffffffffffff1916600160a060020a0392909216919091179055565b600054600160a060020a031681565b6000816040518082805190602001908083835b602083106103025780518252601f1990920191602091820191016102e3565b5181516020939093036101000a6000190180199091169216919091179052604051920182900390912095945050505050565b600154600090600160a060020a03168585858561034f6106a8565b600160a060020a03861681526080810182905260a0602080830182815287519284019290925286516040840191606085019160c08601918a8101910280838360005b838110156103a9578181015183820152602001610391565b50505050905001848103835287818151815260200191508051906020019060200280838360005b838110156103e85781810151838201526020016103d0565b50505050905001848103825286818151815260200191508051906020019060200280838360005b8381101561042757818101518382015260200161040f565b5050505090500198505050505050505050604051809103906000f080158015610454573d6000803e3d6000fd5b5060028054600180820183556000929092527f405787fa12a823e0f2b7631cc41b3ba8828b3321ca811111fa75cd3aa3bb5ace01805473ffffffffffffffffffffffffffffffffffffffff1916600160a060020a0384161790558651919250869181106104bd57fe5b90602001906020020151600160a060020a03168560008151811015156104df57fe5b90602001906020020151600160a060020a031633600160a060020a03167f10e90922e9ef80d8cdfa2621c8fd50a670b92c91da43f6f7d953a721d0faddd2848888886040518085600160a060020a0316600160a060020a0316815260200180602001806020018460001916600019168152602001838103835286818151815260200191508051906020019060200280838360005b8381101561058b578181015183820152602001610573565b50505050905001838103825285818151815260200191508051906020019060200280838360005b838110156105ca5781810151838201526020016105b2565b50505050905001965050505050505060405180910390a45050505050565b60028054829081106105f657fe5b600091825260209091200154600160a060020a0316905081565b60005433600160a060020a0390811691161461062b57600080fd5b600160a060020a038116151561064057600080fd5b60008054604051600160a060020a03808516939216917f8be0079c531659141344cd1fd0a4f28419497f9722a3daafe3b4186f6b6457e091a36000805473ffffffffffffffffffffffffffffffffffffffff1916600160a060020a0392909216919091179055565b6040516137b180620006ba833901905600608060405262093a8060015562015180600255610708600381905560045566b1a2bc2ec50000600555662386f26fc10000600655601b805460ff191690553480156200004a57600080fd5b50604051620037b1380380620037b18339810160409081528151602083015191830151606084015160808501519185018051939594850194909391019190600090819081906002148015620000a0575084516002145b8015620000ae575086516002145b1515620000ba57600080fd5b866000815181101515620000ca57fe5b90602001906020020151600160a060020a0316600014158015620001115750866001815181101515620000f957fe5b90602001906020020151600160a060020a0316600014155b15156200011d57600080fd5b5060009150819050805b86518160ff161015620002a257600160086000898460ff168151811015156200014c57fe5b602090810291909101810151600160a060020a03168252810191909152604001600020805460ff19169115159190911790558551869060ff83169081106200019057fe5b9060200190602002015160096000898460ff16815181101515620001b057fe5b6020908102909101810151600160a060020a03168252810191909152604001600020558451859060ff8316908110620001e557fe5b90602001906020020151600a6000898460ff168151811015156200020557fe5b6020908102909101810151600160a060020a031682528101919091526040016000205585516200025f90879060ff84169081106200023f57fe5b6020908102909101015183906401000000006200242c6200040882021704565b915062000297858260ff168151811015156200027757fe5b6020908102909101015184906401000000006200242c6200040882021704565b925060010162000127565b828214620002af57600080fd5b8651620002c49060079060208a01906200041c565b50600e84905560008054600160a060020a031916600160a060020a038a16179055865187906001908110620002f557fe5b90602001906020020151600160a060020a03168760008151811015156200031857fe5b90602001906020020151600160a060020a03167f18a9c4249303b74ecff5e58f4dcc486cd7de84cd3feec18d74f4c9216963fb9e8888886040518080602001806020018460001916600019168152602001838103835286818151815260200191508051906020019060200280838360005b83811015620003a357818101518382015260200162000389565b50505050905001838103825285818151815260200191508051906020019060200280838360005b83811015620003e4578181015183820152602001620003ca565b505050509050019550505050505060405180910390a35050505050505050620004b0565b818101828110156200041657fe5b92915050565b82805482825590600052602060002090810192821562000474579160200282015b82811115620004745782518254600160a060020a031916600160a060020a039091161782556020909201916001909101906200043d565b506200048292915062000486565b5090565b620004ad91905b8082111562000482578054600160a060020a03191681556001016200048d565b90565b6132f180620004c06000396000f30060806040526004361061022c5763ffffffff60e060020a60003504166302edcbfb8114610231578063049f2d8a146102c35780630ab55d0b146102f65780630d15fd771461030b57806312feb4a714610320578063188c0e43146103355780631ff2e2141461034a57806321979f5f146103e857806325ce690b146104005780632731c6c6146104215780632a50b544146104365780632ca151221461044b5780632efab6fa146104605780632f36cacf1461047557806337c2afda146104cf5780633ad17f6d146104f057806341e60c861461052b57806344633297146105405780634f235207146105675780634f802f8a1461059c57806352e18f33146105b15780635a9e17a7146105c65780635cfe585a146105db5780635e2c19db146105f05780635f068b43146106115780635f74bbde1461064257806360d505961461066657806364a8a11f1461067e578063682644fd146106a857806368e664bd146106c95780636eae555d146106ea57806374e6cfd31461073f5780638b90dc94146107605780638bfb85c3146107755780638e7ea5b21461078a5780638fae60a51461079f578063918c9373146107b4578063994d4060146107c95780639cff621a146107ea578063a7e92fb5146107ff578063adef40db14610814578063b40b78411461087b578063b7c1ae8114610890578063bf6a1413146108b1578063c19d93fb146108d2578063d5e03fc61461090b578063f585dc5714610920578063fc76317614610935575b600080fd5b34801561023d57600080fd5b50604080516020600480358082013583810280860185019096528085526102c195369593946024949385019291829185019084908082843750506040805187358901803560208181028481018201909552818452989b9a99890198929750908201955093508392508501908490808284375094975050933594506109569350505050565b005b3480156102cf57600080fd5b506102e4600160a060020a0360043516610967565b60408051918252519081900360200190f35b34801561030257600080fd5b506102e4610979565b34801561031757600080fd5b506102e461097f565b34801561032c57600080fd5b506102e4610985565b34801561034157600080fd5b506102e461098b565b34801561035657600080fd5b506040805160206004602480358281013584810280870186019097528086526102c1968435600160a060020a031696369660449591949091019291829185019084908082843750506040805187358901803560208181028481018201909552818452989b9a99890198929750908201955093508392508501908490808284375094975050933594506109919350505050565b3480156103f457600080fd5b506102c16004356109be565b34801561040c57600080fd5b506102e4600160a060020a0360043516610dd5565b34801561042d57600080fd5b506102e4610de7565b34801561044257600080fd5b506102e4610ded565b34801561045757600080fd5b506102c1610df3565b34801561046c57600080fd5b506102e4610dfe565b34801561048157600080fd5b506040805160206004602480358281013584810280870186019097528086526102c196843596369660449591949091019291829185019084908082843750949750610e049650505050505050565b3480156104db57600080fd5b506102c1600160a060020a0360043516610e13565b3480156104fc57600080fd5b50610505610e3a565b60408051600160a060020a03938416815291909216602082015281519081900390910190f35b34801561053757600080fd5b506102c1610f7c565b34801561054c57600080fd5b506102e4600160a060020a03600435811690602435166110f8565b34801561057357600080fd5b50610588600160a060020a0360043516611115565b604080519115158252519081900360200190f35b3480156105a857600080fd5b506102c161112a565b3480156105bd57600080fd5b506102e4611432565b3480156105d257600080fd5b506102e4611438565b3480156105e757600080fd5b506102e461143e565b3480156105fc57600080fd5b50610588600160a060020a036004351661166b565b34801561061d57600080fd5b50610626611680565b60408051600160a060020a039092168252519081900360200190f35b34801561064e57600080fd5b506102c1600160a060020a036004351660243561168f565b34801561067257600080fd5b5061062660043561169a565b34801561068a57600080fd5b506102c1600160a060020a03600435811690602435166044356116c2565b3480156106b457600080fd5b50610588600160a060020a03600435166116e8565b3480156106d557600080fd5b50610588600160a060020a03600435166116fd565b3480156106f657600080fd5b50604080516020600480358082013583810280860185019096528085526102c1953695939460249493850192918291850190849080828437509497506117129650505050505050565b34801561074b57600080fd5b506102e4600160a060020a036004351661192a565b34801561076c57600080fd5b5061058861193c565b34801561078157600080fd5b506102c1611945565b34801561079657600080fd5b5061062661194e565b3480156107ab57600080fd5b506102c1611a43565b3480156107c057600080fd5b506102e4611b86565b3480156107d557600080fd5b506102e4600160a060020a0360043516611b8c565b3480156107f657600080fd5b506102c1611b9e565b34801561080b57600080fd5b506102c1611dd8565b34801561082057600080fd5b5060408051602060046044358181013583810280860185019096528085526102c1958335600160a060020a0316956024803596369695606495939492019291829185019084908082843750949750611e8d9650505050505050565b34801561088757600080fd5b506102e4611eb3565b34801561089c57600080fd5b506102e4600160a060020a0360043516611eb9565b3480156108bd57600080fd5b50610588600160a060020a0360043516611ecb565b3480156108de57600080fd5b506108e7611ee0565b604051808260058111156108f757fe5b60ff16815260200191505060405180910390f35b34801561091757600080fd5b506102c1611ee9565b34801561092c57600080fd5b506102e46120fb565b34801561094157600080fd5b506102c1600160a060020a0360043516612101565b61096233848484612125565b505050565b600a6020526000908152604090205481565b600e5481565b60175481565b60165481565b600f5481565b60005433600160a060020a039081169116146109ac57600080fd5b6109b884848484612125565b50505050565b600080808080808080600380601b5460ff1660058111156109db57fe5b146109e557600080fd5b6109ed61143e565b6016549099508914610a3d57601654604080518b8152602081019290925280517f04e9f9a05f2b0f7b76cbaeafc40a3136a1870f82f8eff85e766f7eb868a8b9e09281900390910190a160168990555b601654610a486123bb565b1015610a5357600080fd5b610a5b610e3a565b600160a060020a038216600090815260196020526040902054601754929a50909850610a8d919063ffffffff6123bf16565b600160a060020a03881660009081526019602052604081205491975090955093508515610adf57610adc85610ad088670de0b6b3a764000063ffffffff6123d616565b9063ffffffff6123ff16565b93505b600092508991505b600160a060020a033381166000908152601a60209081526040808320938c1683529290522054821015610ccd57600160a060020a033381166000908152601a60209081526040808320938c16835292905220805483908110610b4557fe5b600091825260209091206002600390920201015460ff161515610cc257600160a060020a033381166000908152601a60209081526040808320938c16835292905220805486919084908110610b9657fe5b906000526020600020906003020160010154101515610bb457610ccd565b600160a060020a033381166000908152601a60209081526040808320938c168352929052208054610c6891610c5b91610c13919086908110610bf257fe5b906000526020600020906003020160010154886123bf90919063ffffffff16565b600160a060020a033381166000908152601a60209081526040808320938f16835292905220805486908110610c4457fe5b906000526020600020906003020160000154612414565b849063ffffffff61242c16565b600160a060020a033381166000908152601a60209081526040808320938d16835292905220805491945060019184908110610c9f57fe5b60009182526020909120600390910201600201805460ff19169115159190911790555b600190910190610ae7565b600054600160a060020a031663a9059cbb33610cef868863ffffffff6123d616565b6040518363ffffffff1660e060020a0281526004018083600160a060020a0316600160a060020a0316815260200182815260200192505050602060405180830381600087803b158015610d4157600080fd5b505af1158015610d55573d6000803e3d6000fd5b505050506040513d6020811015610d6b57600080fd5b50511515610d7557fe5b7f9001ab89f4ed649b6c20a790e2bdeebce84d1843d739a56a1f77a4410a200d1833610da7858763ffffffff6123d616565b60408051600160a060020a03909316835260208301919091528051918290030190a150505050505050505050565b60096020526000908152604090205481565b60015481565b60025481565b610dfc33612439565b565b60065481565b610e0f338383612641565b5050565b60005433600160a060020a03908116911614610e2e57600080fd5b610e3781612439565b50565b600080600080600080610e4b61194e565b9350600160a060020a03841615610e63576000610e88565b600780546000908110610e7257fe5b600091825260209091200154600160a060020a03165b600160a060020a03811660009081526019602052604081205491945090925090505b60075460ff82161015610f71576019600060078360ff16815481101515610ecd57fe5b6000918252602080832090910154600160a060020a0316835282019290925260400190205482108015610f2857506007805460ff8316908110610f0c57fe5b600091825260209091200154600160a060020a03858116911614155b15610f69576007805460ff8316908110610f3e57fe5b6000918252602080832090910154600160a060020a0316808352601990915260409091205490935091505b600101610eaa565b509194909350915050565b600080601b5460ff166005811115610f9057fe5b14610f9a57600080fd5b600160a060020a03331660009081526008602052604090205460ff161515610fc157600080fd5b600160a060020a03331660009081526010602052604090205460ff161515610fe857600080fd5b600160a060020a033381166000818152601060209081526040808320805460ff191690558254600a83528184205482517fa9059cbb00000000000000000000000000000000000000000000000000000000815260048101969096526024860152905194169363a9059cbb93604480820194918390030190829087803b15801561107057600080fd5b505af1158015611084573d6000803e3d6000fd5b505050506040513d602081101561109a57600080fd5b505115156110a757600080fd5b600160a060020a0333166000818152600a602090815260409182902054825190815291517ff915f6adcfba53634fa63225573ad1f78d2f842387fe91379c27c14a259537cf9281900390910190a250565b600d60209081526000928352604080842090915290825290205481565b60086020526000908152604090205460ff1681565b600080600180601b5460ff16600581111561114157fe5b1461114b57600080fd5b600160a060020a03331660009081526008602052604090205460ff16151561117257600080fd5b60145460ff16151561118357600080fd5b6014805460ff19169055600092505b60075460ff841610156113f9576013600060078560ff168154811015156111b557fe5b6000918252602080832090910154600160a060020a0316835282019290925260400190205460ff16156113ee5760006013600060078660ff168154811015156111fa57fe5b600091825260208083209190910154600160a060020a031683528201929092526040018120805460ff19169215159290921790915560078054600a92919060ff871690811061124557fe5b6000918252602080832090910154600160a060020a03168352820192909252604001812054600780549192600c9290919060ff881690811061128357fe5b6000918252602080832090910154600160a060020a0316835282019290925260400190205411156113ee57611336600a600060078660ff168154811015156112c757fe5b6000918252602080832090910154600160a060020a03168352820192909252604001812054600780549192600c9290919060ff891690811061130557fe5b6000918252602080832090910154600160a060020a031683528201929092526040019020549063ffffffff6123bf16565b60005460078054929450600160a060020a039091169163a9059cbb919060ff871690811061136057fe5b60009182526020808320909101546040805160e060020a63ffffffff8716028152600160a060020a039092166004830152602482018890525160448083019491928390030190829087803b1580156113b757600080fd5b505af11580156113cb573d6000803e3d6000fd5b505050506040513d60208110156113e157600080fd5b505115156113ee57600080fd5b600190920191611192565b604051600160a060020a033316907fc42ff889a5bf104cb88fddd83f34d59c6162fb4c97c5c075d3e5143b977407d090600090a2505050565b60055481565b60185481565b600080808080600380601b5460ff16600581111561145857fe5b1461146257600080fd5b60165461146d6123bb565b101561147857611663565b61149b670de0b6b3a7640000610ad06005546017546123d690919063ffffffff16565b60185411156114c55760006018556004546016546114be9163ffffffff61242c16565b9550611663565b600080805260196020527fd2ac945fcc0096878c763e37d6929b78378c1a2defabde8ba7ee5ed1d6e7a5b254955093505b60075460ff8516101561158e57846019600060078760ff1681548110151561151a57fe5b6000918252602080832090910154600160a060020a031683528201929092526040019020541115611583576019600060078660ff1681548110151561155b57fe5b6000918252602080832090910154600160a060020a0316835282019290925260400190205494505b6001909301926114f6565b600080805260196020527fd2ac945fcc0096878c763e37d6929b78378c1a2defabde8ba7ee5ed1d6e7a5b2549093508514156115cb578260010192505b600091505b60075460ff8316101561163157846019600060078560ff168154811015156115f457fe5b6000918252602080832090910154600160a060020a031683528201929092526040019020541415611626578260010192505b6001909101906115d0565b60018360ff16111561165d5760006018556004546114be906116516123bb565b9063ffffffff61242c16565b60165495505b505050505090565b60126020526000908152604090205460ff1681565b600054600160a060020a031681565b610e0f338383612982565b60078054829081106116a857fe5b600091825260209091200154600160a060020a0316905081565b60005433600160a060020a039081169116146116dd57600080fd5b610962838383612982565b60116020526000908152604090205460ff1681565b60136020526000908152604090205460ff1681565b60008080600380601b5460ff16600581111561172a57fe5b1461173457600080fd5b600160a060020a03331660009081526008602052604090205460ff16151561175b57600080fd5b60075485511461176a57600080fd5b6015546117756123bb565b1061177f57600080fd5b6000935060009250600091505b60075460ff8316101561189857848260ff168151811015156117aa57fe5b90602001906020020151600d600033600160a060020a0316600160a060020a03168152602001908152602001600020600060078560ff168154811015156117ed57fe5b6000918252602080832090910154600160a060020a03168352820192909252604001902055845161183e90869060ff851690811061182757fe5b60209081029091010151859063ffffffff61242c16565b935061188b600a600060078560ff1681548110151561185957fe5b6000918252602080832090910154600160a060020a03168352820192909252604001902054849063ffffffff61242c16565b925060019091019061178c565b8383146118a457600080fd5b33600160a060020a03167fe98983adb63591508c2f748970470e7487b3bebd763d08abc3334beeb72a00b0866040518080602001828103825283818151815260200191508051906020019060200280838360005b838110156119105781810151838201526020016118f8565b505050509050019250505060405180910390a25050505050565b60196020526000908152604090205481565b60145460ff1681565b610dfc33612cbc565b600080805260196020527fd2ac945fcc0096878c763e37d6929b78378c1a2defabde8ba7ee5ed1d6e7a5b25481805b60075460ff82161015611a3c576019600060078360ff168154811015156119a057fe5b6000918252602080832090910154600160a060020a03168352820192909252604001902054831015611a34576019600060078360ff168154811015156119e257fe5b6000918252602080832090910154600160a060020a03168352820192909252604001902054600780549194509060ff8316908110611a1c57fe5b600091825260209091200154600160a060020a031691505b60010161197d565b5092915050565b600080600180601b5460ff166005811115611a5a57fe5b14611a6457600080fd5b600160a060020a03331660009081526008602052604090205460ff161515611a8b57600080fd5b600160a060020a03331660009081526011602052604090205460ff1615611ab157600080fd5b600160a060020a0333166000908152601160205260408120805460ff19166001908117909155935091505b60075460ff83161015611b3d57828015611b3057506011600060078460ff16815481101515611b0757fe5b6000918252602080832090910154600160a060020a0316835282019290925260400190205460ff165b9250600190910190611adc565b8215611b4d57611b4d6002613210565b604051600160a060020a033316907fcdfedae112bb2610775e69a6ffd348e7dfdd996e3fb3a5f6d46b52651867b49790600090a2505050565b60155481565b600b6020526000908152604090205481565b600080600280601b5460ff166005811115611bb557fe5b14611bbf57600080fd5b600160a060020a03331660009081526008602052604090205460ff161515611be657600080fd5b600160a060020a03331660009081526012602052604090205460ff1615611c0c57600080fd5b600160a060020a033381166000818152601260209081526040808320805460ff191660011790558254600983528184205482517fa9059cbb00000000000000000000000000000000000000000000000000000000815260048101969096526024860152905194169363a9059cbb93604480820194918390030190829087803b158015611c9757600080fd5b505af1158015611cab573d6000803e3d6000fd5b505050506040513d6020811015611cc157600080fd5b50511515611cce57600080fd5b60019250600091505b60075460ff83161015611d7a57828015611d6d57506012600060078460ff16815481101515611d0257fe5b6000918252602080832090910154600160a060020a0316835282019290925260400190205460ff1680611d6d57506009600060078460ff16815481101515611d4657fe5b6000918252602080832090910154600160a060020a03168352820192909252604001902054155b9250600190910190611cd7565b600160a060020a03331660008181526009602090815260409182902054825190815291517f76cc4dd05e1fc280969f3363b5db432911cddfadcfae9bef818a492c0f8d57329281900390910190a28215610962576109626004613210565b600180601b5460ff166005811115611dec57fe5b14611df657600080fd5b600160a060020a03331660009081526008602052604090205460ff161515611e1d57600080fd5b600160a060020a03331660009081526011602052604090205460ff161515611e4457600080fd5b600160a060020a033316600081815260116020526040808220805460ff19169055517f6faffafe1cb6a0bf26e66cc0178734aa9fe07d7c6961884c4a93920423c0bd0e9190a250565b60005433600160a060020a03908116911614611ea857600080fd5b610962838383612641565b60045481565b600c6020526000908152604090205481565b60106020526000908152604090205460ff1681565b601b5460ff1681565b60008080600380601b5460ff166005811115611f0157fe5b14611f0b57600080fd5b600160a060020a03331660009081526008602052604090205460ff161515611f3257600080fd5b611f3a61143e565b6016549094508414611f8a5760165460408051868152602081019290925280517f04e9f9a05f2b0f7b76cbaeafc40a3136a1870f82f8eff85e766f7eb868a8b9e09281900390910190a160168490555b601654611f956123bb565b1015611fa057600080fd5b600160a060020a03331660009081526012602052604090205460ff1615611fc657600080fd5b600160a060020a0333166000908152601260205260409020805460ff19166001179055611ff161194e565b600160a060020a038082166000908152600d6020908152604080832033851680855290835281842054845483517fa9059cbb0000000000000000000000000000000000000000000000000000000081526004810193909352602483018290529251969950975093169363a9059cbb93604480820194918390030190829087803b15801561207d57600080fd5b505af1158015612091573d6000803e3d6000fd5b505050506040513d60208110156120a757600080fd5b505115156120b157fe5b60408051600160a060020a03331681526020810184905281517f529314119e568ebeb046e7fb288642e03aea33279f2f6762afd0e56a74c7aa42929181900390910190a150505050565b60035481565b60005433600160a060020a0390811691161461211c57600080fd5b610e3781612cbc565b60008080600180601b5460ff16600581111561213d57fe5b1461214757600080fd5b600160a060020a038816600090815260086020526040902054889060ff16151561217057600080fd5b60145460ff161561218057600080fd5b6014805460ff1916600117905560075488511480156121a157506007548751145b15156121ac57600080fd5b6000945060009350600092505b60075460ff841610156122c157878360ff168151811015156121d757fe5b90602001906020020151600b600060078660ff168154811015156121f757fe5b6000918252602080832090910154600160a060020a031683528201929092526040019020558651879060ff851690811061222d57fe5b90602001906020020151600c600060078660ff1681548110151561224d57fe5b6000918252602080832090910154600160a060020a03168352820192909252604001902055875161228790899060ff861690811061182757fe5b93506122b4878460ff1681518110151561229d57fe5b60209081029091010151869063ffffffff61242c16565b94506001909201916121b9565b8484146122cd57600080fd5b600f8690556122db89612cbc565b88600160a060020a03167fd33aabc7fc9a1f5861dc19acc754cc8fe8c4400063f1e32d2bf90ac64b628daf8989896040518080602001806020018460001916600019168152602001838103835286818151815260200191508051906020019060200280838360005b8381101561235b578181015183820152602001612343565b50505050905001838103825285818151815260200191508051906020019060200280838360005b8381101561239a578181015183820152602001612382565b505050509050019550505050505060405180910390a2505050505050505050565b4290565b6000828211156123cb57fe5b508082035b92915050565b60008215156123e7575060006123d0565b508181028183828115156123f757fe5b04146123d057fe5b6000818381151561240c57fe5b049392505050565b60008183106124235781612425565b825b9392505050565b818101828110156123d057fe5b6000808080601b5460ff16600581111561244f57fe5b1461245957600080fd5b600160a060020a038416600090815260086020526040902054849060ff16151561248257600080fd5b600160a060020a03851660009081526010602052604090205460ff16156124a857600080fd5b600160a060020a038086166000818152601060209081526040808320805460ff191660011790558254600a83528184205482517f23b872dd00000000000000000000000000000000000000000000000000000000815260048101969096523087166024870152604486015290519416936323b872dd93606480820194918390030190829087803b15801561253b57600080fd5b505af115801561254f573d6000803e3d6000fd5b505050506040513d602081101561256557600080fd5b5051151561257257600080fd5b60019350600092505b60075460ff841610156125dc578380156125cf57506010600060078560ff168154811015156125a657fe5b6000918252602080832090910154600160a060020a0316835282019290925260400190205460ff165b935060019092019161257b565b83156125ec576125ec6001613210565b600160a060020a0385166000818152600a602090815260409182902054825190815291517fa8cc9409769b9614f3ae4056957bfbb32d986e4b61c886b5e29b324b5bf92d0a9281900390910190a25050505050565b6000808080600180601b5460ff16600581111561265a57fe5b1461266457600080fd5b600160a060020a038816600090815260086020526040902054889060ff16151561268d57600080fd5b60075487511461269c57600080fd5b6126a66003613210565b6000955060009450600093505b60075460ff851610156127bf57868460ff168151811015156126d157fe5b90602001906020020151600d60008b600160a060020a0316600160a060020a03168152602001908152602001600020600060078760ff1681548110151561271457fe5b6000918252602080832090910154600160a060020a03168352820192909252604001902055865161276590889060ff871690811061274e57fe5b60209081029091010151879063ffffffff61242c16565b95506127b2600a600060078760ff1681548110151561278057fe5b6000918252602080832090910154600160a060020a03168352820192909252604001902054869063ffffffff61242c16565b94506001909301926126b3565b8585146127cb57600080fd5b6127ec670de0b6b3a7640000610ad0600654886123d690919063ffffffff16565b8810156127f857600080fd5b61280b6128036123bb565b60025461242c565b601581905560015461281d919061242c565b6016556017889055600092505b60075460ff841610156128ed5788600160a060020a031660078460ff1681548110151561285357fe5b600091825260209091200154600160a060020a0316146128e25784600d600060078660ff1681548110151561288457fe5b6000918252602080832090910154600160a060020a0316835282019290925260400181206007805491929160ff88169081106128bc57fe5b6000918252602080832090910154600160a060020a031683528201929092526040019020555b60019092019161282a565b88600160a060020a03167f978fff33bfee4716da21bf89e67d0757d6550d4b6f53676919de1d1d209f5ef0886040518080602001828103825283818151815260200191508051906020019060200280838360005b83811015612959578181015183820152602001612941565b505050509050019250505060405180910390a2612977898a8a612982565b505050505050505050565b600061298c6132a1565b600380601b5460ff1660058111156129a057fe5b146129aa57600080fd5b6129b261143e565b6016549093508314612a025760165460408051858152602081019290925280517f04e9f9a05f2b0f7b76cbaeafc40a3136a1870f82f8eff85e766f7eb868a8b9e09281900390910190a160168390555b601654612a0d6123bb565b10612a1757600080fd5b601554612a226123bb565b101580612a475750600160a060020a03861660009081526008602052604090205460ff165b1515612a5257600080fd5b600160a060020a03851660009081526008602052604090205460ff1680612a805750600160a060020a038516155b1515612a8b57600080fd5b612aae670de0b6b3a7640000610ad06006546017546123d690919063ffffffff16565b841015612aba57600080fd5b60408051606081018252858152600160a060020a038088166000908152601960209081528482205481850152838501829052815485517f23b872dd0000000000000000000000000000000000000000000000000000000081528c851660048201523085166024820152604481018b90529551949750909216936323b872dd936064808301949391928390030190829087803b158015612b5857600080fd5b505af1158015612b6c573d6000803e3d6000fd5b505050506040513d6020811015612b8257600080fd5b50511515612b8f57600080fd5b601654612ba49061070863ffffffff6123bf16565b612bac6123bb565b10612bc857601854612bc4908563ffffffff61242c16565b6018555b601754612bdb908563ffffffff61242c16565b601755600160a060020a038516600090815260196020526040902054612c07908563ffffffff61242c16565b600160a060020a03868116600081815260196020908152604080832095909555928a16808252601a845284822083835284528482208054600180820183559184529285902088516003909402019283558785015190830155868501516002909201805460ff19169215159290921790915583519081529182015280820186905290517f484413c33463e7d976e3ded2a85b0c31610d0906977df2cd9cbd6d12a6872a84916060908290030190a1505050505050565b600080808080600180601b5460ff166005811115612cd657fe5b14612ce057600080fd5b600160a060020a038716600090815260086020526040902054879060ff161515612d0957600080fd5b60145460ff161515612d1a57600080fd5b600160a060020a03881660009081526013602052604090205460ff1615612d4057600080fd5b600160a060020a0388166000908152601360209081526040808320805460ff19166001179055600a825280832054600c909252909120541115612e6357600160a060020a0388166000908152600a6020908152604080832054600c90925290912054612db19163ffffffff6123bf16565b60008054604080517f23b872dd000000000000000000000000000000000000000000000000000000008152600160a060020a038d811660048301523081166024830152604482018690529151949b509116926323b872dd92606480840193602093929083900390910190829087803b158015612e2c57600080fd5b505af1158015612e40573d6000803e3d6000fd5b505050506040513d6020811015612e5657600080fd5b50511515612e6357600080fd5b60019550600094505b60075460ff86161015612ecd57858015612ec057506013600060078760ff16815481101515612e9757fe5b6000918252602080832090910154600160a060020a0316835282019290925260400190205460ff165b9550600190940193612e6c565b604051600160a060020a038916907fa49e1bf6eca68fcbe0f530f9389e60870664cb4b8cd290ade9d0fe3b7c4d9c7590600090a28515613206576014805460ff19169055600093505b60075460ff851610156131ff5760006013600060078760ff16815481101515612f3b57fe5b600091825260208083209190910154600160a060020a031683528201929092526040018120805460ff19169215159290921790915560078054600a92919060ff8816908110612f8657fe5b6000918252602080832090910154600160a060020a03168352820192909252604001812054600780549192600c9290919060ff8916908110612fc457fe5b6000918252602080832090910154600160a060020a0316835282019290925260400190205410156130fe57613046600c600060078760ff1681548110151561300857fe5b6000918252602080832090910154600160a060020a03168352820192909252604001812054600780549192600a9290919060ff8a1690811061130557fe5b60005460078054929550600160a060020a039091169163a9059cbb919060ff881690811061307057fe5b60009182526020808320909101546040805160e060020a63ffffffff8716028152600160a060020a039092166004830152602482018990525160448083019491928390030190829087803b1580156130c757600080fd5b505af11580156130db573d6000803e3d6000fd5b505050506040513d60208110156130f157600080fd5b505115156130fe57600080fd5b600c600060078660ff1681548110151561311457fe5b6000918252602080832090910154600160a060020a03168352820192909252604001812054600780549192600a9290919060ff891690811061315257fe5b6000918252602080832090910154600160a060020a0316835282019290925260400181209190915560078054600b92919060ff881690811061319057fe5b6000918252602080832090910154600160a060020a0316835282019290925260400181205460078054919260099290919060ff89169081106131ce57fe5b6000918252602080832090910154600160a060020a0316835282019290925260400190205560019390930192612f16565b600f54600e555b5050505050505050565b601b547f7a86a836fcb7b1724e95db8cca29b460e17febee51b6f03e272720350340352e9060ff16826132416123bb565b6040518084600581111561325157fe5b60ff16815260200183600581111561326557fe5b60ff168152602001828152602001935050505060405180910390a1601b805482919060ff1916600183600581111561329957fe5b021790555050565b606060405190810160405280600081526020016000815260200160001515815250905600a165627a7a7230582013177076fa040ae8d57e69eb3964ce2da96047c1f1f1fe237305fdcaeacafc1e0029a165627a7a72305820bccbf63ed3bad53d1e69124a4122edbc41dd5a0516c61991ac11e1b5cd2401850029",
  "source": "pragma solidity ^0.4.23;\n\nimport 'openzeppelin-solidity/contracts/token/ERC20/ERC20.sol';\nimport 'openzeppelin-solidity/contracts/math/SafeMath.sol';\nimport 'openzeppelin-solidity/contracts/ownership/Ownable.sol';\nimport './Arbitration.sol';\n\ncontract ArbitrationFactory is Ownable {\n\n  event ArbitrationCreated(address indexed _creator, address _arbitration, address indexed _party1, address indexed _party2, uint256[] _dispersal, uint256[] _funding, bytes32 _agreementHash);\n\n  address public jurToken;\n  address[] public arbirations;\n\n  constructor(address _jurToken) public {\n    jurToken = _jurToken;\n  }\n\n  function createArbitration(address[] _parties, uint256[] _dispersal, uint256[] _funding, bytes32 _agreementHash) public {\n    address newArbitration = new Arbitration(jurToken, _parties, _dispersal, _funding, _agreementHash);\n    arbirations.push(newArbitration);\n    emit ArbitrationCreated(msg.sender, newArbitration, _parties[0], _parties[1], _dispersal, _funding, _agreementHash);\n  }\n\n  function changeToken(address _jurToken) onlyOwner public {\n    jurToken = _jurToken;\n  }\n\n  function generateHash(string _input) pure public returns (bytes32) {\n    return keccak256(_input);\n  }\n\n  function updateTokenAddress(address _jurTokenAddress) public onlyOwner {\n    jurToken = ERC20(_jurTokenAddress);\n  }\n\n}\n",
  "sourcePath": "/Users/adamdossa/Development/Ethereum/mvp-smart-contract/contracts/ArbitrationFactory.sol",
  "compiler": {
    "name": "solc",
    "version": "0.4.23+commit.124ca40d.Emscripten.clang"
  },
  "schemaVersion": "2.0.0",
  "updatedAt": "2018-06-05T14:06:13.658Z"
}