{
  "contractName": "ArbitrationMock",
  "abi": [
    {
      "constant": false,
      "inputs": [
        {
          "name": "_dispersal",
          "type": "uint256[]"
        },
        {
          "name": "_funding",
          "type": "uint256[]"
        },
        {
          "name": "_agreementHash",
          "type": "bytes32"
        }
      ],
      "name": "proposeAmendment",
      "outputs": [],
      "payable": false,
      "stateMutability": "nonpayable",
      "type": "function"
    },
    {
      "constant": true,
      "inputs": [
        {
          "name": "",
          "type": "address"
        }
      ],
      "name": "funding",
      "outputs": [
        {
          "name": "",
          "type": "uint256"
        }
      ],
      "payable": false,
      "stateMutability": "view",
      "type": "function"
    },
    {
      "constant": true,
      "inputs": [],
      "name": "agreementHash",
      "outputs": [
        {
          "name": "",
          "type": "bytes32"
        }
      ],
      "payable": false,
      "stateMutability": "view",
      "type": "function"
    },
    {
      "constant": true,
      "inputs": [],
      "name": "totalVotes",
      "outputs": [
        {
          "name": "",
          "type": "uint256"
        }
      ],
      "payable": false,
      "stateMutability": "view",
      "type": "function"
    },
    {
      "constant": true,
      "inputs": [],
      "name": "disputeEnds",
      "outputs": [
        {
          "name": "",
          "type": "uint256"
        }
      ],
      "payable": false,
      "stateMutability": "view",
      "type": "function"
    },
    {
      "constant": true,
      "inputs": [],
      "name": "amendedAgreementHash",
      "outputs": [
        {
          "name": "",
          "type": "bytes32"
        }
      ],
      "payable": false,
      "stateMutability": "view",
      "type": "function"
    },
    {
      "constant": false,
      "inputs": [
        {
          "name": "_sender",
          "type": "address"
        },
        {
          "name": "_dispersal",
          "type": "uint256[]"
        },
        {
          "name": "_funding",
          "type": "uint256[]"
        },
        {
          "name": "_agreementHash",
          "type": "bytes32"
        }
      ],
      "name": "proposeAmendmentJUR",
      "outputs": [],
      "payable": false,
      "stateMutability": "nonpayable",
      "type": "function"
    },
    {
      "constant": false,
      "inputs": [
        {
          "name": "_start",
          "type": "uint256"
        }
      ],
      "name": "payoutVoter",
      "outputs": [],
      "payable": false,
      "stateMutability": "nonpayable",
      "type": "function"
    },
    {
      "constant": true,
      "inputs": [
        {
          "name": "",
          "type": "address"
        }
      ],
      "name": "dispersal",
      "outputs": [
        {
          "name": "",
          "type": "uint256"
        }
      ],
      "payable": false,
      "stateMutability": "view",
      "type": "function"
    },
    {
      "constant": true,
      "inputs": [],
      "name": "DISPUTE_VOTE_DURATION",
      "outputs": [
        {
          "name": "",
          "type": "uint256"
        }
      ],
      "payable": false,
      "stateMutability": "view",
      "type": "function"
    },
    {
      "constant": true,
      "inputs": [],
      "name": "DISPUTE_DISPERSAL_DURATION",
      "outputs": [
        {
          "name": "",
          "type": "uint256"
        }
      ],
      "payable": false,
      "stateMutability": "view",
      "type": "function"
    },
    {
      "constant": false,
      "inputs": [],
      "name": "sign",
      "outputs": [],
      "payable": false,
      "stateMutability": "nonpayable",
      "type": "function"
    },
    {
      "constant": true,
      "inputs": [],
      "name": "MIN_VOTE",
      "outputs": [
        {
          "name": "",
          "type": "uint256"
        }
      ],
      "payable": false,
      "stateMutability": "view",
      "type": "function"
    },
    {
      "constant": false,
      "inputs": [
        {
          "name": "_voteAmount",
          "type": "uint256"
        },
        {
          "name": "_dispersal",
          "type": "uint256[]"
        }
      ],
      "name": "dispute",
      "outputs": [],
      "payable": false,
      "stateMutability": "nonpayable",
      "type": "function"
    },
    {
      "constant": false,
      "inputs": [
        {
          "name": "_sender",
          "type": "address"
        }
      ],
      "name": "signJUR",
      "outputs": [],
      "payable": false,
      "stateMutability": "nonpayable",
      "type": "function"
    },
    {
      "constant": true,
      "inputs": [],
      "name": "getWinnerAndBestMinorty",
      "outputs": [
        {
          "name": "",
          "type": "address"
        },
        {
          "name": "",
          "type": "address"
        }
      ],
      "payable": false,
      "stateMutability": "view",
      "type": "function"
    },
    {
      "constant": false,
      "inputs": [],
      "name": "unsign",
      "outputs": [],
      "payable": false,
      "stateMutability": "nonpayable",
      "type": "function"
    },
    {
      "constant": true,
      "inputs": [
        {
          "name": "",
          "type": "address"
        },
        {
          "name": "",
          "type": "address"
        }
      ],
      "name": "disputeDispersal",
      "outputs": [
        {
          "name": "",
          "type": "uint256"
        }
      ],
      "payable": false,
      "stateMutability": "view",
      "type": "function"
    },
    {
      "constant": true,
      "inputs": [
        {
          "name": "",
          "type": "address"
        }
      ],
      "name": "parties",
      "outputs": [
        {
          "name": "",
          "type": "bool"
        }
      ],
      "payable": false,
      "stateMutability": "view",
      "type": "function"
    },
    {
      "constant": false,
      "inputs": [],
      "name": "unagreeAmendment",
      "outputs": [],
      "payable": false,
      "stateMutability": "nonpayable",
      "type": "function"
    },
    {
      "constant": true,
      "inputs": [],
      "name": "DISPUTE_WINDOW_MAX",
      "outputs": [
        {
          "name": "",
          "type": "uint256"
        }
      ],
      "payable": false,
      "stateMutability": "view",
      "type": "function"
    },
    {
      "constant": true,
      "inputs": [],
      "name": "disputeWindowVotes",
      "outputs": [
        {
          "name": "",
          "type": "uint256"
        }
      ],
      "payable": false,
      "stateMutability": "view",
      "type": "function"
    },
    {
      "constant": true,
      "inputs": [],
      "name": "calcDisputeEnds",
      "outputs": [
        {
          "name": "",
          "type": "uint256"
        }
      ],
      "payable": false,
      "stateMutability": "view",
      "type": "function"
    },
    {
      "constant": true,
      "inputs": [
        {
          "name": "",
          "type": "address"
        }
      ],
      "name": "hasWithdrawn",
      "outputs": [
        {
          "name": "",
          "type": "bool"
        }
      ],
      "payable": false,
      "stateMutability": "view",
      "type": "function"
    },
    {
      "constant": true,
      "inputs": [],
      "name": "jurToken",
      "outputs": [
        {
          "name": "",
          "type": "address"
        }
      ],
      "payable": false,
      "stateMutability": "view",
      "type": "function"
    },
    {
      "constant": false,
      "inputs": [
        {
          "name": "_voteAddress",
          "type": "address"
        },
        {
          "name": "_voteAmount",
          "type": "uint256"
        }
      ],
      "name": "vote",
      "outputs": [],
      "payable": false,
      "stateMutability": "nonpayable",
      "type": "function"
    },
    {
      "constant": true,
      "inputs": [
        {
          "name": "",
          "type": "uint256"
        }
      ],
      "name": "allParties",
      "outputs": [
        {
          "name": "",
          "type": "address"
        }
      ],
      "payable": false,
      "stateMutability": "view",
      "type": "function"
    },
    {
      "constant": false,
      "inputs": [
        {
          "name": "_sender",
          "type": "address"
        },
        {
          "name": "_voteAddress",
          "type": "address"
        },
        {
          "name": "_voteAmount",
          "type": "uint256"
        }
      ],
      "name": "voteJUR",
      "outputs": [],
      "payable": false,
      "stateMutability": "nonpayable",
      "type": "function"
    },
    {
      "constant": true,
      "inputs": [
        {
          "name": "",
          "type": "address"
        }
      ],
      "name": "hasAgreed",
      "outputs": [
        {
          "name": "",
          "type": "bool"
        }
      ],
      "payable": false,
      "stateMutability": "view",
      "type": "function"
    },
    {
      "constant": true,
      "inputs": [
        {
          "name": "",
          "type": "address"
        }
      ],
      "name": "hasFundedAmendment",
      "outputs": [
        {
          "name": "",
          "type": "bool"
        }
      ],
      "payable": false,
      "stateMutability": "view",
      "type": "function"
    },
    {
      "constant": false,
      "inputs": [
        {
          "name": "_dispersal",
          "type": "uint256[]"
        }
      ],
      "name": "amendDisputeDispersal",
      "outputs": [],
      "payable": false,
      "stateMutability": "nonpayable",
      "type": "function"
    },
    {
      "constant": true,
      "inputs": [
        {
          "name": "",
          "type": "address"
        }
      ],
      "name": "partyVotes",
      "outputs": [
        {
          "name": "",
          "type": "uint256"
        }
      ],
      "payable": false,
      "stateMutability": "view",
      "type": "function"
    },
    {
      "constant": true,
      "inputs": [],
      "name": "amendmentProposed",
      "outputs": [
        {
          "name": "",
          "type": "bool"
        }
      ],
      "payable": false,
      "stateMutability": "view",
      "type": "function"
    },
    {
      "constant": false,
      "inputs": [],
      "name": "agreeAmendment",
      "outputs": [],
      "payable": false,
      "stateMutability": "nonpayable",
      "type": "function"
    },
    {
      "constant": true,
      "inputs": [],
      "name": "getWinner",
      "outputs": [
        {
          "name": "",
          "type": "address"
        }
      ],
      "payable": false,
      "stateMutability": "view",
      "type": "function"
    },
    {
      "constant": false,
      "inputs": [],
      "name": "agree",
      "outputs": [],
      "payable": false,
      "stateMutability": "nonpayable",
      "type": "function"
    },
    {
      "constant": true,
      "inputs": [],
      "name": "disputeStarts",
      "outputs": [
        {
          "name": "",
          "type": "uint256"
        }
      ],
      "payable": false,
      "stateMutability": "view",
      "type": "function"
    },
    {
      "constant": true,
      "inputs": [
        {
          "name": "",
          "type": "address"
        }
      ],
      "name": "amendedDispersal",
      "outputs": [
        {
          "name": "",
          "type": "uint256"
        }
      ],
      "payable": false,
      "stateMutability": "view",
      "type": "function"
    },
    {
      "constant": false,
      "inputs": [],
      "name": "withdrawDispersal",
      "outputs": [],
      "payable": false,
      "stateMutability": "nonpayable",
      "type": "function"
    },
    {
      "constant": false,
      "inputs": [],
      "name": "unagree",
      "outputs": [],
      "payable": false,
      "stateMutability": "nonpayable",
      "type": "function"
    },
    {
      "constant": false,
      "inputs": [
        {
          "name": "_sender",
          "type": "address"
        },
        {
          "name": "_voteAmount",
          "type": "uint256"
        },
        {
          "name": "_dispersal",
          "type": "uint256[]"
        }
      ],
      "name": "disputeJUR",
      "outputs": [],
      "payable": false,
      "stateMutability": "nonpayable",
      "type": "function"
    },
    {
      "constant": true,
      "inputs": [],
      "name": "DISPUTE_EXTENSION",
      "outputs": [
        {
          "name": "",
          "type": "uint256"
        }
      ],
      "payable": false,
      "stateMutability": "view",
      "type": "function"
    },
    {
      "constant": true,
      "inputs": [
        {
          "name": "",
          "type": "address"
        }
      ],
      "name": "amendedFunding",
      "outputs": [
        {
          "name": "",
          "type": "uint256"
        }
      ],
      "payable": false,
      "stateMutability": "view",
      "type": "function"
    },
    {
      "constant": true,
      "inputs": [
        {
          "name": "",
          "type": "address"
        }
      ],
      "name": "hasSigned",
      "outputs": [
        {
          "name": "",
          "type": "bool"
        }
      ],
      "payable": false,
      "stateMutability": "view",
      "type": "function"
    },
    {
      "constant": true,
      "inputs": [],
      "name": "state",
      "outputs": [
        {
          "name": "",
          "type": "uint8"
        }
      ],
      "payable": false,
      "stateMutability": "view",
      "type": "function"
    },
    {
      "constant": false,
      "inputs": [],
      "name": "payoutParty",
      "outputs": [],
      "payable": false,
      "stateMutability": "nonpayable",
      "type": "function"
    },
    {
      "constant": true,
      "inputs": [],
      "name": "DISPUTE_WINDOW",
      "outputs": [
        {
          "name": "",
          "type": "uint256"
        }
      ],
      "payable": false,
      "stateMutability": "view",
      "type": "function"
    },
    {
      "constant": false,
      "inputs": [
        {
          "name": "_sender",
          "type": "address"
        }
      ],
      "name": "agreeAmendmentJUR",
      "outputs": [],
      "payable": false,
      "stateMutability": "nonpayable",
      "type": "function"
    },
    {
      "inputs": [
        {
          "name": "_jurToken",
          "type": "address"
        },
        {
          "name": "_parties",
          "type": "address[]"
        },
        {
          "name": "_dispersal",
          "type": "uint256[]"
        },
        {
          "name": "_funding",
          "type": "uint256[]"
        },
        {
          "name": "_agreementHash",
          "type": "bytes32"
        }
      ],
      "payable": false,
      "stateMutability": "nonpayable",
      "type": "constructor"
    },
    {
      "anonymous": false,
      "inputs": [
        {
          "indexed": false,
          "name": "_blockNumber",
          "type": "uint256"
        }
      ],
      "name": "MockBlockNumber",
      "type": "event"
    },
    {
      "anonymous": false,
      "inputs": [
        {
          "indexed": false,
          "name": "_mockedNow",
          "type": "uint256"
        }
      ],
      "name": "MockNow",
      "type": "event"
    },
    {
      "anonymous": false,
      "inputs": [
        {
          "indexed": false,
          "name": "_oldState",
          "type": "uint8"
        },
        {
          "indexed": false,
          "name": "_newState",
          "type": "uint8"
        },
        {
          "indexed": false,
          "name": "_timestamp",
          "type": "uint256"
        }
      ],
      "name": "StateChange",
      "type": "event"
    },
    {
      "anonymous": false,
      "inputs": [
        {
          "indexed": true,
          "name": "_party1",
          "type": "address"
        },
        {
          "indexed": true,
          "name": "_party2",
          "type": "address"
        },
        {
          "indexed": false,
          "name": "_dispersal",
          "type": "uint256[]"
        },
        {
          "indexed": false,
          "name": "_funding",
          "type": "uint256[]"
        },
        {
          "indexed": false,
          "name": "_agreementHash",
          "type": "bytes32"
        }
      ],
      "name": "ContractCreated",
      "type": "event"
    },
    {
      "anonymous": false,
      "inputs": [
        {
          "indexed": true,
          "name": "_party",
          "type": "address"
        },
        {
          "indexed": false,
          "name": "_funding",
          "type": "uint256"
        }
      ],
      "name": "ContractSigned",
      "type": "event"
    },
    {
      "anonymous": false,
      "inputs": [
        {
          "indexed": true,
          "name": "_party",
          "type": "address"
        },
        {
          "indexed": false,
          "name": "_funding",
          "type": "uint256"
        }
      ],
      "name": "ContractUnsigned",
      "type": "event"
    },
    {
      "anonymous": false,
      "inputs": [
        {
          "indexed": true,
          "name": "_party",
          "type": "address"
        }
      ],
      "name": "ContractAgreed",
      "type": "event"
    },
    {
      "anonymous": false,
      "inputs": [
        {
          "indexed": true,
          "name": "_party",
          "type": "address"
        }
      ],
      "name": "ContractUnagreed",
      "type": "event"
    },
    {
      "anonymous": false,
      "inputs": [
        {
          "indexed": true,
          "name": "_party",
          "type": "address"
        },
        {
          "indexed": false,
          "name": "_dispersal",
          "type": "uint256[]"
        },
        {
          "indexed": false,
          "name": "_funding",
          "type": "uint256[]"
        },
        {
          "indexed": false,
          "name": "_agreementHash",
          "type": "bytes32"
        }
      ],
      "name": "ContractAmendmentProposed",
      "type": "event"
    },
    {
      "anonymous": false,
      "inputs": [
        {
          "indexed": true,
          "name": "_party",
          "type": "address"
        }
      ],
      "name": "ContractAmendmentAgreed",
      "type": "event"
    },
    {
      "anonymous": false,
      "inputs": [
        {
          "indexed": true,
          "name": "_party",
          "type": "address"
        }
      ],
      "name": "ContractAmendmentUnagreed",
      "type": "event"
    },
    {
      "anonymous": false,
      "inputs": [
        {
          "indexed": true,
          "name": "_party",
          "type": "address"
        },
        {
          "indexed": false,
          "name": "_dispersal",
          "type": "uint256"
        }
      ],
      "name": "ContractWithdrawn",
      "type": "event"
    },
    {
      "anonymous": false,
      "inputs": [
        {
          "indexed": true,
          "name": "_party",
          "type": "address"
        },
        {
          "indexed": false,
          "name": "_dispersal",
          "type": "uint256[]"
        }
      ],
      "name": "ContractDisputed",
      "type": "event"
    },
    {
      "anonymous": false,
      "inputs": [
        {
          "indexed": true,
          "name": "_party",
          "type": "address"
        },
        {
          "indexed": false,
          "name": "_dispersal",
          "type": "uint256[]"
        }
      ],
      "name": "ContractDisputeDispersalAmended",
      "type": "event"
    },
    {
      "anonymous": false,
      "inputs": [
        {
          "indexed": false,
          "name": "_oldDisputeEnds",
          "type": "uint256"
        },
        {
          "indexed": false,
          "name": "_newDisputeEnds",
          "type": "uint256"
        }
      ],
      "name": "DisputeEndsAdjusted",
      "type": "event"
    },
    {
      "anonymous": false,
      "inputs": [
        {
          "indexed": false,
          "name": "_voter",
          "type": "address"
        },
        {
          "indexed": false,
          "name": "_party",
          "type": "address"
        },
        {
          "indexed": false,
          "name": "_amount",
          "type": "uint256"
        }
      ],
      "name": "VoteCast",
      "type": "event"
    },
    {
      "anonymous": false,
      "inputs": [
        {
          "indexed": false,
          "name": "_voter",
          "type": "address"
        },
        {
          "indexed": false,
          "name": "_tokenAmount",
          "type": "uint256"
        }
      ],
      "name": "VoterPayout",
      "type": "event"
    },
    {
      "anonymous": false,
      "inputs": [
        {
          "indexed": false,
          "name": "_party",
          "type": "address"
        },
        {
          "indexed": false,
          "name": "_tokenAmount",
          "type": "uint256"
        }
      ],
      "name": "PartyPayout",
      "type": "event"
    },
    {
      "constant": false,
      "inputs": [
        {
          "name": "_blockNumber",
          "type": "uint256"
        }
      ],
      "name": "setMockedBlockNumber",
      "outputs": [],
      "payable": false,
      "stateMutability": "nonpayable",
      "type": "function"
    },
    {
      "constant": false,
      "inputs": [
        {
          "name": "_mockedNow",
          "type": "uint256"
        }
      ],
      "name": "setMockedNow",
      "outputs": [],
      "payable": false,
      "stateMutability": "nonpayable",
      "type": "function"
    }
  ],
  "bytecode": "0x608060405262093a806001556201518060025561070860035561070860045566b1a2bc2ec50000600555662386f26fc100006006556000601b60006101000a81548160ff021916908360058111156200005457fe5b02179055506000601c556000601d553480156200007057600080fd5b506040516200616d3803806200616d83398101806040528101908080519060200190929190805182019291906020018051820192919060200180518201929190602001805190602001909291905050508484848484600080600060028651148015620000dd575060028551145b8015620000eb575060028751145b1515620000f757600080fd5b60008760008151811015156200010957fe5b9060200190602002015173ffffffffffffffffffffffffffffffffffffffff161415801562000168575060008760018151811015156200014557fe5b9060200190602002015173ffffffffffffffffffffffffffffffffffffffff1614155b15156200017457600080fd5b6000925060009150600090505b86518160ff1610156200038357600160086000898460ff16815181101515620001a657fe5b9060200190602002015173ffffffffffffffffffffffffffffffffffffffff1673ffffffffffffffffffffffffffffffffffffffff16815260200190815260200160002060006101000a81548160ff021916908315150217905550858160ff168151811015156200021357fe5b9060200190602002015160096000898460ff168151811015156200023357fe5b9060200190602002015173ffffffffffffffffffffffffffffffffffffffff1673ffffffffffffffffffffffffffffffffffffffff16815260200190815260200160002081905550848160ff168151811015156200028d57fe5b90602001906020020151600a6000898460ff16815181101515620002ad57fe5b9060200190602002015173ffffffffffffffffffffffffffffffffffffffff1673ffffffffffffffffffffffffffffffffffffffff1681526020019081526020016000208190555062000333868260ff168151811015156200030b57fe5b90602001906020020151836200053e6401000000000262003ff1179091906401000000009004565b915062000373858260ff168151811015156200034b57fe5b90602001906020020151846200053e6401000000000262003ff1179091906401000000009004565b9250808060010191505062000181565b81831415156200039257600080fd5b8660079080519060200190620003aa9291906200055b565b5083600e8160001916905550876000806101000a81548173ffffffffffffffffffffffffffffffffffffffff021916908373ffffffffffffffffffffffffffffffffffffffff1602179055508660018151811015156200040657fe5b9060200190602002015173ffffffffffffffffffffffffffffffffffffffff168760008151811015156200043657fe5b9060200190602002015173ffffffffffffffffffffffffffffffffffffffff167f18a9c4249303b74ecff5e58f4dcc486cd7de84cd3feec18d74f4c9216963fb9e8888886040518080602001806020018460001916600019168152602001838103835286818151815260200191508051906020019060200280838360005b83811015620004d1578082015181840152602081019050620004b4565b50505050905001838103825285818151815260200191508051906020019060200280838360005b8381101562000515578082015181840152602081019050620004f8565b505050509050019550505050505060405180910390a35050505050505050505050505062000630565b600081830190508281101515156200055257fe5b80905092915050565b828054828255906000526020600020908101928215620005d7579160200282015b82811115620005d65782518260006101000a81548173ffffffffffffffffffffffffffffffffffffffff021916908373ffffffffffffffffffffffffffffffffffffffff160217905550916020019190600101906200057c565b5b509050620005e69190620005ea565b5090565b6200062d91905b808211156200062957600081816101000a81549073ffffffffffffffffffffffffffffffffffffffff021916905550600101620005f1565b5090565b90565b615b2d80620006406000396000f30060806040526004361061025c576000357c0100000000000000000000000000000000000000000000000000000000900463ffffffff16806302edcbfb14610261578063049f2d8a146103185780630ab55d0b1461036f5780630d15fd77146103a257806312feb4a7146103cd578063188c0e43146103f85780631ff2e2141461042b57806321979f5f1461050257806325ce690b1461052f5780632731c6c6146105865780632a50b544146105b15780632ca15122146105dc5780632efab6fa146105f35780632f36cacf1461061e57806337c2afda1461068e5780633ad17f6d146106d157806341e60c861461075b57806344633297146107725780634f235207146107e95780634f802f8a1461084457806352e18f331461085b5780635a9e17a7146108865780635cfe585a146108b15780635e2c19db146108dc5780635f068b43146109375780635f74bbde1461098e57806360d50596146109db57806364a8a11f14610a48578063682644fd14610ab557806368e664bd14610b105780636eae555d14610b6b57806374e6cfd314610bd15780638b90dc9414610c285780638bfb85c314610c575780638e7ea5b214610c6e5780638fae60a514610cc5578063911058df14610cdc578063918c937314610d09578063994d406014610d345780639cff621a14610d8b578063a7e92fb514610da2578063adef40db14610db9578063b40b784114610e49578063b7c1ae8114610e74578063bf6a141314610ecb578063c0c6a68a14610f26578063c19d93fb14610f53578063d5e03fc614610f8c578063f585dc5714610fa3578063fc76317614610fce575b600080fd5b34801561026d57600080fd5b5061031660048036038101908080359060200190820180359060200190808060200260200160405190810160405280939291908181526020018383602002808284378201915050505050509192919290803590602001908201803590602001908080602002602001604051908101604052809392919081815260200183836020028082843782019150505050505091929192908035600019169060200190929190505050611011565b005b34801561032457600080fd5b50610359600480360381019080803573ffffffffffffffffffffffffffffffffffffffff169060200190929190505050611022565b6040518082815260200191505060405180910390f35b34801561037b57600080fd5b5061038461103a565b60405180826000191660001916815260200191505060405180910390f35b3480156103ae57600080fd5b506103b7611040565b6040518082815260200191505060405180910390f35b3480156103d957600080fd5b506103e2611046565b6040518082815260200191505060405180910390f35b34801561040457600080fd5b5061040d61104c565b60405180826000191660001916815260200191505060405180910390f35b34801561043757600080fd5b50610500600480360381019080803573ffffffffffffffffffffffffffffffffffffffff16906020019092919080359060200190820180359060200190808060200260200160405190810160405280939291908181526020018383602002808284378201915050505050509192919290803590602001908201803590602001908080602002602001604051908101604052809392919081815260200183836020028082843782019150505050505091929192908035600019169060200190929190505050611052565b005b34801561050e57600080fd5b5061052d600480360381019080803590602001909291905050506110bf565b005b34801561053b57600080fd5b50610570600480360381019080803573ffffffffffffffffffffffffffffffffffffffff169060200190929190505050611808565b6040518082815260200191505060405180910390f35b34801561059257600080fd5b5061059b611820565b6040518082815260200191505060405180910390f35b3480156105bd57600080fd5b506105c6611826565b6040518082815260200191505060405180910390f35b3480156105e857600080fd5b506105f161182c565b005b3480156105ff57600080fd5b50610608611837565b6040518082815260200191505060405180910390f35b34801561062a57600080fd5b5061068c600480360381019080803590602001909291908035906020019082018035906020019080806020026020016040519081016040528093929190818152602001838360200280828437820191505050505050919291929050505061183d565b005b34801561069a57600080fd5b506106cf600480360381019080803573ffffffffffffffffffffffffffffffffffffffff16906020019092919050505061184c565b005b3480156106dd57600080fd5b506106e66118b3565b604051808373ffffffffffffffffffffffffffffffffffffffff1673ffffffffffffffffffffffffffffffffffffffff1681526020018273ffffffffffffffffffffffffffffffffffffffff1673ffffffffffffffffffffffffffffffffffffffff1681526020019250505060405180910390f35b34801561076757600080fd5b50610770611b2a565b005b34801561077e57600080fd5b506107d3600480360381019080803573ffffffffffffffffffffffffffffffffffffffff169060200190929190803573ffffffffffffffffffffffffffffffffffffffff169060200190929190505050611e40565b6040518082815260200191505060405180910390f35b3480156107f557600080fd5b5061082a600480360381019080803573ffffffffffffffffffffffffffffffffffffffff169060200190929190505050611e65565b604051808215151515815260200191505060405180910390f35b34801561085057600080fd5b50610859611e85565b005b34801561086757600080fd5b50610870612428565b6040518082815260200191505060405180910390f35b34801561089257600080fd5b5061089b61242e565b6040518082815260200191505060405180910390f35b3480156108bd57600080fd5b506108c6612434565b6040518082815260200191505060405180910390f35b3480156108e857600080fd5b5061091d600480360381019080803573ffffffffffffffffffffffffffffffffffffffff169060200190929190505050612790565b604051808215151515815260200191505060405180910390f35b34801561094357600080fd5b5061094c6127b0565b604051808273ffffffffffffffffffffffffffffffffffffffff1673ffffffffffffffffffffffffffffffffffffffff16815260200191505060405180910390f35b34801561099a57600080fd5b506109d9600480360381019080803573ffffffffffffffffffffffffffffffffffffffff169060200190929190803590602001909291905050506127d5565b005b3480156109e757600080fd5b50610a06600480360381019080803590602001909291905050506127e4565b604051808273ffffffffffffffffffffffffffffffffffffffff1673ffffffffffffffffffffffffffffffffffffffff16815260200191505060405180910390f35b348015610a5457600080fd5b50610ab3600480360381019080803573ffffffffffffffffffffffffffffffffffffffff169060200190929190803573ffffffffffffffffffffffffffffffffffffffff16906020019092919080359060200190929190505050612822565b005b348015610ac157600080fd5b50610af6600480360381019080803573ffffffffffffffffffffffffffffffffffffffff16906020019092919050505061288d565b604051808215151515815260200191505060405180910390f35b348015610b1c57600080fd5b50610b51600480360381019080803573ffffffffffffffffffffffffffffffffffffffff1690602001909291905050506128ad565b604051808215151515815260200191505060405180910390f35b348015610b7757600080fd5b50610bcf600480360381019080803590602001908201803590602001908080602002602001604051908101604052809392919081815260200183836020028082843782019150505050505091929192905050506128cd565b005b348015610bdd57600080fd5b50610c12600480360381019080803573ffffffffffffffffffffffffffffffffffffffff169060200190929190505050612bee565b6040518082815260200191505060405180910390f35b348015610c3457600080fd5b50610c3d612c06565b604051808215151515815260200191505060405180910390f35b348015610c6357600080fd5b50610c6c612c19565b005b348015610c7a57600080fd5b50610c83612c24565b604051808273ffffffffffffffffffffffffffffffffffffffff1673ffffffffffffffffffffffffffffffffffffffff16815260200191505060405180910390f35b348015610cd157600080fd5b50610cda612ddc565b005b348015610ce857600080fd5b50610d0760048036038101908080359060200190929190505050613030565b005b348015610d1557600080fd5b50610d1e613073565b6040518082815260200191505060405180910390f35b348015610d4057600080fd5b50610d75600480360381019080803573ffffffffffffffffffffffffffffffffffffffff169060200190929190505050613079565b6040518082815260200191505060405180910390f35b348015610d9757600080fd5b50610da0613091565b005b348015610dae57600080fd5b50610db76134fe565b005b348015610dc557600080fd5b50610e47600480360381019080803573ffffffffffffffffffffffffffffffffffffffff1690602001909291908035906020019092919080359060200190820180359060200190808060200260200160405190810160405280939291908181526020018383602002808284378201915050505050509192919290505050613681565b005b348015610e5557600080fd5b50610e5e6136ec565b6040518082815260200191505060405180910390f35b348015610e8057600080fd5b50610eb5600480360381019080803573ffffffffffffffffffffffffffffffffffffffff1690602001909291905050506136f2565b6040518082815260200191505060405180910390f35b348015610ed757600080fd5b50610f0c600480360381019080803573ffffffffffffffffffffffffffffffffffffffff16906020019092919050505061370a565b604051808215151515815260200191505060405180910390f35b348015610f3257600080fd5b50610f516004803603810190808035906020019092919050505061372a565b005b348015610f5f57600080fd5b50610f6861376d565b60405180826005811115610f7857fe5b60ff16815260200191505060405180910390f35b348015610f9857600080fd5b50610fa1613780565b005b348015610faf57600080fd5b50610fb8613b3a565b6040518082815260200191505060405180910390f35b348015610fda57600080fd5b5061100f600480360381019080803573ffffffffffffffffffffffffffffffffffffffff169060200190929190505050613b40565b005b61101d33848484613ba7565b505050565b600a6020528060005260406000206000915090505481565b600e5481565b60175481565b60165481565b600f5481565b6000809054906101000a900473ffffffffffffffffffffffffffffffffffffffff1673ffffffffffffffffffffffffffffffffffffffff163373ffffffffffffffffffffffffffffffffffffffff161415156110ad57600080fd5b6110b984848484613ba7565b50505050565b60008060008060008060008060038060058111156110d957fe5b601b60009054906101000a900460ff1660058111156110f457fe5b14151561110057600080fd5b611108612434565b98506016548914151561115e577f04e9f9a05f2b0f7b76cbaeafc40a3136a1870f82f8eff85e766f7eb868a8b9e089601654604051808381526020018281526020019250505060405180910390a1886016819055505b601654611169613f67565b1015151561117657600080fd5b61117e6118b3565b80985081995050506111da601960008a73ffffffffffffffffffffffffffffffffffffffff1673ffffffffffffffffffffffffffffffffffffffff16815260200190815260200160002054601754613f7190919063ffffffff16565b9550601960008873ffffffffffffffffffffffffffffffffffffffff1673ffffffffffffffffffffffffffffffffffffffff1681526020019081526020016000205494506000935060008614151561125c576112598561124b670de0b6b3a764000089613f8a90919063ffffffff16565b613fc290919063ffffffff16565b93505b600092508991505b601a60003373ffffffffffffffffffffffffffffffffffffffff1673ffffffffffffffffffffffffffffffffffffffff16815260200190815260200160002060008973ffffffffffffffffffffffffffffffffffffffff1673ffffffffffffffffffffffffffffffffffffffff1681526020019081526020016000208054905082101561166657601a60003373ffffffffffffffffffffffffffffffffffffffff1673ffffffffffffffffffffffffffffffffffffffff16815260200190815260200160002060008973ffffffffffffffffffffffffffffffffffffffff1673ffffffffffffffffffffffffffffffffffffffff1681526020019081526020016000208281548110151561137457fe5b906000526020600020906003020160020160009054906101000a900460ff1615156116595784601a60003373ffffffffffffffffffffffffffffffffffffffff1673ffffffffffffffffffffffffffffffffffffffff16815260200190815260200160002060008a73ffffffffffffffffffffffffffffffffffffffff1673ffffffffffffffffffffffffffffffffffffffff1681526020019081526020016000208381548110151561142357fe5b90600052602060002090600302016001015410151561144157611666565b6115a36115946114f4601a60003373ffffffffffffffffffffffffffffffffffffffff1673ffffffffffffffffffffffffffffffffffffffff16815260200190815260200160002060008c73ffffffffffffffffffffffffffffffffffffffff1673ffffffffffffffffffffffffffffffffffffffff168152602001908152602001600020858154811015156114d357fe5b90600052602060002090600302016001015488613f7190919063ffffffff16565b601a60003373ffffffffffffffffffffffffffffffffffffffff1673ffffffffffffffffffffffffffffffffffffffff16815260200190815260200160002060008c73ffffffffffffffffffffffffffffffffffffffff1673ffffffffffffffffffffffffffffffffffffffff1681526020019081526020016000208581548110151561157d57fe5b906000526020600020906003020160000154613fd8565b84613ff190919063ffffffff16565b92506001601a60003373ffffffffffffffffffffffffffffffffffffffff1673ffffffffffffffffffffffffffffffffffffffff16815260200190815260200160002060008a73ffffffffffffffffffffffffffffffffffffffff1673ffffffffffffffffffffffffffffffffffffffff1681526020019081526020016000208381548110151561163057fe5b906000526020600020906003020160020160006101000a81548160ff0219169083151502179055505b8180600101925050611264565b6000809054906101000a900473ffffffffffffffffffffffffffffffffffffffff1673ffffffffffffffffffffffffffffffffffffffff1663a9059cbb336116b78787613f8a90919063ffffffff16565b6040518363ffffffff167c0100000000000000000000000000000000000000000000000000000000028152600401808373ffffffffffffffffffffffffffffffffffffffff1673ffffffffffffffffffffffffffffffffffffffff16815260200182815260200192505050602060405180830381600087803b15801561173c57600080fd5b505af1158015611750573d6000803e3d6000fd5b505050506040513d602081101561176657600080fd5b8101908080519060200190929190505050151561177f57fe5b7f9001ab89f4ed649b6c20a790e2bdeebce84d1843d739a56a1f77a4410a200d18336117b48686613f8a90919063ffffffff16565b604051808373ffffffffffffffffffffffffffffffffffffffff1673ffffffffffffffffffffffffffffffffffffffff1681526020018281526020019250505060405180910390a150505050505050505050565b60096020528060005260406000206000915090505481565b60015481565b60025481565b6118353361400d565b565b60065481565b61184833838361442b565b5050565b6000809054906101000a900473ffffffffffffffffffffffffffffffffffffffff1673ffffffffffffffffffffffffffffffffffffffff163373ffffffffffffffffffffffffffffffffffffffff161415156118a757600080fd5b6118b08161400d565b50565b6000806000806000806118c4612c24565b9350600073ffffffffffffffffffffffffffffffffffffffff168473ffffffffffffffffffffffffffffffffffffffff161461190157600061193d565b6007600081548110151561191157fe5b9060005260206000200160009054906101000a900473ffffffffffffffffffffffffffffffffffffffff165b9250601960008473ffffffffffffffffffffffffffffffffffffffff1673ffffffffffffffffffffffffffffffffffffffff168152602001908152602001600020549150600090505b6007805490508160ff161015611b1c576019600060078360ff168154811015156119ac57fe5b9060005260206000200160009054906101000a900473ffffffffffffffffffffffffffffffffffffffff1673ffffffffffffffffffffffffffffffffffffffff1673ffffffffffffffffffffffffffffffffffffffff1681526020019081526020016000205482108015611a88575060078160ff16815481101515611a2d57fe5b9060005260206000200160009054906101000a900473ffffffffffffffffffffffffffffffffffffffff1673ffffffffffffffffffffffffffffffffffffffff168473ffffffffffffffffffffffffffffffffffffffff1614155b15611b0f5760078160ff16815481101515611a9f57fe5b9060005260206000200160009054906101000a900473ffffffffffffffffffffffffffffffffffffffff169250601960008473ffffffffffffffffffffffffffffffffffffffff1673ffffffffffffffffffffffffffffffffffffffff1681526020019081526020016000205491505b8080600101915050611986565b838395509550505050509091565b6000806005811115611b3857fe5b601b60009054906101000a900460ff166005811115611b5357fe5b141515611b5f57600080fd5b600860003373ffffffffffffffffffffffffffffffffffffffff1673ffffffffffffffffffffffffffffffffffffffff16815260200190815260200160002060009054906101000a900460ff161515611bb757600080fd5b601060003373ffffffffffffffffffffffffffffffffffffffff1673ffffffffffffffffffffffffffffffffffffffff16815260200190815260200160002060009054906101000a900460ff161515611c0f57600080fd5b6000601060003373ffffffffffffffffffffffffffffffffffffffff1673ffffffffffffffffffffffffffffffffffffffff16815260200190815260200160002060006101000a81548160ff0219169083151502179055506000809054906101000a900473ffffffffffffffffffffffffffffffffffffffff1673ffffffffffffffffffffffffffffffffffffffff1663a9059cbb33600a60003373ffffffffffffffffffffffffffffffffffffffff1673ffffffffffffffffffffffffffffffffffffffff168152602001908152602001600020546040518363ffffffff167c0100000000000000000000000000000000000000000000000000000000028152600401808373ffffffffffffffffffffffffffffffffffffffff1673ffffffffffffffffffffffffffffffffffffffff16815260200182815260200192505050602060405180830381600087803b158015611d6a57600080fd5b505af1158015611d7e573d6000803e3d6000fd5b505050506040513d6020811015611d9457600080fd5b81019080805190602001909291905050501515611db057600080fd5b3373ffffffffffffffffffffffffffffffffffffffff167ff915f6adcfba53634fa63225573ad1f78d2f842387fe91379c27c14a259537cf600a60003373ffffffffffffffffffffffffffffffffffffffff1673ffffffffffffffffffffffffffffffffffffffff168152602001908152602001600020546040518082815260200191505060405180910390a250565b600d602052816000526040600020602052806000526040600020600091509150505481565b60086020528060005260406000206000915054906101000a900460ff1681565b6000806001806005811115611e9657fe5b601b60009054906101000a900460ff166005811115611eb157fe5b141515611ebd57600080fd5b600860003373ffffffffffffffffffffffffffffffffffffffff1673ffffffffffffffffffffffffffffffffffffffff16815260200190815260200160002060009054906101000a900460ff161515611f1557600080fd5b601460009054906101000a900460ff161515611f3057600080fd5b6000601460006101000a81548160ff021916908315150217905550600092505b6007805490508360ff1610156123e0576013600060078560ff16815481101515611f7657fe5b9060005260206000200160009054906101000a900473ffffffffffffffffffffffffffffffffffffffff1673ffffffffffffffffffffffffffffffffffffffff1673ffffffffffffffffffffffffffffffffffffffff16815260200190815260200160002060009054906101000a900460ff16156123d35760006013600060078660ff1681548110151561200657fe5b9060005260206000200160009054906101000a900473ffffffffffffffffffffffffffffffffffffffff1673ffffffffffffffffffffffffffffffffffffffff1673ffffffffffffffffffffffffffffffffffffffff16815260200190815260200160002060006101000a81548160ff021916908315150217905550600a600060078560ff1681548110151561209857fe5b9060005260206000200160009054906101000a900473ffffffffffffffffffffffffffffffffffffffff1673ffffffffffffffffffffffffffffffffffffffff1673ffffffffffffffffffffffffffffffffffffffff16815260200190815260200160002054600c600060078660ff1681548110151561211457fe5b9060005260206000200160009054906101000a900473ffffffffffffffffffffffffffffffffffffffff1673ffffffffffffffffffffffffffffffffffffffff1673ffffffffffffffffffffffffffffffffffffffff1681526020019081526020016000205411156123d257612289600a600060078660ff1681548110151561219957fe5b9060005260206000200160009054906101000a900473ffffffffffffffffffffffffffffffffffffffff1673ffffffffffffffffffffffffffffffffffffffff1673ffffffffffffffffffffffffffffffffffffffff16815260200190815260200160002054600c600060078760ff1681548110151561221557fe5b9060005260206000200160009054906101000a900473ffffffffffffffffffffffffffffffffffffffff1673ffffffffffffffffffffffffffffffffffffffff1673ffffffffffffffffffffffffffffffffffffffff16815260200190815260200160002054613f7190919063ffffffff16565b91506000809054906101000a900473ffffffffffffffffffffffffffffffffffffffff1673ffffffffffffffffffffffffffffffffffffffff1663a9059cbb60078560ff168154811015156122da57fe5b9060005260206000200160009054906101000a900473ffffffffffffffffffffffffffffffffffffffff16846040518363ffffffff167c0100000000000000000000000000000000000000000000000000000000028152600401808373ffffffffffffffffffffffffffffffffffffffff1673ffffffffffffffffffffffffffffffffffffffff16815260200182815260200192505050602060405180830381600087803b15801561238b57600080fd5b505af115801561239f573d6000803e3d6000fd5b505050506040513d60208110156123b557600080fd5b810190808051906020019092919050505015156123d157600080fd5b5b5b8280600101935050611f50565b3373ffffffffffffffffffffffffffffffffffffffff167fc42ff889a5bf104cb88fddd83f34d59c6162fb4c97c5c075d3e5143b977407d060405160405180910390a2505050565b60055481565b60185481565b6000806000806000600380600581111561244a57fe5b601b60009054906101000a900460ff16600581111561246557fe5b14151561247157600080fd5b60165461247c613f67565b101561248757612788565b6124b8670de0b6b3a76400006124aa600554601754613f8a90919063ffffffff16565b613fc290919063ffffffff16565b60185411156124e75760006018819055506124e0600454601654613ff190919063ffffffff16565b9550612788565b601960008073ffffffffffffffffffffffffffffffffffffffff1673ffffffffffffffffffffffffffffffffffffffff168152602001908152602001600020549450600093505b6007805490508460ff16101561264d57846019600060078760ff1681548110151561255557fe5b9060005260206000200160009054906101000a900473ffffffffffffffffffffffffffffffffffffffff1673ffffffffffffffffffffffffffffffffffffffff1673ffffffffffffffffffffffffffffffffffffffff168152602001908152602001600020541115612640576019600060078660ff168154811015156125d757fe5b9060005260206000200160009054906101000a900473ffffffffffffffffffffffffffffffffffffffff1673ffffffffffffffffffffffffffffffffffffffff1673ffffffffffffffffffffffffffffffffffffffff1681526020019081526020016000205494505b838060010194505061252e565b6000925084601960008073ffffffffffffffffffffffffffffffffffffffff1673ffffffffffffffffffffffffffffffffffffffff16815260200190815260200160002054141561269f576001830192505b600091505b6007805490508260ff16101561274b57846019600060078560ff168154811015156126cb57fe5b9060005260206000200160009054906101000a900473ffffffffffffffffffffffffffffffffffffffff1673ffffffffffffffffffffffffffffffffffffffff1673ffffffffffffffffffffffffffffffffffffffff16815260200190815260200160002054141561273e576001830192505b81806001019250506126a4565b60018360ff16111561278257600060188190555061277b60045461276d613f67565b613ff190919063ffffffff16565b9550612788565b60165495505b505050505090565b60126020528060005260406000206000915054906101000a900460ff1681565b6000809054906101000a900473ffffffffffffffffffffffffffffffffffffffff1681565b6127e033838361494e565b5050565b6007818154811015156127f357fe5b906000526020600020016000915054906101000a900473ffffffffffffffffffffffffffffffffffffffff1681565b6000809054906101000a900473ffffffffffffffffffffffffffffffffffffffff1673ffffffffffffffffffffffffffffffffffffffff163373ffffffffffffffffffffffffffffffffffffffff1614151561287d57600080fd5b61288883838361494e565b505050565b60116020528060005260406000206000915054906101000a900460ff1681565b60136020528060005260406000206000915054906101000a900460ff1681565b600080600060038060058111156128e057fe5b601b60009054906101000a900460ff1660058111156128fb57fe5b14151561290757600080fd5b600860003373ffffffffffffffffffffffffffffffffffffffff1673ffffffffffffffffffffffffffffffffffffffff16815260200190815260200160002060009054906101000a900460ff16151561295f57600080fd5b600780549050855114151561297357600080fd5b60155461297e613f67565b10151561298a57600080fd5b6000935060009250600091505b6007805490508260ff161015612b4a57848260ff168151811015156129b857fe5b90602001906020020151600d60003373ffffffffffffffffffffffffffffffffffffffff1673ffffffffffffffffffffffffffffffffffffffff168152602001908152602001600020600060078560ff16815481101515612a1557fe5b9060005260206000200160009054906101000a900473ffffffffffffffffffffffffffffffffffffffff1673ffffffffffffffffffffffffffffffffffffffff1673ffffffffffffffffffffffffffffffffffffffff16815260200190815260200160002081905550612aab858360ff16815181101515612a9257fe5b9060200190602002015185613ff190919063ffffffff16565b9350612b3b600a600060078560ff16815481101515612ac657fe5b9060005260206000200160009054906101000a900473ffffffffffffffffffffffffffffffffffffffff1673ffffffffffffffffffffffffffffffffffffffff1673ffffffffffffffffffffffffffffffffffffffff1681526020019081526020016000205484613ff190919063ffffffff16565b92508180600101925050612997565b8284141515612b5857600080fd5b3373ffffffffffffffffffffffffffffffffffffffff167fe98983adb63591508c2f748970470e7487b3bebd763d08abc3334beeb72a00b0866040518080602001828103825283818151815260200191508051906020019060200280838360005b83811015612bd4578082015181840152602081019050612bb9565b505050509050019250505060405180910390a25050505050565b60196020528060005260406000206000915090505481565b601460009054906101000a900460ff1681565b612c2233614f52565b565b600080600080601960008073ffffffffffffffffffffffffffffffffffffffff1673ffffffffffffffffffffffffffffffffffffffff16815260200190815260200160002054925060009150600090505b6007805490508160ff161015612dd3576019600060078360ff16815481101515612c9b57fe5b9060005260206000200160009054906101000a900473ffffffffffffffffffffffffffffffffffffffff1673ffffffffffffffffffffffffffffffffffffffff1673ffffffffffffffffffffffffffffffffffffffff16815260200190815260200160002054831015612dc6576019600060078360ff16815481101515612d1e57fe5b9060005260206000200160009054906101000a900473ffffffffffffffffffffffffffffffffffffffff1673ffffffffffffffffffffffffffffffffffffffff1673ffffffffffffffffffffffffffffffffffffffff16815260200190815260200160002054925060078160ff16815481101515612d9857fe5b9060005260206000200160009054906101000a900473ffffffffffffffffffffffffffffffffffffffff1691505b8080600101915050612c75565b81935050505090565b6000806001806005811115612ded57fe5b601b60009054906101000a900460ff166005811115612e0857fe5b141515612e1457600080fd5b600860003373ffffffffffffffffffffffffffffffffffffffff1673ffffffffffffffffffffffffffffffffffffffff16815260200190815260200160002060009054906101000a900460ff161515612e6c57600080fd5b601160003373ffffffffffffffffffffffffffffffffffffffff1673ffffffffffffffffffffffffffffffffffffffff16815260200190815260200160002060009054906101000a900460ff16151515612ec557600080fd5b6001601160003373ffffffffffffffffffffffffffffffffffffffff1673ffffffffffffffffffffffffffffffffffffffff16815260200190815260200160002060006101000a81548160ff02191690831515021790555060019250600091505b6007805490508260ff161015612fd757828015612fc857506011600060078460ff16815481101515612f5457fe5b9060005260206000200160009054906101000a900473ffffffffffffffffffffffffffffffffffffffff1673ffffffffffffffffffffffffffffffffffffffff1673ffffffffffffffffffffffffffffffffffffffff16815260200190815260200160002060009054906101000a900460ff165b92508180600101925050612f26565b8215612fe857612fe76002615a3e565b5b3373ffffffffffffffffffffffffffffffffffffffff167fcdfedae112bb2610775e69a6ffd348e7dfdd996e3fb3a5f6d46b52651867b49760405160405180910390a2505050565b80601d819055507ff54bf4ed226aa1df732802a8bd56e85755aab0a0ef7c2fbf204cf0de0765f073601d546040518082815260200191505060405180910390a150565b60155481565b600b6020528060005260406000206000915090505481565b60008060028060058111156130a257fe5b601b60009054906101000a900460ff1660058111156130bd57fe5b1415156130c957600080fd5b600860003373ffffffffffffffffffffffffffffffffffffffff1673ffffffffffffffffffffffffffffffffffffffff16815260200190815260200160002060009054906101000a900460ff16151561312157600080fd5b601260003373ffffffffffffffffffffffffffffffffffffffff1673ffffffffffffffffffffffffffffffffffffffff16815260200190815260200160002060009054906101000a900460ff1615151561317a57600080fd5b6001601260003373ffffffffffffffffffffffffffffffffffffffff1673ffffffffffffffffffffffffffffffffffffffff16815260200190815260200160002060006101000a81548160ff0219169083151502179055506000809054906101000a900473ffffffffffffffffffffffffffffffffffffffff1673ffffffffffffffffffffffffffffffffffffffff1663a9059cbb33600960003373ffffffffffffffffffffffffffffffffffffffff1673ffffffffffffffffffffffffffffffffffffffff168152602001908152602001600020546040518363ffffffff167c0100000000000000000000000000000000000000000000000000000000028152600401808373ffffffffffffffffffffffffffffffffffffffff1673ffffffffffffffffffffffffffffffffffffffff16815260200182815260200192505050602060405180830381600087803b1580156132d557600080fd5b505af11580156132e9573d6000803e3d6000fd5b505050506040513d60208110156132ff57600080fd5b8101908080519060200190929190505050151561331b57600080fd5b60019250600091505b6007805490508260ff16101561345b5782801561344c57506012600060078460ff1681548110151561335257fe5b9060005260206000200160009054906101000a900473ffffffffffffffffffffffffffffffffffffffff1673ffffffffffffffffffffffffffffffffffffffff1673ffffffffffffffffffffffffffffffffffffffff16815260200190815260200160002060009054906101000a900460ff168061344b575060006009600060078560ff168154811015156133e357fe5b9060005260206000200160009054906101000a900473ffffffffffffffffffffffffffffffffffffffff1673ffffffffffffffffffffffffffffffffffffffff1673ffffffffffffffffffffffffffffffffffffffff16815260200190815260200160002054145b5b92508180600101925050613324565b3373ffffffffffffffffffffffffffffffffffffffff167f76cc4dd05e1fc280969f3363b5db432911cddfadcfae9bef818a492c0f8d5732600960003373ffffffffffffffffffffffffffffffffffffffff1673ffffffffffffffffffffffffffffffffffffffff168152602001908152602001600020546040518082815260200191505060405180910390a282156134f9576134f86004615a3e565b5b505050565b600180600581111561350c57fe5b601b60009054906101000a900460ff16600581111561352757fe5b14151561353357600080fd5b600860003373ffffffffffffffffffffffffffffffffffffffff1673ffffffffffffffffffffffffffffffffffffffff16815260200190815260200160002060009054906101000a900460ff16151561358b57600080fd5b601160003373ffffffffffffffffffffffffffffffffffffffff1673ffffffffffffffffffffffffffffffffffffffff16815260200190815260200160002060009054906101000a900460ff1615156135e357600080fd5b6000601160003373ffffffffffffffffffffffffffffffffffffffff1673ffffffffffffffffffffffffffffffffffffffff16815260200190815260200160002060006101000a81548160ff0219169083151502179055503373ffffffffffffffffffffffffffffffffffffffff167f6faffafe1cb6a0bf26e66cc0178734aa9fe07d7c6961884c4a93920423c0bd0e60405160405180910390a250565b6000809054906101000a900473ffffffffffffffffffffffffffffffffffffffff1673ffffffffffffffffffffffffffffffffffffffff163373ffffffffffffffffffffffffffffffffffffffff161415156136dc57600080fd5b6136e783838361442b565b505050565b60045481565b600c6020528060005260406000206000915090505481565b60106020528060005260406000206000915054906101000a900460ff1681565b80601c819055507fb5650d845cdd2d20be38618a709ffc597b681b4a60ec873333f2959dead54e39601c546040518082815260200191505060405180910390a150565b601b60009054906101000a900460ff1681565b6000806000600380600581111561379357fe5b601b60009054906101000a900460ff1660058111156137ae57fe5b1415156137ba57600080fd5b600860003373ffffffffffffffffffffffffffffffffffffffff1673ffffffffffffffffffffffffffffffffffffffff16815260200190815260200160002060009054906101000a900460ff16151561381257600080fd5b61381a612434565b935060165484141515613870577f04e9f9a05f2b0f7b76cbaeafc40a3136a1870f82f8eff85e766f7eb868a8b9e084601654604051808381526020018281526020019250505060405180910390a1836016819055505b60165461387b613f67565b1015151561388857600080fd5b601260003373ffffffffffffffffffffffffffffffffffffffff1673ffffffffffffffffffffffffffffffffffffffff16815260200190815260200160002060009054906101000a900460ff161515156138e157600080fd5b6001601260003373ffffffffffffffffffffffffffffffffffffffff1673ffffffffffffffffffffffffffffffffffffffff16815260200190815260200160002060006101000a81548160ff021916908315150217905550613941612c24565b9250600d60008473ffffffffffffffffffffffffffffffffffffffff1673ffffffffffffffffffffffffffffffffffffffff16815260200190815260200160002060003373ffffffffffffffffffffffffffffffffffffffff1673ffffffffffffffffffffffffffffffffffffffff1681526020019081526020016000205491506000809054906101000a900473ffffffffffffffffffffffffffffffffffffffff1673ffffffffffffffffffffffffffffffffffffffff1663a9059cbb33846040518363ffffffff167c0100000000000000000000000000000000000000000000000000000000028152600401808373ffffffffffffffffffffffffffffffffffffffff1673ffffffffffffffffffffffffffffffffffffffff16815260200182815260200192505050602060405180830381600087803b158015613a8657600080fd5b505af1158015613a9a573d6000803e3d6000fd5b505050506040513d6020811015613ab057600080fd5b81019080805190602001909291905050501515613ac957fe5b7f529314119e568ebeb046e7fb288642e03aea33279f2f6762afd0e56a74c7aa423383604051808373ffffffffffffffffffffffffffffffffffffffff1673ffffffffffffffffffffffffffffffffffffffff1681526020018281526020019250505060405180910390a150505050565b60035481565b6000809054906101000a900473ffffffffffffffffffffffffffffffffffffffff1673ffffffffffffffffffffffffffffffffffffffff163373ffffffffffffffffffffffffffffffffffffffff16141515613b9b57600080fd5b613ba481614f52565b50565b60008060006001806005811115613bba57fe5b601b60009054906101000a900460ff166005811115613bd557fe5b141515613be157600080fd5b87600860008273ffffffffffffffffffffffffffffffffffffffff1673ffffffffffffffffffffffffffffffffffffffff16815260200190815260200160002060009054906101000a900460ff161515613c3a57600080fd5b601460009054906101000a900460ff16151515613c5657600080fd5b6001601460006101000a81548160ff0219169083151502179055506007805490508851148015613c8b57506007805490508751145b1515613c9657600080fd5b6000945060009350600092505b6007805490508360ff161015613e5257878360ff16815181101515613cc457fe5b90602001906020020151600b600060078660ff16815481101515613ce457fe5b9060005260206000200160009054906101000a900473ffffffffffffffffffffffffffffffffffffffff1673ffffffffffffffffffffffffffffffffffffffff1673ffffffffffffffffffffffffffffffffffffffff16815260200190815260200160002081905550868360ff16815181101515613d5e57fe5b90602001906020020151600c600060078660ff16815481101515613d7e57fe5b9060005260206000200160009054906101000a900473ffffffffffffffffffffffffffffffffffffffff1673ffffffffffffffffffffffffffffffffffffffff1673ffffffffffffffffffffffffffffffffffffffff16815260200190815260200160002081905550613e14888460ff16815181101515613dfb57fe5b9060200190602002015185613ff190919063ffffffff16565b9350613e43878460ff16815181101515613e2a57fe5b9060200190602002015186613ff190919063ffffffff16565b94508280600101935050613ca3565b8385141515613e6057600080fd5b85600f8160001916905550613e7489614f52565b8873ffffffffffffffffffffffffffffffffffffffff167fd33aabc7fc9a1f5861dc19acc754cc8fe8c4400063f1e32d2bf90ac64b628daf8989896040518080602001806020018460001916600019168152602001838103835286818151815260200191508051906020019060200280838360005b83811015613f04578082015181840152602081019050613ee9565b50505050905001838103825285818151815260200191508051906020019060200280838360005b83811015613f46578082015181840152602081019050613f2b565b505050509050019550505050505060405180910390a2505050505050505050565b6000601d54905090565b6000828211151515613f7f57fe5b818303905092915050565b600080831415613f9d5760009050613fbc565b8183029050818382811515613fae57fe5b04141515613fb857fe5b8090505b92915050565b60008183811515613fcf57fe5b04905092915050565b6000818310613fe75781613fe9565b825b905092915050565b6000818301905082811015151561400457fe5b80905092915050565b600080600080600581111561401e57fe5b601b60009054906101000a900460ff16600581111561403957fe5b14151561404557600080fd5b83600860008273ffffffffffffffffffffffffffffffffffffffff1673ffffffffffffffffffffffffffffffffffffffff16815260200190815260200160002060009054906101000a900460ff16151561409e57600080fd5b601060008673ffffffffffffffffffffffffffffffffffffffff1673ffffffffffffffffffffffffffffffffffffffff16815260200190815260200160002060009054906101000a900460ff161515156140f757600080fd5b6001601060008773ffffffffffffffffffffffffffffffffffffffff1673ffffffffffffffffffffffffffffffffffffffff16815260200190815260200160002060006101000a81548160ff0219169083151502179055506000809054906101000a900473ffffffffffffffffffffffffffffffffffffffff1673ffffffffffffffffffffffffffffffffffffffff166323b872dd8630600a60008a73ffffffffffffffffffffffffffffffffffffffff1673ffffffffffffffffffffffffffffffffffffffff168152602001908152602001600020546040518463ffffffff167c0100000000000000000000000000000000000000000000000000000000028152600401808473ffffffffffffffffffffffffffffffffffffffff1673ffffffffffffffffffffffffffffffffffffffff1681526020018373ffffffffffffffffffffffffffffffffffffffff1673ffffffffffffffffffffffffffffffffffffffff1681526020018281526020019350505050602060405180830381600087803b15801561428657600080fd5b505af115801561429a573d6000803e3d6000fd5b505050506040513d60208110156142b057600080fd5b810190808051906020019092919050505015156142cc57600080fd5b60019350600092505b6007805490508360ff1610156143865783801561437757506010600060078560ff1681548110151561430357fe5b9060005260206000200160009054906101000a900473ffffffffffffffffffffffffffffffffffffffff1673ffffffffffffffffffffffffffffffffffffffff1673ffffffffffffffffffffffffffffffffffffffff16815260200190815260200160002060009054906101000a900460ff165b935082806001019350506142d5565b8315614397576143966001615a3e565b5b8473ffffffffffffffffffffffffffffffffffffffff167fa8cc9409769b9614f3ae4056957bfbb32d986e4b61c886b5e29b324b5bf92d0a600a60008873ffffffffffffffffffffffffffffffffffffffff1673ffffffffffffffffffffffffffffffffffffffff168152602001908152602001600020546040518082815260200191505060405180910390a25050505050565b600080600080600180600581111561443f57fe5b601b60009054906101000a900460ff16600581111561445a57fe5b14151561446657600080fd5b87600860008273ffffffffffffffffffffffffffffffffffffffff1673ffffffffffffffffffffffffffffffffffffffff16815260200190815260200160002060009054906101000a900460ff1615156144bf57600080fd5b60078054905087511415156144d357600080fd5b6144dd6003615a3e565b6000955060009450600093505b6007805490508460ff16101561469d57868460ff1681518110151561450b57fe5b90602001906020020151600d60008b73ffffffffffffffffffffffffffffffffffffffff1673ffffffffffffffffffffffffffffffffffffffff168152602001908152602001600020600060078760ff1681548110151561456857fe5b9060005260206000200160009054906101000a900473ffffffffffffffffffffffffffffffffffffffff1673ffffffffffffffffffffffffffffffffffffffff1673ffffffffffffffffffffffffffffffffffffffff168152602001908152602001600020819055506145fe878560ff168151811015156145e557fe5b9060200190602002015187613ff190919063ffffffff16565b955061468e600a600060078760ff1681548110151561461957fe5b9060005260206000200160009054906101000a900473ffffffffffffffffffffffffffffffffffffffff1673ffffffffffffffffffffffffffffffffffffffff1673ffffffffffffffffffffffffffffffffffffffff1681526020019081526020016000205486613ff190919063ffffffff16565b945083806001019450506144ea565b84861415156146ab57600080fd5b6146da670de0b6b3a76400006146cc60065488613f8a90919063ffffffff16565b613fc290919063ffffffff16565b88101515156146e857600080fd5b6146fb6146f3613f67565b600254613ff1565b60158190555061470f601554600154613ff1565b60168190555087601781905550600092505b6007805490508360ff1610156148a9578873ffffffffffffffffffffffffffffffffffffffff1660078460ff1681548110151561475a57fe5b9060005260206000200160009054906101000a900473ffffffffffffffffffffffffffffffffffffffff1673ffffffffffffffffffffffffffffffffffffffff1614151561489c5784600d600060078660ff168154811015156147b957fe5b9060005260206000200160009054906101000a900473ffffffffffffffffffffffffffffffffffffffff1673ffffffffffffffffffffffffffffffffffffffff1673ffffffffffffffffffffffffffffffffffffffff168152602001908152602001600020600060078660ff1681548110151561483257fe5b9060005260206000200160009054906101000a900473ffffffffffffffffffffffffffffffffffffffff1673ffffffffffffffffffffffffffffffffffffffff1673ffffffffffffffffffffffffffffffffffffffff168152602001908152602001600020819055505b8280600101935050614721565b8873ffffffffffffffffffffffffffffffffffffffff167f978fff33bfee4716da21bf89e67d0757d6550d4b6f53676919de1d1d209f5ef0886040518080602001828103825283818151815260200191508051906020019060200280838360005b8381101561492557808201518184015260208101905061490a565b505050509050019250505060405180910390a2614943898a8a61494e565b505050505050505050565b6000614958615add565b600380600581111561496657fe5b601b60009054906101000a900460ff16600581111561498157fe5b14151561498d57600080fd5b614995612434565b9250601654831415156149eb577f04e9f9a05f2b0f7b76cbaeafc40a3136a1870f82f8eff85e766f7eb868a8b9e083601654604051808381526020018281526020019250505060405180910390a1826016819055505b6016546149f6613f67565b101515614a0257600080fd5b601554614a0d613f67565b101580614a635750600860008773ffffffffffffffffffffffffffffffffffffffff1673ffffffffffffffffffffffffffffffffffffffff16815260200190815260200160002060009054906101000a900460ff165b1515614a6e57600080fd5b600860008673ffffffffffffffffffffffffffffffffffffffff1673ffffffffffffffffffffffffffffffffffffffff16815260200190815260200160002060009054906101000a900460ff1680614af25750600073ffffffffffffffffffffffffffffffffffffffff168573ffffffffffffffffffffffffffffffffffffffff16145b1515614afd57600080fd5b614b2e670de0b6b3a7640000614b20600654601754613f8a90919063ffffffff16565b613fc290919063ffffffff16565b8410151515614b3c57600080fd5b606060405190810160405280858152602001601960008873ffffffffffffffffffffffffffffffffffffffff1673ffffffffffffffffffffffffffffffffffffffff1681526020019081526020016000205481526020016000151581525091506000809054906101000a900473ffffffffffffffffffffffffffffffffffffffff1673ffffffffffffffffffffffffffffffffffffffff166323b872dd8730876040518463ffffffff167c0100000000000000000000000000000000000000000000000000000000028152600401808473ffffffffffffffffffffffffffffffffffffffff1673ffffffffffffffffffffffffffffffffffffffff1681526020018373ffffffffffffffffffffffffffffffffffffffff1673ffffffffffffffffffffffffffffffffffffffff1681526020018281526020019350505050602060405180830381600087803b158015614c9457600080fd5b505af1158015614ca8573d6000803e3d6000fd5b505050506040513d6020811015614cbe57600080fd5b81019080805190602001909291905050501515614cda57600080fd5b614cf1610708601654613f7190919063ffffffff16565b614cf9613f67565b101515614d1c57614d1584601854613ff190919063ffffffff16565b6018819055505b614d3184601754613ff190919063ffffffff16565b601781905550614d8984601960008873ffffffffffffffffffffffffffffffffffffffff1673ffffffffffffffffffffffffffffffffffffffff16815260200190815260200160002054613ff190919063ffffffff16565b601960008773ffffffffffffffffffffffffffffffffffffffff1673ffffffffffffffffffffffffffffffffffffffff16815260200190815260200160002081905550601a60008773ffffffffffffffffffffffffffffffffffffffff1673ffffffffffffffffffffffffffffffffffffffff16815260200190815260200160002060008673ffffffffffffffffffffffffffffffffffffffff1673ffffffffffffffffffffffffffffffffffffffff1681526020019081526020016000208290806001815401808255809150509060018203906000526020600020906003020160009091929091909150600082015181600001556020820151816001015560408201518160020160006101000a81548160ff0219169083151502179055505050507f484413c33463e7d976e3ded2a85b0c31610d0906977df2cd9cbd6d12a6872a84868686604051808473ffffffffffffffffffffffffffffffffffffffff1673ffffffffffffffffffffffffffffffffffffffff1681526020018373ffffffffffffffffffffffffffffffffffffffff1673ffffffffffffffffffffffffffffffffffffffff168152602001828152602001935050505060405180910390a1505050505050565b60008060008060006001806005811115614f6857fe5b601b60009054906101000a900460ff166005811115614f8357fe5b141515614f8f57600080fd5b86600860008273ffffffffffffffffffffffffffffffffffffffff1673ffffffffffffffffffffffffffffffffffffffff16815260200190815260200160002060009054906101000a900460ff161515614fe857600080fd5b601460009054906101000a900460ff16151561500357600080fd5b601360008973ffffffffffffffffffffffffffffffffffffffff1673ffffffffffffffffffffffffffffffffffffffff16815260200190815260200160002060009054906101000a900460ff1615151561505c57600080fd5b6001601360008a73ffffffffffffffffffffffffffffffffffffffff1673ffffffffffffffffffffffffffffffffffffffff16815260200190815260200160002060006101000a81548160ff021916908315150217905550600a60008973ffffffffffffffffffffffffffffffffffffffff1673ffffffffffffffffffffffffffffffffffffffff16815260200190815260200160002054600c60008a73ffffffffffffffffffffffffffffffffffffffff1673ffffffffffffffffffffffffffffffffffffffff16815260200190815260200160002054111561530c576151cb600a60008a73ffffffffffffffffffffffffffffffffffffffff1673ffffffffffffffffffffffffffffffffffffffff16815260200190815260200160002054600c60008b73ffffffffffffffffffffffffffffffffffffffff1673ffffffffffffffffffffffffffffffffffffffff16815260200190815260200160002054613f7190919063ffffffff16565b96506000809054906101000a900473ffffffffffffffffffffffffffffffffffffffff1673ffffffffffffffffffffffffffffffffffffffff166323b872dd89308a6040518463ffffffff167c0100000000000000000000000000000000000000000000000000000000028152600401808473ffffffffffffffffffffffffffffffffffffffff1673ffffffffffffffffffffffffffffffffffffffff1681526020018373ffffffffffffffffffffffffffffffffffffffff1673ffffffffffffffffffffffffffffffffffffffff1681526020018281526020019350505050602060405180830381600087803b1580156152c557600080fd5b505af11580156152d9573d6000803e3d6000fd5b505050506040513d60208110156152ef57600080fd5b8101908080519060200190929190505050151561530b57600080fd5b5b60019550600094505b6007805490508560ff1610156153c6578580156153b757506013600060078760ff1681548110151561534357fe5b9060005260206000200160009054906101000a900473ffffffffffffffffffffffffffffffffffffffff1673ffffffffffffffffffffffffffffffffffffffff1673ffffffffffffffffffffffffffffffffffffffff16815260200190815260200160002060009054906101000a900460ff165b95508480600101955050615315565b8773ffffffffffffffffffffffffffffffffffffffff167fa49e1bf6eca68fcbe0f530f9389e60870664cb4b8cd290ade9d0fe3b7c4d9c7560405160405180910390a28515615a34576000601460006101000a81548160ff021916908315150217905550600093505b6007805490508460ff161015615a265760006013600060078760ff1681548110151561545757fe5b9060005260206000200160009054906101000a900473ffffffffffffffffffffffffffffffffffffffff1673ffffffffffffffffffffffffffffffffffffffff1673ffffffffffffffffffffffffffffffffffffffff16815260200190815260200160002060006101000a81548160ff021916908315150217905550600a600060078660ff168154811015156154e957fe5b9060005260206000200160009054906101000a900473ffffffffffffffffffffffffffffffffffffffff1673ffffffffffffffffffffffffffffffffffffffff1673ffffffffffffffffffffffffffffffffffffffff16815260200190815260200160002054600c600060078760ff1681548110151561556557fe5b9060005260206000200160009054906101000a900473ffffffffffffffffffffffffffffffffffffffff1673ffffffffffffffffffffffffffffffffffffffff1673ffffffffffffffffffffffffffffffffffffffff168152602001908152602001600020541015615823576156da600c600060078760ff168154811015156155ea57fe5b9060005260206000200160009054906101000a900473ffffffffffffffffffffffffffffffffffffffff1673ffffffffffffffffffffffffffffffffffffffff1673ffffffffffffffffffffffffffffffffffffffff16815260200190815260200160002054600a600060078860ff1681548110151561566657fe5b9060005260206000200160009054906101000a900473ffffffffffffffffffffffffffffffffffffffff1673ffffffffffffffffffffffffffffffffffffffff1673ffffffffffffffffffffffffffffffffffffffff16815260200190815260200160002054613f7190919063ffffffff16565b92506000809054906101000a900473ffffffffffffffffffffffffffffffffffffffff1673ffffffffffffffffffffffffffffffffffffffff1663a9059cbb60078660ff1681548110151561572b57fe5b9060005260206000200160009054906101000a900473ffffffffffffffffffffffffffffffffffffffff16856040518363ffffffff167c0100000000000000000000000000000000000000000000000000000000028152600401808373ffffffffffffffffffffffffffffffffffffffff1673ffffffffffffffffffffffffffffffffffffffff16815260200182815260200192505050602060405180830381600087803b1580156157dc57600080fd5b505af11580156157f0573d6000803e3d6000fd5b505050506040513d602081101561580657600080fd5b8101908080519060200190929190505050151561582257600080fd5b5b600c600060078660ff1681548110151561583957fe5b9060005260206000200160009054906101000a900473ffffffffffffffffffffffffffffffffffffffff1673ffffffffffffffffffffffffffffffffffffffff1673ffffffffffffffffffffffffffffffffffffffff16815260200190815260200160002054600a600060078760ff168154811015156158b557fe5b9060005260206000200160009054906101000a900473ffffffffffffffffffffffffffffffffffffffff1673ffffffffffffffffffffffffffffffffffffffff1673ffffffffffffffffffffffffffffffffffffffff16815260200190815260200160002081905550600b600060078660ff1681548110151561593457fe5b9060005260206000200160009054906101000a900473ffffffffffffffffffffffffffffffffffffffff1673ffffffffffffffffffffffffffffffffffffffff1673ffffffffffffffffffffffffffffffffffffffff168152602001908152602001600020546009600060078760ff168154811015156159b057fe5b9060005260206000200160009054906101000a900473ffffffffffffffffffffffffffffffffffffffff1673ffffffffffffffffffffffffffffffffffffffff1673ffffffffffffffffffffffffffffffffffffffff16815260200190815260200160002081905550838060010194505061542f565b600f54600e81600019169055505b5050505050505050565b7f7a86a836fcb7b1724e95db8cca29b460e17febee51b6f03e272720350340352e601b60009054906101000a900460ff1682615a78613f67565b60405180846005811115615a8857fe5b60ff168152602001836005811115615a9c57fe5b60ff168152602001828152602001935050505060405180910390a180601b60006101000a81548160ff02191690836005811115615ad557fe5b021790555050565b606060405190810160405280600081526020016000815260200160001515815250905600a165627a7a723058208d2776cc0aa5088df4cf25001d170117e26f0101ec893bfdaddecf64c1c815b80029",
  "source": "pragma solidity ^0.4.11;\n\nimport \"../Arbitration.sol\";\n\ncontract ArbitrationMock is Arbitration {\n\n  event MockBlockNumber(uint256 _blockNumber);\n  event MockNow(uint256 _mockedNow);\n\n  uint blockNumber = 0;\n\n  uint mockedNow = 0;\n\n  function ArbitrationMock(address _jurToken, address[] _parties, uint256[] _dispersal, uint256[] _funding, bytes32 _agreementHash)\n    Arbitration(_jurToken, _parties, _dispersal, _funding, _agreementHash)\n  {\n\n  }\n\n  function getBlockNumber() internal constant returns (uint) {\n      return blockNumber;\n  }\n\n  function setMockedBlockNumber(uint256 _blockNumber) public {\n      blockNumber = _blockNumber;\n      MockBlockNumber(blockNumber);\n  }\n\n  function getNow() internal constant returns (uint256) {\n      return mockedNow;\n  }\n\n  function setMockedNow(uint256 _mockedNow) public {\n      mockedNow = _mockedNow;\n      MockNow(mockedNow);\n  }\n\n}\n",
  "sourcePath": "/Users/adamdossa/Development/Ethereum/mvp-smart-contract/contracts/mock/ArbitrationMock.sol",
  "compiler": {
    "name": "solc",
    "version": "0.4.23+commit.124ca40d.Emscripten.clang"
  },
  "schemaVersion": "2.0.0",
  "updatedAt": "2018-06-04T16:12:04.094Z"
}