{
  "contractName": "Arbitration",
  "abi": [
    {
      "constant": true,
      "inputs": [
        {
          "name": "",
          "type": "address"
        }
      ],
      "name": "funding",
      "outputs": [
        {
          "name": "",
          "type": "uint256"
        }
      ],
      "payable": false,
      "stateMutability": "view",
      "type": "function"
    },
    {
      "constant": true,
      "inputs": [],
      "name": "agreementHash",
      "outputs": [
        {
          "name": "",
          "type": "bytes32"
        }
      ],
      "payable": false,
      "stateMutability": "view",
      "type": "function"
    },
    {
      "constant": true,
      "inputs": [],
      "name": "totalVotes",
      "outputs": [
        {
          "name": "",
          "type": "uint256"
        }
      ],
      "payable": false,
      "stateMutability": "view",
      "type": "function"
    },
    {
      "constant": true,
      "inputs": [],
      "name": "disputeEnds",
      "outputs": [
        {
          "name": "",
          "type": "uint256"
        }
      ],
      "payable": false,
      "stateMutability": "view",
      "type": "function"
    },
    {
      "constant": true,
      "inputs": [],
      "name": "amendedAgreementHash",
      "outputs": [
        {
          "name": "",
          "type": "bytes32"
        }
      ],
      "payable": false,
      "stateMutability": "view",
      "type": "function"
    },
    {
      "constant": true,
      "inputs": [
        {
          "name": "",
          "type": "address"
        }
      ],
      "name": "dispersal",
      "outputs": [
        {
          "name": "",
          "type": "uint256"
        }
      ],
      "payable": false,
      "stateMutability": "view",
      "type": "function"
    },
    {
      "constant": true,
      "inputs": [],
      "name": "DISPUTE_VOTE_DURATION",
      "outputs": [
        {
          "name": "",
          "type": "uint256"
        }
      ],
      "payable": false,
      "stateMutability": "view",
      "type": "function"
    },
    {
      "constant": true,
      "inputs": [],
      "name": "DISPUTE_DISPERSAL_DURATION",
      "outputs": [
        {
          "name": "",
          "type": "uint256"
        }
      ],
      "payable": false,
      "stateMutability": "view",
      "type": "function"
    },
    {
      "constant": true,
      "inputs": [],
      "name": "MIN_VOTE",
      "outputs": [
        {
          "name": "",
          "type": "uint256"
        }
      ],
      "payable": false,
      "stateMutability": "view",
      "type": "function"
    },
    {
      "constant": true,
      "inputs": [
        {
          "name": "",
          "type": "address"
        },
        {
          "name": "",
          "type": "address"
        }
      ],
      "name": "disputeDispersal",
      "outputs": [
        {
          "name": "",
          "type": "uint256"
        }
      ],
      "payable": false,
      "stateMutability": "view",
      "type": "function"
    },
    {
      "constant": true,
      "inputs": [
        {
          "name": "",
          "type": "address"
        }
      ],
      "name": "parties",
      "outputs": [
        {
          "name": "",
          "type": "bool"
        }
      ],
      "payable": false,
      "stateMutability": "view",
      "type": "function"
    },
    {
      "constant": true,
      "inputs": [],
      "name": "DISPUTE_WINDOW_MAX",
      "outputs": [
        {
          "name": "",
          "type": "uint256"
        }
      ],
      "payable": false,
      "stateMutability": "view",
      "type": "function"
    },
    {
      "constant": true,
      "inputs": [],
      "name": "disputeWindowVotes",
      "outputs": [
        {
          "name": "",
          "type": "uint256"
        }
      ],
      "payable": false,
      "stateMutability": "view",
      "type": "function"
    },
    {
      "constant": true,
      "inputs": [
        {
          "name": "",
          "type": "address"
        }
      ],
      "name": "hasWithdrawn",
      "outputs": [
        {
          "name": "",
          "type": "bool"
        }
      ],
      "payable": false,
      "stateMutability": "view",
      "type": "function"
    },
    {
      "constant": true,
      "inputs": [],
      "name": "jurToken",
      "outputs": [
        {
          "name": "",
          "type": "address"
        }
      ],
      "payable": false,
      "stateMutability": "view",
      "type": "function"
    },
    {
      "constant": true,
      "inputs": [
        {
          "name": "",
          "type": "uint256"
        }
      ],
      "name": "allParties",
      "outputs": [
        {
          "name": "",
          "type": "address"
        }
      ],
      "payable": false,
      "stateMutability": "view",
      "type": "function"
    },
    {
      "constant": true,
      "inputs": [
        {
          "name": "",
          "type": "address"
        }
      ],
      "name": "hasAgreed",
      "outputs": [
        {
          "name": "",
          "type": "bool"
        }
      ],
      "payable": false,
      "stateMutability": "view",
      "type": "function"
    },
    {
      "constant": true,
      "inputs": [
        {
          "name": "",
          "type": "address"
        }
      ],
      "name": "hasFundedAmendment",
      "outputs": [
        {
          "name": "",
          "type": "bool"
        }
      ],
      "payable": false,
      "stateMutability": "view",
      "type": "function"
    },
    {
      "constant": true,
      "inputs": [
        {
          "name": "",
          "type": "address"
        }
      ],
      "name": "partyVotes",
      "outputs": [
        {
          "name": "",
          "type": "uint256"
        }
      ],
      "payable": false,
      "stateMutability": "view",
      "type": "function"
    },
    {
      "constant": true,
      "inputs": [],
      "name": "amendmentProposed",
      "outputs": [
        {
          "name": "",
          "type": "bool"
        }
      ],
      "payable": false,
      "stateMutability": "view",
      "type": "function"
    },
    {
      "constant": true,
      "inputs": [],
      "name": "disputeStarts",
      "outputs": [
        {
          "name": "",
          "type": "uint256"
        }
      ],
      "payable": false,
      "stateMutability": "view",
      "type": "function"
    },
    {
      "constant": true,
      "inputs": [
        {
          "name": "",
          "type": "address"
        }
      ],
      "name": "amendedDispersal",
      "outputs": [
        {
          "name": "",
          "type": "uint256"
        }
      ],
      "payable": false,
      "stateMutability": "view",
      "type": "function"
    },
    {
      "constant": true,
      "inputs": [],
      "name": "DISPUTE_EXTENSION",
      "outputs": [
        {
          "name": "",
          "type": "uint256"
        }
      ],
      "payable": false,
      "stateMutability": "view",
      "type": "function"
    },
    {
      "constant": true,
      "inputs": [
        {
          "name": "",
          "type": "address"
        }
      ],
      "name": "amendedFunding",
      "outputs": [
        {
          "name": "",
          "type": "uint256"
        }
      ],
      "payable": false,
      "stateMutability": "view",
      "type": "function"
    },
    {
      "constant": true,
      "inputs": [
        {
          "name": "",
          "type": "address"
        }
      ],
      "name": "hasSigned",
      "outputs": [
        {
          "name": "",
          "type": "bool"
        }
      ],
      "payable": false,
      "stateMutability": "view",
      "type": "function"
    },
    {
      "constant": true,
      "inputs": [],
      "name": "state",
      "outputs": [
        {
          "name": "",
          "type": "uint8"
        }
      ],
      "payable": false,
      "stateMutability": "view",
      "type": "function"
    },
    {
      "constant": true,
      "inputs": [],
      "name": "DISPUTE_WINDOW",
      "outputs": [
        {
          "name": "",
          "type": "uint256"
        }
      ],
      "payable": false,
      "stateMutability": "view",
      "type": "function"
    },
    {
      "inputs": [
        {
          "name": "_jurToken",
          "type": "address"
        },
        {
          "name": "_parties",
          "type": "address[]"
        },
        {
          "name": "_dispersal",
          "type": "uint256[]"
        },
        {
          "name": "_funding",
          "type": "uint256[]"
        },
        {
          "name": "_agreementHash",
          "type": "bytes32"
        }
      ],
      "payable": false,
      "stateMutability": "nonpayable",
      "type": "constructor"
    },
    {
      "anonymous": false,
      "inputs": [
        {
          "indexed": false,
          "name": "_oldState",
          "type": "uint8"
        },
        {
          "indexed": false,
          "name": "_newState",
          "type": "uint8"
        },
        {
          "indexed": false,
          "name": "_timestamp",
          "type": "uint256"
        }
      ],
      "name": "StateChange",
      "type": "event"
    },
    {
      "anonymous": false,
      "inputs": [
        {
          "indexed": true,
          "name": "_party1",
          "type": "address"
        },
        {
          "indexed": true,
          "name": "_party2",
          "type": "address"
        },
        {
          "indexed": false,
          "name": "_dispersal",
          "type": "uint256[]"
        },
        {
          "indexed": false,
          "name": "_funding",
          "type": "uint256[]"
        },
        {
          "indexed": false,
          "name": "_agreementHash",
          "type": "bytes32"
        }
      ],
      "name": "ContractCreated",
      "type": "event"
    },
    {
      "anonymous": false,
      "inputs": [
        {
          "indexed": true,
          "name": "_party",
          "type": "address"
        },
        {
          "indexed": false,
          "name": "_funding",
          "type": "uint256"
        }
      ],
      "name": "ContractSigned",
      "type": "event"
    },
    {
      "anonymous": false,
      "inputs": [
        {
          "indexed": true,
          "name": "_party",
          "type": "address"
        },
        {
          "indexed": false,
          "name": "_funding",
          "type": "uint256"
        }
      ],
      "name": "ContractUnsigned",
      "type": "event"
    },
    {
      "anonymous": false,
      "inputs": [
        {
          "indexed": true,
          "name": "_party",
          "type": "address"
        }
      ],
      "name": "ContractAgreed",
      "type": "event"
    },
    {
      "anonymous": false,
      "inputs": [
        {
          "indexed": true,
          "name": "_party",
          "type": "address"
        }
      ],
      "name": "ContractUnagreed",
      "type": "event"
    },
    {
      "anonymous": false,
      "inputs": [
        {
          "indexed": true,
          "name": "_party",
          "type": "address"
        },
        {
          "indexed": false,
          "name": "_dispersal",
          "type": "uint256[]"
        },
        {
          "indexed": false,
          "name": "_funding",
          "type": "uint256[]"
        },
        {
          "indexed": false,
          "name": "_agreementHash",
          "type": "bytes32"
        }
      ],
      "name": "ContractAmendmentProposed",
      "type": "event"
    },
    {
      "anonymous": false,
      "inputs": [
        {
          "indexed": true,
          "name": "_party",
          "type": "address"
        }
      ],
      "name": "ContractAmendmentAgreed",
      "type": "event"
    },
    {
      "anonymous": false,
      "inputs": [
        {
          "indexed": true,
          "name": "_party",
          "type": "address"
        }
      ],
      "name": "ContractAmendmentUnagreed",
      "type": "event"
    },
    {
      "anonymous": false,
      "inputs": [
        {
          "indexed": true,
          "name": "_party",
          "type": "address"
        },
        {
          "indexed": false,
          "name": "_dispersal",
          "type": "uint256"
        }
      ],
      "name": "ContractWithdrawn",
      "type": "event"
    },
    {
      "anonymous": false,
      "inputs": [
        {
          "indexed": true,
          "name": "_party",
          "type": "address"
        },
        {
          "indexed": false,
          "name": "_dispersal",
          "type": "uint256[]"
        }
      ],
      "name": "ContractDisputed",
      "type": "event"
    },
    {
      "anonymous": false,
      "inputs": [
        {
          "indexed": true,
          "name": "_party",
          "type": "address"
        },
        {
          "indexed": false,
          "name": "_dispersal",
          "type": "uint256[]"
        }
      ],
      "name": "ContractDisputeDispersalAmended",
      "type": "event"
    },
    {
      "anonymous": false,
      "inputs": [
        {
          "indexed": false,
          "name": "_oldDisputeEnds",
          "type": "uint256"
        },
        {
          "indexed": false,
          "name": "_newDisputeEnds",
          "type": "uint256"
        }
      ],
      "name": "DisputeEndsAdjusted",
      "type": "event"
    },
    {
      "anonymous": false,
      "inputs": [
        {
          "indexed": false,
          "name": "_voter",
          "type": "address"
        },
        {
          "indexed": false,
          "name": "_party",
          "type": "address"
        },
        {
          "indexed": false,
          "name": "_amount",
          "type": "uint256"
        }
      ],
      "name": "VoteCast",
      "type": "event"
    },
    {
      "anonymous": false,
      "inputs": [
        {
          "indexed": false,
          "name": "_voter",
          "type": "address"
        },
        {
          "indexed": false,
          "name": "_tokenAmount",
          "type": "uint256"
        }
      ],
      "name": "VoterPayout",
      "type": "event"
    },
    {
      "anonymous": false,
      "inputs": [
        {
          "indexed": false,
          "name": "_party",
          "type": "address"
        },
        {
          "indexed": false,
          "name": "_tokenAmount",
          "type": "uint256"
        }
      ],
      "name": "PartyPayout",
      "type": "event"
    },
    {
      "constant": false,
      "inputs": [],
      "name": "sign",
      "outputs": [],
      "payable": false,
      "stateMutability": "nonpayable",
      "type": "function"
    },
    {
      "constant": false,
      "inputs": [
        {
          "name": "_sender",
          "type": "address"
        }
      ],
      "name": "signJUR",
      "outputs": [],
      "payable": false,
      "stateMutability": "nonpayable",
      "type": "function"
    },
    {
      "constant": false,
      "inputs": [],
      "name": "unsign",
      "outputs": [],
      "payable": false,
      "stateMutability": "nonpayable",
      "type": "function"
    },
    {
      "constant": false,
      "inputs": [],
      "name": "agree",
      "outputs": [],
      "payable": false,
      "stateMutability": "nonpayable",
      "type": "function"
    },
    {
      "constant": false,
      "inputs": [],
      "name": "unagree",
      "outputs": [],
      "payable": false,
      "stateMutability": "nonpayable",
      "type": "function"
    },
    {
      "constant": false,
      "inputs": [
        {
          "name": "_dispersal",
          "type": "uint256[]"
        },
        {
          "name": "_funding",
          "type": "uint256[]"
        },
        {
          "name": "_agreementHash",
          "type": "bytes32"
        }
      ],
      "name": "proposeAmendment",
      "outputs": [],
      "payable": false,
      "stateMutability": "nonpayable",
      "type": "function"
    },
    {
      "constant": false,
      "inputs": [
        {
          "name": "_sender",
          "type": "address"
        },
        {
          "name": "_dispersal",
          "type": "uint256[]"
        },
        {
          "name": "_funding",
          "type": "uint256[]"
        },
        {
          "name": "_agreementHash",
          "type": "bytes32"
        }
      ],
      "name": "proposeAmendmentJUR",
      "outputs": [],
      "payable": false,
      "stateMutability": "nonpayable",
      "type": "function"
    },
    {
      "constant": false,
      "inputs": [],
      "name": "agreeAmendment",
      "outputs": [],
      "payable": false,
      "stateMutability": "nonpayable",
      "type": "function"
    },
    {
      "constant": false,
      "inputs": [
        {
          "name": "_sender",
          "type": "address"
        }
      ],
      "name": "agreeAmendmentJUR",
      "outputs": [],
      "payable": false,
      "stateMutability": "nonpayable",
      "type": "function"
    },
    {
      "constant": false,
      "inputs": [],
      "name": "unagreeAmendment",
      "outputs": [],
      "payable": false,
      "stateMutability": "nonpayable",
      "type": "function"
    },
    {
      "constant": false,
      "inputs": [],
      "name": "withdrawDispersal",
      "outputs": [],
      "payable": false,
      "stateMutability": "nonpayable",
      "type": "function"
    },
    {
      "constant": false,
      "inputs": [
        {
          "name": "_voteAmount",
          "type": "uint256"
        },
        {
          "name": "_dispersal",
          "type": "uint256[]"
        }
      ],
      "name": "dispute",
      "outputs": [],
      "payable": false,
      "stateMutability": "nonpayable",
      "type": "function"
    },
    {
      "constant": false,
      "inputs": [
        {
          "name": "_sender",
          "type": "address"
        },
        {
          "name": "_voteAmount",
          "type": "uint256"
        },
        {
          "name": "_dispersal",
          "type": "uint256[]"
        }
      ],
      "name": "disputeJUR",
      "outputs": [],
      "payable": false,
      "stateMutability": "nonpayable",
      "type": "function"
    },
    {
      "constant": false,
      "inputs": [
        {
          "name": "_dispersal",
          "type": "uint256[]"
        }
      ],
      "name": "amendDisputeDispersal",
      "outputs": [],
      "payable": false,
      "stateMutability": "nonpayable",
      "type": "function"
    },
    {
      "constant": false,
      "inputs": [],
      "name": "calcDisputeEnds",
      "outputs": [
        {
          "name": "",
          "type": "uint256"
        }
      ],
      "payable": false,
      "stateMutability": "nonpayable",
      "type": "function"
    },
    {
      "constant": false,
      "inputs": [
        {
          "name": "_voteAddress",
          "type": "address"
        },
        {
          "name": "_voteAmount",
          "type": "uint256"
        }
      ],
      "name": "vote",
      "outputs": [],
      "payable": false,
      "stateMutability": "nonpayable",
      "type": "function"
    },
    {
      "constant": false,
      "inputs": [
        {
          "name": "_sender",
          "type": "address"
        },
        {
          "name": "_voteAddress",
          "type": "address"
        },
        {
          "name": "_voteAmount",
          "type": "uint256"
        }
      ],
      "name": "voteJUR",
      "outputs": [],
      "payable": false,
      "stateMutability": "nonpayable",
      "type": "function"
    },
    {
      "constant": false,
      "inputs": [
        {
          "name": "_start",
          "type": "uint256"
        }
      ],
      "name": "payoutVoter",
      "outputs": [],
      "payable": false,
      "stateMutability": "nonpayable",
      "type": "function"
    },
    {
      "constant": true,
      "inputs": [],
      "name": "getWinner",
      "outputs": [
        {
          "name": "",
          "type": "address"
        }
      ],
      "payable": false,
      "stateMutability": "view",
      "type": "function"
    },
    {
      "constant": true,
      "inputs": [],
      "name": "getWinnerAndBestMinorty",
      "outputs": [
        {
          "name": "",
          "type": "address"
        },
        {
          "name": "",
          "type": "address"
        }
      ],
      "payable": false,
      "stateMutability": "view",
      "type": "function"
    },
    {
      "constant": false,
      "inputs": [],
      "name": "payoutParty",
      "outputs": [],
      "payable": false,
      "stateMutability": "nonpayable",
      "type": "function"
    }
  ],
  "bytecode": "0x608060405262093a806001556201518060025561070860035561070860045566b1a2bc2ec50000600555662386f26fc100006006556000601b60006101000a81548160ff021916908360058111156200005457fe5b02179055503480156200006657600080fd5b5060405162006061380380620060618339810180604052810190808051906020019092919080518201929190602001805182019291906020018051820192919060200180519060200190929190505050600080600060028651148015620000ce575060028551145b8015620000dc575060028751145b1515620000e857600080fd5b6000876000815181101515620000fa57fe5b9060200190602002015173ffffffffffffffffffffffffffffffffffffffff161415801562000159575060008760018151811015156200013657fe5b9060200190602002015173ffffffffffffffffffffffffffffffffffffffff1614155b15156200016557600080fd5b6000925060009150600090505b86518160ff1610156200037457600160086000898460ff168151811015156200019757fe5b9060200190602002015173ffffffffffffffffffffffffffffffffffffffff1673ffffffffffffffffffffffffffffffffffffffff16815260200190815260200160002060006101000a81548160ff021916908315150217905550858160ff168151811015156200020457fe5b9060200190602002015160096000898460ff168151811015156200022457fe5b9060200190602002015173ffffffffffffffffffffffffffffffffffffffff1673ffffffffffffffffffffffffffffffffffffffff16815260200190815260200160002081905550848160ff168151811015156200027e57fe5b90602001906020020151600a6000898460ff168151811015156200029e57fe5b9060200190602002015173ffffffffffffffffffffffffffffffffffffffff1673ffffffffffffffffffffffffffffffffffffffff1681526020019081526020016000208190555062000324868260ff16815181101515620002fc57fe5b90602001906020020151836200052a6401000000000262003ef9179091906401000000009004565b915062000364858260ff168151811015156200033c57fe5b90602001906020020151846200052a6401000000000262003ef9179091906401000000009004565b9250808060010191505062000172565b81831415156200038357600080fd5b86600790805190602001906200039b92919062000547565b5083600e8160001916905550876000806101000a81548173ffffffffffffffffffffffffffffffffffffffff021916908373ffffffffffffffffffffffffffffffffffffffff160217905550866001815181101515620003f757fe5b9060200190602002015173ffffffffffffffffffffffffffffffffffffffff168760008151811015156200042757fe5b9060200190602002015173ffffffffffffffffffffffffffffffffffffffff167f18a9c4249303b74ecff5e58f4dcc486cd7de84cd3feec18d74f4c9216963fb9e8888886040518080602001806020018460001916600019168152602001838103835286818151815260200191508051906020019060200280838360005b83811015620004c2578082015181840152602081019050620004a5565b50505050905001838103825285818151815260200191508051906020019060200280838360005b8381101562000506578082015181840152602081019050620004e9565b505050509050019550505050505060405180910390a350505050505050506200061c565b600081830190508281101515156200053e57fe5b80905092915050565b828054828255906000526020600020908101928215620005c3579160200282015b82811115620005c25782518260006101000a81548173ffffffffffffffffffffffffffffffffffffffff021916908373ffffffffffffffffffffffffffffffffffffffff1602179055509160200191906001019062000568565b5b509050620005d29190620005d6565b5090565b6200061991905b808211156200061557600081816101000a81549073ffffffffffffffffffffffffffffffffffffffff021916905550600101620005dd565b5090565b90565b615a35806200062c6000396000f300608060405260043610610246576000357c0100000000000000000000000000000000000000000000000000000000900463ffffffff16806302edcbfb1461024b578063049f2d8a146103025780630ab55d0b146103595780630d15fd771461038c57806312feb4a7146103b7578063188c0e43146103e25780631ff2e2141461041557806321979f5f146104ec57806325ce690b146105195780632731c6c6146105705780632a50b5441461059b5780632ca15122146105c65780632efab6fa146105dd5780632f36cacf1461060857806337c2afda146106785780633ad17f6d146106bb57806341e60c8614610745578063446332971461075c5780634f235207146107d35780634f802f8a1461082e57806352e18f33146108455780635a9e17a7146108705780635cfe585a1461089b5780635e2c19db146108c65780635f068b43146109215780635f74bbde1461097857806360d50596146109c557806364a8a11f14610a32578063682644fd14610a9f57806368e664bd14610afa5780636eae555d14610b5557806374e6cfd314610bbb5780638b90dc9414610c125780638bfb85c314610c415780638e7ea5b214610c585780638fae60a514610caf578063918c937314610cc6578063994d406014610cf15780639cff621a14610d48578063a7e92fb514610d5f578063adef40db14610d76578063b40b784114610e06578063b7c1ae8114610e31578063bf6a141314610e88578063c19d93fb14610ee3578063d5e03fc614610f1c578063f585dc5714610f33578063fc76317614610f5e575b600080fd5b34801561025757600080fd5b5061030060048036038101908080359060200190820180359060200190808060200260200160405190810160405280939291908181526020018383602002808284378201915050505050509192919290803590602001908201803590602001908080602002602001604051908101604052809392919081815260200183836020028082843782019150505050505091929192908035600019169060200190929190505050610fa1565b005b34801561030e57600080fd5b50610343600480360381019080803573ffffffffffffffffffffffffffffffffffffffff169060200190929190505050610fb2565b6040518082815260200191505060405180910390f35b34801561036557600080fd5b5061036e610fca565b60405180826000191660001916815260200191505060405180910390f35b34801561039857600080fd5b506103a1610fd0565b6040518082815260200191505060405180910390f35b3480156103c357600080fd5b506103cc610fd6565b6040518082815260200191505060405180910390f35b3480156103ee57600080fd5b506103f7610fdc565b60405180826000191660001916815260200191505060405180910390f35b34801561042157600080fd5b506104ea600480360381019080803573ffffffffffffffffffffffffffffffffffffffff16906020019092919080359060200190820180359060200190808060200260200160405190810160405280939291908181526020018383602002808284378201915050505050509192919290803590602001908201803590602001908080602002602001604051908101604052809392919081815260200183836020028082843782019150505050505091929192908035600019169060200190929190505050610fe2565b005b3480156104f857600080fd5b506105176004803603810190808035906020019092919050505061104f565b005b34801561052557600080fd5b5061055a600480360381019080803573ffffffffffffffffffffffffffffffffffffffff169060200190929190505050611798565b6040518082815260200191505060405180910390f35b34801561057c57600080fd5b506105856117b0565b6040518082815260200191505060405180910390f35b3480156105a757600080fd5b506105b06117b6565b6040518082815260200191505060405180910390f35b3480156105d257600080fd5b506105db6117bc565b005b3480156105e957600080fd5b506105f26117c7565b6040518082815260200191505060405180910390f35b34801561061457600080fd5b5061067660048036038101908080359060200190929190803590602001908201803590602001908080602002602001604051908101604052809392919081815260200183836020028082843782019150505050505091929192905050506117cd565b005b34801561068457600080fd5b506106b9600480360381019080803573ffffffffffffffffffffffffffffffffffffffff1690602001909291905050506117dc565b005b3480156106c757600080fd5b506106d0611843565b604051808373ffffffffffffffffffffffffffffffffffffffff1673ffffffffffffffffffffffffffffffffffffffff1681526020018273ffffffffffffffffffffffffffffffffffffffff1673ffffffffffffffffffffffffffffffffffffffff1681526020019250505060405180910390f35b34801561075157600080fd5b5061075a611aba565b005b34801561076857600080fd5b506107bd600480360381019080803573ffffffffffffffffffffffffffffffffffffffff169060200190929190803573ffffffffffffffffffffffffffffffffffffffff169060200190929190505050611dd0565b6040518082815260200191505060405180910390f35b3480156107df57600080fd5b50610814600480360381019080803573ffffffffffffffffffffffffffffffffffffffff169060200190929190505050611df5565b604051808215151515815260200191505060405180910390f35b34801561083a57600080fd5b50610843611e15565b005b34801561085157600080fd5b5061085a6123b8565b6040518082815260200191505060405180910390f35b34801561087c57600080fd5b506108856123be565b6040518082815260200191505060405180910390f35b3480156108a757600080fd5b506108b06123c4565b6040518082815260200191505060405180910390f35b3480156108d257600080fd5b50610907600480360381019080803573ffffffffffffffffffffffffffffffffffffffff169060200190929190505050612720565b604051808215151515815260200191505060405180910390f35b34801561092d57600080fd5b50610936612740565b604051808273ffffffffffffffffffffffffffffffffffffffff1673ffffffffffffffffffffffffffffffffffffffff16815260200191505060405180910390f35b34801561098457600080fd5b506109c3600480360381019080803573ffffffffffffffffffffffffffffffffffffffff16906020019092919080359060200190929190505050612765565b005b3480156109d157600080fd5b506109f060048036038101908080359060200190929190505050612774565b604051808273ffffffffffffffffffffffffffffffffffffffff1673ffffffffffffffffffffffffffffffffffffffff16815260200191505060405180910390f35b348015610a3e57600080fd5b50610a9d600480360381019080803573ffffffffffffffffffffffffffffffffffffffff169060200190929190803573ffffffffffffffffffffffffffffffffffffffff169060200190929190803590602001909291905050506127b2565b005b348015610aab57600080fd5b50610ae0600480360381019080803573ffffffffffffffffffffffffffffffffffffffff16906020019092919050505061281d565b604051808215151515815260200191505060405180910390f35b348015610b0657600080fd5b50610b3b600480360381019080803573ffffffffffffffffffffffffffffffffffffffff16906020019092919050505061283d565b604051808215151515815260200191505060405180910390f35b348015610b6157600080fd5b50610bb96004803603810190808035906020019082018035906020019080806020026020016040519081016040528093929190818152602001838360200280828437820191505050505050919291929050505061285d565b005b348015610bc757600080fd5b50610bfc600480360381019080803573ffffffffffffffffffffffffffffffffffffffff169060200190929190505050612b7e565b6040518082815260200191505060405180910390f35b348015610c1e57600080fd5b50610c27612b96565b604051808215151515815260200191505060405180910390f35b348015610c4d57600080fd5b50610c56612ba9565b005b348015610c6457600080fd5b50610c6d612bb4565b604051808273ffffffffffffffffffffffffffffffffffffffff1673ffffffffffffffffffffffffffffffffffffffff16815260200191505060405180910390f35b348015610cbb57600080fd5b50610cc4612d6c565b005b348015610cd257600080fd5b50610cdb612fc0565b6040518082815260200191505060405180910390f35b348015610cfd57600080fd5b50610d32600480360381019080803573ffffffffffffffffffffffffffffffffffffffff169060200190929190505050612fc6565b6040518082815260200191505060405180910390f35b348015610d5457600080fd5b50610d5d612fde565b005b348015610d6b57600080fd5b50610d7461344b565b005b348015610d8257600080fd5b50610e04600480360381019080803573ffffffffffffffffffffffffffffffffffffffff16906020019092919080359060200190929190803590602001908201803590602001908080602002602001604051908101604052809392919081815260200183836020028082843782019150505050505091929192905050506135ce565b005b348015610e1257600080fd5b50610e1b613639565b6040518082815260200191505060405180910390f35b348015610e3d57600080fd5b50610e72600480360381019080803573ffffffffffffffffffffffffffffffffffffffff16906020019092919050505061363f565b6040518082815260200191505060405180910390f35b348015610e9457600080fd5b50610ec9600480360381019080803573ffffffffffffffffffffffffffffffffffffffff169060200190929190505050613657565b604051808215151515815260200191505060405180910390f35b348015610eef57600080fd5b50610ef8613677565b60405180826005811115610f0857fe5b60ff16815260200191505060405180910390f35b348015610f2857600080fd5b50610f3161368a565b005b348015610f3f57600080fd5b50610f48613a44565b6040518082815260200191505060405180910390f35b348015610f6a57600080fd5b50610f9f600480360381019080803573ffffffffffffffffffffffffffffffffffffffff169060200190929190505050613a4a565b005b610fad33848484613ab1565b505050565b600a6020528060005260406000206000915090505481565b600e5481565b60175481565b60165481565b600f5481565b6000809054906101000a900473ffffffffffffffffffffffffffffffffffffffff1673ffffffffffffffffffffffffffffffffffffffff163373ffffffffffffffffffffffffffffffffffffffff1614151561103d57600080fd5b61104984848484613ab1565b50505050565b600080600080600080600080600380600581111561106957fe5b601b60009054906101000a900460ff16600581111561108457fe5b14151561109057600080fd5b6110986123c4565b9850601654891415156110ee577f04e9f9a05f2b0f7b76cbaeafc40a3136a1870f82f8eff85e766f7eb868a8b9e089601654604051808381526020018281526020019250505060405180910390a1886016819055505b6016546110f9613e71565b1015151561110657600080fd5b61110e611843565b809850819950505061116a601960008a73ffffffffffffffffffffffffffffffffffffffff1673ffffffffffffffffffffffffffffffffffffffff16815260200190815260200160002054601754613e7990919063ffffffff16565b9550601960008873ffffffffffffffffffffffffffffffffffffffff1673ffffffffffffffffffffffffffffffffffffffff168152602001908152602001600020549450600093506000861415156111ec576111e9856111db670de0b6b3a764000089613e9290919063ffffffff16565b613eca90919063ffffffff16565b93505b600092508991505b601a60003373ffffffffffffffffffffffffffffffffffffffff1673ffffffffffffffffffffffffffffffffffffffff16815260200190815260200160002060008973ffffffffffffffffffffffffffffffffffffffff1673ffffffffffffffffffffffffffffffffffffffff168152602001908152602001600020805490508210156115f657601a60003373ffffffffffffffffffffffffffffffffffffffff1673ffffffffffffffffffffffffffffffffffffffff16815260200190815260200160002060008973ffffffffffffffffffffffffffffffffffffffff1673ffffffffffffffffffffffffffffffffffffffff1681526020019081526020016000208281548110151561130457fe5b906000526020600020906003020160020160009054906101000a900460ff1615156115e95784601a60003373ffffffffffffffffffffffffffffffffffffffff1673ffffffffffffffffffffffffffffffffffffffff16815260200190815260200160002060008a73ffffffffffffffffffffffffffffffffffffffff1673ffffffffffffffffffffffffffffffffffffffff168152602001908152602001600020838154811015156113b357fe5b9060005260206000209060030201600101541015156113d1576115f6565b611533611524611484601a60003373ffffffffffffffffffffffffffffffffffffffff1673ffffffffffffffffffffffffffffffffffffffff16815260200190815260200160002060008c73ffffffffffffffffffffffffffffffffffffffff1673ffffffffffffffffffffffffffffffffffffffff1681526020019081526020016000208581548110151561146357fe5b90600052602060002090600302016001015488613e7990919063ffffffff16565b601a60003373ffffffffffffffffffffffffffffffffffffffff1673ffffffffffffffffffffffffffffffffffffffff16815260200190815260200160002060008c73ffffffffffffffffffffffffffffffffffffffff1673ffffffffffffffffffffffffffffffffffffffff1681526020019081526020016000208581548110151561150d57fe5b906000526020600020906003020160000154613ee0565b84613ef990919063ffffffff16565b92506001601a60003373ffffffffffffffffffffffffffffffffffffffff1673ffffffffffffffffffffffffffffffffffffffff16815260200190815260200160002060008a73ffffffffffffffffffffffffffffffffffffffff1673ffffffffffffffffffffffffffffffffffffffff168152602001908152602001600020838154811015156115c057fe5b906000526020600020906003020160020160006101000a81548160ff0219169083151502179055505b81806001019250506111f4565b6000809054906101000a900473ffffffffffffffffffffffffffffffffffffffff1673ffffffffffffffffffffffffffffffffffffffff1663a9059cbb336116478787613e9290919063ffffffff16565b6040518363ffffffff167c0100000000000000000000000000000000000000000000000000000000028152600401808373ffffffffffffffffffffffffffffffffffffffff1673ffffffffffffffffffffffffffffffffffffffff16815260200182815260200192505050602060405180830381600087803b1580156116cc57600080fd5b505af11580156116e0573d6000803e3d6000fd5b505050506040513d60208110156116f657600080fd5b8101908080519060200190929190505050151561170f57fe5b7f9001ab89f4ed649b6c20a790e2bdeebce84d1843d739a56a1f77a4410a200d18336117448686613e9290919063ffffffff16565b604051808373ffffffffffffffffffffffffffffffffffffffff1673ffffffffffffffffffffffffffffffffffffffff1681526020018281526020019250505060405180910390a150505050505050505050565b60096020528060005260406000206000915090505481565b60015481565b60025481565b6117c533613f15565b565b60065481565b6117d8338383614333565b5050565b6000809054906101000a900473ffffffffffffffffffffffffffffffffffffffff1673ffffffffffffffffffffffffffffffffffffffff163373ffffffffffffffffffffffffffffffffffffffff1614151561183757600080fd5b61184081613f15565b50565b600080600080600080611854612bb4565b9350600073ffffffffffffffffffffffffffffffffffffffff168473ffffffffffffffffffffffffffffffffffffffff16146118915760006118cd565b600760008154811015156118a157fe5b9060005260206000200160009054906101000a900473ffffffffffffffffffffffffffffffffffffffff165b9250601960008473ffffffffffffffffffffffffffffffffffffffff1673ffffffffffffffffffffffffffffffffffffffff168152602001908152602001600020549150600090505b6007805490508160ff161015611aac576019600060078360ff1681548110151561193c57fe5b9060005260206000200160009054906101000a900473ffffffffffffffffffffffffffffffffffffffff1673ffffffffffffffffffffffffffffffffffffffff1673ffffffffffffffffffffffffffffffffffffffff1681526020019081526020016000205482108015611a18575060078160ff168154811015156119bd57fe5b9060005260206000200160009054906101000a900473ffffffffffffffffffffffffffffffffffffffff1673ffffffffffffffffffffffffffffffffffffffff168473ffffffffffffffffffffffffffffffffffffffff1614155b15611a9f5760078160ff16815481101515611a2f57fe5b9060005260206000200160009054906101000a900473ffffffffffffffffffffffffffffffffffffffff169250601960008473ffffffffffffffffffffffffffffffffffffffff1673ffffffffffffffffffffffffffffffffffffffff1681526020019081526020016000205491505b8080600101915050611916565b838395509550505050509091565b6000806005811115611ac857fe5b601b60009054906101000a900460ff166005811115611ae357fe5b141515611aef57600080fd5b600860003373ffffffffffffffffffffffffffffffffffffffff1673ffffffffffffffffffffffffffffffffffffffff16815260200190815260200160002060009054906101000a900460ff161515611b4757600080fd5b601060003373ffffffffffffffffffffffffffffffffffffffff1673ffffffffffffffffffffffffffffffffffffffff16815260200190815260200160002060009054906101000a900460ff161515611b9f57600080fd5b6000601060003373ffffffffffffffffffffffffffffffffffffffff1673ffffffffffffffffffffffffffffffffffffffff16815260200190815260200160002060006101000a81548160ff0219169083151502179055506000809054906101000a900473ffffffffffffffffffffffffffffffffffffffff1673ffffffffffffffffffffffffffffffffffffffff1663a9059cbb33600a60003373ffffffffffffffffffffffffffffffffffffffff1673ffffffffffffffffffffffffffffffffffffffff168152602001908152602001600020546040518363ffffffff167c0100000000000000000000000000000000000000000000000000000000028152600401808373ffffffffffffffffffffffffffffffffffffffff1673ffffffffffffffffffffffffffffffffffffffff16815260200182815260200192505050602060405180830381600087803b158015611cfa57600080fd5b505af1158015611d0e573d6000803e3d6000fd5b505050506040513d6020811015611d2457600080fd5b81019080805190602001909291905050501515611d4057600080fd5b3373ffffffffffffffffffffffffffffffffffffffff167ff915f6adcfba53634fa63225573ad1f78d2f842387fe91379c27c14a259537cf600a60003373ffffffffffffffffffffffffffffffffffffffff1673ffffffffffffffffffffffffffffffffffffffff168152602001908152602001600020546040518082815260200191505060405180910390a250565b600d602052816000526040600020602052806000526040600020600091509150505481565b60086020528060005260406000206000915054906101000a900460ff1681565b6000806001806005811115611e2657fe5b601b60009054906101000a900460ff166005811115611e4157fe5b141515611e4d57600080fd5b600860003373ffffffffffffffffffffffffffffffffffffffff1673ffffffffffffffffffffffffffffffffffffffff16815260200190815260200160002060009054906101000a900460ff161515611ea557600080fd5b601460009054906101000a900460ff161515611ec057600080fd5b6000601460006101000a81548160ff021916908315150217905550600092505b6007805490508360ff161015612370576013600060078560ff16815481101515611f0657fe5b9060005260206000200160009054906101000a900473ffffffffffffffffffffffffffffffffffffffff1673ffffffffffffffffffffffffffffffffffffffff1673ffffffffffffffffffffffffffffffffffffffff16815260200190815260200160002060009054906101000a900460ff16156123635760006013600060078660ff16815481101515611f9657fe5b9060005260206000200160009054906101000a900473ffffffffffffffffffffffffffffffffffffffff1673ffffffffffffffffffffffffffffffffffffffff1673ffffffffffffffffffffffffffffffffffffffff16815260200190815260200160002060006101000a81548160ff021916908315150217905550600a600060078560ff1681548110151561202857fe5b9060005260206000200160009054906101000a900473ffffffffffffffffffffffffffffffffffffffff1673ffffffffffffffffffffffffffffffffffffffff1673ffffffffffffffffffffffffffffffffffffffff16815260200190815260200160002054600c600060078660ff168154811015156120a457fe5b9060005260206000200160009054906101000a900473ffffffffffffffffffffffffffffffffffffffff1673ffffffffffffffffffffffffffffffffffffffff1673ffffffffffffffffffffffffffffffffffffffff16815260200190815260200160002054111561236257612219600a600060078660ff1681548110151561212957fe5b9060005260206000200160009054906101000a900473ffffffffffffffffffffffffffffffffffffffff1673ffffffffffffffffffffffffffffffffffffffff1673ffffffffffffffffffffffffffffffffffffffff16815260200190815260200160002054600c600060078760ff168154811015156121a557fe5b9060005260206000200160009054906101000a900473ffffffffffffffffffffffffffffffffffffffff1673ffffffffffffffffffffffffffffffffffffffff1673ffffffffffffffffffffffffffffffffffffffff16815260200190815260200160002054613e7990919063ffffffff16565b91506000809054906101000a900473ffffffffffffffffffffffffffffffffffffffff1673ffffffffffffffffffffffffffffffffffffffff1663a9059cbb60078560ff1681548110151561226a57fe5b9060005260206000200160009054906101000a900473ffffffffffffffffffffffffffffffffffffffff16846040518363ffffffff167c0100000000000000000000000000000000000000000000000000000000028152600401808373ffffffffffffffffffffffffffffffffffffffff1673ffffffffffffffffffffffffffffffffffffffff16815260200182815260200192505050602060405180830381600087803b15801561231b57600080fd5b505af115801561232f573d6000803e3d6000fd5b505050506040513d602081101561234557600080fd5b8101908080519060200190929190505050151561236157600080fd5b5b5b8280600101935050611ee0565b3373ffffffffffffffffffffffffffffffffffffffff167fc42ff889a5bf104cb88fddd83f34d59c6162fb4c97c5c075d3e5143b977407d060405160405180910390a2505050565b60055481565b60185481565b600080600080600060038060058111156123da57fe5b601b60009054906101000a900460ff1660058111156123f557fe5b14151561240157600080fd5b60165461240c613e71565b101561241757612718565b612448670de0b6b3a764000061243a600554601754613e9290919063ffffffff16565b613eca90919063ffffffff16565b6018541115612477576000601881905550612470600454601654613ef990919063ffffffff16565b9550612718565b601960008073ffffffffffffffffffffffffffffffffffffffff1673ffffffffffffffffffffffffffffffffffffffff168152602001908152602001600020549450600093505b6007805490508460ff1610156125dd57846019600060078760ff168154811015156124e557fe5b9060005260206000200160009054906101000a900473ffffffffffffffffffffffffffffffffffffffff1673ffffffffffffffffffffffffffffffffffffffff1673ffffffffffffffffffffffffffffffffffffffff1681526020019081526020016000205411156125d0576019600060078660ff1681548110151561256757fe5b9060005260206000200160009054906101000a900473ffffffffffffffffffffffffffffffffffffffff1673ffffffffffffffffffffffffffffffffffffffff1673ffffffffffffffffffffffffffffffffffffffff1681526020019081526020016000205494505b83806001019450506124be565b6000925084601960008073ffffffffffffffffffffffffffffffffffffffff1673ffffffffffffffffffffffffffffffffffffffff16815260200190815260200160002054141561262f576001830192505b600091505b6007805490508260ff1610156126db57846019600060078560ff1681548110151561265b57fe5b9060005260206000200160009054906101000a900473ffffffffffffffffffffffffffffffffffffffff1673ffffffffffffffffffffffffffffffffffffffff1673ffffffffffffffffffffffffffffffffffffffff1681526020019081526020016000205414156126ce576001830192505b8180600101925050612634565b60018360ff16111561271257600060188190555061270b6004546126fd613e71565b613ef990919063ffffffff16565b9550612718565b60165495505b505050505090565b60126020528060005260406000206000915054906101000a900460ff1681565b6000809054906101000a900473ffffffffffffffffffffffffffffffffffffffff1681565b612770338383614856565b5050565b60078181548110151561278357fe5b906000526020600020016000915054906101000a900473ffffffffffffffffffffffffffffffffffffffff1681565b6000809054906101000a900473ffffffffffffffffffffffffffffffffffffffff1673ffffffffffffffffffffffffffffffffffffffff163373ffffffffffffffffffffffffffffffffffffffff1614151561280d57600080fd5b612818838383614856565b505050565b60116020528060005260406000206000915054906101000a900460ff1681565b60136020528060005260406000206000915054906101000a900460ff1681565b6000806000600380600581111561287057fe5b601b60009054906101000a900460ff16600581111561288b57fe5b14151561289757600080fd5b600860003373ffffffffffffffffffffffffffffffffffffffff1673ffffffffffffffffffffffffffffffffffffffff16815260200190815260200160002060009054906101000a900460ff1615156128ef57600080fd5b600780549050855114151561290357600080fd5b60155461290e613e71565b10151561291a57600080fd5b6000935060009250600091505b6007805490508260ff161015612ada57848260ff1681518110151561294857fe5b90602001906020020151600d60003373ffffffffffffffffffffffffffffffffffffffff1673ffffffffffffffffffffffffffffffffffffffff168152602001908152602001600020600060078560ff168154811015156129a557fe5b9060005260206000200160009054906101000a900473ffffffffffffffffffffffffffffffffffffffff1673ffffffffffffffffffffffffffffffffffffffff1673ffffffffffffffffffffffffffffffffffffffff16815260200190815260200160002081905550612a3b858360ff16815181101515612a2257fe5b9060200190602002015185613ef990919063ffffffff16565b9350612acb600a600060078560ff16815481101515612a5657fe5b9060005260206000200160009054906101000a900473ffffffffffffffffffffffffffffffffffffffff1673ffffffffffffffffffffffffffffffffffffffff1673ffffffffffffffffffffffffffffffffffffffff1681526020019081526020016000205484613ef990919063ffffffff16565b92508180600101925050612927565b8284141515612ae857600080fd5b3373ffffffffffffffffffffffffffffffffffffffff167fe98983adb63591508c2f748970470e7487b3bebd763d08abc3334beeb72a00b0866040518080602001828103825283818151815260200191508051906020019060200280838360005b83811015612b64578082015181840152602081019050612b49565b505050509050019250505060405180910390a25050505050565b60196020528060005260406000206000915090505481565b601460009054906101000a900460ff1681565b612bb233614e5a565b565b600080600080601960008073ffffffffffffffffffffffffffffffffffffffff1673ffffffffffffffffffffffffffffffffffffffff16815260200190815260200160002054925060009150600090505b6007805490508160ff161015612d63576019600060078360ff16815481101515612c2b57fe5b9060005260206000200160009054906101000a900473ffffffffffffffffffffffffffffffffffffffff1673ffffffffffffffffffffffffffffffffffffffff1673ffffffffffffffffffffffffffffffffffffffff16815260200190815260200160002054831015612d56576019600060078360ff16815481101515612cae57fe5b9060005260206000200160009054906101000a900473ffffffffffffffffffffffffffffffffffffffff1673ffffffffffffffffffffffffffffffffffffffff1673ffffffffffffffffffffffffffffffffffffffff16815260200190815260200160002054925060078160ff16815481101515612d2857fe5b9060005260206000200160009054906101000a900473ffffffffffffffffffffffffffffffffffffffff1691505b8080600101915050612c05565b81935050505090565b6000806001806005811115612d7d57fe5b601b60009054906101000a900460ff166005811115612d9857fe5b141515612da457600080fd5b600860003373ffffffffffffffffffffffffffffffffffffffff1673ffffffffffffffffffffffffffffffffffffffff16815260200190815260200160002060009054906101000a900460ff161515612dfc57600080fd5b601160003373ffffffffffffffffffffffffffffffffffffffff1673ffffffffffffffffffffffffffffffffffffffff16815260200190815260200160002060009054906101000a900460ff16151515612e5557600080fd5b6001601160003373ffffffffffffffffffffffffffffffffffffffff1673ffffffffffffffffffffffffffffffffffffffff16815260200190815260200160002060006101000a81548160ff02191690831515021790555060019250600091505b6007805490508260ff161015612f6757828015612f5857506011600060078460ff16815481101515612ee457fe5b9060005260206000200160009054906101000a900473ffffffffffffffffffffffffffffffffffffffff1673ffffffffffffffffffffffffffffffffffffffff1673ffffffffffffffffffffffffffffffffffffffff16815260200190815260200160002060009054906101000a900460ff165b92508180600101925050612eb6565b8215612f7857612f776002615946565b5b3373ffffffffffffffffffffffffffffffffffffffff167fcdfedae112bb2610775e69a6ffd348e7dfdd996e3fb3a5f6d46b52651867b49760405160405180910390a2505050565b60155481565b600b6020528060005260406000206000915090505481565b6000806002806005811115612fef57fe5b601b60009054906101000a900460ff16600581111561300a57fe5b14151561301657600080fd5b600860003373ffffffffffffffffffffffffffffffffffffffff1673ffffffffffffffffffffffffffffffffffffffff16815260200190815260200160002060009054906101000a900460ff16151561306e57600080fd5b601260003373ffffffffffffffffffffffffffffffffffffffff1673ffffffffffffffffffffffffffffffffffffffff16815260200190815260200160002060009054906101000a900460ff161515156130c757600080fd5b6001601260003373ffffffffffffffffffffffffffffffffffffffff1673ffffffffffffffffffffffffffffffffffffffff16815260200190815260200160002060006101000a81548160ff0219169083151502179055506000809054906101000a900473ffffffffffffffffffffffffffffffffffffffff1673ffffffffffffffffffffffffffffffffffffffff1663a9059cbb33600960003373ffffffffffffffffffffffffffffffffffffffff1673ffffffffffffffffffffffffffffffffffffffff168152602001908152602001600020546040518363ffffffff167c0100000000000000000000000000000000000000000000000000000000028152600401808373ffffffffffffffffffffffffffffffffffffffff1673ffffffffffffffffffffffffffffffffffffffff16815260200182815260200192505050602060405180830381600087803b15801561322257600080fd5b505af1158015613236573d6000803e3d6000fd5b505050506040513d602081101561324c57600080fd5b8101908080519060200190929190505050151561326857600080fd5b60019250600091505b6007805490508260ff1610156133a85782801561339957506012600060078460ff1681548110151561329f57fe5b9060005260206000200160009054906101000a900473ffffffffffffffffffffffffffffffffffffffff1673ffffffffffffffffffffffffffffffffffffffff1673ffffffffffffffffffffffffffffffffffffffff16815260200190815260200160002060009054906101000a900460ff1680613398575060006009600060078560ff1681548110151561333057fe5b9060005260206000200160009054906101000a900473ffffffffffffffffffffffffffffffffffffffff1673ffffffffffffffffffffffffffffffffffffffff1673ffffffffffffffffffffffffffffffffffffffff16815260200190815260200160002054145b5b92508180600101925050613271565b3373ffffffffffffffffffffffffffffffffffffffff167f76cc4dd05e1fc280969f3363b5db432911cddfadcfae9bef818a492c0f8d5732600960003373ffffffffffffffffffffffffffffffffffffffff1673ffffffffffffffffffffffffffffffffffffffff168152602001908152602001600020546040518082815260200191505060405180910390a28215613446576134456004615946565b5b505050565b600180600581111561345957fe5b601b60009054906101000a900460ff16600581111561347457fe5b14151561348057600080fd5b600860003373ffffffffffffffffffffffffffffffffffffffff1673ffffffffffffffffffffffffffffffffffffffff16815260200190815260200160002060009054906101000a900460ff1615156134d857600080fd5b601160003373ffffffffffffffffffffffffffffffffffffffff1673ffffffffffffffffffffffffffffffffffffffff16815260200190815260200160002060009054906101000a900460ff16151561353057600080fd5b6000601160003373ffffffffffffffffffffffffffffffffffffffff1673ffffffffffffffffffffffffffffffffffffffff16815260200190815260200160002060006101000a81548160ff0219169083151502179055503373ffffffffffffffffffffffffffffffffffffffff167f6faffafe1cb6a0bf26e66cc0178734aa9fe07d7c6961884c4a93920423c0bd0e60405160405180910390a250565b6000809054906101000a900473ffffffffffffffffffffffffffffffffffffffff1673ffffffffffffffffffffffffffffffffffffffff163373ffffffffffffffffffffffffffffffffffffffff1614151561362957600080fd5b613634838383614333565b505050565b60045481565b600c6020528060005260406000206000915090505481565b60106020528060005260406000206000915054906101000a900460ff1681565b601b60009054906101000a900460ff1681565b6000806000600380600581111561369d57fe5b601b60009054906101000a900460ff1660058111156136b857fe5b1415156136c457600080fd5b600860003373ffffffffffffffffffffffffffffffffffffffff1673ffffffffffffffffffffffffffffffffffffffff16815260200190815260200160002060009054906101000a900460ff16151561371c57600080fd5b6137246123c4565b93506016548414151561377a577f04e9f9a05f2b0f7b76cbaeafc40a3136a1870f82f8eff85e766f7eb868a8b9e084601654604051808381526020018281526020019250505060405180910390a1836016819055505b601654613785613e71565b1015151561379257600080fd5b601260003373ffffffffffffffffffffffffffffffffffffffff1673ffffffffffffffffffffffffffffffffffffffff16815260200190815260200160002060009054906101000a900460ff161515156137eb57600080fd5b6001601260003373ffffffffffffffffffffffffffffffffffffffff1673ffffffffffffffffffffffffffffffffffffffff16815260200190815260200160002060006101000a81548160ff02191690831515021790555061384b612bb4565b9250600d60008473ffffffffffffffffffffffffffffffffffffffff1673ffffffffffffffffffffffffffffffffffffffff16815260200190815260200160002060003373ffffffffffffffffffffffffffffffffffffffff1673ffffffffffffffffffffffffffffffffffffffff1681526020019081526020016000205491506000809054906101000a900473ffffffffffffffffffffffffffffffffffffffff1673ffffffffffffffffffffffffffffffffffffffff1663a9059cbb33846040518363ffffffff167c0100000000000000000000000000000000000000000000000000000000028152600401808373ffffffffffffffffffffffffffffffffffffffff1673ffffffffffffffffffffffffffffffffffffffff16815260200182815260200192505050602060405180830381600087803b15801561399057600080fd5b505af11580156139a4573d6000803e3d6000fd5b505050506040513d60208110156139ba57600080fd5b810190808051906020019092919050505015156139d357fe5b7f529314119e568ebeb046e7fb288642e03aea33279f2f6762afd0e56a74c7aa423383604051808373ffffffffffffffffffffffffffffffffffffffff1673ffffffffffffffffffffffffffffffffffffffff1681526020018281526020019250505060405180910390a150505050565b60035481565b6000809054906101000a900473ffffffffffffffffffffffffffffffffffffffff1673ffffffffffffffffffffffffffffffffffffffff163373ffffffffffffffffffffffffffffffffffffffff16141515613aa557600080fd5b613aae81614e5a565b50565b60008060006001806005811115613ac457fe5b601b60009054906101000a900460ff166005811115613adf57fe5b141515613aeb57600080fd5b87600860008273ffffffffffffffffffffffffffffffffffffffff1673ffffffffffffffffffffffffffffffffffffffff16815260200190815260200160002060009054906101000a900460ff161515613b4457600080fd5b601460009054906101000a900460ff16151515613b6057600080fd5b6001601460006101000a81548160ff0219169083151502179055506007805490508851148015613b9557506007805490508751145b1515613ba057600080fd5b6000945060009350600092505b6007805490508360ff161015613d5c57878360ff16815181101515613bce57fe5b90602001906020020151600b600060078660ff16815481101515613bee57fe5b9060005260206000200160009054906101000a900473ffffffffffffffffffffffffffffffffffffffff1673ffffffffffffffffffffffffffffffffffffffff1673ffffffffffffffffffffffffffffffffffffffff16815260200190815260200160002081905550868360ff16815181101515613c6857fe5b90602001906020020151600c600060078660ff16815481101515613c8857fe5b9060005260206000200160009054906101000a900473ffffffffffffffffffffffffffffffffffffffff1673ffffffffffffffffffffffffffffffffffffffff1673ffffffffffffffffffffffffffffffffffffffff16815260200190815260200160002081905550613d1e888460ff16815181101515613d0557fe5b9060200190602002015185613ef990919063ffffffff16565b9350613d4d878460ff16815181101515613d3457fe5b9060200190602002015186613ef990919063ffffffff16565b94508280600101935050613bad565b8385141515613d6a57600080fd5b85600f8160001916905550613d7e89614e5a565b8873ffffffffffffffffffffffffffffffffffffffff167fd33aabc7fc9a1f5861dc19acc754cc8fe8c4400063f1e32d2bf90ac64b628daf8989896040518080602001806020018460001916600019168152602001838103835286818151815260200191508051906020019060200280838360005b83811015613e0e578082015181840152602081019050613df3565b50505050905001838103825285818151815260200191508051906020019060200280838360005b83811015613e50578082015181840152602081019050613e35565b505050509050019550505050505060405180910390a2505050505050505050565b600042905090565b6000828211151515613e8757fe5b818303905092915050565b600080831415613ea55760009050613ec4565b8183029050818382811515613eb657fe5b04141515613ec057fe5b8090505b92915050565b60008183811515613ed757fe5b04905092915050565b6000818310613eef5781613ef1565b825b905092915050565b60008183019050828110151515613f0c57fe5b80905092915050565b6000806000806005811115613f2657fe5b601b60009054906101000a900460ff166005811115613f4157fe5b141515613f4d57600080fd5b83600860008273ffffffffffffffffffffffffffffffffffffffff1673ffffffffffffffffffffffffffffffffffffffff16815260200190815260200160002060009054906101000a900460ff161515613fa657600080fd5b601060008673ffffffffffffffffffffffffffffffffffffffff1673ffffffffffffffffffffffffffffffffffffffff16815260200190815260200160002060009054906101000a900460ff16151515613fff57600080fd5b6001601060008773ffffffffffffffffffffffffffffffffffffffff1673ffffffffffffffffffffffffffffffffffffffff16815260200190815260200160002060006101000a81548160ff0219169083151502179055506000809054906101000a900473ffffffffffffffffffffffffffffffffffffffff1673ffffffffffffffffffffffffffffffffffffffff166323b872dd8630600a60008a73ffffffffffffffffffffffffffffffffffffffff1673ffffffffffffffffffffffffffffffffffffffff168152602001908152602001600020546040518463ffffffff167c0100000000000000000000000000000000000000000000000000000000028152600401808473ffffffffffffffffffffffffffffffffffffffff1673ffffffffffffffffffffffffffffffffffffffff1681526020018373ffffffffffffffffffffffffffffffffffffffff1673ffffffffffffffffffffffffffffffffffffffff1681526020018281526020019350505050602060405180830381600087803b15801561418e57600080fd5b505af11580156141a2573d6000803e3d6000fd5b505050506040513d60208110156141b857600080fd5b810190808051906020019092919050505015156141d457600080fd5b60019350600092505b6007805490508360ff16101561428e5783801561427f57506010600060078560ff1681548110151561420b57fe5b9060005260206000200160009054906101000a900473ffffffffffffffffffffffffffffffffffffffff1673ffffffffffffffffffffffffffffffffffffffff1673ffffffffffffffffffffffffffffffffffffffff16815260200190815260200160002060009054906101000a900460ff165b935082806001019350506141dd565b831561429f5761429e6001615946565b5b8473ffffffffffffffffffffffffffffffffffffffff167fa8cc9409769b9614f3ae4056957bfbb32d986e4b61c886b5e29b324b5bf92d0a600a60008873ffffffffffffffffffffffffffffffffffffffff1673ffffffffffffffffffffffffffffffffffffffff168152602001908152602001600020546040518082815260200191505060405180910390a25050505050565b600080600080600180600581111561434757fe5b601b60009054906101000a900460ff16600581111561436257fe5b14151561436e57600080fd5b87600860008273ffffffffffffffffffffffffffffffffffffffff1673ffffffffffffffffffffffffffffffffffffffff16815260200190815260200160002060009054906101000a900460ff1615156143c757600080fd5b60078054905087511415156143db57600080fd5b6143e56003615946565b6000955060009450600093505b6007805490508460ff1610156145a557868460ff1681518110151561441357fe5b90602001906020020151600d60008b73ffffffffffffffffffffffffffffffffffffffff1673ffffffffffffffffffffffffffffffffffffffff168152602001908152602001600020600060078760ff1681548110151561447057fe5b9060005260206000200160009054906101000a900473ffffffffffffffffffffffffffffffffffffffff1673ffffffffffffffffffffffffffffffffffffffff1673ffffffffffffffffffffffffffffffffffffffff16815260200190815260200160002081905550614506878560ff168151811015156144ed57fe5b9060200190602002015187613ef990919063ffffffff16565b9550614596600a600060078760ff1681548110151561452157fe5b9060005260206000200160009054906101000a900473ffffffffffffffffffffffffffffffffffffffff1673ffffffffffffffffffffffffffffffffffffffff1673ffffffffffffffffffffffffffffffffffffffff1681526020019081526020016000205486613ef990919063ffffffff16565b945083806001019450506143f2565b84861415156145b357600080fd5b6145e2670de0b6b3a76400006145d460065488613e9290919063ffffffff16565b613eca90919063ffffffff16565b88101515156145f057600080fd5b6146036145fb613e71565b600254613ef9565b601581905550614617601554600154613ef9565b60168190555087601781905550600092505b6007805490508360ff1610156147b1578873ffffffffffffffffffffffffffffffffffffffff1660078460ff1681548110151561466257fe5b9060005260206000200160009054906101000a900473ffffffffffffffffffffffffffffffffffffffff1673ffffffffffffffffffffffffffffffffffffffff161415156147a45784600d600060078660ff168154811015156146c157fe5b9060005260206000200160009054906101000a900473ffffffffffffffffffffffffffffffffffffffff1673ffffffffffffffffffffffffffffffffffffffff1673ffffffffffffffffffffffffffffffffffffffff168152602001908152602001600020600060078660ff1681548110151561473a57fe5b9060005260206000200160009054906101000a900473ffffffffffffffffffffffffffffffffffffffff1673ffffffffffffffffffffffffffffffffffffffff1673ffffffffffffffffffffffffffffffffffffffff168152602001908152602001600020819055505b8280600101935050614629565b8873ffffffffffffffffffffffffffffffffffffffff167f978fff33bfee4716da21bf89e67d0757d6550d4b6f53676919de1d1d209f5ef0886040518080602001828103825283818151815260200191508051906020019060200280838360005b8381101561482d578082015181840152602081019050614812565b505050509050019250505060405180910390a261484b898a8a614856565b505050505050505050565b60006148606159e5565b600380600581111561486e57fe5b601b60009054906101000a900460ff16600581111561488957fe5b14151561489557600080fd5b61489d6123c4565b9250601654831415156148f3577f04e9f9a05f2b0f7b76cbaeafc40a3136a1870f82f8eff85e766f7eb868a8b9e083601654604051808381526020018281526020019250505060405180910390a1826016819055505b6016546148fe613e71565b10151561490a57600080fd5b601554614915613e71565b10158061496b5750600860008773ffffffffffffffffffffffffffffffffffffffff1673ffffffffffffffffffffffffffffffffffffffff16815260200190815260200160002060009054906101000a900460ff165b151561497657600080fd5b600860008673ffffffffffffffffffffffffffffffffffffffff1673ffffffffffffffffffffffffffffffffffffffff16815260200190815260200160002060009054906101000a900460ff16806149fa5750600073ffffffffffffffffffffffffffffffffffffffff168573ffffffffffffffffffffffffffffffffffffffff16145b1515614a0557600080fd5b614a36670de0b6b3a7640000614a28600654601754613e9290919063ffffffff16565b613eca90919063ffffffff16565b8410151515614a4457600080fd5b606060405190810160405280858152602001601960008873ffffffffffffffffffffffffffffffffffffffff1673ffffffffffffffffffffffffffffffffffffffff1681526020019081526020016000205481526020016000151581525091506000809054906101000a900473ffffffffffffffffffffffffffffffffffffffff1673ffffffffffffffffffffffffffffffffffffffff166323b872dd8730876040518463ffffffff167c0100000000000000000000000000000000000000000000000000000000028152600401808473ffffffffffffffffffffffffffffffffffffffff1673ffffffffffffffffffffffffffffffffffffffff1681526020018373ffffffffffffffffffffffffffffffffffffffff1673ffffffffffffffffffffffffffffffffffffffff1681526020018281526020019350505050602060405180830381600087803b158015614b9c57600080fd5b505af1158015614bb0573d6000803e3d6000fd5b505050506040513d6020811015614bc657600080fd5b81019080805190602001909291905050501515614be257600080fd5b614bf9610708601654613e7990919063ffffffff16565b614c01613e71565b101515614c2457614c1d84601854613ef990919063ffffffff16565b6018819055505b614c3984601754613ef990919063ffffffff16565b601781905550614c9184601960008873ffffffffffffffffffffffffffffffffffffffff1673ffffffffffffffffffffffffffffffffffffffff16815260200190815260200160002054613ef990919063ffffffff16565b601960008773ffffffffffffffffffffffffffffffffffffffff1673ffffffffffffffffffffffffffffffffffffffff16815260200190815260200160002081905550601a60008773ffffffffffffffffffffffffffffffffffffffff1673ffffffffffffffffffffffffffffffffffffffff16815260200190815260200160002060008673ffffffffffffffffffffffffffffffffffffffff1673ffffffffffffffffffffffffffffffffffffffff1681526020019081526020016000208290806001815401808255809150509060018203906000526020600020906003020160009091929091909150600082015181600001556020820151816001015560408201518160020160006101000a81548160ff0219169083151502179055505050507f484413c33463e7d976e3ded2a85b0c31610d0906977df2cd9cbd6d12a6872a84868686604051808473ffffffffffffffffffffffffffffffffffffffff1673ffffffffffffffffffffffffffffffffffffffff1681526020018373ffffffffffffffffffffffffffffffffffffffff1673ffffffffffffffffffffffffffffffffffffffff168152602001828152602001935050505060405180910390a1505050505050565b60008060008060006001806005811115614e7057fe5b601b60009054906101000a900460ff166005811115614e8b57fe5b141515614e9757600080fd5b86600860008273ffffffffffffffffffffffffffffffffffffffff1673ffffffffffffffffffffffffffffffffffffffff16815260200190815260200160002060009054906101000a900460ff161515614ef057600080fd5b601460009054906101000a900460ff161515614f0b57600080fd5b601360008973ffffffffffffffffffffffffffffffffffffffff1673ffffffffffffffffffffffffffffffffffffffff16815260200190815260200160002060009054906101000a900460ff16151515614f6457600080fd5b6001601360008a73ffffffffffffffffffffffffffffffffffffffff1673ffffffffffffffffffffffffffffffffffffffff16815260200190815260200160002060006101000a81548160ff021916908315150217905550600a60008973ffffffffffffffffffffffffffffffffffffffff1673ffffffffffffffffffffffffffffffffffffffff16815260200190815260200160002054600c60008a73ffffffffffffffffffffffffffffffffffffffff1673ffffffffffffffffffffffffffffffffffffffff168152602001908152602001600020541115615214576150d3600a60008a73ffffffffffffffffffffffffffffffffffffffff1673ffffffffffffffffffffffffffffffffffffffff16815260200190815260200160002054600c60008b73ffffffffffffffffffffffffffffffffffffffff1673ffffffffffffffffffffffffffffffffffffffff16815260200190815260200160002054613e7990919063ffffffff16565b96506000809054906101000a900473ffffffffffffffffffffffffffffffffffffffff1673ffffffffffffffffffffffffffffffffffffffff166323b872dd89308a6040518463ffffffff167c0100000000000000000000000000000000000000000000000000000000028152600401808473ffffffffffffffffffffffffffffffffffffffff1673ffffffffffffffffffffffffffffffffffffffff1681526020018373ffffffffffffffffffffffffffffffffffffffff1673ffffffffffffffffffffffffffffffffffffffff1681526020018281526020019350505050602060405180830381600087803b1580156151cd57600080fd5b505af11580156151e1573d6000803e3d6000fd5b505050506040513d60208110156151f757600080fd5b8101908080519060200190929190505050151561521357600080fd5b5b60019550600094505b6007805490508560ff1610156152ce578580156152bf57506013600060078760ff1681548110151561524b57fe5b9060005260206000200160009054906101000a900473ffffffffffffffffffffffffffffffffffffffff1673ffffffffffffffffffffffffffffffffffffffff1673ffffffffffffffffffffffffffffffffffffffff16815260200190815260200160002060009054906101000a900460ff165b9550848060010195505061521d565b8773ffffffffffffffffffffffffffffffffffffffff167fa49e1bf6eca68fcbe0f530f9389e60870664cb4b8cd290ade9d0fe3b7c4d9c7560405160405180910390a2851561593c576000601460006101000a81548160ff021916908315150217905550600093505b6007805490508460ff16101561592e5760006013600060078760ff1681548110151561535f57fe5b9060005260206000200160009054906101000a900473ffffffffffffffffffffffffffffffffffffffff1673ffffffffffffffffffffffffffffffffffffffff1673ffffffffffffffffffffffffffffffffffffffff16815260200190815260200160002060006101000a81548160ff021916908315150217905550600a600060078660ff168154811015156153f157fe5b9060005260206000200160009054906101000a900473ffffffffffffffffffffffffffffffffffffffff1673ffffffffffffffffffffffffffffffffffffffff1673ffffffffffffffffffffffffffffffffffffffff16815260200190815260200160002054600c600060078760ff1681548110151561546d57fe5b9060005260206000200160009054906101000a900473ffffffffffffffffffffffffffffffffffffffff1673ffffffffffffffffffffffffffffffffffffffff1673ffffffffffffffffffffffffffffffffffffffff16815260200190815260200160002054101561572b576155e2600c600060078760ff168154811015156154f257fe5b9060005260206000200160009054906101000a900473ffffffffffffffffffffffffffffffffffffffff1673ffffffffffffffffffffffffffffffffffffffff1673ffffffffffffffffffffffffffffffffffffffff16815260200190815260200160002054600a600060078860ff1681548110151561556e57fe5b9060005260206000200160009054906101000a900473ffffffffffffffffffffffffffffffffffffffff1673ffffffffffffffffffffffffffffffffffffffff1673ffffffffffffffffffffffffffffffffffffffff16815260200190815260200160002054613e7990919063ffffffff16565b92506000809054906101000a900473ffffffffffffffffffffffffffffffffffffffff1673ffffffffffffffffffffffffffffffffffffffff1663a9059cbb60078660ff1681548110151561563357fe5b9060005260206000200160009054906101000a900473ffffffffffffffffffffffffffffffffffffffff16856040518363ffffffff167c0100000000000000000000000000000000000000000000000000000000028152600401808373ffffffffffffffffffffffffffffffffffffffff1673ffffffffffffffffffffffffffffffffffffffff16815260200182815260200192505050602060405180830381600087803b1580156156e457600080fd5b505af11580156156f8573d6000803e3d6000fd5b505050506040513d602081101561570e57600080fd5b8101908080519060200190929190505050151561572a57600080fd5b5b600c600060078660ff1681548110151561574157fe5b9060005260206000200160009054906101000a900473ffffffffffffffffffffffffffffffffffffffff1673ffffffffffffffffffffffffffffffffffffffff1673ffffffffffffffffffffffffffffffffffffffff16815260200190815260200160002054600a600060078760ff168154811015156157bd57fe5b9060005260206000200160009054906101000a900473ffffffffffffffffffffffffffffffffffffffff1673ffffffffffffffffffffffffffffffffffffffff1673ffffffffffffffffffffffffffffffffffffffff16815260200190815260200160002081905550600b600060078660ff1681548110151561583c57fe5b9060005260206000200160009054906101000a900473ffffffffffffffffffffffffffffffffffffffff1673ffffffffffffffffffffffffffffffffffffffff1673ffffffffffffffffffffffffffffffffffffffff168152602001908152602001600020546009600060078760ff168154811015156158b857fe5b9060005260206000200160009054906101000a900473ffffffffffffffffffffffffffffffffffffffff1673ffffffffffffffffffffffffffffffffffffffff1673ffffffffffffffffffffffffffffffffffffffff168152602001908152602001600020819055508380600101945050615337565b600f54600e81600019169055505b5050505050505050565b7f7a86a836fcb7b1724e95db8cca29b460e17febee51b6f03e272720350340352e601b60009054906101000a900460ff1682615980613e71565b6040518084600581111561599057fe5b60ff1681526020018360058111156159a457fe5b60ff168152602001828152602001935050505060405180910390a180601b60006101000a81548160ff021916908360058111156159dd57fe5b021790555050565b606060405190810160405280600081526020016000815260200160001515815250905600a165627a7a72305820ca87c9be7c9bb83dead9eade97a8e05baee204a43fa8aeeb47ffbb7c7389018e0029",
  "source": "pragma solidity ^0.4.23;\n\nimport 'openzeppelin-solidity/contracts/token/ERC20/ERC20.sol';\nimport 'openzeppelin-solidity/contracts/math/SafeMath.sol';\nimport 'openzeppelin-solidity/contracts/math/Math.sol';\n\ncontract Arbitration {\n  using SafeMath for uint256;\n\n  event StateChange(State _oldState, State _newState, uint256 _timestamp);\n  event ContractCreated(address indexed _party1, address indexed _party2, uint256[] _dispersal, uint256[] _funding, bytes32 _agreementHash);\n  event ContractSigned(address indexed _party, uint256 _funding);\n  event ContractUnsigned(address indexed _party, uint256 _funding);\n  event ContractAgreed(address indexed _party);\n  event ContractUnagreed(address indexed _party);\n  event ContractAmendmentProposed(address indexed _party, uint256[] _dispersal, uint256[] _funding, bytes32 _agreementHash);\n  event ContractAmendmentAgreed(address indexed _party);\n  event ContractAmendmentUnagreed(address indexed _party);\n  event ContractWithdrawn(address indexed _party, uint256 _dispersal);\n  event ContractDisputed(address indexed _party, uint256[] _dispersal);\n  event ContractDisputeDispersalAmended(address indexed _party, uint256[] _dispersal);\n\n  event DisputeEndsAdjusted(uint256 _oldDisputeEnds, uint256 _newDisputeEnds);\n\n  event VoteCast(address _voter, address _party, uint256 _amount);\n  event VoterPayout(address _voter, uint256 _tokenAmount);\n  event PartyPayout(address _party, uint256 _tokenAmount);\n\n  //Token for escrow & voting\n  ERC20 public jurToken;\n\n  //Globals - could be pulled from factory contract or passed in to constructor\n  uint256 public DISPUTE_VOTE_DURATION = 7 days;\n  uint256 public DISPUTE_DISPERSAL_DURATION = 1 days;\n  uint256 public DISPUTE_WINDOW = 30 minutes;\n  uint256 public DISPUTE_EXTENSION = 30 minutes;\n  uint256 public DISPUTE_WINDOW_MAX = 5 * 10**16; //percentage multiplued by 10**16\n  uint256 public MIN_VOTE = 1 * 10**16; //percentage multiplued by 10**16\n\n  //Agreement Details\n  address[] public allParties;\n  mapping (address => bool) public parties;\n  mapping (address => uint256) public dispersal;\n  mapping (address => uint256) public funding;\n  mapping (address => uint256) public amendedDispersal;\n  mapping (address => uint256) public amendedFunding;\n  mapping (address => mapping (address => uint256)) public disputeDispersal;\n  bytes32 public agreementHash;\n  bytes32 public amendedAgreementHash;\n\n  //User granularity state tracking\n  mapping (address => bool) public hasSigned;\n  mapping (address => bool) public hasAgreed;\n  mapping (address => bool) public hasWithdrawn;\n  mapping (address => bool) public hasFundedAmendment;\n  bool public amendmentProposed;\n\n  //Dispute / voting parameters\n  uint256 public disputeStarts;\n  uint256 public disputeEnds;\n  uint256 public totalVotes;\n  uint256 public disputeWindowVotes;\n  mapping (address => uint256) public partyVotes;\n  mapping (address => mapping (address => Vote[])) userVotes;\n\n  struct Vote {\n    uint256 amount;\n    uint256 previousVotes;\n    bool claimed;\n  }\n\n  //Initialise state\n  enum State {Unsigned, Signed, Agreed, Dispute, Closed, DisputeClosed}\n  State public state = State.Unsigned;\n\n  modifier onlyParties {\n    require(parties[msg.sender]);\n    _;\n  }\n\n  modifier isParty(address _sender) {\n    require(parties[_sender]);\n    _;\n  }\n\n  modifier hasState(State _state) {\n    require(state == _state);\n    _;\n  }\n\n  modifier onlyJUR {\n    require(msg.sender == address(jurToken));\n    _;\n  }\n\n  constructor(address _jurToken, address[] _parties, uint256[] _dispersal, uint256[] _funding, bytes32 _agreementHash) public {\n\n    //Check that we are only setting up an arbitration between two parties\n    require((_dispersal.length == 2) && (_funding.length == 2) && (_parties.length == 2));\n\n    //Check that party addresses are valid\n    require((_parties[0] != 0x0) && (_parties[1] != 0x0));\n\n    //Check that dispersals match funding and initialise mappings\n    uint256 totalFunding = 0;\n    uint256 totalDispersal = 0;\n    for (uint8 i = 0; i < _parties.length; i++) {\n      parties[_parties[i]] = true;\n      dispersal[_parties[i]] = _dispersal[i];\n      funding[_parties[i]] = _funding[i];\n      totalDispersal = totalDispersal.add(_dispersal[i]);\n      totalFunding = totalFunding.add(_funding[i]);\n    }\n    require(totalFunding == totalDispersal);\n    allParties = _parties;\n    agreementHash = _agreementHash;\n\n    //Initialise JUR token\n    jurToken = ERC20(_jurToken);\n\n    emit ContractCreated(_parties[0], _parties[1], _dispersal, _funding, _agreementHash);\n  }\n\n  function setState(State _state) internal {\n    emit StateChange(state, _state, getNow());\n    state = _state;\n  }\n\n  //Functions to sign and unsign contract\n  function sign() public {\n    _sign(msg.sender);\n  }\n\n  function signJUR(address _sender) public onlyJUR {\n    _sign(_sender);\n  }\n\n  function _sign(address _sender) internal hasState(State.Unsigned) isParty(_sender) {\n    require(!hasSigned[_sender]);\n    hasSigned[_sender] = true;\n    require(jurToken.transferFrom(_sender, address(this), funding[_sender]));\n    bool allSigned = true;\n    for (uint8 i = 0; i < allParties.length; i++) {\n      allSigned = allSigned && hasSigned[allParties[i]];\n    }\n    if (allSigned) {\n      setState(State.Signed);\n    }\n    emit ContractSigned(_sender, funding[_sender]);\n  }\n\n  function unsign() public hasState(State.Unsigned) onlyParties {\n    require(hasSigned[msg.sender]);\n    hasSigned[msg.sender] = false;\n    require(jurToken.transfer(msg.sender, funding[msg.sender]));\n    emit ContractUnsigned(msg.sender, funding[msg.sender]);\n  }\n\n  //Functions to agree / unagree contract\n  function agree() public hasState(State.Signed) onlyParties {\n    require(!hasAgreed[msg.sender]);\n    hasAgreed[msg.sender] = true;\n    bool allAgreed = true;\n    for (uint8 i = 0; i < allParties.length; i++) {\n      allAgreed = allAgreed && hasAgreed[allParties[i]];\n    }\n    if (allAgreed) {\n      setState(State.Agreed);\n    }\n    emit ContractAgreed(msg.sender);\n  }\n\n  function unagree() public hasState(State.Signed) onlyParties {\n    require(hasAgreed[msg.sender]);\n    hasAgreed[msg.sender] = false;\n    emit ContractUnagreed(msg.sender);\n  }\n\n  //Functions to propose a new dispersals / funding\n  function proposeAmendment(uint256[] _dispersal, uint256[] _funding, bytes32 _agreementHash) public {\n    _proposeAmendment(msg.sender, _dispersal, _funding, _agreementHash);\n  }\n\n  function proposeAmendmentJUR(address _sender, uint256[] _dispersal, uint256[] _funding, bytes32 _agreementHash) public onlyJUR {\n    _proposeAmendment(_sender, _dispersal, _funding, _agreementHash);\n  }\n\n  function _proposeAmendment(address _sender, uint256[] _dispersal, uint256[] _funding, bytes32 _agreementHash) internal hasState(State.Signed) isParty(_sender) {\n    //There can only be one proposed amendment at a time\n    require(!amendmentProposed);\n    amendmentProposed = true;\n    require((_dispersal.length == allParties.length) && (_funding.length == allParties.length));\n    uint256 totalFunding = 0;\n    uint256 totalDispersal = 0;\n    for (uint8 i = 0; i < allParties.length; i++) {\n      amendedDispersal[allParties[i]] = _dispersal[i];\n      amendedFunding[allParties[i]] = _funding[i];\n      totalDispersal = totalDispersal.add(_dispersal[i]);\n      totalFunding = totalFunding.add(_funding[i]);\n    }\n    require(totalFunding == totalDispersal);\n    amendedAgreementHash = _agreementHash;\n    //Must pay any excess dispersal required\n    _agreeAmendment(_sender);\n    emit ContractAmendmentProposed(_sender, _dispersal, _funding, _agreementHash);\n  }\n\n  //Functions to agree or unagree a new amendment\n  function agreeAmendment() public {\n    _agreeAmendment(msg.sender);\n  }\n\n  function agreeAmendmentJUR(address _sender) public onlyJUR {\n    _agreeAmendment(_sender);\n  }\n\n  function _agreeAmendment(address _sender) internal hasState(State.Signed) isParty(_sender) {\n    require(amendmentProposed);\n    require(!hasFundedAmendment[_sender]);\n    hasFundedAmendment[_sender] = true;\n    if (amendedFunding[_sender] > funding[_sender]) {\n      uint256 deficit = amendedFunding[_sender].sub(funding[_sender]);\n      require(jurToken.transferFrom(_sender, address(this), deficit));\n    }\n    bool allFundedAmendment = true;\n    for (uint8 i = 0; i < allParties.length; i++) {\n      allFundedAmendment = allFundedAmendment && hasFundedAmendment[allParties[i]];\n    }\n    emit ContractAmendmentAgreed(_sender);\n    // If all parties have funded / agreed an amendment, refund any excess and reset proposals\n    if (allFundedAmendment) {\n      amendmentProposed = false;\n      for (uint8 j = 0; j < allParties.length; j++) {\n        hasFundedAmendment[allParties[j]] = false;\n        if (amendedFunding[allParties[j]] < funding[allParties[j]]) {\n          uint256 excess = funding[allParties[j]].sub(amendedFunding[allParties[j]]);\n          require(jurToken.transfer(allParties[j], excess));\n        }\n        funding[allParties[j]] = amendedFunding[allParties[j]];\n        dispersal[allParties[j]] = amendedDispersal[allParties[j]];\n      }\n      agreementHash = amendedAgreementHash;\n    }\n\n  }\n\n  function unagreeAmendment() public hasState(State.Signed) onlyParties {\n    //Could be done by original proposer, or other party\n    //If anyone disagrees, amendment is removed\n    require(amendmentProposed);\n    amendmentProposed = false;\n    //Refund any deficits paid\n    for (uint8 i = 0; i < allParties.length; i++) {\n      if (hasFundedAmendment[allParties[i]]) {\n        hasFundedAmendment[allParties[i]] = false;\n        if (amendedFunding[allParties[i]] > funding[allParties[i]]) {\n          uint256 excess = amendedFunding[allParties[i]].sub(funding[allParties[i]]);\n          require(jurToken.transfer(allParties[i], excess));\n        }\n      }\n    }\n    emit ContractAmendmentUnagreed(msg.sender);\n  }\n\n  //Once a contract has been agreed allow withdrawals of escrowed amounts\n  function withdrawDispersal() public hasState(State.Agreed) onlyParties {\n    require(!hasWithdrawn[msg.sender]);\n    hasWithdrawn[msg.sender] = true;\n    require(jurToken.transfer(msg.sender, dispersal[msg.sender]));\n    bool allWithdrawn = true;\n    for (uint8 i = 0; i < allParties.length; i++) {\n      allWithdrawn = allWithdrawn && (hasWithdrawn[allParties[i]] || (dispersal[allParties[i]] == 0));\n    }\n    emit ContractWithdrawn(msg.sender, dispersal[msg.sender]);\n    if (allWithdrawn) {\n      setState(State.Closed);\n    }\n  }\n\n  //Functions to initiate a dispute\n  function dispute(uint256 _voteAmount, uint256[] _dispersal) public {\n    _dispute(msg.sender, _voteAmount, _dispersal);\n  }\n\n  function disputeJUR(address _sender, uint256 _voteAmount, uint256[] _dispersal) public onlyJUR {\n    _dispute(_sender, _voteAmount, _dispersal);\n  }\n\n  function _dispute(address _sender, uint256 _voteAmount, uint256[] _dispersal) internal hasState(State.Signed) isParty(_sender) {\n    require(_dispersal.length == allParties.length);\n    setState(State.Dispute);\n    uint256 totalDispersal = 0;\n    uint256 totalFunding = 0;\n    for (uint8 i = 0; i < allParties.length; i++) {\n      disputeDispersal[_sender][allParties[i]] = _dispersal[i];\n      totalDispersal = totalDispersal.add(_dispersal[i]);\n      totalFunding = totalFunding.add(funding[allParties[i]]);\n    }\n    require(totalDispersal == totalFunding);\n    require(_voteAmount >= totalFunding.mul(MIN_VOTE).div(10**18));\n    disputeStarts = SafeMath.add(getNow(), DISPUTE_DISPERSAL_DURATION);\n    disputeEnds = SafeMath.add(disputeStarts, DISPUTE_VOTE_DURATION);\n    totalVotes = _voteAmount;\n    //Default other parties dispute dispersals\n    for (uint8 j = 0; j < allParties.length; j++) {\n      if (allParties[j] != _sender) {\n        disputeDispersal[allParties[j]][allParties[j]] = totalFunding;\n      }\n    }\n    emit ContractDisputed(_sender, _dispersal);\n    //TODO - fix this\n    _vote(_sender, _sender, _voteAmount);\n  }\n\n  function amendDisputeDispersal(uint256[] _dispersal) public hasState(State.Dispute) onlyParties {\n    require(_dispersal.length == allParties.length);\n    require(getNow() < disputeStarts);\n    uint256 totalDispersal = 0;\n    uint256 totalFunding = 0;\n    for (uint8 i = 0; i < allParties.length; i++) {\n      disputeDispersal[msg.sender][allParties[i]] = _dispersal[i];\n      totalDispersal = totalDispersal.add(_dispersal[i]);\n      totalFunding = totalFunding.add(funding[allParties[i]]);\n    }\n    require(totalDispersal == totalFunding);\n    emit ContractDisputeDispersalAmended(msg.sender, _dispersal);\n  }\n\n  function calcDisputeEnds() public hasState(State.Dispute) returns(uint256) {\n    //Extend dispute period if:\n    //  - vote is tied\n    //  - more than 5% of votes places in last 30 minutes of dispute period\n    if (getNow() < disputeEnds) {\n      return;\n    }\n    if (disputeWindowVotes > totalVotes.mul(DISPUTE_WINDOW_MAX).div(10**18)) {\n      disputeWindowVotes = 0;\n      return disputeEnds.add(DISPUTE_EXTENSION);\n    }\n    uint256 winningVotes = partyVotes[address(0)];\n    for (uint8 i = 0; i < allParties.length; i++) {\n      if (partyVotes[allParties[i]] > winningVotes) {\n        winningVotes = partyVotes[allParties[i]];\n      }\n    }\n    uint8 countWinners = 0;\n    if (partyVotes[address(0)] == winningVotes) {\n      countWinners = countWinners + 1;\n    }\n    for (uint8 j = 0; j < allParties.length; j++) {\n      if (partyVotes[allParties[j]] == winningVotes) {\n        countWinners = countWinners + 1;\n      }\n    }\n    if (countWinners > 1) {\n      disputeWindowVotes = 0;\n      //New end time is calculated from now\n      return getNow().add(DISPUTE_EXTENSION);\n    }\n    return disputeEnds;\n  }\n\n  //Functions to allow voting on disputed agreements\n  function vote(address _voteAddress, uint256 _voteAmount) public {\n    _vote(msg.sender, _voteAddress, _voteAmount);\n  }\n\n  function voteJUR(address _sender, address _voteAddress, uint256 _voteAmount) public onlyJUR {\n    _vote(_sender, _voteAddress, _voteAmount);\n  }\n\n  function _vote(address _sender, address _voteAddress, uint256 _voteAmount) internal hasState(State.Dispute) {\n    uint256 newDisputeEnds = calcDisputeEnds();\n    if (newDisputeEnds != disputeEnds) {\n      emit DisputeEndsAdjusted(newDisputeEnds, disputeEnds);\n      disputeEnds = newDisputeEnds;\n    }\n    require(getNow() < disputeEnds);\n    //Parties are allowed to vote straightaway\n    require((getNow() >= disputeStarts) || parties[_sender]);\n    //Check vote is for a valid address\n    require(parties[_voteAddress] || (_voteAddress == address(0)));\n    require(_voteAmount >= totalVotes.mul(MIN_VOTE).div(10**18));\n\n    Vote memory newVote = Vote(_voteAmount, partyVotes[_voteAddress], false);\n\n    //Commit votes\n    require(jurToken.transferFrom(_sender, address(this), _voteAmount));\n\n    //Track votes during last 30 mins of voting period\n    if (getNow() >= disputeEnds.sub(30 * 60)) {\n      disputeWindowVotes = disputeWindowVotes.add(_voteAmount);\n    }\n\n    //Record votes\n    totalVotes = totalVotes.add(_voteAmount);\n    partyVotes[_voteAddress] = partyVotes[_voteAddress].add(_voteAmount);\n    userVotes[_sender][_voteAddress].push(newVote);\n\n    emit VoteCast(_sender, _voteAddress, _voteAmount);\n\n  }\n\n  function payoutVoter(uint256 _start) public hasState(State.Dispute) {\n    //Generally setting _start to 0 should be fine, but having the option avoids a possible block gas limit issue\n    uint256 newDisputeEnds = calcDisputeEnds();\n    if (newDisputeEnds != disputeEnds) {\n      emit DisputeEndsAdjusted(newDisputeEnds, disputeEnds);\n      disputeEnds = newDisputeEnds;\n    }\n    require(getNow() >= disputeEnds);\n    //There should be a clear winner now, otherwise the dispute would have been extended.\n    address winnerParty;\n    address bestMinortyParty;\n    (winnerParty, bestMinortyParty) = getWinnerAndBestMinorty();\n    uint256 totalMinorityVotes = totalVotes.sub(partyVotes[winnerParty]);\n    uint256 bestMinorityVotes = partyVotes[bestMinortyParty];\n\n    //If there were no votes on any minority options (all votes on the winner) then there is no payout\n    uint256 reward = 0;\n    if (totalMinorityVotes != 0) {\n      reward = totalMinorityVotes.mul(10**18).div(bestMinorityVotes);\n    }\n\n    uint256 eligableVotes = 0;\n    //TODO: does start really work here?\n    for (uint256 i = _start; i < userVotes[msg.sender][winnerParty].length; i++) {\n      if (!userVotes[msg.sender][winnerParty][i].claimed) {\n        if (userVotes[msg.sender][winnerParty][i].previousVotes >= bestMinorityVotes) {\n          //nothing left to pay out\n          break;\n        }\n        eligableVotes = eligableVotes.add(Math.min256(bestMinorityVotes.sub(userVotes[msg.sender][winnerParty][i].previousVotes), userVotes[msg.sender][winnerParty][i].amount));\n        userVotes[msg.sender][winnerParty][i].claimed = true;\n      }\n    }\n    assert(jurToken.transfer(msg.sender, eligableVotes.mul(reward)));\n    emit VoterPayout(msg.sender, eligableVotes.mul(reward));\n  }\n\n  function getWinner() public view returns(address) {\n    uint256 winnerVotes = partyVotes[address(0)];\n    address winnerParty = address(0);\n    for (uint8 i = 0; i < allParties.length; i++) {\n      if (winnerVotes < partyVotes[allParties[i]]) {\n        winnerVotes = partyVotes[allParties[i]];\n        winnerParty = allParties[i];\n      }\n    }\n    return winnerParty;\n  }\n\n  function getWinnerAndBestMinorty() public view returns(address, address) {\n    address winnerParty = getWinner();\n    address bestMinorityParty = (winnerParty == address(0)) ? allParties[0] : address(0);\n    uint256 bestMinorityVotes = partyVotes[bestMinorityParty];\n    for (uint8 j = 0; j < allParties.length; j++) {\n      if ((bestMinorityVotes < partyVotes[allParties[j]]) && (winnerParty != allParties[j])) {\n        bestMinorityParty = allParties[j];\n        bestMinorityVotes = partyVotes[bestMinorityParty];\n      }\n    }\n    return (winnerParty, bestMinorityParty);\n  }\n\n  function payoutParty() public hasState(State.Dispute) onlyParties {\n    //TODO: check that vote has actually ended\n    uint256 newDisputeEnds = calcDisputeEnds();\n    if (newDisputeEnds != disputeEnds) {\n      emit DisputeEndsAdjusted(newDisputeEnds, disputeEnds);\n      disputeEnds = newDisputeEnds;\n    }\n    require(getNow() >= disputeEnds);\n    require(!hasWithdrawn[msg.sender]);\n    hasWithdrawn[msg.sender] = true;\n    address winnerParty = getWinner();\n    uint256 payout = disputeDispersal[winnerParty][msg.sender];\n    assert(jurToken.transfer(msg.sender, payout));\n    emit PartyPayout(msg.sender, payout);\n  }\n\n  function getNow() internal constant returns (uint256) {\n    return now;\n  }\n\n}\n",
  "sourcePath": "/Users/adamdossa/Development/Ethereum/mvp-smart-contract/contracts/Arbitration.sol",
  "compiler": {
    "name": "solc",
    "version": "0.4.23+commit.124ca40d.Emscripten.clang"
  },
  "schemaVersion": "2.0.0",
  "updatedAt": "2018-06-05T11:54:30.202Z"
}