{
  "contractName": "ArbitrationFactory",
  "abi": [
    {
      "constant": true,
      "inputs": [],
      "name": "arbitrationToken",
      "outputs": [
        {
          "name": "",
          "type": "address"
        }
      ],
      "payable": false,
      "stateMutability": "view",
      "type": "function"
    },
    {
      "constant": true,
      "inputs": [],
      "name": "owner",
      "outputs": [
        {
          "name": "",
          "type": "address"
        }
      ],
      "payable": false,
      "stateMutability": "view",
      "type": "function"
    },
    {
      "constant": true,
      "inputs": [
        {
          "name": "",
          "type": "uint256"
        }
      ],
      "name": "arbirations",
      "outputs": [
        {
          "name": "",
          "type": "address"
        }
      ],
      "payable": false,
      "stateMutability": "view",
      "type": "function"
    },
    {
      "constant": false,
      "inputs": [
        {
          "name": "newOwner",
          "type": "address"
        }
      ],
      "name": "transferOwnership",
      "outputs": [],
      "payable": false,
      "stateMutability": "nonpayable",
      "type": "function"
    },
    {
      "inputs": [
        {
          "name": "_arbitrationToken",
          "type": "address"
        }
      ],
      "payable": false,
      "stateMutability": "nonpayable",
      "type": "constructor"
    },
    {
      "anonymous": false,
      "inputs": [
        {
          "indexed": true,
          "name": "_creator",
          "type": "address"
        },
        {
          "indexed": false,
          "name": "_arbitration",
          "type": "address"
        },
        {
          "indexed": true,
          "name": "_party1",
          "type": "address"
        },
        {
          "indexed": true,
          "name": "_party2",
          "type": "address"
        }
      ],
      "name": "ArbitrationCreated",
      "type": "event"
    },
    {
      "anonymous": false,
      "inputs": [
        {
          "indexed": true,
          "name": "previousOwner",
          "type": "address"
        },
        {
          "indexed": true,
          "name": "newOwner",
          "type": "address"
        }
      ],
      "name": "OwnershipTransferred",
      "type": "event"
    },
    {
      "constant": false,
      "inputs": [
        {
          "name": "_party1",
          "type": "address"
        },
        {
          "name": "_party2",
          "type": "address"
        },
        {
          "name": "_party1Amount",
          "type": "uint256"
        },
        {
          "name": "_party2Amount",
          "type": "uint256"
        },
        {
          "name": "_agreementHash",
          "type": "bytes32"
        }
      ],
      "name": "createArbitration",
      "outputs": [],
      "payable": false,
      "stateMutability": "nonpayable",
      "type": "function"
    },
    {
      "constant": true,
      "inputs": [
        {
          "name": "_input",
          "type": "string"
        }
      ],
      "name": "generateHash",
      "outputs": [
        {
          "name": "",
          "type": "bytes32"
        }
      ],
      "payable": false,
      "stateMutability": "view",
      "type": "function"
    },
    {
      "constant": false,
      "inputs": [
        {
          "name": "_arbitrationTokenAddress",
          "type": "address"
        }
      ],
      "name": "updateTokenAddress",
      "outputs": [],
      "payable": false,
      "stateMutability": "nonpayable",
      "type": "function"
    }
  ],
  "bytecode": "0x608060405234801561001057600080fd5b5060405160208061634483398101806040528101908080519060200190929190505050336000806101000a81548173ffffffffffffffffffffffffffffffffffffffff021916908373ffffffffffffffffffffffffffffffffffffffff16021790555080600160006101000a81548173ffffffffffffffffffffffffffffffffffffffff021916908373ffffffffffffffffffffffffffffffffffffffff16021790555050616280806100c46000396000f3006080604052600436106200008b576000357c0100000000000000000000000000000000000000000000000000000000900463ffffffff1680630984451014620000905780636691461a14620001185780638cfb6e0e146200015e5780638da5cb5b14620001b8578063b063152a1462000212578063dabf142d146200029a578063f2fde38b146200030a575b600080fd5b3480156200009d57600080fd5b5062000116600480360381019080803573ffffffffffffffffffffffffffffffffffffffff169060200190929190803573ffffffffffffffffffffffffffffffffffffffff1690602001909291908035906020019092919080359060200190929190803560001916906020019092919050505062000350565b005b3480156200012557600080fd5b506200015c600480360381019080803573ffffffffffffffffffffffffffffffffffffffff16906020019092919050505062000796565b005b3480156200016b57600080fd5b506200017662000836565b604051808273ffffffffffffffffffffffffffffffffffffffff1673ffffffffffffffffffffffffffffffffffffffff16815260200191505060405180910390f35b348015620001c557600080fd5b50620001d06200085c565b604051808273ffffffffffffffffffffffffffffffffffffffff1673ffffffffffffffffffffffffffffffffffffffff16815260200191505060405180910390f35b3480156200021f57600080fd5b506200027c600480360381019080803590602001908201803590602001908080601f016020809104026020016040519081016040528093929190818152602001838380828437820191505050505050919291929050505062000881565b60405180826000191660001916815260200191505060405180910390f35b348015620002a757600080fd5b50620002c860048036038101908080359060200190929190505050620008ef565b604051808273ffffffffffffffffffffffffffffffffffffffff1673ffffffffffffffffffffffffffffffffffffffff16815260200191505060405180910390f35b3480156200031757600080fd5b506200034e600480360381019080803573ffffffffffffffffffffffffffffffffffffffff1690602001909291905050506200092e565b005b606080606060006002604051908082528060200260200182016040528015620003885781602001602082028038833980820191505090505b509350888460008151811015156200039c57fe5b9060200190602002019073ffffffffffffffffffffffffffffffffffffffff16908173ffffffffffffffffffffffffffffffffffffffff168152505087846001815181101515620003e957fe5b9060200190602002019073ffffffffffffffffffffffffffffffffffffffff16908173ffffffffffffffffffffffffffffffffffffffff16815250506002604051908082528060200260200182016040528015620004565781602001602082028038833980820191505090505b509250868360008151811015156200046a57fe5b9060200190602002018181525050858360018151811015156200048957fe5b90602001906020020181815250506002604051908082528060200260200182016040528015620004c85781602001602082028038833980820191505090505b50915086826000815181101515620004dc57fe5b906020019060200201818152505085826001815181101515620004fb57fe5b9060200190602002018181525050600160009054906101000a900473ffffffffffffffffffffffffffffffffffffffff16848484886200053a62000a85565b808673ffffffffffffffffffffffffffffffffffffffff1673ffffffffffffffffffffffffffffffffffffffff1681526020018060200180602001806020018560001916600019168152602001848103845288818151815260200191508051906020019060200280838360005b83811015620005c4578082015181840152602081019050620005a7565b50505050905001848103835287818151815260200191508051906020019060200280838360005b8381101562000608578082015181840152602081019050620005eb565b50505050905001848103825286818151815260200191508051906020019060200280838360005b838110156200064c5780820151818401526020810190506200062f565b5050505090500198505050505050505050604051809103906000f0801580156200067a573d6000803e3d6000fd5b50905060028190806001815401808255809150509060018203906000526020600020016000909192909190916101000a81548173ffffffffffffffffffffffffffffffffffffffff021916908373ffffffffffffffffffffffffffffffffffffffff160217905550508773ffffffffffffffffffffffffffffffffffffffff168973ffffffffffffffffffffffffffffffffffffffff163373ffffffffffffffffffffffffffffffffffffffff167ffdd10c3032e226823bce2207626dd3c69a9cbed5f2d2261a9993fe70f6d135a784604051808273ffffffffffffffffffffffffffffffffffffffff1673ffffffffffffffffffffffffffffffffffffffff16815260200191505060405180910390a4505050505050505050565b6000809054906101000a900473ffffffffffffffffffffffffffffffffffffffff1673ffffffffffffffffffffffffffffffffffffffff163373ffffffffffffffffffffffffffffffffffffffff16141515620007f257600080fd5b80600160006101000a81548173ffffffffffffffffffffffffffffffffffffffff021916908373ffffffffffffffffffffffffffffffffffffffff16021790555050565b600160009054906101000a900473ffffffffffffffffffffffffffffffffffffffff1681565b6000809054906101000a900473ffffffffffffffffffffffffffffffffffffffff1681565b6000816040518082805190602001908083835b602083101515620008bb578051825260208201915060208101905060208303925062000894565b6001836020036101000a03801982511681845116808217855250505050505090500191505060405180910390209050919050565b600281815481101515620008ff57fe5b906000526020600020016000915054906101000a900473ffffffffffffffffffffffffffffffffffffffff1681565b6000809054906101000a900473ffffffffffffffffffffffffffffffffffffffff1673ffffffffffffffffffffffffffffffffffffffff163373ffffffffffffffffffffffffffffffffffffffff161415156200098a57600080fd5b600073ffffffffffffffffffffffffffffffffffffffff168173ffffffffffffffffffffffffffffffffffffffff1614151515620009c757600080fd5b8073ffffffffffffffffffffffffffffffffffffffff166000809054906101000a900473ffffffffffffffffffffffffffffffffffffffff1673ffffffffffffffffffffffffffffffffffffffff167f8be0079c531659141344cd1fd0a4f28419497f9722a3daafe3b4186f6b6457e060405160405180910390a3806000806101000a81548173ffffffffffffffffffffffffffffffffffffffff021916908373ffffffffffffffffffffffffffffffffffffffff16021790555050565b6040516157be8062000a97833901905600608060405262093a806001556201518060025561070860035561070860045566b1a2bc2ec50000600555662386f26fc100006006556000601a60006101000a81548160ff021916908360058111156200005457fe5b02179055503480156200006657600080fd5b50604051620057be380380620057be8339810180604052810190808051906020019092919080518201929190602001805182019291906020018051820192919060200180519060200190929190505050600080600060028651148015620000ce575060028551145b8015620000dc575060028751145b1515620000e857600080fd5b6000876000815181101515620000fa57fe5b9060200190602002015173ffffffffffffffffffffffffffffffffffffffff161415801562000159575060008760018151811015156200013657fe5b9060200190602002015173ffffffffffffffffffffffffffffffffffffffff1614155b15156200016557600080fd5b6000925060009150600090505b86518160ff1610156200037457600160086000898460ff168151811015156200019757fe5b9060200190602002015173ffffffffffffffffffffffffffffffffffffffff1673ffffffffffffffffffffffffffffffffffffffff16815260200190815260200160002060006101000a81548160ff021916908315150217905550858160ff168151811015156200020457fe5b9060200190602002015160096000898460ff168151811015156200022457fe5b9060200190602002015173ffffffffffffffffffffffffffffffffffffffff1673ffffffffffffffffffffffffffffffffffffffff16815260200190815260200160002081905550848160ff168151811015156200027e57fe5b90602001906020020151600a6000898460ff168151811015156200029e57fe5b9060200190602002015173ffffffffffffffffffffffffffffffffffffffff1673ffffffffffffffffffffffffffffffffffffffff1681526020019081526020016000208190555062000324868260ff16815181101515620002fc57fe5b9060200190602002015183620003f5640100000000026200337f179091906401000000009004565b915062000364858260ff168151811015156200033c57fe5b9060200190602002015184620003f5640100000000026200337f179091906401000000009004565b9250808060010191505062000172565b81831415156200038357600080fd5b86600790805190602001906200039b92919062000412565b5083600e8160001916905550876000806101000a81548173ffffffffffffffffffffffffffffffffffffffff021916908373ffffffffffffffffffffffffffffffffffffffff1602179055505050505050505050620004e7565b600081830190508281101515156200040957fe5b80905092915050565b8280548282559060005260206000209081019282156200048e579160200282015b828111156200048d5782518260006101000a81548173ffffffffffffffffffffffffffffffffffffffff021916908373ffffffffffffffffffffffffffffffffffffffff1602179055509160200191906001019062000433565b5b5090506200049d9190620004a1565b5090565b620004e491905b80821115620004e057600081816101000a81549073ffffffffffffffffffffffffffffffffffffffff021916905550600101620004a8565b5090565b90565b6152c780620004f76000396000f300608060405260043610610225576000357c0100000000000000000000000000000000000000000000000000000000900463ffffffff168063049f2d8a1461022a5780630ab55d0b146102815780630d15fd77146102b457806312feb4a7146102df57806321979f5f1461030a57806325ce690b146103375780632731c6c61461038e5780632a50b544146103b95780632ca15122146103e45780632efab6fa146103fb5780632f36cacf1461042657806337c2afda146104965780633ad17f6d146104d957806341e60c8614610563578063446332971461057a5780634f235207146105f15780634f802f8a1461064c57806352e18f33146106635780635a9e17a71461068e5780635e2c19db146106b95780635f068b43146107145780635f74bbde1461076b57806360d50596146107b857806364a8a11f14610825578063682644fd1461089257806368e664bd146108ed5780636eae555d1461094857806374e6cfd3146109ae5780638b90dc9414610a055780638bfb85c314610a345780638fae60a514610a4b578063918c937314610a62578063994d406014610a8d5780639cff621a14610ae4578063a7e92fb514610afb578063adef40db14610b12578063aef9e98b14610ba2578063b40b784114610c4b578063b7c1ae8114610c76578063bf6a141314610ccd578063c19d93fb14610d28578063d5e03fc614610d61578063f2cec41e14610d78578063f585dc5714610e41578063fc76317614610e6c575b600080fd5b34801561023657600080fd5b5061026b600480360381019080803573ffffffffffffffffffffffffffffffffffffffff169060200190929190505050610eaf565b6040518082815260200191505060405180910390f35b34801561028d57600080fd5b50610296610ec7565b60405180826000191660001916815260200191505060405180910390f35b3480156102c057600080fd5b506102c9610ecd565b6040518082815260200191505060405180910390f35b3480156102eb57600080fd5b506102f4610ed3565b6040518082815260200191505060405180910390f35b34801561031657600080fd5b5061033560048036038101908080359060200190929190505050610ed9565b005b34801561034357600080fd5b50610378600480360381019080803573ffffffffffffffffffffffffffffffffffffffff16906020019092919050505061151c565b6040518082815260200191505060405180910390f35b34801561039a57600080fd5b506103a3611534565b6040518082815260200191505060405180910390f35b3480156103c557600080fd5b506103ce61153a565b6040518082815260200191505060405180910390f35b3480156103f057600080fd5b506103f9611540565b005b34801561040757600080fd5b5061041061154b565b6040518082815260200191505060405180910390f35b34801561043257600080fd5b506104946004803603810190808035906020019092919080359060200190820180359060200190808060200260200160405190810160405280939291908181526020018383602002808284378201915050505050509192919290505050611551565b005b3480156104a257600080fd5b506104d7600480360381019080803573ffffffffffffffffffffffffffffffffffffffff169060200190929190505050611560565b005b3480156104e557600080fd5b506104ee6115c7565b604051808373ffffffffffffffffffffffffffffffffffffffff1673ffffffffffffffffffffffffffffffffffffffff1681526020018273ffffffffffffffffffffffffffffffffffffffff1673ffffffffffffffffffffffffffffffffffffffff1681526020019250505060405180910390f35b34801561056f57600080fd5b50610578611ad2565b005b34801561058657600080fd5b506105db600480360381019080803573ffffffffffffffffffffffffffffffffffffffff169060200190929190803573ffffffffffffffffffffffffffffffffffffffff169060200190929190505050611d5b565b6040518082815260200191505060405180910390f35b3480156105fd57600080fd5b50610632600480360381019080803573ffffffffffffffffffffffffffffffffffffffff169060200190929190505050611d80565b604051808215151515815260200191505060405180910390f35b34801561065857600080fd5b50610661611da0565b005b34801561066f57600080fd5b506106786122ca565b6040518082815260200191505060405180910390f35b34801561069a57600080fd5b506106a36122d0565b6040518082815260200191505060405180910390f35b3480156106c557600080fd5b506106fa600480360381019080803573ffffffffffffffffffffffffffffffffffffffff1690602001909291905050506122d6565b604051808215151515815260200191505060405180910390f35b34801561072057600080fd5b506107296122f6565b604051808273ffffffffffffffffffffffffffffffffffffffff1673ffffffffffffffffffffffffffffffffffffffff16815260200191505060405180910390f35b34801561077757600080fd5b506107b6600480360381019080803573ffffffffffffffffffffffffffffffffffffffff1690602001909291908035906020019092919050505061231b565b005b3480156107c457600080fd5b506107e36004803603810190808035906020019092919050505061232a565b604051808273ffffffffffffffffffffffffffffffffffffffff1673ffffffffffffffffffffffffffffffffffffffff16815260200191505060405180910390f35b34801561083157600080fd5b50610890600480360381019080803573ffffffffffffffffffffffffffffffffffffffff169060200190929190803573ffffffffffffffffffffffffffffffffffffffff16906020019092919080359060200190929190505050612368565b005b34801561089e57600080fd5b506108d3600480360381019080803573ffffffffffffffffffffffffffffffffffffffff1690602001909291905050506123d3565b604051808215151515815260200191505060405180910390f35b3480156108f957600080fd5b5061092e600480360381019080803573ffffffffffffffffffffffffffffffffffffffff1690602001909291905050506123f3565b604051808215151515815260200191505060405180910390f35b34801561095457600080fd5b506109ac60048036038101908080359060200190820180359060200190808060200260200160405190810160405280939291908181526020018383602002808284378201915050505050509192919290505050612413565b005b3480156109ba57600080fd5b506109ef600480360381019080803573ffffffffffffffffffffffffffffffffffffffff1690602001909291905050506126a5565b6040518082815260200191505060405180910390f35b348015610a1157600080fd5b50610a1a6126bd565b604051808215151515815260200191505060405180910390f35b348015610a4057600080fd5b50610a496126d0565b005b348015610a5757600080fd5b50610a606126db565b005b348015610a6e57600080fd5b50610a776128ec565b6040518082815260200191505060405180910390f35b348015610a9957600080fd5b50610ace600480360381019080803573ffffffffffffffffffffffffffffffffffffffff1690602001909291905050506128f2565b6040518082815260200191505060405180910390f35b348015610af057600080fd5b50610af961290a565b005b348015610b0757600080fd5b50610b10612cea565b005b348015610b1e57600080fd5b50610ba0600480360381019080803573ffffffffffffffffffffffffffffffffffffffff1690602001909291908035906020019092919080359060200190820180359060200190808060200260200160405190810160405280939291908181526020018383602002808284378201915050505050509192919290505050612e2a565b005b348015610bae57600080fd5b50610c496004803603810190808035906020019082018035906020019080806020026020016040519081016040528093929190818152602001838360200280828437820191505050505050919291929080359060200190820180359060200190808060200260200160405190810160405280939291908181526020018383602002808284378201915050505050509192919290505050612e95565b005b348015610c5757600080fd5b50610c60612ea4565b6040518082815260200191505060405180910390f35b348015610c8257600080fd5b50610cb7600480360381019080803573ffffffffffffffffffffffffffffffffffffffff169060200190929190505050612eaa565b6040518082815260200191505060405180910390f35b348015610cd957600080fd5b50610d0e600480360381019080803573ffffffffffffffffffffffffffffffffffffffff169060200190929190505050612ec2565b604051808215151515815260200191505060405180910390f35b348015610d3457600080fd5b50610d3d612ee2565b60405180826005811115610d4d57fe5b60ff16815260200191505060405180910390f35b348015610d6d57600080fd5b50610d76612ef5565b005b348015610d8457600080fd5b50610e3f600480360381019080803573ffffffffffffffffffffffffffffffffffffffff1690602001909291908035906020019082018035906020019080806020026020016040519081016040528093929190818152602001838360200280828437820191505050505050919291929080359060200190820180359060200190808060200260200160405190810160405280939291908181526020018383602002808284378201915050505050509192919290505050613257565b005b348015610e4d57600080fd5b50610e566132c2565b6040518082815260200191505060405180910390f35b348015610e7857600080fd5b50610ead600480360381019080803573ffffffffffffffffffffffffffffffffffffffff1690602001909291905050506132c8565b005b600a6020528060005260406000206000915090505481565b600e5481565b60165481565b60155481565b60008060008060008060006003806005811115610ef257fe5b601a60009054906101000a900460ff166005811115610f0d57fe5b141515610f1957600080fd5b601554610f2461332f565b10151515610f3157600080fd5b610f396115c7565b8098508199505050610f95601860008a73ffffffffffffffffffffffffffffffffffffffff1673ffffffffffffffffffffffffffffffffffffffff1681526020019081526020016000205460165461333790919063ffffffff16565b9550601860008873ffffffffffffffffffffffffffffffffffffffff1673ffffffffffffffffffffffffffffffffffffffff168152602001908152602001600020549450610fec858761335090919063ffffffff16565b9350600092508891505b601960003373ffffffffffffffffffffffffffffffffffffffff1673ffffffffffffffffffffffffffffffffffffffff16815260200190815260200160002060008973ffffffffffffffffffffffffffffffffffffffff1673ffffffffffffffffffffffffffffffffffffffff168152602001908152602001600020805490508210156113f857601960003373ffffffffffffffffffffffffffffffffffffffff1673ffffffffffffffffffffffffffffffffffffffff16815260200190815260200160002060008973ffffffffffffffffffffffffffffffffffffffff1673ffffffffffffffffffffffffffffffffffffffff1681526020019081526020016000208281548110151561110657fe5b906000526020600020906003020160020160009054906101000a900460ff1615156113eb5784601960003373ffffffffffffffffffffffffffffffffffffffff1673ffffffffffffffffffffffffffffffffffffffff16815260200190815260200160002060008a73ffffffffffffffffffffffffffffffffffffffff1673ffffffffffffffffffffffffffffffffffffffff168152602001908152602001600020838154811015156111b557fe5b9060005260206000209060030201600101541015156111d3576113f8565b611335611326611286601960003373ffffffffffffffffffffffffffffffffffffffff1673ffffffffffffffffffffffffffffffffffffffff16815260200190815260200160002060008c73ffffffffffffffffffffffffffffffffffffffff1673ffffffffffffffffffffffffffffffffffffffff1681526020019081526020016000208581548110151561126557fe5b9060005260206000209060030201600101548861333790919063ffffffff16565b601960003373ffffffffffffffffffffffffffffffffffffffff1673ffffffffffffffffffffffffffffffffffffffff16815260200190815260200160002060008c73ffffffffffffffffffffffffffffffffffffffff1673ffffffffffffffffffffffffffffffffffffffff1681526020019081526020016000208581548110151561130f57fe5b906000526020600020906003020160000154613366565b8461337f90919063ffffffff16565b92506001601960003373ffffffffffffffffffffffffffffffffffffffff1673ffffffffffffffffffffffffffffffffffffffff16815260200190815260200160002060008a73ffffffffffffffffffffffffffffffffffffffff1673ffffffffffffffffffffffffffffffffffffffff168152602001908152602001600020838154811015156113c257fe5b906000526020600020906003020160020160006101000a81548160ff0219169083151502179055505b8180600101925050610ff6565b6000809054906101000a900473ffffffffffffffffffffffffffffffffffffffff1673ffffffffffffffffffffffffffffffffffffffff1663a9059cbb33611449878761339b90919063ffffffff16565b6040518363ffffffff167c0100000000000000000000000000000000000000000000000000000000028152600401808373ffffffffffffffffffffffffffffffffffffffff1673ffffffffffffffffffffffffffffffffffffffff16815260200182815260200192505050602060405180830381600087803b1580156114ce57600080fd5b505af11580156114e2573d6000803e3d6000fd5b505050506040513d60208110156114f857600080fd5b8101908080519060200190929190505050151561151157fe5b505050505050505050565b60096020528060005260406000206000915090505481565b60015481565b60025481565b611549336133d3565b565b60065481565b61155c338383613764565b5050565b6000809054906101000a900473ffffffffffffffffffffffffffffffffffffffff1673ffffffffffffffffffffffffffffffffffffffff163373ffffffffffffffffffffffffffffffffffffffff161415156115bb57600080fd5b6115c4816133d3565b50565b600080600080600080600080601860008073ffffffffffffffffffffffffffffffffffffffff1673ffffffffffffffffffffffffffffffffffffffff16815260200190815260200160002054955060009450600093505b6007805490508460ff16101561177c576018600060078660ff1681548110151561164457fe5b9060005260206000200160009054906101000a900473ffffffffffffffffffffffffffffffffffffffff1673ffffffffffffffffffffffffffffffffffffffff1673ffffffffffffffffffffffffffffffffffffffff1681526020019081526020016000205486101561176f576018600060078660ff168154811015156116c757fe5b9060005260206000200160009054906101000a900473ffffffffffffffffffffffffffffffffffffffff1673ffffffffffffffffffffffffffffffffffffffff1673ffffffffffffffffffffffffffffffffffffffff16815260200190815260200160002054955060078460ff1681548110151561174157fe5b9060005260206000200160009054906101000a900473ffffffffffffffffffffffffffffffffffffffff1694505b838060010194505061161e565b600073ffffffffffffffffffffffffffffffffffffffff168573ffffffffffffffffffffffffffffffffffffffff16146117f557601860008073ffffffffffffffffffffffffffffffffffffffff1673ffffffffffffffffffffffffffffffffffffffff16815260200190815260200160002054611870565b601860006007600081548110151561180957fe5b9060005260206000200160009054906101000a900473ffffffffffffffffffffffffffffffffffffffff1673ffffffffffffffffffffffffffffffffffffffff1673ffffffffffffffffffffffffffffffffffffffff168152602001908152602001600020545b9250600073ffffffffffffffffffffffffffffffffffffffff168573ffffffffffffffffffffffffffffffffffffffff16146118ad5760006118e9565b600760008154811015156118bd57fe5b9060005260206000200160009054906101000a900473ffffffffffffffffffffffffffffffffffffffff165b9150600090505b6007805490508160ff161015611ac2576018600060078360ff1681548110151561191657fe5b9060005260206000200160009054906101000a900473ffffffffffffffffffffffffffffffffffffffff1673ffffffffffffffffffffffffffffffffffffffff1673ffffffffffffffffffffffffffffffffffffffff16815260200190815260200160002054831080156119f2575060078160ff1681548110151561199757fe5b9060005260206000200160009054906101000a900473ffffffffffffffffffffffffffffffffffffffff1673ffffffffffffffffffffffffffffffffffffffff168573ffffffffffffffffffffffffffffffffffffffff1614155b15611ab5576018600060078360ff16815481101515611a0d57fe5b9060005260206000200160009054906101000a900473ffffffffffffffffffffffffffffffffffffffff1673ffffffffffffffffffffffffffffffffffffffff1673ffffffffffffffffffffffffffffffffffffffff16815260200190815260200160002054925060078160ff16815481101515611a8757fe5b9060005260206000200160009054906101000a900473ffffffffffffffffffffffffffffffffffffffff1691505b80806001019150506118f0565b8482975097505050505050509091565b6000806005811115611ae057fe5b601a60009054906101000a900460ff166005811115611afb57fe5b141515611b0757600080fd5b600860003373ffffffffffffffffffffffffffffffffffffffff1673ffffffffffffffffffffffffffffffffffffffff16815260200190815260200160002060009054906101000a900460ff161515611b5f57600080fd5b600f60003373ffffffffffffffffffffffffffffffffffffffff1673ffffffffffffffffffffffffffffffffffffffff16815260200190815260200160002060009054906101000a900460ff161515611bb757600080fd5b6000600f60003373ffffffffffffffffffffffffffffffffffffffff1673ffffffffffffffffffffffffffffffffffffffff16815260200190815260200160002060006101000a81548160ff0219169083151502179055506000809054906101000a900473ffffffffffffffffffffffffffffffffffffffff1673ffffffffffffffffffffffffffffffffffffffff1663a9059cbb33600a60003373ffffffffffffffffffffffffffffffffffffffff1673ffffffffffffffffffffffffffffffffffffffff168152602001908152602001600020546040518363ffffffff167c0100000000000000000000000000000000000000000000000000000000028152600401808373ffffffffffffffffffffffffffffffffffffffff1673ffffffffffffffffffffffffffffffffffffffff16815260200182815260200192505050602060405180830381600087803b158015611d1257600080fd5b505af1158015611d26573d6000803e3d6000fd5b505050506040513d6020811015611d3c57600080fd5b81019080805190602001909291905050501515611d5857600080fd5b50565b600d602052816000526040600020602052806000526040600020600091509150505481565b60086020528060005260406000206000915054906101000a900460ff1681565b600080600860003373ffffffffffffffffffffffffffffffffffffffff1673ffffffffffffffffffffffffffffffffffffffff16815260200190815260200160002060009054906101000a900460ff161515611dfb57600080fd5b601360009054906101000a900460ff161515611e1657600080fd5b6000601360006101000a81548160ff021916908315150217905550600091505b6007805490508260ff1610156122c6576012600060078460ff16815481101515611e5c57fe5b9060005260206000200160009054906101000a900473ffffffffffffffffffffffffffffffffffffffff1673ffffffffffffffffffffffffffffffffffffffff1673ffffffffffffffffffffffffffffffffffffffff16815260200190815260200160002060009054906101000a900460ff16156122b95760006012600060078560ff16815481101515611eec57fe5b9060005260206000200160009054906101000a900473ffffffffffffffffffffffffffffffffffffffff1673ffffffffffffffffffffffffffffffffffffffff1673ffffffffffffffffffffffffffffffffffffffff16815260200190815260200160002060006101000a81548160ff021916908315150217905550600a600060078460ff16815481101515611f7e57fe5b9060005260206000200160009054906101000a900473ffffffffffffffffffffffffffffffffffffffff1673ffffffffffffffffffffffffffffffffffffffff1673ffffffffffffffffffffffffffffffffffffffff16815260200190815260200160002054600c600060078560ff16815481101515611ffa57fe5b9060005260206000200160009054906101000a900473ffffffffffffffffffffffffffffffffffffffff1673ffffffffffffffffffffffffffffffffffffffff1673ffffffffffffffffffffffffffffffffffffffff1681526020019081526020016000205411156122b85761216f600a600060078560ff1681548110151561207f57fe5b9060005260206000200160009054906101000a900473ffffffffffffffffffffffffffffffffffffffff1673ffffffffffffffffffffffffffffffffffffffff1673ffffffffffffffffffffffffffffffffffffffff16815260200190815260200160002054600c600060078660ff168154811015156120fb57fe5b9060005260206000200160009054906101000a900473ffffffffffffffffffffffffffffffffffffffff1673ffffffffffffffffffffffffffffffffffffffff1673ffffffffffffffffffffffffffffffffffffffff1681526020019081526020016000205461333790919063ffffffff16565b90506000809054906101000a900473ffffffffffffffffffffffffffffffffffffffff1673ffffffffffffffffffffffffffffffffffffffff1663a9059cbb60078460ff168154811015156121c057fe5b9060005260206000200160009054906101000a900473ffffffffffffffffffffffffffffffffffffffff16836040518363ffffffff167c0100000000000000000000000000000000000000000000000000000000028152600401808373ffffffffffffffffffffffffffffffffffffffff1673ffffffffffffffffffffffffffffffffffffffff16815260200182815260200192505050602060405180830381600087803b15801561227157600080fd5b505af1158015612285573d6000803e3d6000fd5b505050506040513d602081101561229b57600080fd5b810190808051906020019092919050505015156122b757600080fd5b5b5b8180600101925050611e36565b5050565b60055481565b60175481565b60116020528060005260406000206000915054906101000a900460ff1681565b6000809054906101000a900473ffffffffffffffffffffffffffffffffffffffff1681565b612326338383613bf8565b5050565b60078181548110151561233957fe5b906000526020600020016000915054906101000a900473ffffffffffffffffffffffffffffffffffffffff1681565b6000809054906101000a900473ffffffffffffffffffffffffffffffffffffffff1673ffffffffffffffffffffffffffffffffffffffff163373ffffffffffffffffffffffffffffffffffffffff161415156123c357600080fd5b6123ce838383613bf8565b505050565b60106020528060005260406000206000915054906101000a900460ff1681565b60126020528060005260406000206000915054906101000a900460ff1681565b6000806000600380600581111561242657fe5b601a60009054906101000a900460ff16600581111561244157fe5b14151561244d57600080fd5b600860003373ffffffffffffffffffffffffffffffffffffffff1673ffffffffffffffffffffffffffffffffffffffff16815260200190815260200160002060009054906101000a900460ff1615156124a557600080fd5b60078054905085511415156124b957600080fd5b6014546124c461332f565b1015156124d057600080fd5b6000935060009250600091505b6007805490508260ff16101561269057848260ff168151811015156124fe57fe5b90602001906020020151600d60003373ffffffffffffffffffffffffffffffffffffffff1673ffffffffffffffffffffffffffffffffffffffff168152602001908152602001600020600060078560ff1681548110151561255b57fe5b9060005260206000200160009054906101000a900473ffffffffffffffffffffffffffffffffffffffff1673ffffffffffffffffffffffffffffffffffffffff1673ffffffffffffffffffffffffffffffffffffffff168152602001908152602001600020819055506125f1858360ff168151811015156125d857fe5b906020019060200201518561337f90919063ffffffff16565b9350612681600a600060078560ff1681548110151561260c57fe5b9060005260206000200160009054906101000a900473ffffffffffffffffffffffffffffffffffffffff1673ffffffffffffffffffffffffffffffffffffffff1673ffffffffffffffffffffffffffffffffffffffff168152602001908152602001600020548461337f90919063ffffffff16565b925081806001019250506124dd565b828414151561269e57600080fd5b5050505050565b60186020528060005260406000206000915090505481565b601360009054906101000a900460ff1681565b6126d933614106565b565b60008060018060058111156126ec57fe5b601a60009054906101000a900460ff16600581111561270757fe5b14151561271357600080fd5b600860003373ffffffffffffffffffffffffffffffffffffffff1673ffffffffffffffffffffffffffffffffffffffff16815260200190815260200160002060009054906101000a900460ff16151561276b57600080fd5b601060003373ffffffffffffffffffffffffffffffffffffffff1673ffffffffffffffffffffffffffffffffffffffff16815260200190815260200160002060009054906101000a900460ff161515156127c457600080fd5b6001601060003373ffffffffffffffffffffffffffffffffffffffff1673ffffffffffffffffffffffffffffffffffffffff16815260200190815260200160002060006101000a81548160ff02191690831515021790555060019250600091505b6007805490508260ff1610156128d6578280156128c757506010600060078460ff1681548110151561285357fe5b9060005260206000200160009054906101000a900473ffffffffffffffffffffffffffffffffffffffff1673ffffffffffffffffffffffffffffffffffffffff1673ffffffffffffffffffffffffffffffffffffffff16815260200190815260200160002060009054906101000a900460ff165b92508180600101925050612825565b82156128e7576128e66002614ba2565b5b505050565b60145481565b600b6020528060005260406000206000915090505481565b600080600280600581111561291b57fe5b601a60009054906101000a900460ff16600581111561293657fe5b14151561294257600080fd5b600860003373ffffffffffffffffffffffffffffffffffffffff1673ffffffffffffffffffffffffffffffffffffffff16815260200190815260200160002060009054906101000a900460ff16151561299a57600080fd5b601160003373ffffffffffffffffffffffffffffffffffffffff1673ffffffffffffffffffffffffffffffffffffffff16815260200190815260200160002060009054906101000a900460ff161515156129f357600080fd5b6001601160003373ffffffffffffffffffffffffffffffffffffffff1673ffffffffffffffffffffffffffffffffffffffff16815260200190815260200160002060006101000a81548160ff0219169083151502179055506000809054906101000a900473ffffffffffffffffffffffffffffffffffffffff1673ffffffffffffffffffffffffffffffffffffffff1663a9059cbb33600960003373ffffffffffffffffffffffffffffffffffffffff1673ffffffffffffffffffffffffffffffffffffffff168152602001908152602001600020546040518363ffffffff167c0100000000000000000000000000000000000000000000000000000000028152600401808373ffffffffffffffffffffffffffffffffffffffff1673ffffffffffffffffffffffffffffffffffffffff16815260200182815260200192505050602060405180830381600087803b158015612b4e57600080fd5b505af1158015612b62573d6000803e3d6000fd5b505050506040513d6020811015612b7857600080fd5b81019080805190602001909291905050501515612b9457600080fd5b60019250600091505b6007805490508260ff161015612cd457828015612cc557506011600060078460ff16815481101515612bcb57fe5b9060005260206000200160009054906101000a900473ffffffffffffffffffffffffffffffffffffffff1673ffffffffffffffffffffffffffffffffffffffff1673ffffffffffffffffffffffffffffffffffffffff16815260200190815260200160002060009054906101000a900460ff1680612cc4575060006009600060078560ff16815481101515612c5c57fe5b9060005260206000200160009054906101000a900473ffffffffffffffffffffffffffffffffffffffff1673ffffffffffffffffffffffffffffffffffffffff1673ffffffffffffffffffffffffffffffffffffffff16815260200190815260200160002054145b5b92508180600101925050612b9d565b8215612ce557612ce46004614ba2565b5b505050565b6001806005811115612cf857fe5b601a60009054906101000a900460ff166005811115612d1357fe5b141515612d1f57600080fd5b600860003373ffffffffffffffffffffffffffffffffffffffff1673ffffffffffffffffffffffffffffffffffffffff16815260200190815260200160002060009054906101000a900460ff161515612d7757600080fd5b601060003373ffffffffffffffffffffffffffffffffffffffff1673ffffffffffffffffffffffffffffffffffffffff16815260200190815260200160002060009054906101000a900460ff161515612dcf57600080fd5b6000601060003373ffffffffffffffffffffffffffffffffffffffff1673ffffffffffffffffffffffffffffffffffffffff16815260200190815260200160002060006101000a81548160ff02191690831515021790555050565b6000809054906101000a900473ffffffffffffffffffffffffffffffffffffffff1673ffffffffffffffffffffffffffffffffffffffff163373ffffffffffffffffffffffffffffffffffffffff16141515612e8557600080fd5b612e90838383613764565b505050565b612ea0338383614c32565b5050565b60045481565b600c6020528060005260406000206000915090505481565b600f6020528060005260406000206000915054906101000a900460ff1681565b601a60009054906101000a900460ff1681565b60008060006003806005811115612f0857fe5b601a60009054906101000a900460ff166005811115612f2357fe5b141515612f2f57600080fd5b600860003373ffffffffffffffffffffffffffffffffffffffff1673ffffffffffffffffffffffffffffffffffffffff16815260200190815260200160002060009054906101000a900460ff161515612f8757600080fd5b601554612f9261332f565b10151515612f9f57600080fd5b601160003373ffffffffffffffffffffffffffffffffffffffff1673ffffffffffffffffffffffffffffffffffffffff16815260200190815260200160002060009054906101000a900460ff16151515612ff857600080fd5b6001601160003373ffffffffffffffffffffffffffffffffffffffff1673ffffffffffffffffffffffffffffffffffffffff16815260200190815260200160002060006101000a81548160ff0219169083151502179055506130586115c7565b8094508195505050600d60008573ffffffffffffffffffffffffffffffffffffffff1673ffffffffffffffffffffffffffffffffffffffff16815260200190815260200160002060003373ffffffffffffffffffffffffffffffffffffffff1673ffffffffffffffffffffffffffffffffffffffff1681526020019081526020016000205491506000809054906101000a900473ffffffffffffffffffffffffffffffffffffffff1673ffffffffffffffffffffffffffffffffffffffff1663a9059cbb33846040518363ffffffff167c0100000000000000000000000000000000000000000000000000000000028152600401808373ffffffffffffffffffffffffffffffffffffffff1673ffffffffffffffffffffffffffffffffffffffff16815260200182815260200192505050602060405180830381600087803b1580156131a357600080fd5b505af11580156131b7573d6000803e3d6000fd5b505050506040513d60208110156131cd57600080fd5b810190808051906020019092919050505015156131e657fe5b7f529314119e568ebeb046e7fb288642e03aea33279f2f6762afd0e56a74c7aa423383604051808373ffffffffffffffffffffffffffffffffffffffff1673ffffffffffffffffffffffffffffffffffffffff1681526020018281526020019250505060405180910390a150505050565b6000809054906101000a900473ffffffffffffffffffffffffffffffffffffffff1673ffffffffffffffffffffffffffffffffffffffff163373ffffffffffffffffffffffffffffffffffffffff161415156132b257600080fd5b6132bd838383614c32565b505050565b60035481565b6000809054906101000a900473ffffffffffffffffffffffffffffffffffffffff1673ffffffffffffffffffffffffffffffffffffffff163373ffffffffffffffffffffffffffffffffffffffff1614151561332357600080fd5b61332c81614106565b50565b600042905090565b600082821115151561334557fe5b818303905092915050565b6000818381151561335d57fe5b04905092915050565b60008183106133755781613377565b825b905092915050565b6000818301905082811015151561339257fe5b80905092915050565b6000808314156133ae57600090506133cd565b81830290508183828115156133bf57fe5b041415156133c957fe5b8090505b92915050565b60008060008060058111156133e457fe5b601a60009054906101000a900460ff1660058111156133ff57fe5b14151561340b57600080fd5b83600860008273ffffffffffffffffffffffffffffffffffffffff1673ffffffffffffffffffffffffffffffffffffffff16815260200190815260200160002060009054906101000a900460ff16151561346457600080fd5b600f60008673ffffffffffffffffffffffffffffffffffffffff1673ffffffffffffffffffffffffffffffffffffffff16815260200190815260200160002060009054906101000a900460ff161515156134bd57600080fd5b6001600f60008773ffffffffffffffffffffffffffffffffffffffff1673ffffffffffffffffffffffffffffffffffffffff16815260200190815260200160002060006101000a81548160ff0219169083151502179055506000809054906101000a900473ffffffffffffffffffffffffffffffffffffffff1673ffffffffffffffffffffffffffffffffffffffff166323b872dd8630600a60008a73ffffffffffffffffffffffffffffffffffffffff1673ffffffffffffffffffffffffffffffffffffffff168152602001908152602001600020546040518463ffffffff167c0100000000000000000000000000000000000000000000000000000000028152600401808473ffffffffffffffffffffffffffffffffffffffff1673ffffffffffffffffffffffffffffffffffffffff1681526020018373ffffffffffffffffffffffffffffffffffffffff1673ffffffffffffffffffffffffffffffffffffffff1681526020018281526020019350505050602060405180830381600087803b15801561364c57600080fd5b505af1158015613660573d6000803e3d6000fd5b505050506040513d602081101561367657600080fd5b8101908080519060200190929190505050151561369257600080fd5b60019350600092505b6007805490508360ff16101561374c5783801561373d5750600f600060078560ff168154811015156136c957fe5b9060005260206000200160009054906101000a900473ffffffffffffffffffffffffffffffffffffffff1673ffffffffffffffffffffffffffffffffffffffff1673ffffffffffffffffffffffffffffffffffffffff16815260200190815260200160002060009054906101000a900460ff165b9350828060010193505061369b565b831561375d5761375c6001614ba2565b5b5050505050565b600080600080600180600581111561377857fe5b601a60009054906101000a900460ff16600581111561379357fe5b14151561379f57600080fd5b87600860008273ffffffffffffffffffffffffffffffffffffffff1673ffffffffffffffffffffffffffffffffffffffff16815260200190815260200160002060009054906101000a900460ff1615156137f857600080fd5b600780549050875114151561380c57600080fd5b6138166003614ba2565b6000955060009450600093505b6007805490508460ff1610156139d657868460ff1681518110151561384457fe5b90602001906020020151600d60008b73ffffffffffffffffffffffffffffffffffffffff1673ffffffffffffffffffffffffffffffffffffffff168152602001908152602001600020600060078760ff168154811015156138a157fe5b9060005260206000200160009054906101000a900473ffffffffffffffffffffffffffffffffffffffff1673ffffffffffffffffffffffffffffffffffffffff1673ffffffffffffffffffffffffffffffffffffffff16815260200190815260200160002081905550613937878560ff1681518110151561391e57fe5b906020019060200201518761337f90919063ffffffff16565b95506139c7600a600060078760ff1681548110151561395257fe5b9060005260206000200160009054906101000a900473ffffffffffffffffffffffffffffffffffffffff1673ffffffffffffffffffffffffffffffffffffffff1673ffffffffffffffffffffffffffffffffffffffff168152602001908152602001600020548661337f90919063ffffffff16565b94508380600101945050613823565b84861415156139e457600080fd5b613a13670de0b6b3a7640000613a056006548861339b90919063ffffffff16565b61335090919063ffffffff16565b8810151515613a2157600080fd5b613a34613a2c61332f565b60025461337f565b601481905550613a4860145460015461337f565b60158190555087601681905550600092505b6007805490508460ff161015613be2578873ffffffffffffffffffffffffffffffffffffffff1660078460ff16815481101515613a9357fe5b9060005260206000200160009054906101000a900473ffffffffffffffffffffffffffffffffffffffff1673ffffffffffffffffffffffffffffffffffffffff16141515613bd55784600d600060078660ff16815481101515613af257fe5b9060005260206000200160009054906101000a900473ffffffffffffffffffffffffffffffffffffffff1673ffffffffffffffffffffffffffffffffffffffff1673ffffffffffffffffffffffffffffffffffffffff168152602001908152602001600020600060078660ff16815481101515613b6b57fe5b9060005260206000200160009054906101000a900473ffffffffffffffffffffffffffffffffffffffff1673ffffffffffffffffffffffffffffffffffffffff1673ffffffffffffffffffffffffffffffffffffffff168152602001908152602001600020819055505b8280600101935050613a5a565b613bed898a8a613bf8565b505050505050505050565b613c00615277565b6003806005811115613c0e57fe5b601a60009054906101000a900460ff166005811115613c2957fe5b141515613c3557600080fd5b613c3d614efe565b613c4561332f565b101515613c5157600080fd5b601454613c5c61332f565b101580613cb25750600860008673ffffffffffffffffffffffffffffffffffffffff1673ffffffffffffffffffffffffffffffffffffffff16815260200190815260200160002060009054906101000a900460ff165b1515613cbd57600080fd5b600860008573ffffffffffffffffffffffffffffffffffffffff1673ffffffffffffffffffffffffffffffffffffffff16815260200190815260200160002060009054906101000a900460ff1680613d415750600073ffffffffffffffffffffffffffffffffffffffff168473ffffffffffffffffffffffffffffffffffffffff16145b1515613d4c57600080fd5b613d7d670de0b6b3a7640000613d6f60065460165461339b90919063ffffffff16565b61335090919063ffffffff16565b8310151515613d8b57600080fd5b606060405190810160405280848152602001601860008773ffffffffffffffffffffffffffffffffffffffff1673ffffffffffffffffffffffffffffffffffffffff1681526020019081526020016000205481526020016000151581525091506000809054906101000a900473ffffffffffffffffffffffffffffffffffffffff1673ffffffffffffffffffffffffffffffffffffffff166323b872dd8630866040518463ffffffff167c0100000000000000000000000000000000000000000000000000000000028152600401808473ffffffffffffffffffffffffffffffffffffffff1673ffffffffffffffffffffffffffffffffffffffff1681526020018373ffffffffffffffffffffffffffffffffffffffff1673ffffffffffffffffffffffffffffffffffffffff1681526020018281526020019350505050602060405180830381600087803b158015613ee357600080fd5b505af1158015613ef7573d6000803e3d6000fd5b505050506040513d6020811015613f0d57600080fd5b81019080805190602001909291905050501515613f2957600080fd5b613f45610708613f37614efe565b61333790919063ffffffff16565b613f4d61332f565b101515613f7057613f698360175461337f90919063ffffffff16565b6017819055505b613f858360165461337f90919063ffffffff16565b601681905550613fdd83601860008773ffffffffffffffffffffffffffffffffffffffff1673ffffffffffffffffffffffffffffffffffffffff1681526020019081526020016000205461337f90919063ffffffff16565b601860008673ffffffffffffffffffffffffffffffffffffffff1673ffffffffffffffffffffffffffffffffffffffff16815260200190815260200160002081905550601960008673ffffffffffffffffffffffffffffffffffffffff1673ffffffffffffffffffffffffffffffffffffffff16815260200190815260200160002060008573ffffffffffffffffffffffffffffffffffffffff1673ffffffffffffffffffffffffffffffffffffffff1681526020019081526020016000208290806001815401808255809150509060018203906000526020600020906003020160009091929091909150600082015181600001556020820151816001015560408201518160020160006101000a81548160ff0219169083151502179055505050505050505050565b6000806000806000600180600581111561411c57fe5b601a60009054906101000a900460ff16600581111561413757fe5b14151561414357600080fd5b86600860008273ffffffffffffffffffffffffffffffffffffffff1673ffffffffffffffffffffffffffffffffffffffff16815260200190815260200160002060009054906101000a900460ff16151561419c57600080fd5b601360009054906101000a900460ff1615156141b757600080fd5b601260008973ffffffffffffffffffffffffffffffffffffffff1673ffffffffffffffffffffffffffffffffffffffff16815260200190815260200160002060009054906101000a900460ff1615151561421057600080fd5b6001601260008a73ffffffffffffffffffffffffffffffffffffffff1673ffffffffffffffffffffffffffffffffffffffff16815260200190815260200160002060006101000a81548160ff021916908315150217905550600a60008973ffffffffffffffffffffffffffffffffffffffff1673ffffffffffffffffffffffffffffffffffffffff16815260200190815260200160002054600c60008a73ffffffffffffffffffffffffffffffffffffffff1673ffffffffffffffffffffffffffffffffffffffff1681526020019081526020016000205411156144c05761437f600a60008a73ffffffffffffffffffffffffffffffffffffffff1673ffffffffffffffffffffffffffffffffffffffff16815260200190815260200160002054600c60008b73ffffffffffffffffffffffffffffffffffffffff1673ffffffffffffffffffffffffffffffffffffffff1681526020019081526020016000205461333790919063ffffffff16565b96506000809054906101000a900473ffffffffffffffffffffffffffffffffffffffff1673ffffffffffffffffffffffffffffffffffffffff166323b872dd89308a6040518463ffffffff167c0100000000000000000000000000000000000000000000000000000000028152600401808473ffffffffffffffffffffffffffffffffffffffff1673ffffffffffffffffffffffffffffffffffffffff1681526020018373ffffffffffffffffffffffffffffffffffffffff1673ffffffffffffffffffffffffffffffffffffffff1681526020018281526020019350505050602060405180830381600087803b15801561447957600080fd5b505af115801561448d573d6000803e3d6000fd5b505050506040513d60208110156144a357600080fd5b810190808051906020019092919050505015156144bf57600080fd5b5b60019550600094505b6007805490508560ff16101561457a5785801561456b57506012600060078760ff168154811015156144f757fe5b9060005260206000200160009054906101000a900473ffffffffffffffffffffffffffffffffffffffff1673ffffffffffffffffffffffffffffffffffffffff1673ffffffffffffffffffffffffffffffffffffffff16815260200190815260200160002060009054906101000a900460ff165b955084806001019550506144c9565b8515614b98576000601360006101000a81548160ff021916908315150217905550600093505b6007805490508460ff161015614b975760006012600060078760ff168154811015156145c857fe5b9060005260206000200160009054906101000a900473ffffffffffffffffffffffffffffffffffffffff1673ffffffffffffffffffffffffffffffffffffffff1673ffffffffffffffffffffffffffffffffffffffff16815260200190815260200160002060006101000a81548160ff021916908315150217905550600a600060078660ff1681548110151561465a57fe5b9060005260206000200160009054906101000a900473ffffffffffffffffffffffffffffffffffffffff1673ffffffffffffffffffffffffffffffffffffffff1673ffffffffffffffffffffffffffffffffffffffff16815260200190815260200160002054600c600060078760ff168154811015156146d657fe5b9060005260206000200160009054906101000a900473ffffffffffffffffffffffffffffffffffffffff1673ffffffffffffffffffffffffffffffffffffffff1673ffffffffffffffffffffffffffffffffffffffff1681526020019081526020016000205410156149945761484b600c600060078760ff1681548110151561475b57fe5b9060005260206000200160009054906101000a900473ffffffffffffffffffffffffffffffffffffffff1673ffffffffffffffffffffffffffffffffffffffff1673ffffffffffffffffffffffffffffffffffffffff16815260200190815260200160002054600a600060078860ff168154811015156147d757fe5b9060005260206000200160009054906101000a900473ffffffffffffffffffffffffffffffffffffffff1673ffffffffffffffffffffffffffffffffffffffff1673ffffffffffffffffffffffffffffffffffffffff1681526020019081526020016000205461333790919063ffffffff16565b92506000809054906101000a900473ffffffffffffffffffffffffffffffffffffffff1673ffffffffffffffffffffffffffffffffffffffff1663a9059cbb60078660ff1681548110151561489c57fe5b9060005260206000200160009054906101000a900473ffffffffffffffffffffffffffffffffffffffff16856040518363ffffffff167c0100000000000000000000000000000000000000000000000000000000028152600401808373ffffffffffffffffffffffffffffffffffffffff1673ffffffffffffffffffffffffffffffffffffffff16815260200182815260200192505050602060405180830381600087803b15801561494d57600080fd5b505af1158015614961573d6000803e3d6000fd5b505050506040513d602081101561497757600080fd5b8101908080519060200190929190505050151561499357600080fd5b5b600c600060078660ff168154811015156149aa57fe5b9060005260206000200160009054906101000a900473ffffffffffffffffffffffffffffffffffffffff1673ffffffffffffffffffffffffffffffffffffffff1673ffffffffffffffffffffffffffffffffffffffff16815260200190815260200160002054600a600060078760ff16815481101515614a2657fe5b9060005260206000200160009054906101000a900473ffffffffffffffffffffffffffffffffffffffff1673ffffffffffffffffffffffffffffffffffffffff1673ffffffffffffffffffffffffffffffffffffffff16815260200190815260200160002081905550600b600060078660ff16815481101515614aa557fe5b9060005260206000200160009054906101000a900473ffffffffffffffffffffffffffffffffffffffff1673ffffffffffffffffffffffffffffffffffffffff1673ffffffffffffffffffffffffffffffffffffffff168152602001908152602001600020546009600060078760ff16815481101515614b2157fe5b9060005260206000200160009054906101000a900473ffffffffffffffffffffffffffffffffffffffff1673ffffffffffffffffffffffffffffffffffffffff1673ffffffffffffffffffffffffffffffffffffffff1681526020019081526020016000208190555083806001019450506145a0565b5b5050505050505050565b7ffa441dfe95ea7994c16c2c9120482b6fe0888963d94853674dde4d7a7c105827601a60009054906101000a900460ff168260405180836005811115614be457fe5b60ff168152602001826005811115614bf857fe5b60ff1681526020019250505060405180910390a180601a60006101000a81548160ff02191690836005811115614c2a57fe5b021790555050565b60008060006001806005811115614c4557fe5b601a60009054906101000a900460ff166005811115614c6057fe5b141515614c6c57600080fd5b86600860008273ffffffffffffffffffffffffffffffffffffffff1673ffffffffffffffffffffffffffffffffffffffff16815260200190815260200160002060009054906101000a900460ff161515614cc557600080fd5b601360009054906101000a900460ff16151515614ce157600080fd5b6001601360006101000a81548160ff0219169083151502179055506007805490508751148015614d1657506007805490508651145b1515614d2157600080fd5b6000945060009350600092505b6007805490508360ff161015614edd57868360ff16815181101515614d4f57fe5b90602001906020020151600b600060078660ff16815481101515614d6f57fe5b9060005260206000200160009054906101000a900473ffffffffffffffffffffffffffffffffffffffff1673ffffffffffffffffffffffffffffffffffffffff1673ffffffffffffffffffffffffffffffffffffffff16815260200190815260200160002081905550858360ff16815181101515614de957fe5b90602001906020020151600c600060078660ff16815481101515614e0957fe5b9060005260206000200160009054906101000a900473ffffffffffffffffffffffffffffffffffffffff1673ffffffffffffffffffffffffffffffffffffffff1673ffffffffffffffffffffffffffffffffffffffff16815260200190815260200160002081905550614e9f878460ff16815181101515614e8657fe5b906020019060200201518561337f90919063ffffffff16565b9350614ece868460ff16815181101515614eb557fe5b906020019060200201518661337f90919063ffffffff16565b94508280600101935050614d2e565b8385141515614eeb57600080fd5b614ef488614106565b5050505050505050565b60008060008060006003806005811115614f1457fe5b601a60009054906101000a900460ff166005811115614f2f57fe5b141515614f3b57600080fd5b601554614f4661332f565b1015614f5657601554955061526f565b601860008073ffffffffffffffffffffffffffffffffffffffff1673ffffffffffffffffffffffffffffffffffffffff168152602001908152602001600020549450600093505b6007805490508460ff1610156150bc57846018600060078760ff16815481101515614fc457fe5b9060005260206000200160009054906101000a900473ffffffffffffffffffffffffffffffffffffffff1673ffffffffffffffffffffffffffffffffffffffff1673ffffffffffffffffffffffffffffffffffffffff1681526020019081526020016000205411156150af576018600060078660ff1681548110151561504657fe5b9060005260206000200160009054906101000a900473ffffffffffffffffffffffffffffffffffffffff1673ffffffffffffffffffffffffffffffffffffffff1673ffffffffffffffffffffffffffffffffffffffff1681526020019081526020016000205494505b8380600101945050614f9d565b6150ed670de0b6b3a76400006150df60055460165461339b90919063ffffffff16565b61335090919063ffffffff16565b60175410151561512b5761511360045461510561332f565b61337f90919063ffffffff16565b6015819055506000601781905550601554955061526f565b6000925084601860008073ffffffffffffffffffffffffffffffffffffffff1673ffffffffffffffffffffffffffffffffffffffff16815260200190815260200160002054141561517d576001830192505b600091505b6007805490508260ff16101561522957846018600060078560ff168154811015156151a957fe5b9060005260206000200160009054906101000a900473ffffffffffffffffffffffffffffffffffffffff1673ffffffffffffffffffffffffffffffffffffffff1673ffffffffffffffffffffffffffffffffffffffff16815260200190815260200160002054141561521c576001830192505b8180600101925050615182565b60018360ff1611156152695761525160045461524361332f565b61337f90919063ffffffff16565b6015819055506000601781905550601554955061526f565b60155495505b505050505090565b606060405190810160405280600081526020016000815260200160001515815250905600a165627a7a72305820c23332b2a6c163ec8df100c834bef2a65f1d4991146bb80fe67e2973c3b53e700029a165627a7a72305820cb5156d48aaef448c9c323b22955af1cc5636bbb0c23671ca1db8598e11e80a20029",
  "source": "pragma solidity ^0.4.11;\n\nimport 'openzeppelin-solidity/contracts/token/ERC20/ERC20.sol';\nimport 'openzeppelin-solidity/contracts/math/SafeMath.sol';\nimport 'openzeppelin-solidity/contracts/ownership/Ownable.sol';\nimport './Arbitration.sol';\n\ncontract ArbitrationFactory is Ownable {\n\n  event ArbitrationCreated(address indexed _creator, address _arbitration, address indexed _party1, address indexed _party2);\n\n  address public arbitrationToken;\n  address[] public arbirations;\n\n  function ArbitrationFactory(address _arbitrationToken) {\n    arbitrationToken = _arbitrationToken;\n  }\n\n  function createArbitration(address _party1, address _party2, uint256 _party1Amount, uint256 _party2Amount, bytes32 _agreementHash) public {\n    //address _jurToken, address[] _parties, uint256[] _dispersal, uint256[] _funding, bytes32 _agreementHash\n    address[] memory parties = new address[](2);\n    parties[0] = _party1;\n    parties[1] = _party2;\n    uint256[] memory dispersal = new uint256[](2);\n    dispersal[0] = _party1Amount;\n    dispersal[1] = _party2Amount;\n    uint256[] memory funding = new uint256[](2);\n    funding[0] = _party1Amount;\n    funding[1] = _party2Amount;\n\n    address newArbitration = new Arbitration(arbitrationToken, parties, dispersal, funding, _agreementHash);\n    arbirations.push(newArbitration);\n    ArbitrationCreated(msg.sender, newArbitration, _party1, _party2);\n  }\n\n  function generateHash(string _input) constant returns (bytes32) {\n    return keccak256(_input);\n  }\n\n  function updateTokenAddress(address _arbitrationTokenAddress) onlyOwner {\n    arbitrationToken = ERC20(_arbitrationTokenAddress);\n  }\n\n}\n",
  "sourcePath": "/Users/adamdossa/Development/Ethereum/DecentralisedOracle/contracts/ArbitrationFactory.sol",
  "compiler": {
    "name": "solc",
    "version": "0.4.23+commit.124ca40d.Emscripten.clang"
  },
  "schemaVersion": "2.0.0",
  "updatedAt": "2018-05-25T09:30:25.447Z"
}