{
  "contractName": "Arbitration",
  "abi": [
    {
      "constant": true,
      "inputs": [
        {
          "name": "",
          "type": "address"
        }
      ],
      "name": "funding",
      "outputs": [
        {
          "name": "",
          "type": "uint256"
        }
      ],
      "payable": false,
      "stateMutability": "view",
      "type": "function"
    },
    {
      "constant": true,
      "inputs": [],
      "name": "agreementHash",
      "outputs": [
        {
          "name": "",
          "type": "bytes32"
        }
      ],
      "payable": false,
      "stateMutability": "view",
      "type": "function"
    },
    {
      "constant": true,
      "inputs": [],
      "name": "totalVotes",
      "outputs": [
        {
          "name": "",
          "type": "uint256"
        }
      ],
      "payable": false,
      "stateMutability": "view",
      "type": "function"
    },
    {
      "constant": true,
      "inputs": [],
      "name": "disputeEnds",
      "outputs": [
        {
          "name": "",
          "type": "uint256"
        }
      ],
      "payable": false,
      "stateMutability": "view",
      "type": "function"
    },
    {
      "constant": true,
      "inputs": [
        {
          "name": "",
          "type": "address"
        }
      ],
      "name": "dispersal",
      "outputs": [
        {
          "name": "",
          "type": "uint256"
        }
      ],
      "payable": false,
      "stateMutability": "view",
      "type": "function"
    },
    {
      "constant": true,
      "inputs": [],
      "name": "DISPUTE_VOTE_DURATION",
      "outputs": [
        {
          "name": "",
          "type": "uint256"
        }
      ],
      "payable": false,
      "stateMutability": "view",
      "type": "function"
    },
    {
      "constant": true,
      "inputs": [],
      "name": "DISPUTE_DISPERSAL_DURATION",
      "outputs": [
        {
          "name": "",
          "type": "uint256"
        }
      ],
      "payable": false,
      "stateMutability": "view",
      "type": "function"
    },
    {
      "constant": true,
      "inputs": [],
      "name": "MIN_VOTE",
      "outputs": [
        {
          "name": "",
          "type": "uint256"
        }
      ],
      "payable": false,
      "stateMutability": "view",
      "type": "function"
    },
    {
      "constant": true,
      "inputs": [
        {
          "name": "",
          "type": "address"
        },
        {
          "name": "",
          "type": "address"
        }
      ],
      "name": "disputeDispersal",
      "outputs": [
        {
          "name": "",
          "type": "uint256"
        }
      ],
      "payable": false,
      "stateMutability": "view",
      "type": "function"
    },
    {
      "constant": true,
      "inputs": [
        {
          "name": "",
          "type": "address"
        }
      ],
      "name": "parties",
      "outputs": [
        {
          "name": "",
          "type": "bool"
        }
      ],
      "payable": false,
      "stateMutability": "view",
      "type": "function"
    },
    {
      "constant": true,
      "inputs": [],
      "name": "DISPUTE_WINDOW_MAX",
      "outputs": [
        {
          "name": "",
          "type": "uint256"
        }
      ],
      "payable": false,
      "stateMutability": "view",
      "type": "function"
    },
    {
      "constant": true,
      "inputs": [],
      "name": "disputeWindowVotes",
      "outputs": [
        {
          "name": "",
          "type": "uint256"
        }
      ],
      "payable": false,
      "stateMutability": "view",
      "type": "function"
    },
    {
      "constant": true,
      "inputs": [
        {
          "name": "",
          "type": "address"
        }
      ],
      "name": "hasWithdrawn",
      "outputs": [
        {
          "name": "",
          "type": "bool"
        }
      ],
      "payable": false,
      "stateMutability": "view",
      "type": "function"
    },
    {
      "constant": true,
      "inputs": [],
      "name": "jurToken",
      "outputs": [
        {
          "name": "",
          "type": "address"
        }
      ],
      "payable": false,
      "stateMutability": "view",
      "type": "function"
    },
    {
      "constant": true,
      "inputs": [
        {
          "name": "",
          "type": "uint256"
        }
      ],
      "name": "allParties",
      "outputs": [
        {
          "name": "",
          "type": "address"
        }
      ],
      "payable": false,
      "stateMutability": "view",
      "type": "function"
    },
    {
      "constant": true,
      "inputs": [
        {
          "name": "",
          "type": "address"
        }
      ],
      "name": "hasAgreed",
      "outputs": [
        {
          "name": "",
          "type": "bool"
        }
      ],
      "payable": false,
      "stateMutability": "view",
      "type": "function"
    },
    {
      "constant": true,
      "inputs": [
        {
          "name": "",
          "type": "address"
        }
      ],
      "name": "hasFundedAmendment",
      "outputs": [
        {
          "name": "",
          "type": "bool"
        }
      ],
      "payable": false,
      "stateMutability": "view",
      "type": "function"
    },
    {
      "constant": true,
      "inputs": [
        {
          "name": "",
          "type": "address"
        }
      ],
      "name": "partyVotes",
      "outputs": [
        {
          "name": "",
          "type": "uint256"
        }
      ],
      "payable": false,
      "stateMutability": "view",
      "type": "function"
    },
    {
      "constant": true,
      "inputs": [],
      "name": "amendmentProposed",
      "outputs": [
        {
          "name": "",
          "type": "bool"
        }
      ],
      "payable": false,
      "stateMutability": "view",
      "type": "function"
    },
    {
      "constant": true,
      "inputs": [],
      "name": "disputeStarts",
      "outputs": [
        {
          "name": "",
          "type": "uint256"
        }
      ],
      "payable": false,
      "stateMutability": "view",
      "type": "function"
    },
    {
      "constant": true,
      "inputs": [
        {
          "name": "",
          "type": "address"
        }
      ],
      "name": "amendedDispersal",
      "outputs": [
        {
          "name": "",
          "type": "uint256"
        }
      ],
      "payable": false,
      "stateMutability": "view",
      "type": "function"
    },
    {
      "constant": true,
      "inputs": [],
      "name": "DISPUTE_EXTENSION",
      "outputs": [
        {
          "name": "",
          "type": "uint256"
        }
      ],
      "payable": false,
      "stateMutability": "view",
      "type": "function"
    },
    {
      "constant": true,
      "inputs": [
        {
          "name": "",
          "type": "address"
        }
      ],
      "name": "amendedFunding",
      "outputs": [
        {
          "name": "",
          "type": "uint256"
        }
      ],
      "payable": false,
      "stateMutability": "view",
      "type": "function"
    },
    {
      "constant": true,
      "inputs": [
        {
          "name": "",
          "type": "address"
        }
      ],
      "name": "hasSigned",
      "outputs": [
        {
          "name": "",
          "type": "bool"
        }
      ],
      "payable": false,
      "stateMutability": "view",
      "type": "function"
    },
    {
      "constant": true,
      "inputs": [],
      "name": "state",
      "outputs": [
        {
          "name": "",
          "type": "uint8"
        }
      ],
      "payable": false,
      "stateMutability": "view",
      "type": "function"
    },
    {
      "constant": true,
      "inputs": [],
      "name": "DISPUTE_WINDOW",
      "outputs": [
        {
          "name": "",
          "type": "uint256"
        }
      ],
      "payable": false,
      "stateMutability": "view",
      "type": "function"
    },
    {
      "inputs": [
        {
          "name": "_jurToken",
          "type": "address"
        },
        {
          "name": "_parties",
          "type": "address[]"
        },
        {
          "name": "_dispersal",
          "type": "uint256[]"
        },
        {
          "name": "_funding",
          "type": "uint256[]"
        },
        {
          "name": "_agreementHash",
          "type": "bytes32"
        }
      ],
      "payable": false,
      "stateMutability": "nonpayable",
      "type": "constructor"
    },
    {
      "anonymous": false,
      "inputs": [
        {
          "indexed": false,
          "name": "_oldState",
          "type": "uint8"
        },
        {
          "indexed": false,
          "name": "_newState",
          "type": "uint8"
        }
      ],
      "name": "StateChange",
      "type": "event"
    },
    {
      "anonymous": false,
      "inputs": [
        {
          "indexed": false,
          "name": "_voter",
          "type": "address"
        },
        {
          "indexed": false,
          "name": "_party",
          "type": "address"
        },
        {
          "indexed": false,
          "name": "_amount",
          "type": "uint256"
        }
      ],
      "name": "VoteCast",
      "type": "event"
    },
    {
      "anonymous": false,
      "inputs": [
        {
          "indexed": false,
          "name": "_party",
          "type": "address"
        },
        {
          "indexed": false,
          "name": "_amount",
          "type": "uint256"
        }
      ],
      "name": "ContractSigned",
      "type": "event"
    },
    {
      "anonymous": false,
      "inputs": [
        {
          "indexed": false,
          "name": "_party",
          "type": "address"
        },
        {
          "indexed": false,
          "name": "_amount",
          "type": "uint256"
        }
      ],
      "name": "ContractUnsigned",
      "type": "event"
    },
    {
      "anonymous": false,
      "inputs": [
        {
          "indexed": false,
          "name": "_party1",
          "type": "address"
        },
        {
          "indexed": false,
          "name": "_party2",
          "type": "address"
        },
        {
          "indexed": false,
          "name": "_party1Dispersal",
          "type": "uint256"
        },
        {
          "indexed": false,
          "name": "_party2Dispersal",
          "type": "uint256"
        },
        {
          "indexed": false,
          "name": "_party1Funding",
          "type": "uint256"
        },
        {
          "indexed": false,
          "name": "_party2Funding",
          "type": "uint256"
        },
        {
          "indexed": false,
          "name": "_paymentTokem",
          "type": "address"
        },
        {
          "indexed": false,
          "name": "_agreementHash",
          "type": "bytes32"
        }
      ],
      "name": "ContractCreated",
      "type": "event"
    },
    {
      "anonymous": false,
      "inputs": [
        {
          "indexed": false,
          "name": "_voter",
          "type": "address"
        },
        {
          "indexed": false,
          "name": "_tokenAmount",
          "type": "uint256"
        }
      ],
      "name": "VoterPayout",
      "type": "event"
    },
    {
      "anonymous": false,
      "inputs": [
        {
          "indexed": false,
          "name": "_party",
          "type": "address"
        },
        {
          "indexed": false,
          "name": "_tokenAmount",
          "type": "uint256"
        }
      ],
      "name": "PartyPayout",
      "type": "event"
    },
    {
      "constant": false,
      "inputs": [],
      "name": "sign",
      "outputs": [],
      "payable": false,
      "stateMutability": "nonpayable",
      "type": "function"
    },
    {
      "constant": false,
      "inputs": [
        {
          "name": "_sender",
          "type": "address"
        }
      ],
      "name": "signJUR",
      "outputs": [],
      "payable": false,
      "stateMutability": "nonpayable",
      "type": "function"
    },
    {
      "constant": false,
      "inputs": [],
      "name": "unsign",
      "outputs": [],
      "payable": false,
      "stateMutability": "nonpayable",
      "type": "function"
    },
    {
      "constant": false,
      "inputs": [],
      "name": "agree",
      "outputs": [],
      "payable": false,
      "stateMutability": "nonpayable",
      "type": "function"
    },
    {
      "constant": false,
      "inputs": [],
      "name": "unagree",
      "outputs": [],
      "payable": false,
      "stateMutability": "nonpayable",
      "type": "function"
    },
    {
      "constant": false,
      "inputs": [
        {
          "name": "_dispersal",
          "type": "uint256[]"
        },
        {
          "name": "_funding",
          "type": "uint256[]"
        }
      ],
      "name": "proposeAmendment",
      "outputs": [],
      "payable": false,
      "stateMutability": "nonpayable",
      "type": "function"
    },
    {
      "constant": false,
      "inputs": [
        {
          "name": "_sender",
          "type": "address"
        },
        {
          "name": "_dispersal",
          "type": "uint256[]"
        },
        {
          "name": "_funding",
          "type": "uint256[]"
        }
      ],
      "name": "proposeAmendmentJUR",
      "outputs": [],
      "payable": false,
      "stateMutability": "nonpayable",
      "type": "function"
    },
    {
      "constant": false,
      "inputs": [],
      "name": "agreeAmendment",
      "outputs": [],
      "payable": false,
      "stateMutability": "nonpayable",
      "type": "function"
    },
    {
      "constant": false,
      "inputs": [
        {
          "name": "_sender",
          "type": "address"
        }
      ],
      "name": "agreeAmendmentJUR",
      "outputs": [],
      "payable": false,
      "stateMutability": "nonpayable",
      "type": "function"
    },
    {
      "constant": false,
      "inputs": [],
      "name": "unagreeAmendment",
      "outputs": [],
      "payable": false,
      "stateMutability": "nonpayable",
      "type": "function"
    },
    {
      "constant": false,
      "inputs": [],
      "name": "withdrawDispersal",
      "outputs": [],
      "payable": false,
      "stateMutability": "nonpayable",
      "type": "function"
    },
    {
      "constant": false,
      "inputs": [
        {
          "name": "_voteAmount",
          "type": "uint256"
        },
        {
          "name": "_dispersal",
          "type": "uint256[]"
        }
      ],
      "name": "dispute",
      "outputs": [],
      "payable": false,
      "stateMutability": "nonpayable",
      "type": "function"
    },
    {
      "constant": false,
      "inputs": [
        {
          "name": "_sender",
          "type": "address"
        },
        {
          "name": "_voteAmount",
          "type": "uint256"
        },
        {
          "name": "_dispersal",
          "type": "uint256[]"
        }
      ],
      "name": "disputeJUR",
      "outputs": [],
      "payable": false,
      "stateMutability": "nonpayable",
      "type": "function"
    },
    {
      "constant": false,
      "inputs": [
        {
          "name": "_dispersal",
          "type": "uint256[]"
        }
      ],
      "name": "amendDisputeDispersal",
      "outputs": [],
      "payable": false,
      "stateMutability": "nonpayable",
      "type": "function"
    },
    {
      "constant": false,
      "inputs": [
        {
          "name": "_voteAddress",
          "type": "address"
        },
        {
          "name": "_voteAmount",
          "type": "uint256"
        }
      ],
      "name": "vote",
      "outputs": [],
      "payable": false,
      "stateMutability": "nonpayable",
      "type": "function"
    },
    {
      "constant": false,
      "inputs": [
        {
          "name": "_sender",
          "type": "address"
        },
        {
          "name": "_voteAddress",
          "type": "address"
        },
        {
          "name": "_voteAmount",
          "type": "uint256"
        }
      ],
      "name": "voteJUR",
      "outputs": [],
      "payable": false,
      "stateMutability": "nonpayable",
      "type": "function"
    },
    {
      "constant": false,
      "inputs": [
        {
          "name": "_start",
          "type": "uint256"
        }
      ],
      "name": "payoutVoter",
      "outputs": [],
      "payable": false,
      "stateMutability": "nonpayable",
      "type": "function"
    },
    {
      "constant": true,
      "inputs": [],
      "name": "getWinnerAndBestMinorty",
      "outputs": [
        {
          "name": "",
          "type": "address"
        },
        {
          "name": "",
          "type": "address"
        }
      ],
      "payable": false,
      "stateMutability": "view",
      "type": "function"
    },
    {
      "constant": false,
      "inputs": [],
      "name": "payoutParty",
      "outputs": [],
      "payable": false,
      "stateMutability": "nonpayable",
      "type": "function"
    }
  ],
  "bytecode": "0x608060405262093a806001556201518060025561070860035561070860045566b1a2bc2ec50000600555662386f26fc100006006556000601a60006101000a81548160ff021916908360058111156200005457fe5b02179055503480156200006657600080fd5b50604051620057be380380620057be8339810180604052810190808051906020019092919080518201929190602001805182019291906020018051820192919060200180519060200190929190505050600080600060028651148015620000ce575060028551145b8015620000dc575060028751145b1515620000e857600080fd5b6000876000815181101515620000fa57fe5b9060200190602002015173ffffffffffffffffffffffffffffffffffffffff161415801562000159575060008760018151811015156200013657fe5b9060200190602002015173ffffffffffffffffffffffffffffffffffffffff1614155b15156200016557600080fd5b6000925060009150600090505b86518160ff1610156200037457600160086000898460ff168151811015156200019757fe5b9060200190602002015173ffffffffffffffffffffffffffffffffffffffff1673ffffffffffffffffffffffffffffffffffffffff16815260200190815260200160002060006101000a81548160ff021916908315150217905550858160ff168151811015156200020457fe5b9060200190602002015160096000898460ff168151811015156200022457fe5b9060200190602002015173ffffffffffffffffffffffffffffffffffffffff1673ffffffffffffffffffffffffffffffffffffffff16815260200190815260200160002081905550848160ff168151811015156200027e57fe5b90602001906020020151600a6000898460ff168151811015156200029e57fe5b9060200190602002015173ffffffffffffffffffffffffffffffffffffffff1673ffffffffffffffffffffffffffffffffffffffff1681526020019081526020016000208190555062000324868260ff16815181101515620002fc57fe5b9060200190602002015183620003f5640100000000026200337f179091906401000000009004565b915062000364858260ff168151811015156200033c57fe5b9060200190602002015184620003f5640100000000026200337f179091906401000000009004565b9250808060010191505062000172565b81831415156200038357600080fd5b86600790805190602001906200039b92919062000412565b5083600e8160001916905550876000806101000a81548173ffffffffffffffffffffffffffffffffffffffff021916908373ffffffffffffffffffffffffffffffffffffffff1602179055505050505050505050620004e7565b600081830190508281101515156200040957fe5b80905092915050565b8280548282559060005260206000209081019282156200048e579160200282015b828111156200048d5782518260006101000a81548173ffffffffffffffffffffffffffffffffffffffff021916908373ffffffffffffffffffffffffffffffffffffffff1602179055509160200191906001019062000433565b5b5090506200049d9190620004a1565b5090565b620004e491905b80821115620004e057600081816101000a81549073ffffffffffffffffffffffffffffffffffffffff021916905550600101620004a8565b5090565b90565b6152c780620004f76000396000f300608060405260043610610225576000357c0100000000000000000000000000000000000000000000000000000000900463ffffffff168063049f2d8a1461022a5780630ab55d0b146102815780630d15fd77146102b457806312feb4a7146102df57806321979f5f1461030a57806325ce690b146103375780632731c6c61461038e5780632a50b544146103b95780632ca15122146103e45780632efab6fa146103fb5780632f36cacf1461042657806337c2afda146104965780633ad17f6d146104d957806341e60c8614610563578063446332971461057a5780634f235207146105f15780634f802f8a1461064c57806352e18f33146106635780635a9e17a71461068e5780635e2c19db146106b95780635f068b43146107145780635f74bbde1461076b57806360d50596146107b857806364a8a11f14610825578063682644fd1461089257806368e664bd146108ed5780636eae555d1461094857806374e6cfd3146109ae5780638b90dc9414610a055780638bfb85c314610a345780638fae60a514610a4b578063918c937314610a62578063994d406014610a8d5780639cff621a14610ae4578063a7e92fb514610afb578063adef40db14610b12578063aef9e98b14610ba2578063b40b784114610c4b578063b7c1ae8114610c76578063bf6a141314610ccd578063c19d93fb14610d28578063d5e03fc614610d61578063f2cec41e14610d78578063f585dc5714610e41578063fc76317614610e6c575b600080fd5b34801561023657600080fd5b5061026b600480360381019080803573ffffffffffffffffffffffffffffffffffffffff169060200190929190505050610eaf565b6040518082815260200191505060405180910390f35b34801561028d57600080fd5b50610296610ec7565b60405180826000191660001916815260200191505060405180910390f35b3480156102c057600080fd5b506102c9610ecd565b6040518082815260200191505060405180910390f35b3480156102eb57600080fd5b506102f4610ed3565b6040518082815260200191505060405180910390f35b34801561031657600080fd5b5061033560048036038101908080359060200190929190505050610ed9565b005b34801561034357600080fd5b50610378600480360381019080803573ffffffffffffffffffffffffffffffffffffffff16906020019092919050505061151c565b6040518082815260200191505060405180910390f35b34801561039a57600080fd5b506103a3611534565b6040518082815260200191505060405180910390f35b3480156103c557600080fd5b506103ce61153a565b6040518082815260200191505060405180910390f35b3480156103f057600080fd5b506103f9611540565b005b34801561040757600080fd5b5061041061154b565b6040518082815260200191505060405180910390f35b34801561043257600080fd5b506104946004803603810190808035906020019092919080359060200190820180359060200190808060200260200160405190810160405280939291908181526020018383602002808284378201915050505050509192919290505050611551565b005b3480156104a257600080fd5b506104d7600480360381019080803573ffffffffffffffffffffffffffffffffffffffff169060200190929190505050611560565b005b3480156104e557600080fd5b506104ee6115c7565b604051808373ffffffffffffffffffffffffffffffffffffffff1673ffffffffffffffffffffffffffffffffffffffff1681526020018273ffffffffffffffffffffffffffffffffffffffff1673ffffffffffffffffffffffffffffffffffffffff1681526020019250505060405180910390f35b34801561056f57600080fd5b50610578611ad2565b005b34801561058657600080fd5b506105db600480360381019080803573ffffffffffffffffffffffffffffffffffffffff169060200190929190803573ffffffffffffffffffffffffffffffffffffffff169060200190929190505050611d5b565b6040518082815260200191505060405180910390f35b3480156105fd57600080fd5b50610632600480360381019080803573ffffffffffffffffffffffffffffffffffffffff169060200190929190505050611d80565b604051808215151515815260200191505060405180910390f35b34801561065857600080fd5b50610661611da0565b005b34801561066f57600080fd5b506106786122ca565b6040518082815260200191505060405180910390f35b34801561069a57600080fd5b506106a36122d0565b6040518082815260200191505060405180910390f35b3480156106c557600080fd5b506106fa600480360381019080803573ffffffffffffffffffffffffffffffffffffffff1690602001909291905050506122d6565b604051808215151515815260200191505060405180910390f35b34801561072057600080fd5b506107296122f6565b604051808273ffffffffffffffffffffffffffffffffffffffff1673ffffffffffffffffffffffffffffffffffffffff16815260200191505060405180910390f35b34801561077757600080fd5b506107b6600480360381019080803573ffffffffffffffffffffffffffffffffffffffff1690602001909291908035906020019092919050505061231b565b005b3480156107c457600080fd5b506107e36004803603810190808035906020019092919050505061232a565b604051808273ffffffffffffffffffffffffffffffffffffffff1673ffffffffffffffffffffffffffffffffffffffff16815260200191505060405180910390f35b34801561083157600080fd5b50610890600480360381019080803573ffffffffffffffffffffffffffffffffffffffff169060200190929190803573ffffffffffffffffffffffffffffffffffffffff16906020019092919080359060200190929190505050612368565b005b34801561089e57600080fd5b506108d3600480360381019080803573ffffffffffffffffffffffffffffffffffffffff1690602001909291905050506123d3565b604051808215151515815260200191505060405180910390f35b3480156108f957600080fd5b5061092e600480360381019080803573ffffffffffffffffffffffffffffffffffffffff1690602001909291905050506123f3565b604051808215151515815260200191505060405180910390f35b34801561095457600080fd5b506109ac60048036038101908080359060200190820180359060200190808060200260200160405190810160405280939291908181526020018383602002808284378201915050505050509192919290505050612413565b005b3480156109ba57600080fd5b506109ef600480360381019080803573ffffffffffffffffffffffffffffffffffffffff1690602001909291905050506126a5565b6040518082815260200191505060405180910390f35b348015610a1157600080fd5b50610a1a6126bd565b604051808215151515815260200191505060405180910390f35b348015610a4057600080fd5b50610a496126d0565b005b348015610a5757600080fd5b50610a606126db565b005b348015610a6e57600080fd5b50610a776128ec565b6040518082815260200191505060405180910390f35b348015610a9957600080fd5b50610ace600480360381019080803573ffffffffffffffffffffffffffffffffffffffff1690602001909291905050506128f2565b6040518082815260200191505060405180910390f35b348015610af057600080fd5b50610af961290a565b005b348015610b0757600080fd5b50610b10612cea565b005b348015610b1e57600080fd5b50610ba0600480360381019080803573ffffffffffffffffffffffffffffffffffffffff1690602001909291908035906020019092919080359060200190820180359060200190808060200260200160405190810160405280939291908181526020018383602002808284378201915050505050509192919290505050612e2a565b005b348015610bae57600080fd5b50610c496004803603810190808035906020019082018035906020019080806020026020016040519081016040528093929190818152602001838360200280828437820191505050505050919291929080359060200190820180359060200190808060200260200160405190810160405280939291908181526020018383602002808284378201915050505050509192919290505050612e95565b005b348015610c5757600080fd5b50610c60612ea4565b6040518082815260200191505060405180910390f35b348015610c8257600080fd5b50610cb7600480360381019080803573ffffffffffffffffffffffffffffffffffffffff169060200190929190505050612eaa565b6040518082815260200191505060405180910390f35b348015610cd957600080fd5b50610d0e600480360381019080803573ffffffffffffffffffffffffffffffffffffffff169060200190929190505050612ec2565b604051808215151515815260200191505060405180910390f35b348015610d3457600080fd5b50610d3d612ee2565b60405180826005811115610d4d57fe5b60ff16815260200191505060405180910390f35b348015610d6d57600080fd5b50610d76612ef5565b005b348015610d8457600080fd5b50610e3f600480360381019080803573ffffffffffffffffffffffffffffffffffffffff1690602001909291908035906020019082018035906020019080806020026020016040519081016040528093929190818152602001838360200280828437820191505050505050919291929080359060200190820180359060200190808060200260200160405190810160405280939291908181526020018383602002808284378201915050505050509192919290505050613257565b005b348015610e4d57600080fd5b50610e566132c2565b6040518082815260200191505060405180910390f35b348015610e7857600080fd5b50610ead600480360381019080803573ffffffffffffffffffffffffffffffffffffffff1690602001909291905050506132c8565b005b600a6020528060005260406000206000915090505481565b600e5481565b60165481565b60155481565b60008060008060008060006003806005811115610ef257fe5b601a60009054906101000a900460ff166005811115610f0d57fe5b141515610f1957600080fd5b601554610f2461332f565b10151515610f3157600080fd5b610f396115c7565b8098508199505050610f95601860008a73ffffffffffffffffffffffffffffffffffffffff1673ffffffffffffffffffffffffffffffffffffffff1681526020019081526020016000205460165461333790919063ffffffff16565b9550601860008873ffffffffffffffffffffffffffffffffffffffff1673ffffffffffffffffffffffffffffffffffffffff168152602001908152602001600020549450610fec858761335090919063ffffffff16565b9350600092508891505b601960003373ffffffffffffffffffffffffffffffffffffffff1673ffffffffffffffffffffffffffffffffffffffff16815260200190815260200160002060008973ffffffffffffffffffffffffffffffffffffffff1673ffffffffffffffffffffffffffffffffffffffff168152602001908152602001600020805490508210156113f857601960003373ffffffffffffffffffffffffffffffffffffffff1673ffffffffffffffffffffffffffffffffffffffff16815260200190815260200160002060008973ffffffffffffffffffffffffffffffffffffffff1673ffffffffffffffffffffffffffffffffffffffff1681526020019081526020016000208281548110151561110657fe5b906000526020600020906003020160020160009054906101000a900460ff1615156113eb5784601960003373ffffffffffffffffffffffffffffffffffffffff1673ffffffffffffffffffffffffffffffffffffffff16815260200190815260200160002060008a73ffffffffffffffffffffffffffffffffffffffff1673ffffffffffffffffffffffffffffffffffffffff168152602001908152602001600020838154811015156111b557fe5b9060005260206000209060030201600101541015156111d3576113f8565b611335611326611286601960003373ffffffffffffffffffffffffffffffffffffffff1673ffffffffffffffffffffffffffffffffffffffff16815260200190815260200160002060008c73ffffffffffffffffffffffffffffffffffffffff1673ffffffffffffffffffffffffffffffffffffffff1681526020019081526020016000208581548110151561126557fe5b9060005260206000209060030201600101548861333790919063ffffffff16565b601960003373ffffffffffffffffffffffffffffffffffffffff1673ffffffffffffffffffffffffffffffffffffffff16815260200190815260200160002060008c73ffffffffffffffffffffffffffffffffffffffff1673ffffffffffffffffffffffffffffffffffffffff1681526020019081526020016000208581548110151561130f57fe5b906000526020600020906003020160000154613366565b8461337f90919063ffffffff16565b92506001601960003373ffffffffffffffffffffffffffffffffffffffff1673ffffffffffffffffffffffffffffffffffffffff16815260200190815260200160002060008a73ffffffffffffffffffffffffffffffffffffffff1673ffffffffffffffffffffffffffffffffffffffff168152602001908152602001600020838154811015156113c257fe5b906000526020600020906003020160020160006101000a81548160ff0219169083151502179055505b8180600101925050610ff6565b6000809054906101000a900473ffffffffffffffffffffffffffffffffffffffff1673ffffffffffffffffffffffffffffffffffffffff1663a9059cbb33611449878761339b90919063ffffffff16565b6040518363ffffffff167c0100000000000000000000000000000000000000000000000000000000028152600401808373ffffffffffffffffffffffffffffffffffffffff1673ffffffffffffffffffffffffffffffffffffffff16815260200182815260200192505050602060405180830381600087803b1580156114ce57600080fd5b505af11580156114e2573d6000803e3d6000fd5b505050506040513d60208110156114f857600080fd5b8101908080519060200190929190505050151561151157fe5b505050505050505050565b60096020528060005260406000206000915090505481565b60015481565b60025481565b611549336133d3565b565b60065481565b61155c338383613764565b5050565b6000809054906101000a900473ffffffffffffffffffffffffffffffffffffffff1673ffffffffffffffffffffffffffffffffffffffff163373ffffffffffffffffffffffffffffffffffffffff161415156115bb57600080fd5b6115c4816133d3565b50565b600080600080600080600080601860008073ffffffffffffffffffffffffffffffffffffffff1673ffffffffffffffffffffffffffffffffffffffff16815260200190815260200160002054955060009450600093505b6007805490508460ff16101561177c576018600060078660ff1681548110151561164457fe5b9060005260206000200160009054906101000a900473ffffffffffffffffffffffffffffffffffffffff1673ffffffffffffffffffffffffffffffffffffffff1673ffffffffffffffffffffffffffffffffffffffff1681526020019081526020016000205486101561176f576018600060078660ff168154811015156116c757fe5b9060005260206000200160009054906101000a900473ffffffffffffffffffffffffffffffffffffffff1673ffffffffffffffffffffffffffffffffffffffff1673ffffffffffffffffffffffffffffffffffffffff16815260200190815260200160002054955060078460ff1681548110151561174157fe5b9060005260206000200160009054906101000a900473ffffffffffffffffffffffffffffffffffffffff1694505b838060010194505061161e565b600073ffffffffffffffffffffffffffffffffffffffff168573ffffffffffffffffffffffffffffffffffffffff16146117f557601860008073ffffffffffffffffffffffffffffffffffffffff1673ffffffffffffffffffffffffffffffffffffffff16815260200190815260200160002054611870565b601860006007600081548110151561180957fe5b9060005260206000200160009054906101000a900473ffffffffffffffffffffffffffffffffffffffff1673ffffffffffffffffffffffffffffffffffffffff1673ffffffffffffffffffffffffffffffffffffffff168152602001908152602001600020545b9250600073ffffffffffffffffffffffffffffffffffffffff168573ffffffffffffffffffffffffffffffffffffffff16146118ad5760006118e9565b600760008154811015156118bd57fe5b9060005260206000200160009054906101000a900473ffffffffffffffffffffffffffffffffffffffff165b9150600090505b6007805490508160ff161015611ac2576018600060078360ff1681548110151561191657fe5b9060005260206000200160009054906101000a900473ffffffffffffffffffffffffffffffffffffffff1673ffffffffffffffffffffffffffffffffffffffff1673ffffffffffffffffffffffffffffffffffffffff16815260200190815260200160002054831080156119f2575060078160ff1681548110151561199757fe5b9060005260206000200160009054906101000a900473ffffffffffffffffffffffffffffffffffffffff1673ffffffffffffffffffffffffffffffffffffffff168573ffffffffffffffffffffffffffffffffffffffff1614155b15611ab5576018600060078360ff16815481101515611a0d57fe5b9060005260206000200160009054906101000a900473ffffffffffffffffffffffffffffffffffffffff1673ffffffffffffffffffffffffffffffffffffffff1673ffffffffffffffffffffffffffffffffffffffff16815260200190815260200160002054925060078160ff16815481101515611a8757fe5b9060005260206000200160009054906101000a900473ffffffffffffffffffffffffffffffffffffffff1691505b80806001019150506118f0565b8482975097505050505050509091565b6000806005811115611ae057fe5b601a60009054906101000a900460ff166005811115611afb57fe5b141515611b0757600080fd5b600860003373ffffffffffffffffffffffffffffffffffffffff1673ffffffffffffffffffffffffffffffffffffffff16815260200190815260200160002060009054906101000a900460ff161515611b5f57600080fd5b600f60003373ffffffffffffffffffffffffffffffffffffffff1673ffffffffffffffffffffffffffffffffffffffff16815260200190815260200160002060009054906101000a900460ff161515611bb757600080fd5b6000600f60003373ffffffffffffffffffffffffffffffffffffffff1673ffffffffffffffffffffffffffffffffffffffff16815260200190815260200160002060006101000a81548160ff0219169083151502179055506000809054906101000a900473ffffffffffffffffffffffffffffffffffffffff1673ffffffffffffffffffffffffffffffffffffffff1663a9059cbb33600a60003373ffffffffffffffffffffffffffffffffffffffff1673ffffffffffffffffffffffffffffffffffffffff168152602001908152602001600020546040518363ffffffff167c0100000000000000000000000000000000000000000000000000000000028152600401808373ffffffffffffffffffffffffffffffffffffffff1673ffffffffffffffffffffffffffffffffffffffff16815260200182815260200192505050602060405180830381600087803b158015611d1257600080fd5b505af1158015611d26573d6000803e3d6000fd5b505050506040513d6020811015611d3c57600080fd5b81019080805190602001909291905050501515611d5857600080fd5b50565b600d602052816000526040600020602052806000526040600020600091509150505481565b60086020528060005260406000206000915054906101000a900460ff1681565b600080600860003373ffffffffffffffffffffffffffffffffffffffff1673ffffffffffffffffffffffffffffffffffffffff16815260200190815260200160002060009054906101000a900460ff161515611dfb57600080fd5b601360009054906101000a900460ff161515611e1657600080fd5b6000601360006101000a81548160ff021916908315150217905550600091505b6007805490508260ff1610156122c6576012600060078460ff16815481101515611e5c57fe5b9060005260206000200160009054906101000a900473ffffffffffffffffffffffffffffffffffffffff1673ffffffffffffffffffffffffffffffffffffffff1673ffffffffffffffffffffffffffffffffffffffff16815260200190815260200160002060009054906101000a900460ff16156122b95760006012600060078560ff16815481101515611eec57fe5b9060005260206000200160009054906101000a900473ffffffffffffffffffffffffffffffffffffffff1673ffffffffffffffffffffffffffffffffffffffff1673ffffffffffffffffffffffffffffffffffffffff16815260200190815260200160002060006101000a81548160ff021916908315150217905550600a600060078460ff16815481101515611f7e57fe5b9060005260206000200160009054906101000a900473ffffffffffffffffffffffffffffffffffffffff1673ffffffffffffffffffffffffffffffffffffffff1673ffffffffffffffffffffffffffffffffffffffff16815260200190815260200160002054600c600060078560ff16815481101515611ffa57fe5b9060005260206000200160009054906101000a900473ffffffffffffffffffffffffffffffffffffffff1673ffffffffffffffffffffffffffffffffffffffff1673ffffffffffffffffffffffffffffffffffffffff1681526020019081526020016000205411156122b85761216f600a600060078560ff1681548110151561207f57fe5b9060005260206000200160009054906101000a900473ffffffffffffffffffffffffffffffffffffffff1673ffffffffffffffffffffffffffffffffffffffff1673ffffffffffffffffffffffffffffffffffffffff16815260200190815260200160002054600c600060078660ff168154811015156120fb57fe5b9060005260206000200160009054906101000a900473ffffffffffffffffffffffffffffffffffffffff1673ffffffffffffffffffffffffffffffffffffffff1673ffffffffffffffffffffffffffffffffffffffff1681526020019081526020016000205461333790919063ffffffff16565b90506000809054906101000a900473ffffffffffffffffffffffffffffffffffffffff1673ffffffffffffffffffffffffffffffffffffffff1663a9059cbb60078460ff168154811015156121c057fe5b9060005260206000200160009054906101000a900473ffffffffffffffffffffffffffffffffffffffff16836040518363ffffffff167c0100000000000000000000000000000000000000000000000000000000028152600401808373ffffffffffffffffffffffffffffffffffffffff1673ffffffffffffffffffffffffffffffffffffffff16815260200182815260200192505050602060405180830381600087803b15801561227157600080fd5b505af1158015612285573d6000803e3d6000fd5b505050506040513d602081101561229b57600080fd5b810190808051906020019092919050505015156122b757600080fd5b5b5b8180600101925050611e36565b5050565b60055481565b60175481565b60116020528060005260406000206000915054906101000a900460ff1681565b6000809054906101000a900473ffffffffffffffffffffffffffffffffffffffff1681565b612326338383613bf8565b5050565b60078181548110151561233957fe5b906000526020600020016000915054906101000a900473ffffffffffffffffffffffffffffffffffffffff1681565b6000809054906101000a900473ffffffffffffffffffffffffffffffffffffffff1673ffffffffffffffffffffffffffffffffffffffff163373ffffffffffffffffffffffffffffffffffffffff161415156123c357600080fd5b6123ce838383613bf8565b505050565b60106020528060005260406000206000915054906101000a900460ff1681565b60126020528060005260406000206000915054906101000a900460ff1681565b6000806000600380600581111561242657fe5b601a60009054906101000a900460ff16600581111561244157fe5b14151561244d57600080fd5b600860003373ffffffffffffffffffffffffffffffffffffffff1673ffffffffffffffffffffffffffffffffffffffff16815260200190815260200160002060009054906101000a900460ff1615156124a557600080fd5b60078054905085511415156124b957600080fd5b6014546124c461332f565b1015156124d057600080fd5b6000935060009250600091505b6007805490508260ff16101561269057848260ff168151811015156124fe57fe5b90602001906020020151600d60003373ffffffffffffffffffffffffffffffffffffffff1673ffffffffffffffffffffffffffffffffffffffff168152602001908152602001600020600060078560ff1681548110151561255b57fe5b9060005260206000200160009054906101000a900473ffffffffffffffffffffffffffffffffffffffff1673ffffffffffffffffffffffffffffffffffffffff1673ffffffffffffffffffffffffffffffffffffffff168152602001908152602001600020819055506125f1858360ff168151811015156125d857fe5b906020019060200201518561337f90919063ffffffff16565b9350612681600a600060078560ff1681548110151561260c57fe5b9060005260206000200160009054906101000a900473ffffffffffffffffffffffffffffffffffffffff1673ffffffffffffffffffffffffffffffffffffffff1673ffffffffffffffffffffffffffffffffffffffff168152602001908152602001600020548461337f90919063ffffffff16565b925081806001019250506124dd565b828414151561269e57600080fd5b5050505050565b60186020528060005260406000206000915090505481565b601360009054906101000a900460ff1681565b6126d933614106565b565b60008060018060058111156126ec57fe5b601a60009054906101000a900460ff16600581111561270757fe5b14151561271357600080fd5b600860003373ffffffffffffffffffffffffffffffffffffffff1673ffffffffffffffffffffffffffffffffffffffff16815260200190815260200160002060009054906101000a900460ff16151561276b57600080fd5b601060003373ffffffffffffffffffffffffffffffffffffffff1673ffffffffffffffffffffffffffffffffffffffff16815260200190815260200160002060009054906101000a900460ff161515156127c457600080fd5b6001601060003373ffffffffffffffffffffffffffffffffffffffff1673ffffffffffffffffffffffffffffffffffffffff16815260200190815260200160002060006101000a81548160ff02191690831515021790555060019250600091505b6007805490508260ff1610156128d6578280156128c757506010600060078460ff1681548110151561285357fe5b9060005260206000200160009054906101000a900473ffffffffffffffffffffffffffffffffffffffff1673ffffffffffffffffffffffffffffffffffffffff1673ffffffffffffffffffffffffffffffffffffffff16815260200190815260200160002060009054906101000a900460ff165b92508180600101925050612825565b82156128e7576128e66002614ba2565b5b505050565b60145481565b600b6020528060005260406000206000915090505481565b600080600280600581111561291b57fe5b601a60009054906101000a900460ff16600581111561293657fe5b14151561294257600080fd5b600860003373ffffffffffffffffffffffffffffffffffffffff1673ffffffffffffffffffffffffffffffffffffffff16815260200190815260200160002060009054906101000a900460ff16151561299a57600080fd5b601160003373ffffffffffffffffffffffffffffffffffffffff1673ffffffffffffffffffffffffffffffffffffffff16815260200190815260200160002060009054906101000a900460ff161515156129f357600080fd5b6001601160003373ffffffffffffffffffffffffffffffffffffffff1673ffffffffffffffffffffffffffffffffffffffff16815260200190815260200160002060006101000a81548160ff0219169083151502179055506000809054906101000a900473ffffffffffffffffffffffffffffffffffffffff1673ffffffffffffffffffffffffffffffffffffffff1663a9059cbb33600960003373ffffffffffffffffffffffffffffffffffffffff1673ffffffffffffffffffffffffffffffffffffffff168152602001908152602001600020546040518363ffffffff167c0100000000000000000000000000000000000000000000000000000000028152600401808373ffffffffffffffffffffffffffffffffffffffff1673ffffffffffffffffffffffffffffffffffffffff16815260200182815260200192505050602060405180830381600087803b158015612b4e57600080fd5b505af1158015612b62573d6000803e3d6000fd5b505050506040513d6020811015612b7857600080fd5b81019080805190602001909291905050501515612b9457600080fd5b60019250600091505b6007805490508260ff161015612cd457828015612cc557506011600060078460ff16815481101515612bcb57fe5b9060005260206000200160009054906101000a900473ffffffffffffffffffffffffffffffffffffffff1673ffffffffffffffffffffffffffffffffffffffff1673ffffffffffffffffffffffffffffffffffffffff16815260200190815260200160002060009054906101000a900460ff1680612cc4575060006009600060078560ff16815481101515612c5c57fe5b9060005260206000200160009054906101000a900473ffffffffffffffffffffffffffffffffffffffff1673ffffffffffffffffffffffffffffffffffffffff1673ffffffffffffffffffffffffffffffffffffffff16815260200190815260200160002054145b5b92508180600101925050612b9d565b8215612ce557612ce46004614ba2565b5b505050565b6001806005811115612cf857fe5b601a60009054906101000a900460ff166005811115612d1357fe5b141515612d1f57600080fd5b600860003373ffffffffffffffffffffffffffffffffffffffff1673ffffffffffffffffffffffffffffffffffffffff16815260200190815260200160002060009054906101000a900460ff161515612d7757600080fd5b601060003373ffffffffffffffffffffffffffffffffffffffff1673ffffffffffffffffffffffffffffffffffffffff16815260200190815260200160002060009054906101000a900460ff161515612dcf57600080fd5b6000601060003373ffffffffffffffffffffffffffffffffffffffff1673ffffffffffffffffffffffffffffffffffffffff16815260200190815260200160002060006101000a81548160ff02191690831515021790555050565b6000809054906101000a900473ffffffffffffffffffffffffffffffffffffffff1673ffffffffffffffffffffffffffffffffffffffff163373ffffffffffffffffffffffffffffffffffffffff16141515612e8557600080fd5b612e90838383613764565b505050565b612ea0338383614c32565b5050565b60045481565b600c6020528060005260406000206000915090505481565b600f6020528060005260406000206000915054906101000a900460ff1681565b601a60009054906101000a900460ff1681565b60008060006003806005811115612f0857fe5b601a60009054906101000a900460ff166005811115612f2357fe5b141515612f2f57600080fd5b600860003373ffffffffffffffffffffffffffffffffffffffff1673ffffffffffffffffffffffffffffffffffffffff16815260200190815260200160002060009054906101000a900460ff161515612f8757600080fd5b601554612f9261332f565b10151515612f9f57600080fd5b601160003373ffffffffffffffffffffffffffffffffffffffff1673ffffffffffffffffffffffffffffffffffffffff16815260200190815260200160002060009054906101000a900460ff16151515612ff857600080fd5b6001601160003373ffffffffffffffffffffffffffffffffffffffff1673ffffffffffffffffffffffffffffffffffffffff16815260200190815260200160002060006101000a81548160ff0219169083151502179055506130586115c7565b8094508195505050600d60008573ffffffffffffffffffffffffffffffffffffffff1673ffffffffffffffffffffffffffffffffffffffff16815260200190815260200160002060003373ffffffffffffffffffffffffffffffffffffffff1673ffffffffffffffffffffffffffffffffffffffff1681526020019081526020016000205491506000809054906101000a900473ffffffffffffffffffffffffffffffffffffffff1673ffffffffffffffffffffffffffffffffffffffff1663a9059cbb33846040518363ffffffff167c0100000000000000000000000000000000000000000000000000000000028152600401808373ffffffffffffffffffffffffffffffffffffffff1673ffffffffffffffffffffffffffffffffffffffff16815260200182815260200192505050602060405180830381600087803b1580156131a357600080fd5b505af11580156131b7573d6000803e3d6000fd5b505050506040513d60208110156131cd57600080fd5b810190808051906020019092919050505015156131e657fe5b7f529314119e568ebeb046e7fb288642e03aea33279f2f6762afd0e56a74c7aa423383604051808373ffffffffffffffffffffffffffffffffffffffff1673ffffffffffffffffffffffffffffffffffffffff1681526020018281526020019250505060405180910390a150505050565b6000809054906101000a900473ffffffffffffffffffffffffffffffffffffffff1673ffffffffffffffffffffffffffffffffffffffff163373ffffffffffffffffffffffffffffffffffffffff161415156132b257600080fd5b6132bd838383614c32565b505050565b60035481565b6000809054906101000a900473ffffffffffffffffffffffffffffffffffffffff1673ffffffffffffffffffffffffffffffffffffffff163373ffffffffffffffffffffffffffffffffffffffff1614151561332357600080fd5b61332c81614106565b50565b600042905090565b600082821115151561334557fe5b818303905092915050565b6000818381151561335d57fe5b04905092915050565b60008183106133755781613377565b825b905092915050565b6000818301905082811015151561339257fe5b80905092915050565b6000808314156133ae57600090506133cd565b81830290508183828115156133bf57fe5b041415156133c957fe5b8090505b92915050565b60008060008060058111156133e457fe5b601a60009054906101000a900460ff1660058111156133ff57fe5b14151561340b57600080fd5b83600860008273ffffffffffffffffffffffffffffffffffffffff1673ffffffffffffffffffffffffffffffffffffffff16815260200190815260200160002060009054906101000a900460ff16151561346457600080fd5b600f60008673ffffffffffffffffffffffffffffffffffffffff1673ffffffffffffffffffffffffffffffffffffffff16815260200190815260200160002060009054906101000a900460ff161515156134bd57600080fd5b6001600f60008773ffffffffffffffffffffffffffffffffffffffff1673ffffffffffffffffffffffffffffffffffffffff16815260200190815260200160002060006101000a81548160ff0219169083151502179055506000809054906101000a900473ffffffffffffffffffffffffffffffffffffffff1673ffffffffffffffffffffffffffffffffffffffff166323b872dd8630600a60008a73ffffffffffffffffffffffffffffffffffffffff1673ffffffffffffffffffffffffffffffffffffffff168152602001908152602001600020546040518463ffffffff167c0100000000000000000000000000000000000000000000000000000000028152600401808473ffffffffffffffffffffffffffffffffffffffff1673ffffffffffffffffffffffffffffffffffffffff1681526020018373ffffffffffffffffffffffffffffffffffffffff1673ffffffffffffffffffffffffffffffffffffffff1681526020018281526020019350505050602060405180830381600087803b15801561364c57600080fd5b505af1158015613660573d6000803e3d6000fd5b505050506040513d602081101561367657600080fd5b8101908080519060200190929190505050151561369257600080fd5b60019350600092505b6007805490508360ff16101561374c5783801561373d5750600f600060078560ff168154811015156136c957fe5b9060005260206000200160009054906101000a900473ffffffffffffffffffffffffffffffffffffffff1673ffffffffffffffffffffffffffffffffffffffff1673ffffffffffffffffffffffffffffffffffffffff16815260200190815260200160002060009054906101000a900460ff165b9350828060010193505061369b565b831561375d5761375c6001614ba2565b5b5050505050565b600080600080600180600581111561377857fe5b601a60009054906101000a900460ff16600581111561379357fe5b14151561379f57600080fd5b87600860008273ffffffffffffffffffffffffffffffffffffffff1673ffffffffffffffffffffffffffffffffffffffff16815260200190815260200160002060009054906101000a900460ff1615156137f857600080fd5b600780549050875114151561380c57600080fd5b6138166003614ba2565b6000955060009450600093505b6007805490508460ff1610156139d657868460ff1681518110151561384457fe5b90602001906020020151600d60008b73ffffffffffffffffffffffffffffffffffffffff1673ffffffffffffffffffffffffffffffffffffffff168152602001908152602001600020600060078760ff168154811015156138a157fe5b9060005260206000200160009054906101000a900473ffffffffffffffffffffffffffffffffffffffff1673ffffffffffffffffffffffffffffffffffffffff1673ffffffffffffffffffffffffffffffffffffffff16815260200190815260200160002081905550613937878560ff1681518110151561391e57fe5b906020019060200201518761337f90919063ffffffff16565b95506139c7600a600060078760ff1681548110151561395257fe5b9060005260206000200160009054906101000a900473ffffffffffffffffffffffffffffffffffffffff1673ffffffffffffffffffffffffffffffffffffffff1673ffffffffffffffffffffffffffffffffffffffff168152602001908152602001600020548661337f90919063ffffffff16565b94508380600101945050613823565b84861415156139e457600080fd5b613a13670de0b6b3a7640000613a056006548861339b90919063ffffffff16565b61335090919063ffffffff16565b8810151515613a2157600080fd5b613a34613a2c61332f565b60025461337f565b601481905550613a4860145460015461337f565b60158190555087601681905550600092505b6007805490508460ff161015613be2578873ffffffffffffffffffffffffffffffffffffffff1660078460ff16815481101515613a9357fe5b9060005260206000200160009054906101000a900473ffffffffffffffffffffffffffffffffffffffff1673ffffffffffffffffffffffffffffffffffffffff16141515613bd55784600d600060078660ff16815481101515613af257fe5b9060005260206000200160009054906101000a900473ffffffffffffffffffffffffffffffffffffffff1673ffffffffffffffffffffffffffffffffffffffff1673ffffffffffffffffffffffffffffffffffffffff168152602001908152602001600020600060078660ff16815481101515613b6b57fe5b9060005260206000200160009054906101000a900473ffffffffffffffffffffffffffffffffffffffff1673ffffffffffffffffffffffffffffffffffffffff1673ffffffffffffffffffffffffffffffffffffffff168152602001908152602001600020819055505b8280600101935050613a5a565b613bed898a8a613bf8565b505050505050505050565b613c00615277565b6003806005811115613c0e57fe5b601a60009054906101000a900460ff166005811115613c2957fe5b141515613c3557600080fd5b613c3d614efe565b613c4561332f565b101515613c5157600080fd5b601454613c5c61332f565b101580613cb25750600860008673ffffffffffffffffffffffffffffffffffffffff1673ffffffffffffffffffffffffffffffffffffffff16815260200190815260200160002060009054906101000a900460ff165b1515613cbd57600080fd5b600860008573ffffffffffffffffffffffffffffffffffffffff1673ffffffffffffffffffffffffffffffffffffffff16815260200190815260200160002060009054906101000a900460ff1680613d415750600073ffffffffffffffffffffffffffffffffffffffff168473ffffffffffffffffffffffffffffffffffffffff16145b1515613d4c57600080fd5b613d7d670de0b6b3a7640000613d6f60065460165461339b90919063ffffffff16565b61335090919063ffffffff16565b8310151515613d8b57600080fd5b606060405190810160405280848152602001601860008773ffffffffffffffffffffffffffffffffffffffff1673ffffffffffffffffffffffffffffffffffffffff1681526020019081526020016000205481526020016000151581525091506000809054906101000a900473ffffffffffffffffffffffffffffffffffffffff1673ffffffffffffffffffffffffffffffffffffffff166323b872dd8630866040518463ffffffff167c0100000000000000000000000000000000000000000000000000000000028152600401808473ffffffffffffffffffffffffffffffffffffffff1673ffffffffffffffffffffffffffffffffffffffff1681526020018373ffffffffffffffffffffffffffffffffffffffff1673ffffffffffffffffffffffffffffffffffffffff1681526020018281526020019350505050602060405180830381600087803b158015613ee357600080fd5b505af1158015613ef7573d6000803e3d6000fd5b505050506040513d6020811015613f0d57600080fd5b81019080805190602001909291905050501515613f2957600080fd5b613f45610708613f37614efe565b61333790919063ffffffff16565b613f4d61332f565b101515613f7057613f698360175461337f90919063ffffffff16565b6017819055505b613f858360165461337f90919063ffffffff16565b601681905550613fdd83601860008773ffffffffffffffffffffffffffffffffffffffff1673ffffffffffffffffffffffffffffffffffffffff1681526020019081526020016000205461337f90919063ffffffff16565b601860008673ffffffffffffffffffffffffffffffffffffffff1673ffffffffffffffffffffffffffffffffffffffff16815260200190815260200160002081905550601960008673ffffffffffffffffffffffffffffffffffffffff1673ffffffffffffffffffffffffffffffffffffffff16815260200190815260200160002060008573ffffffffffffffffffffffffffffffffffffffff1673ffffffffffffffffffffffffffffffffffffffff1681526020019081526020016000208290806001815401808255809150509060018203906000526020600020906003020160009091929091909150600082015181600001556020820151816001015560408201518160020160006101000a81548160ff0219169083151502179055505050505050505050565b6000806000806000600180600581111561411c57fe5b601a60009054906101000a900460ff16600581111561413757fe5b14151561414357600080fd5b86600860008273ffffffffffffffffffffffffffffffffffffffff1673ffffffffffffffffffffffffffffffffffffffff16815260200190815260200160002060009054906101000a900460ff16151561419c57600080fd5b601360009054906101000a900460ff1615156141b757600080fd5b601260008973ffffffffffffffffffffffffffffffffffffffff1673ffffffffffffffffffffffffffffffffffffffff16815260200190815260200160002060009054906101000a900460ff1615151561421057600080fd5b6001601260008a73ffffffffffffffffffffffffffffffffffffffff1673ffffffffffffffffffffffffffffffffffffffff16815260200190815260200160002060006101000a81548160ff021916908315150217905550600a60008973ffffffffffffffffffffffffffffffffffffffff1673ffffffffffffffffffffffffffffffffffffffff16815260200190815260200160002054600c60008a73ffffffffffffffffffffffffffffffffffffffff1673ffffffffffffffffffffffffffffffffffffffff1681526020019081526020016000205411156144c05761437f600a60008a73ffffffffffffffffffffffffffffffffffffffff1673ffffffffffffffffffffffffffffffffffffffff16815260200190815260200160002054600c60008b73ffffffffffffffffffffffffffffffffffffffff1673ffffffffffffffffffffffffffffffffffffffff1681526020019081526020016000205461333790919063ffffffff16565b96506000809054906101000a900473ffffffffffffffffffffffffffffffffffffffff1673ffffffffffffffffffffffffffffffffffffffff166323b872dd89308a6040518463ffffffff167c0100000000000000000000000000000000000000000000000000000000028152600401808473ffffffffffffffffffffffffffffffffffffffff1673ffffffffffffffffffffffffffffffffffffffff1681526020018373ffffffffffffffffffffffffffffffffffffffff1673ffffffffffffffffffffffffffffffffffffffff1681526020018281526020019350505050602060405180830381600087803b15801561447957600080fd5b505af115801561448d573d6000803e3d6000fd5b505050506040513d60208110156144a357600080fd5b810190808051906020019092919050505015156144bf57600080fd5b5b60019550600094505b6007805490508560ff16101561457a5785801561456b57506012600060078760ff168154811015156144f757fe5b9060005260206000200160009054906101000a900473ffffffffffffffffffffffffffffffffffffffff1673ffffffffffffffffffffffffffffffffffffffff1673ffffffffffffffffffffffffffffffffffffffff16815260200190815260200160002060009054906101000a900460ff165b955084806001019550506144c9565b8515614b98576000601360006101000a81548160ff021916908315150217905550600093505b6007805490508460ff161015614b975760006012600060078760ff168154811015156145c857fe5b9060005260206000200160009054906101000a900473ffffffffffffffffffffffffffffffffffffffff1673ffffffffffffffffffffffffffffffffffffffff1673ffffffffffffffffffffffffffffffffffffffff16815260200190815260200160002060006101000a81548160ff021916908315150217905550600a600060078660ff1681548110151561465a57fe5b9060005260206000200160009054906101000a900473ffffffffffffffffffffffffffffffffffffffff1673ffffffffffffffffffffffffffffffffffffffff1673ffffffffffffffffffffffffffffffffffffffff16815260200190815260200160002054600c600060078760ff168154811015156146d657fe5b9060005260206000200160009054906101000a900473ffffffffffffffffffffffffffffffffffffffff1673ffffffffffffffffffffffffffffffffffffffff1673ffffffffffffffffffffffffffffffffffffffff1681526020019081526020016000205410156149945761484b600c600060078760ff1681548110151561475b57fe5b9060005260206000200160009054906101000a900473ffffffffffffffffffffffffffffffffffffffff1673ffffffffffffffffffffffffffffffffffffffff1673ffffffffffffffffffffffffffffffffffffffff16815260200190815260200160002054600a600060078860ff168154811015156147d757fe5b9060005260206000200160009054906101000a900473ffffffffffffffffffffffffffffffffffffffff1673ffffffffffffffffffffffffffffffffffffffff1673ffffffffffffffffffffffffffffffffffffffff1681526020019081526020016000205461333790919063ffffffff16565b92506000809054906101000a900473ffffffffffffffffffffffffffffffffffffffff1673ffffffffffffffffffffffffffffffffffffffff1663a9059cbb60078660ff1681548110151561489c57fe5b9060005260206000200160009054906101000a900473ffffffffffffffffffffffffffffffffffffffff16856040518363ffffffff167c0100000000000000000000000000000000000000000000000000000000028152600401808373ffffffffffffffffffffffffffffffffffffffff1673ffffffffffffffffffffffffffffffffffffffff16815260200182815260200192505050602060405180830381600087803b15801561494d57600080fd5b505af1158015614961573d6000803e3d6000fd5b505050506040513d602081101561497757600080fd5b8101908080519060200190929190505050151561499357600080fd5b5b600c600060078660ff168154811015156149aa57fe5b9060005260206000200160009054906101000a900473ffffffffffffffffffffffffffffffffffffffff1673ffffffffffffffffffffffffffffffffffffffff1673ffffffffffffffffffffffffffffffffffffffff16815260200190815260200160002054600a600060078760ff16815481101515614a2657fe5b9060005260206000200160009054906101000a900473ffffffffffffffffffffffffffffffffffffffff1673ffffffffffffffffffffffffffffffffffffffff1673ffffffffffffffffffffffffffffffffffffffff16815260200190815260200160002081905550600b600060078660ff16815481101515614aa557fe5b9060005260206000200160009054906101000a900473ffffffffffffffffffffffffffffffffffffffff1673ffffffffffffffffffffffffffffffffffffffff1673ffffffffffffffffffffffffffffffffffffffff168152602001908152602001600020546009600060078760ff16815481101515614b2157fe5b9060005260206000200160009054906101000a900473ffffffffffffffffffffffffffffffffffffffff1673ffffffffffffffffffffffffffffffffffffffff1673ffffffffffffffffffffffffffffffffffffffff1681526020019081526020016000208190555083806001019450506145a0565b5b5050505050505050565b7ffa441dfe95ea7994c16c2c9120482b6fe0888963d94853674dde4d7a7c105827601a60009054906101000a900460ff168260405180836005811115614be457fe5b60ff168152602001826005811115614bf857fe5b60ff1681526020019250505060405180910390a180601a60006101000a81548160ff02191690836005811115614c2a57fe5b021790555050565b60008060006001806005811115614c4557fe5b601a60009054906101000a900460ff166005811115614c6057fe5b141515614c6c57600080fd5b86600860008273ffffffffffffffffffffffffffffffffffffffff1673ffffffffffffffffffffffffffffffffffffffff16815260200190815260200160002060009054906101000a900460ff161515614cc557600080fd5b601360009054906101000a900460ff16151515614ce157600080fd5b6001601360006101000a81548160ff0219169083151502179055506007805490508751148015614d1657506007805490508651145b1515614d2157600080fd5b6000945060009350600092505b6007805490508360ff161015614edd57868360ff16815181101515614d4f57fe5b90602001906020020151600b600060078660ff16815481101515614d6f57fe5b9060005260206000200160009054906101000a900473ffffffffffffffffffffffffffffffffffffffff1673ffffffffffffffffffffffffffffffffffffffff1673ffffffffffffffffffffffffffffffffffffffff16815260200190815260200160002081905550858360ff16815181101515614de957fe5b90602001906020020151600c600060078660ff16815481101515614e0957fe5b9060005260206000200160009054906101000a900473ffffffffffffffffffffffffffffffffffffffff1673ffffffffffffffffffffffffffffffffffffffff1673ffffffffffffffffffffffffffffffffffffffff16815260200190815260200160002081905550614e9f878460ff16815181101515614e8657fe5b906020019060200201518561337f90919063ffffffff16565b9350614ece868460ff16815181101515614eb557fe5b906020019060200201518661337f90919063ffffffff16565b94508280600101935050614d2e565b8385141515614eeb57600080fd5b614ef488614106565b5050505050505050565b60008060008060006003806005811115614f1457fe5b601a60009054906101000a900460ff166005811115614f2f57fe5b141515614f3b57600080fd5b601554614f4661332f565b1015614f5657601554955061526f565b601860008073ffffffffffffffffffffffffffffffffffffffff1673ffffffffffffffffffffffffffffffffffffffff168152602001908152602001600020549450600093505b6007805490508460ff1610156150bc57846018600060078760ff16815481101515614fc457fe5b9060005260206000200160009054906101000a900473ffffffffffffffffffffffffffffffffffffffff1673ffffffffffffffffffffffffffffffffffffffff1673ffffffffffffffffffffffffffffffffffffffff1681526020019081526020016000205411156150af576018600060078660ff1681548110151561504657fe5b9060005260206000200160009054906101000a900473ffffffffffffffffffffffffffffffffffffffff1673ffffffffffffffffffffffffffffffffffffffff1673ffffffffffffffffffffffffffffffffffffffff1681526020019081526020016000205494505b8380600101945050614f9d565b6150ed670de0b6b3a76400006150df60055460165461339b90919063ffffffff16565b61335090919063ffffffff16565b60175410151561512b5761511360045461510561332f565b61337f90919063ffffffff16565b6015819055506000601781905550601554955061526f565b6000925084601860008073ffffffffffffffffffffffffffffffffffffffff1673ffffffffffffffffffffffffffffffffffffffff16815260200190815260200160002054141561517d576001830192505b600091505b6007805490508260ff16101561522957846018600060078560ff168154811015156151a957fe5b9060005260206000200160009054906101000a900473ffffffffffffffffffffffffffffffffffffffff1673ffffffffffffffffffffffffffffffffffffffff1673ffffffffffffffffffffffffffffffffffffffff16815260200190815260200160002054141561521c576001830192505b8180600101925050615182565b60018360ff1611156152695761525160045461524361332f565b61337f90919063ffffffff16565b6015819055506000601781905550601554955061526f565b60155495505b505050505090565b606060405190810160405280600081526020016000815260200160001515815250905600a165627a7a72305820c23332b2a6c163ec8df100c834bef2a65f1d4991146bb80fe67e2973c3b53e700029",
  "source": "pragma solidity ^0.4.23;\n\nimport 'openzeppelin-solidity/contracts/token/ERC20/ERC20.sol';\nimport 'openzeppelin-solidity/contracts/math/SafeMath.sol';\nimport 'openzeppelin-solidity/contracts/math/Math.sol';\n\ncontract Arbitration {\n  using SafeMath for uint256;\n\n  event StateChange(State _oldState, State _newState);\n  event VoteCast(address _voter, address _party, uint256 _amount);\n  event ContractSigned(address _party, uint256 _amount);\n  event ContractUnsigned(address _party, uint256 _amount);\n  event ContractCreated(address _party1, address _party2, uint256 _party1Dispersal, uint256 _party2Dispersal, uint256 _party1Funding, uint256 _party2Funding, address _paymentTokem, bytes32 _agreementHash);\n  event VoterPayout(address _voter, uint256 _tokenAmount);\n  event PartyPayout(address _party, uint256 _tokenAmount);\n\n  //Token for escrow & voting\n  ERC20 public jurToken;\n\n  //Globals - could be pulled from factory contract\n  uint256 public DISPUTE_VOTE_DURATION = 7 days;\n  uint256 public DISPUTE_DISPERSAL_DURATION = 1 days;\n  uint256 public DISPUTE_WINDOW = 30 minutes;\n  uint256 public DISPUTE_EXTENSION = 30 minutes;\n  uint256 public DISPUTE_WINDOW_MAX = 5 * 10**16; //percentage multiplued by 10**16\n  uint256 public MIN_VOTE = 1 * 10**16; //percentage multiplued by 10**16\n\n  //Agreement Details\n  address[] public allParties;\n  mapping (address => bool) public parties;\n  mapping (address => uint256) public dispersal;\n  mapping (address => uint256) public funding;\n  mapping (address => uint256) public amendedDispersal;\n  mapping (address => uint256) public amendedFunding;\n  mapping (address => mapping (address => uint256)) public disputeDispersal;\n  bytes32 public agreementHash;\n\n  //User granularity state tracking\n  mapping (address => bool) public hasSigned;\n  mapping (address => bool) public hasAgreed;\n  mapping (address => bool) public hasWithdrawn;\n  mapping (address => bool) public hasFundedAmendment;\n  bool public amendmentProposed;\n\n  //Dispute / voting parameters\n  uint256 public disputeStarts;\n  uint256 public disputeEnds;\n  uint256 public totalVotes;\n  uint256 public disputeWindowVotes;\n  mapping (address => uint256) public partyVotes;\n  mapping (address => mapping (address => Vote[])) userVotes;\n\n  struct Vote {\n    uint256 amount;\n    uint256 previousVotes;\n    bool claimed;\n  }\n\n  //Initialise state\n  enum State {Unsigned, Signed, Agreed, Dispute, Closed, DisputeClosed}\n  State public state = State.Unsigned;\n\n  modifier onlyParties {\n    require(parties[msg.sender]);\n    _;\n  }\n\n  modifier isParty(address _sender) {\n    require(parties[_sender]);\n    _;\n  }\n\n  modifier hasState(State _state) {\n    require(state == _state);\n    _;\n  }\n\n  modifier onlyJUR {\n    require(msg.sender == address(jurToken));\n    _;\n  }\n\n  constructor(address _jurToken, address[] _parties, uint256[] _dispersal, uint256[] _funding, bytes32 _agreementHash) public {\n\n    //Check that we are only setting up an arbitration between two parties\n    require((_dispersal.length == 2) && (_funding.length == 2) && (_parties.length == 2));\n    require((_parties[0] != 0x0) && (_parties[1] != 0x0));\n\n    //Check that dispersals match funding and initialise mappings\n    uint256 totalFunding = 0;\n    uint256 totalDispersal = 0;\n    for (uint8 i = 0; i < _parties.length; i++) {\n      parties[_parties[i]] = true;\n      dispersal[_parties[i]] = _dispersal[i];\n      funding[_parties[i]] = _funding[i];\n      totalDispersal = totalDispersal.add(_dispersal[i]);\n      totalFunding = totalFunding.add(_funding[i]);\n    }\n    require(totalFunding == totalDispersal);\n    allParties = _parties;\n    agreementHash = _agreementHash;\n\n    //Initialise JUR token\n    jurToken = ERC20(_jurToken);\n\n  }\n\n  function setState(State _state) internal {\n    StateChange(state, _state);\n    state = _state;\n  }\n\n  function sign() public {\n    _sign(msg.sender);\n  }\n\n  function signJUR(address _sender) public onlyJUR {\n    _sign(_sender);\n  }\n\n  function _sign(address _sender) internal hasState(State.Unsigned) isParty(_sender) {\n    require(!hasSigned[_sender]);\n    hasSigned[_sender] = true;\n    require(jurToken.transferFrom(_sender, address(this), funding[_sender]));\n    bool allSigned = true;\n    for (uint8 i = 0; i < allParties.length; i++) {\n      allSigned = allSigned && hasSigned[allParties[i]];\n    }\n    if (allSigned) {\n      setState(State.Signed);\n    }\n  }\n\n  function unsign() public hasState(State.Unsigned) onlyParties {\n    require(hasSigned[msg.sender]);\n    hasSigned[msg.sender] = false;\n    require(jurToken.transfer(msg.sender, funding[msg.sender]));\n    //TODO - emit event\n    /* ContractUnsigned(msg.sender, betAmount[msg.sender]); */\n  }\n\n  function agree() public hasState(State.Signed) onlyParties {\n    require(!hasAgreed[msg.sender]);\n    hasAgreed[msg.sender] = true;\n    bool allAgreed = true;\n    for (uint8 i = 0; i < allParties.length; i++) {\n      allAgreed = allAgreed && hasAgreed[allParties[i]];\n    }\n    if (allAgreed) {\n      setState(State.Agreed);\n    }\n    //TODO - emit event\n  }\n\n  function unagree() public hasState(State.Signed) onlyParties {\n    require(hasAgreed[msg.sender]);\n    hasAgreed[msg.sender] = false;\n    //TODO - emit event\n  }\n\n  function proposeAmendment(uint256[] _dispersal, uint256[] _funding) public {\n    _proposeAmendment(msg.sender, _dispersal, _funding);\n  }\n\n  function proposeAmendmentJUR(address _sender, uint256[] _dispersal, uint256[] _funding) public onlyJUR {\n    _proposeAmendment(_sender, _dispersal, _funding);\n  }\n\n  function _proposeAmendment(address _sender, uint256[] _dispersal, uint256[] _funding) internal hasState(State.Signed) isParty(_sender) {\n    //There can only be one proposed amendment at a time\n    require(!amendmentProposed);\n    amendmentProposed = true;\n    require((_dispersal.length == allParties.length) && (_funding.length == allParties.length));\n    uint256 totalFunding = 0;\n    uint256 totalDispersal = 0;\n    for (uint8 i = 0; i < allParties.length; i++) {\n      amendedDispersal[allParties[i]] = _dispersal[i];\n      amendedFunding[allParties[i]] = _funding[i];\n      totalDispersal = totalDispersal.add(_dispersal[i]);\n      totalFunding = totalFunding.add(_funding[i]);\n    }\n    require(totalFunding == totalDispersal);\n    //Must pay any excess dispersal required\n    _agreeAmendment(_sender);\n  }\n\n  function agreeAmendment() public {\n    _agreeAmendment(msg.sender);\n  }\n\n  function agreeAmendmentJUR(address _sender) public onlyJUR {\n    _agreeAmendment(_sender);\n  }\n\n  function _agreeAmendment(address _sender) internal hasState(State.Signed) isParty(_sender) {\n    require(amendmentProposed);\n    require(!hasFundedAmendment[_sender]);\n    hasFundedAmendment[_sender] = true;\n    if (amendedFunding[_sender] > funding[_sender]) {\n      uint256 deficit = amendedFunding[_sender].sub(funding[_sender]);\n      require(jurToken.transferFrom(_sender, address(this), deficit));\n    }\n    bool allFundedAmendment = true;\n    for (uint8 i = 0; i < allParties.length; i++) {\n      allFundedAmendment = allFundedAmendment && hasFundedAmendment[allParties[i]];\n    }\n    if (allFundedAmendment) {\n      amendmentProposed = false;\n      for (uint8 j = 0; j < allParties.length; j++) {\n        hasFundedAmendment[allParties[j]] = false;\n        if (amendedFunding[allParties[j]] < funding[allParties[j]]) {\n          uint256 excess = funding[allParties[j]].sub(amendedFunding[allParties[j]]);\n          require(jurToken.transfer(allParties[j], excess));\n        }\n        funding[allParties[j]] = amendedFunding[allParties[j]];\n        dispersal[allParties[j]] = amendedDispersal[allParties[j]];\n      }\n    }\n  }\n\n  function unagreeAmendment() public onlyParties {\n    //Could be done by original proposer, or other party\n    //If anyone disagrees, amendment is removed\n    require(amendmentProposed);\n    amendmentProposed = false;\n    //Refund any deficits paid\n    for (uint8 i = 0; i < allParties.length; i++) {\n      if (hasFundedAmendment[allParties[i]]) {\n        hasFundedAmendment[allParties[i]] = false;\n        if (amendedFunding[allParties[i]] > funding[allParties[i]]) {\n          uint256 amount = amendedFunding[allParties[i]].sub(funding[allParties[i]]);\n          require(jurToken.transfer(allParties[i], amount));\n        }\n      }\n    }\n  }\n\n  function withdrawDispersal() public hasState(State.Agreed) onlyParties {\n    require(!hasWithdrawn[msg.sender]);\n    hasWithdrawn[msg.sender] = true;\n    require(jurToken.transfer(msg.sender, dispersal[msg.sender]));\n    bool allWithdrawn = true;\n    for (uint8 i = 0; i < allParties.length; i++) {\n      allWithdrawn = allWithdrawn && (hasWithdrawn[allParties[i]] || (dispersal[allParties[i]] == 0));\n    }\n    if (allWithdrawn) {\n      setState(State.Closed);\n    }\n    //TODO - emit event\n  }\n\n  function dispute(uint256 _voteAmount, uint256[] _dispersal) public {\n    _dispute(msg.sender, _voteAmount, _dispersal);\n  }\n\n  function disputeJUR(address _sender, uint256 _voteAmount, uint256[] _dispersal) public onlyJUR {\n    _dispute(_sender, _voteAmount, _dispersal);\n  }\n\n  function _dispute(address _sender, uint256 _voteAmount, uint256[] _dispersal) internal hasState(State.Signed) isParty(_sender) {\n    require(_dispersal.length == allParties.length);\n    setState(State.Dispute);\n    uint256 totalDispersal = 0;\n    uint256 totalFunding = 0;\n    for (uint8 i = 0; i < allParties.length; i++) {\n      disputeDispersal[_sender][allParties[i]] = _dispersal[i];\n      totalDispersal = totalDispersal.add(_dispersal[i]);\n      totalFunding = totalFunding.add(funding[allParties[i]]);\n    }\n    require(totalDispersal == totalFunding);\n    require(_voteAmount >= totalFunding.mul(MIN_VOTE).div(10**18));\n    disputeStarts = SafeMath.add(getNow(), DISPUTE_DISPERSAL_DURATION);\n    disputeEnds = SafeMath.add(disputeStarts, DISPUTE_VOTE_DURATION);\n    totalVotes = _voteAmount;\n    //Default other parties dispute dispersals\n    for (uint8 j = 0; i < allParties.length; j++) {\n      if (allParties[j] != _sender) {\n        disputeDispersal[allParties[j]][allParties[j]] = totalFunding;\n      }\n    }\n    //TODO - fix this\n    _vote(_sender, _sender, _voteAmount);\n  }\n\n  function amendDisputeDispersal(uint256[] _dispersal) public hasState(State.Dispute) onlyParties {\n    require(_dispersal.length == allParties.length);\n    require(getNow() < disputeStarts);\n    uint256 totalDispersal = 0;\n    uint256 totalFunding = 0;\n    for (uint8 i = 0; i < allParties.length; i++) {\n      disputeDispersal[msg.sender][allParties[i]] = _dispersal[i];\n      totalDispersal = totalDispersal.add(_dispersal[i]);\n      totalFunding = totalFunding.add(funding[allParties[i]]);\n    }\n    require(totalDispersal == totalFunding);\n  }\n\n  function _endDisputeTime() internal hasState(State.Dispute) returns(uint256) {\n    //Extend dispute period if:\n    //  - vote is tied\n    //  - more than 5% of votes places in last 30 minutes of dispute period\n    if (getNow() < disputeEnds) {\n      return disputeEnds;\n    }\n    uint256 winningVotes = partyVotes[address(0)];\n    for (uint8 i = 0; i < allParties.length; i++) {\n      if (partyVotes[allParties[i]] > winningVotes) {\n        winningVotes = partyVotes[allParties[i]];\n      }\n    }\n    if (disputeWindowVotes >= totalVotes.mul(DISPUTE_WINDOW_MAX).div(10**18)) {\n      disputeEnds = getNow().add(DISPUTE_EXTENSION);\n      disputeWindowVotes = 0;\n      return disputeEnds;\n    }\n    //TODO: make more efficient\n    uint8 countWinners = 0;\n    if (partyVotes[address(0)] == winningVotes) {\n      countWinners = countWinners + 1;\n    }\n    for (uint8 j = 0; j < allParties.length; j++) {\n      if (partyVotes[allParties[j]] == winningVotes) {\n        countWinners = countWinners + 1;\n      }\n    }\n    if (countWinners > 1) {\n      disputeEnds = getNow().add(DISPUTE_EXTENSION);\n      disputeWindowVotes = 0;\n      return disputeEnds;\n    }\n    return disputeEnds;\n  }\n\n  function vote(address _voteAddress, uint256 _voteAmount) public {\n    _vote(msg.sender, _voteAddress, _voteAmount);\n  }\n\n  function voteJUR(address _sender, address _voteAddress, uint256 _voteAmount) public onlyJUR {\n    _vote(_sender, _voteAddress, _voteAmount);\n  }\n\n  function _vote(address _sender, address _voteAddress, uint256 _voteAmount) internal hasState(State.Dispute) {\n\n    require(getNow() < _endDisputeTime());\n    //Parties are allowed to vote straightaway\n    require((getNow() >= disputeStarts) || parties[_sender]);\n    require(parties[_voteAddress] || (_voteAddress == address(0)));\n    require(_voteAmount >= totalVotes.mul(MIN_VOTE).div(10**18));\n\n    Vote memory newVote = Vote(_voteAmount, partyVotes[_voteAddress], false);\n\n    //Commit votes\n    require(jurToken.transferFrom(_sender, address(this), _voteAmount));\n\n    //Track votes during last 30 mins of voting period\n    if (getNow() >= _endDisputeTime().sub(30 * 60)) {\n      disputeWindowVotes = disputeWindowVotes.add(_voteAmount);\n    }\n\n    //Record votes\n    totalVotes = totalVotes.add(_voteAmount);\n    partyVotes[_voteAddress] = partyVotes[_voteAddress].add(_voteAmount);\n    userVotes[_sender][_voteAddress].push(newVote);\n\n  }\n\n  function payoutVoter(uint256 _start) public hasState(State.Dispute) {\n    //TODO: Check vote has actually concluded\n    //Generally setting _start to 0 should be fine, but having the option avoids a possible block gas limit issue\n    require(getNow() >= disputeEnds);\n    address winnerParty;\n    address bestMinortyParty;\n    (winnerParty, bestMinortyParty) = getWinnerAndBestMinorty();\n    uint256 totalMinorityVotes = totalVotes.sub(partyVotes[winnerParty]);\n    uint256 bestMinorityVotes = partyVotes[bestMinortyParty];\n    uint256 reward = totalMinorityVotes.div(bestMinorityVotes);\n    uint256 eligableVotes = 0;\n    //TODO: does start really work here?\n    for (uint256 i = _start; i < userVotes[msg.sender][winnerParty].length; i++) {\n      if (!userVotes[msg.sender][winnerParty][i].claimed) {\n        if (userVotes[msg.sender][winnerParty][i].previousVotes >= bestMinorityVotes) {\n          //nothing left to pay out\n          break;\n        }\n        eligableVotes = eligableVotes.add(Math.min256(bestMinorityVotes.sub(userVotes[msg.sender][winnerParty][i].previousVotes), userVotes[msg.sender][winnerParty][i].amount));\n        userVotes[msg.sender][winnerParty][i].claimed = true;\n      }\n    }\n    assert(jurToken.transfer(msg.sender, eligableVotes.mul(reward)));\n    /* VoterPayout(msg.sender, payout); */\n  }\n\n  function getWinnerAndBestMinorty() public view returns(address, address) {\n    uint256 winnerVotes = partyVotes[address(0)];\n    address winnerParty = address(0);\n    for (uint8 i = 0; i < allParties.length; i++) {\n      if (winnerVotes < partyVotes[allParties[i]]) {\n        winnerVotes = partyVotes[allParties[i]];\n        winnerParty = allParties[i];\n      }\n    }\n    uint256 bestMinortyVotes = (winnerParty == address(0)) ? partyVotes[allParties[0]] : partyVotes[address(0)];\n    address bestMinortyParty = (winnerParty == address(0)) ? allParties[0] : address(0);\n    for (uint8 j = 0; j < allParties.length; j++) {\n      if ((bestMinortyVotes < partyVotes[allParties[j]]) && (winnerParty != allParties[j])) {\n        bestMinortyVotes = partyVotes[allParties[j]];\n        bestMinortyParty = allParties[j];\n      }\n    }\n    return (winnerParty, bestMinortyParty);\n  }\n/*\n  function getTotalMinorityVotes() public view returns(uint256) {\n    uint256 maxVotes = partyVotes[address(0)];\n    address maxParty = address(0);\n    for (uint8 i = 0; i < allParties.length; i++) {\n      if (maxVotes < partyVotes[allParties[i]]) {\n        maxVotes = partyVotes[allParties[i]];\n        maxParty = allParties[i];\n      }\n    }\n    uint256 totalMinorityVotes = 0;\n    if (maxParty != address(0)) {\n      totalMinorityVotes = partyVotes[address(0)];\n    }\n    for (uint8 i = 0; i < allParties.length; i++) {\n      if (allParties[i] != maxParty) {\n        totalMinorityVotes = totalMinorityVotes.add(partyVotes[allParties[i]]);\n      }\n    }\n    return totalMinorityVotes;\n  }\n\n  function getVotingOrder() public view returns(address[]) {\n    //Make the assumption only three addresses here for simplicity\n    address maxAddress = address(0);\n    address minAddress = address(0);\n    uint256 maxVotes = partyVotes[address(0)];\n    uint256 minVotes = partyVotes[address(0)];\n    for (uint8 i = 0; i < allParties.length; i++) {\n      if (maxVotes < partyVotes[allParties[i]]) {\n        maxVotes = partyVotes[allParties[i]];\n        maxAddress = allParties[i]\n      }\n    }\n  }\n\n  function getBestMinorityVotes() public view returns(uint256) {\n    uint256 maxVotes = partyVotes[address(0)];\n    address maxParty = address(0);\n    for (uint8 i = 0; i < allParties.length; i++) {\n      if (maxVotes < partyVotes[allParties[i]]) {\n        maxVotes = partyVotes[allParties[i]];\n        maxParty = allParties[i];\n      }\n    }\n    uint256 totalMinorityVotes = 0;\n    if (maxParty != address(0)) {\n      totalMinorityVotes = partyVotes[address(0)];\n    }\n    for (uint8 i = 0; i < allParties.length; i++) {\n      if (allParties[i] != maxParty) {\n        totalMinorityVotes = totalMinorityVotes.add(partyVotes[allParties[i]]);\n      }\n    }\n    return totalMinorityVotes;\n  } */\n\n  function payoutParty() public hasState(State.Dispute) onlyParties {\n    //TODO: check that vote has actually ended\n    require(getNow() >= disputeEnds);\n    require(!hasWithdrawn[msg.sender]);\n    hasWithdrawn[msg.sender] = true;\n    address winnerParty;\n    address bestMinortyParty;\n    (winnerParty, bestMinortyParty) = getWinnerAndBestMinorty();\n    uint256 payout = disputeDispersal[winnerParty][msg.sender];\n    //Now pay out original amount\n    assert(jurToken.transfer(msg.sender, payout));\n    PartyPayout(msg.sender, payout);\n  }\n\n  function getNow() internal constant returns (uint256) {\n    return now;\n  }\n\n}\n",
  "sourcePath": "/Users/adamdossa/Development/Ethereum/DecentralisedOracle/contracts/Arbitration.sol",
  "compiler": {
    "name": "solc",
    "version": "0.4.23+commit.124ca40d.Emscripten.clang"
  },
  "schemaVersion": "2.0.0",
  "updatedAt": "2018-05-25T09:30:25.454Z"
}