{
  "contractName": "ArbitrationMock",
  "abi": [
    {
      "constant": false,
      "inputs": [
        {
          "name": "_dispersal",
          "type": "uint256[]"
        },
        {
          "name": "_funding",
          "type": "uint256[]"
        },
        {
          "name": "_agreementHash",
          "type": "bytes32"
        }
      ],
      "name": "proposeAmendment",
      "outputs": [],
      "payable": false,
      "stateMutability": "nonpayable",
      "type": "function"
    },
    {
      "constant": true,
      "inputs": [
        {
          "name": "",
          "type": "address"
        }
      ],
      "name": "funding",
      "outputs": [
        {
          "name": "",
          "type": "uint256"
        }
      ],
      "payable": false,
      "stateMutability": "view",
      "type": "function"
    },
    {
      "constant": true,
      "inputs": [],
      "name": "agreementHash",
      "outputs": [
        {
          "name": "",
          "type": "bytes32"
        }
      ],
      "payable": false,
      "stateMutability": "view",
      "type": "function"
    },
    {
      "constant": true,
      "inputs": [],
      "name": "totalVotes",
      "outputs": [
        {
          "name": "",
          "type": "uint256"
        }
      ],
      "payable": false,
      "stateMutability": "view",
      "type": "function"
    },
    {
      "constant": true,
      "inputs": [],
      "name": "disputeEnds",
      "outputs": [
        {
          "name": "",
          "type": "uint256"
        }
      ],
      "payable": false,
      "stateMutability": "view",
      "type": "function"
    },
    {
      "constant": true,
      "inputs": [],
      "name": "amendedAgreementHash",
      "outputs": [
        {
          "name": "",
          "type": "bytes32"
        }
      ],
      "payable": false,
      "stateMutability": "view",
      "type": "function"
    },
    {
      "constant": false,
      "inputs": [
        {
          "name": "_sender",
          "type": "address"
        },
        {
          "name": "_dispersal",
          "type": "uint256[]"
        },
        {
          "name": "_funding",
          "type": "uint256[]"
        },
        {
          "name": "_agreementHash",
          "type": "bytes32"
        }
      ],
      "name": "proposeAmendmentJUR",
      "outputs": [],
      "payable": false,
      "stateMutability": "nonpayable",
      "type": "function"
    },
    {
      "constant": false,
      "inputs": [
        {
          "name": "_start",
          "type": "uint256"
        }
      ],
      "name": "payoutVoter",
      "outputs": [],
      "payable": false,
      "stateMutability": "nonpayable",
      "type": "function"
    },
    {
      "constant": true,
      "inputs": [
        {
          "name": "",
          "type": "address"
        }
      ],
      "name": "dispersal",
      "outputs": [
        {
          "name": "",
          "type": "uint256"
        }
      ],
      "payable": false,
      "stateMutability": "view",
      "type": "function"
    },
    {
      "constant": true,
      "inputs": [],
      "name": "DISPUTE_VOTE_DURATION",
      "outputs": [
        {
          "name": "",
          "type": "uint256"
        }
      ],
      "payable": false,
      "stateMutability": "view",
      "type": "function"
    },
    {
      "constant": true,
      "inputs": [],
      "name": "DISPUTE_DISPERSAL_DURATION",
      "outputs": [
        {
          "name": "",
          "type": "uint256"
        }
      ],
      "payable": false,
      "stateMutability": "view",
      "type": "function"
    },
    {
      "constant": false,
      "inputs": [],
      "name": "sign",
      "outputs": [],
      "payable": false,
      "stateMutability": "nonpayable",
      "type": "function"
    },
    {
      "constant": true,
      "inputs": [],
      "name": "MIN_VOTE",
      "outputs": [
        {
          "name": "",
          "type": "uint256"
        }
      ],
      "payable": false,
      "stateMutability": "view",
      "type": "function"
    },
    {
      "constant": false,
      "inputs": [
        {
          "name": "_voteAmount",
          "type": "uint256"
        },
        {
          "name": "_dispersal",
          "type": "uint256[]"
        }
      ],
      "name": "dispute",
      "outputs": [],
      "payable": false,
      "stateMutability": "nonpayable",
      "type": "function"
    },
    {
      "constant": false,
      "inputs": [
        {
          "name": "_sender",
          "type": "address"
        }
      ],
      "name": "signJUR",
      "outputs": [],
      "payable": false,
      "stateMutability": "nonpayable",
      "type": "function"
    },
    {
      "constant": true,
      "inputs": [],
      "name": "getWinnerAndBestMinorty",
      "outputs": [
        {
          "name": "",
          "type": "address"
        },
        {
          "name": "",
          "type": "address"
        }
      ],
      "payable": false,
      "stateMutability": "view",
      "type": "function"
    },
    {
      "constant": false,
      "inputs": [],
      "name": "unsign",
      "outputs": [],
      "payable": false,
      "stateMutability": "nonpayable",
      "type": "function"
    },
    {
      "constant": true,
      "inputs": [
        {
          "name": "",
          "type": "address"
        },
        {
          "name": "",
          "type": "address"
        }
      ],
      "name": "disputeDispersal",
      "outputs": [
        {
          "name": "",
          "type": "uint256"
        }
      ],
      "payable": false,
      "stateMutability": "view",
      "type": "function"
    },
    {
      "constant": true,
      "inputs": [
        {
          "name": "",
          "type": "address"
        }
      ],
      "name": "parties",
      "outputs": [
        {
          "name": "",
          "type": "bool"
        }
      ],
      "payable": false,
      "stateMutability": "view",
      "type": "function"
    },
    {
      "constant": false,
      "inputs": [],
      "name": "unagreeAmendment",
      "outputs": [],
      "payable": false,
      "stateMutability": "nonpayable",
      "type": "function"
    },
    {
      "constant": true,
      "inputs": [],
      "name": "DISPUTE_WINDOW_MAX",
      "outputs": [
        {
          "name": "",
          "type": "uint256"
        }
      ],
      "payable": false,
      "stateMutability": "view",
      "type": "function"
    },
    {
      "constant": true,
      "inputs": [],
      "name": "disputeWindowVotes",
      "outputs": [
        {
          "name": "",
          "type": "uint256"
        }
      ],
      "payable": false,
      "stateMutability": "view",
      "type": "function"
    },
    {
      "constant": false,
      "inputs": [],
      "name": "calcDisputeEnds",
      "outputs": [
        {
          "name": "",
          "type": "uint256"
        }
      ],
      "payable": false,
      "stateMutability": "nonpayable",
      "type": "function"
    },
    {
      "constant": true,
      "inputs": [
        {
          "name": "",
          "type": "address"
        }
      ],
      "name": "hasWithdrawn",
      "outputs": [
        {
          "name": "",
          "type": "bool"
        }
      ],
      "payable": false,
      "stateMutability": "view",
      "type": "function"
    },
    {
      "constant": true,
      "inputs": [],
      "name": "jurToken",
      "outputs": [
        {
          "name": "",
          "type": "address"
        }
      ],
      "payable": false,
      "stateMutability": "view",
      "type": "function"
    },
    {
      "constant": false,
      "inputs": [
        {
          "name": "_voteAddress",
          "type": "address"
        },
        {
          "name": "_voteAmount",
          "type": "uint256"
        }
      ],
      "name": "vote",
      "outputs": [],
      "payable": false,
      "stateMutability": "nonpayable",
      "type": "function"
    },
    {
      "constant": true,
      "inputs": [
        {
          "name": "",
          "type": "uint256"
        }
      ],
      "name": "allParties",
      "outputs": [
        {
          "name": "",
          "type": "address"
        }
      ],
      "payable": false,
      "stateMutability": "view",
      "type": "function"
    },
    {
      "constant": false,
      "inputs": [
        {
          "name": "_sender",
          "type": "address"
        },
        {
          "name": "_voteAddress",
          "type": "address"
        },
        {
          "name": "_voteAmount",
          "type": "uint256"
        }
      ],
      "name": "voteJUR",
      "outputs": [],
      "payable": false,
      "stateMutability": "nonpayable",
      "type": "function"
    },
    {
      "constant": true,
      "inputs": [
        {
          "name": "",
          "type": "address"
        }
      ],
      "name": "hasAgreed",
      "outputs": [
        {
          "name": "",
          "type": "bool"
        }
      ],
      "payable": false,
      "stateMutability": "view",
      "type": "function"
    },
    {
      "constant": true,
      "inputs": [
        {
          "name": "",
          "type": "address"
        }
      ],
      "name": "hasFundedAmendment",
      "outputs": [
        {
          "name": "",
          "type": "bool"
        }
      ],
      "payable": false,
      "stateMutability": "view",
      "type": "function"
    },
    {
      "constant": false,
      "inputs": [
        {
          "name": "_dispersal",
          "type": "uint256[]"
        }
      ],
      "name": "amendDisputeDispersal",
      "outputs": [],
      "payable": false,
      "stateMutability": "nonpayable",
      "type": "function"
    },
    {
      "constant": true,
      "inputs": [
        {
          "name": "",
          "type": "address"
        }
      ],
      "name": "partyVotes",
      "outputs": [
        {
          "name": "",
          "type": "uint256"
        }
      ],
      "payable": false,
      "stateMutability": "view",
      "type": "function"
    },
    {
      "constant": true,
      "inputs": [],
      "name": "amendmentProposed",
      "outputs": [
        {
          "name": "",
          "type": "bool"
        }
      ],
      "payable": false,
      "stateMutability": "view",
      "type": "function"
    },
    {
      "constant": false,
      "inputs": [],
      "name": "agreeAmendment",
      "outputs": [],
      "payable": false,
      "stateMutability": "nonpayable",
      "type": "function"
    },
    {
      "constant": true,
      "inputs": [],
      "name": "getWinner",
      "outputs": [
        {
          "name": "",
          "type": "address"
        }
      ],
      "payable": false,
      "stateMutability": "view",
      "type": "function"
    },
    {
      "constant": false,
      "inputs": [],
      "name": "agree",
      "outputs": [],
      "payable": false,
      "stateMutability": "nonpayable",
      "type": "function"
    },
    {
      "constant": true,
      "inputs": [],
      "name": "disputeStarts",
      "outputs": [
        {
          "name": "",
          "type": "uint256"
        }
      ],
      "payable": false,
      "stateMutability": "view",
      "type": "function"
    },
    {
      "constant": true,
      "inputs": [
        {
          "name": "",
          "type": "address"
        }
      ],
      "name": "amendedDispersal",
      "outputs": [
        {
          "name": "",
          "type": "uint256"
        }
      ],
      "payable": false,
      "stateMutability": "view",
      "type": "function"
    },
    {
      "constant": false,
      "inputs": [],
      "name": "withdrawDispersal",
      "outputs": [],
      "payable": false,
      "stateMutability": "nonpayable",
      "type": "function"
    },
    {
      "constant": false,
      "inputs": [],
      "name": "unagree",
      "outputs": [],
      "payable": false,
      "stateMutability": "nonpayable",
      "type": "function"
    },
    {
      "constant": false,
      "inputs": [
        {
          "name": "_sender",
          "type": "address"
        },
        {
          "name": "_voteAmount",
          "type": "uint256"
        },
        {
          "name": "_dispersal",
          "type": "uint256[]"
        }
      ],
      "name": "disputeJUR",
      "outputs": [],
      "payable": false,
      "stateMutability": "nonpayable",
      "type": "function"
    },
    {
      "constant": true,
      "inputs": [],
      "name": "DISPUTE_EXTENSION",
      "outputs": [
        {
          "name": "",
          "type": "uint256"
        }
      ],
      "payable": false,
      "stateMutability": "view",
      "type": "function"
    },
    {
      "constant": true,
      "inputs": [
        {
          "name": "",
          "type": "address"
        }
      ],
      "name": "amendedFunding",
      "outputs": [
        {
          "name": "",
          "type": "uint256"
        }
      ],
      "payable": false,
      "stateMutability": "view",
      "type": "function"
    },
    {
      "constant": true,
      "inputs": [
        {
          "name": "",
          "type": "address"
        }
      ],
      "name": "hasSigned",
      "outputs": [
        {
          "name": "",
          "type": "bool"
        }
      ],
      "payable": false,
      "stateMutability": "view",
      "type": "function"
    },
    {
      "constant": true,
      "inputs": [],
      "name": "state",
      "outputs": [
        {
          "name": "",
          "type": "uint8"
        }
      ],
      "payable": false,
      "stateMutability": "view",
      "type": "function"
    },
    {
      "constant": false,
      "inputs": [],
      "name": "payoutParty",
      "outputs": [],
      "payable": false,
      "stateMutability": "nonpayable",
      "type": "function"
    },
    {
      "constant": true,
      "inputs": [],
      "name": "DISPUTE_WINDOW",
      "outputs": [
        {
          "name": "",
          "type": "uint256"
        }
      ],
      "payable": false,
      "stateMutability": "view",
      "type": "function"
    },
    {
      "constant": false,
      "inputs": [
        {
          "name": "_sender",
          "type": "address"
        }
      ],
      "name": "agreeAmendmentJUR",
      "outputs": [],
      "payable": false,
      "stateMutability": "nonpayable",
      "type": "function"
    },
    {
      "inputs": [
        {
          "name": "_jurToken",
          "type": "address"
        },
        {
          "name": "_parties",
          "type": "address[]"
        },
        {
          "name": "_dispersal",
          "type": "uint256[]"
        },
        {
          "name": "_funding",
          "type": "uint256[]"
        },
        {
          "name": "_agreementHash",
          "type": "bytes32"
        }
      ],
      "payable": false,
      "stateMutability": "nonpayable",
      "type": "constructor"
    },
    {
      "anonymous": false,
      "inputs": [
        {
          "indexed": false,
          "name": "_blockNumber",
          "type": "uint256"
        }
      ],
      "name": "MockBlockNumber",
      "type": "event"
    },
    {
      "anonymous": false,
      "inputs": [
        {
          "indexed": false,
          "name": "_mockedNow",
          "type": "uint256"
        }
      ],
      "name": "MockNow",
      "type": "event"
    },
    {
      "anonymous": false,
      "inputs": [
        {
          "indexed": false,
          "name": "_oldState",
          "type": "uint8"
        },
        {
          "indexed": false,
          "name": "_newState",
          "type": "uint8"
        },
        {
          "indexed": false,
          "name": "_timestamp",
          "type": "uint256"
        }
      ],
      "name": "StateChange",
      "type": "event"
    },
    {
      "anonymous": false,
      "inputs": [
        {
          "indexed": true,
          "name": "_party1",
          "type": "address"
        },
        {
          "indexed": true,
          "name": "_party2",
          "type": "address"
        },
        {
          "indexed": false,
          "name": "_dispersal",
          "type": "uint256[]"
        },
        {
          "indexed": false,
          "name": "_funding",
          "type": "uint256[]"
        },
        {
          "indexed": false,
          "name": "_agreementHash",
          "type": "bytes32"
        }
      ],
      "name": "ContractCreated",
      "type": "event"
    },
    {
      "anonymous": false,
      "inputs": [
        {
          "indexed": true,
          "name": "_party",
          "type": "address"
        },
        {
          "indexed": false,
          "name": "_funding",
          "type": "uint256"
        }
      ],
      "name": "ContractSigned",
      "type": "event"
    },
    {
      "anonymous": false,
      "inputs": [
        {
          "indexed": true,
          "name": "_party",
          "type": "address"
        },
        {
          "indexed": false,
          "name": "_funding",
          "type": "uint256"
        }
      ],
      "name": "ContractUnsigned",
      "type": "event"
    },
    {
      "anonymous": false,
      "inputs": [
        {
          "indexed": true,
          "name": "_party",
          "type": "address"
        }
      ],
      "name": "ContractAgreed",
      "type": "event"
    },
    {
      "anonymous": false,
      "inputs": [
        {
          "indexed": true,
          "name": "_party",
          "type": "address"
        }
      ],
      "name": "ContractUnagreed",
      "type": "event"
    },
    {
      "anonymous": false,
      "inputs": [
        {
          "indexed": true,
          "name": "_party",
          "type": "address"
        },
        {
          "indexed": false,
          "name": "_dispersal",
          "type": "uint256[]"
        },
        {
          "indexed": false,
          "name": "_funding",
          "type": "uint256[]"
        },
        {
          "indexed": false,
          "name": "_agreementHash",
          "type": "bytes32"
        }
      ],
      "name": "ContractAmendmentProposed",
      "type": "event"
    },
    {
      "anonymous": false,
      "inputs": [
        {
          "indexed": true,
          "name": "_party",
          "type": "address"
        }
      ],
      "name": "ContractAmendmentAgreed",
      "type": "event"
    },
    {
      "anonymous": false,
      "inputs": [
        {
          "indexed": true,
          "name": "_party",
          "type": "address"
        }
      ],
      "name": "ContractAmendmentUnagreed",
      "type": "event"
    },
    {
      "anonymous": false,
      "inputs": [
        {
          "indexed": true,
          "name": "_party",
          "type": "address"
        },
        {
          "indexed": false,
          "name": "_dispersal",
          "type": "uint256"
        }
      ],
      "name": "ContractWithdrawn",
      "type": "event"
    },
    {
      "anonymous": false,
      "inputs": [
        {
          "indexed": true,
          "name": "_party",
          "type": "address"
        },
        {
          "indexed": false,
          "name": "_dispersal",
          "type": "uint256[]"
        }
      ],
      "name": "ContractDisputed",
      "type": "event"
    },
    {
      "anonymous": false,
      "inputs": [
        {
          "indexed": true,
          "name": "_party",
          "type": "address"
        },
        {
          "indexed": false,
          "name": "_dispersal",
          "type": "uint256[]"
        }
      ],
      "name": "ContractDisputeDispersalAmended",
      "type": "event"
    },
    {
      "anonymous": false,
      "inputs": [
        {
          "indexed": false,
          "name": "_oldDisputeEnds",
          "type": "uint256"
        },
        {
          "indexed": false,
          "name": "_newDisputeEnds",
          "type": "uint256"
        }
      ],
      "name": "DisputeEndsAdjusted",
      "type": "event"
    },
    {
      "anonymous": false,
      "inputs": [
        {
          "indexed": false,
          "name": "_voter",
          "type": "address"
        },
        {
          "indexed": false,
          "name": "_party",
          "type": "address"
        },
        {
          "indexed": false,
          "name": "_amount",
          "type": "uint256"
        }
      ],
      "name": "VoteCast",
      "type": "event"
    },
    {
      "anonymous": false,
      "inputs": [
        {
          "indexed": false,
          "name": "_voter",
          "type": "address"
        },
        {
          "indexed": false,
          "name": "_tokenAmount",
          "type": "uint256"
        }
      ],
      "name": "VoterPayout",
      "type": "event"
    },
    {
      "anonymous": false,
      "inputs": [
        {
          "indexed": false,
          "name": "_party",
          "type": "address"
        },
        {
          "indexed": false,
          "name": "_tokenAmount",
          "type": "uint256"
        }
      ],
      "name": "PartyPayout",
      "type": "event"
    },
    {
      "constant": false,
      "inputs": [
        {
          "name": "_blockNumber",
          "type": "uint256"
        }
      ],
      "name": "setMockedBlockNumber",
      "outputs": [],
      "payable": false,
      "stateMutability": "nonpayable",
      "type": "function"
    },
    {
      "constant": false,
      "inputs": [
        {
          "name": "_mockedNow",
          "type": "uint256"
        }
      ],
      "name": "setMockedNow",
      "outputs": [],
      "payable": false,
      "stateMutability": "nonpayable",
      "type": "function"
    }
  ],
  "bytecode": "0x608060405262093a8060015562015180600255610708600381905560045566b1a2bc2ec50000600555662386f26fc10000600655601b805460ff191690556000601c819055601d553480156200005457600080fd5b506040516200388838038062003888833981016040908152815160208301519183015160608401516080850151918501805193959485019490939101919085908590859085908590600090819081906002148015620000b4575084516002145b8015620000c2575086516002145b1515620000ce57600080fd5b866000815181101515620000de57fe5b90602001906020020151600160a060020a03166000141580156200012557508660018151811015156200010d57fe5b90602001906020020151600160a060020a0316600014155b15156200013157600080fd5b5060009150819050805b86518160ff161015620002b657600160086000898460ff168151811015156200016057fe5b602090810291909101810151600160a060020a03168252810191909152604001600020805460ff19169115159190911790558551869060ff8316908110620001a457fe5b9060200190602002015160096000898460ff16815181101515620001c457fe5b6020908102909101810151600160a060020a03168252810191909152604001600020558451859060ff8316908110620001f957fe5b90602001906020020151600a6000898460ff168151811015156200021957fe5b6020908102909101810151600160a060020a031682528101919091526040016000205585516200027390879060ff84169081106200025357fe5b602090810290910101518390640100000000620024ea6200042182021704565b9150620002ab858260ff168151811015156200028b57fe5b602090810290910101518490640100000000620024ea6200042182021704565b92506001016200013b565b828214620002c357600080fd5b8651620002d89060079060208a019062000435565b50600e84905560008054600160a060020a031916600160a060020a038a161790558651879060019081106200030957fe5b90602001906020020151600160a060020a03168760008151811015156200032c57fe5b90602001906020020151600160a060020a03167f18a9c4249303b74ecff5e58f4dcc486cd7de84cd3feec18d74f4c9216963fb9e8888886040518080602001806020018460001916600019168152602001838103835286818151815260200191508051906020019060200280838360005b83811015620003b75781810151838201526020016200039d565b50505050905001838103825285818151815260200191508051906020019060200280838360005b83811015620003f8578181015183820152602001620003de565b505050509050019550505050505060405180910390a350505050505050505050505050620004c9565b818101828110156200042f57fe5b92915050565b8280548282559060005260206000209081019282156200048d579160200282015b828111156200048d5782518254600160a060020a031916600160a060020a0390911617825560209092019160019091019062000456565b506200049b9291506200049f565b5090565b620004c691905b808211156200049b578054600160a060020a0319168155600101620004a6565b90565b6133af80620004d96000396000f3006080604052600436106102425763ffffffff60e060020a60003504166302edcbfb8114610247578063049f2d8a146102d95780630ab55d0b1461030c5780630d15fd771461032157806312feb4a714610336578063188c0e431461034b5780631ff2e2141461036057806321979f5f146103fe57806325ce690b146104165780632731c6c6146104375780632a50b5441461044c5780632ca15122146104615780632efab6fa146104765780632f36cacf1461048b57806337c2afda146104e55780633ad17f6d1461050657806341e60c861461054157806344633297146105565780634f2352071461057d5780634f802f8a146105b257806352e18f33146105c75780635a9e17a7146105dc5780635cfe585a146105f15780635e2c19db146106065780635f068b43146106275780635f74bbde1461065857806360d505961461067c57806364a8a11f14610694578063682644fd146106be57806368e664bd146106df5780636eae555d1461070057806374e6cfd3146107555780638b90dc94146107765780638bfb85c31461078b5780638e7ea5b2146107a05780638fae60a5146107b5578063911058df146107ca578063918c9373146107e2578063994d4060146107f75780639cff621a14610818578063a7e92fb51461082d578063adef40db14610842578063b40b7841146108a9578063b7c1ae81146108be578063bf6a1413146108df578063c0c6a68a14610900578063c19d93fb14610918578063d5e03fc614610951578063f585dc5714610966578063fc7631761461097b575b600080fd5b34801561025357600080fd5b50604080516020600480358082013583810280860185019096528085526102d795369593946024949385019291829185019084908082843750506040805187358901803560208181028481018201909552818452989b9a998901989297509082019550935083925085019084908082843750949750509335945061099c9350505050565b005b3480156102e557600080fd5b506102fa600160a060020a03600435166109ad565b60408051918252519081900360200190f35b34801561031857600080fd5b506102fa6109bf565b34801561032d57600080fd5b506102fa6109c5565b34801561034257600080fd5b506102fa6109cb565b34801561035757600080fd5b506102fa6109d1565b34801561036c57600080fd5b506040805160206004602480358281013584810280870186019097528086526102d7968435600160a060020a031696369660449591949091019291829185019084908082843750506040805187358901803560208181028481018201909552818452989b9a99890198929750908201955093508392508501908490808284375094975050933594506109d79350505050565b34801561040a57600080fd5b506102d7600435610a04565b34801561042257600080fd5b506102fa600160a060020a0360043516610e1b565b34801561044357600080fd5b506102fa610e2d565b34801561045857600080fd5b506102fa610e33565b34801561046d57600080fd5b506102d7610e39565b34801561048257600080fd5b506102fa610e44565b34801561049757600080fd5b506040805160206004602480358281013584810280870186019097528086526102d796843596369660449591949091019291829185019084908082843750949750610e4a9650505050505050565b3480156104f157600080fd5b506102d7600160a060020a0360043516610e59565b34801561051257600080fd5b5061051b610e80565b60408051600160a060020a03938416815291909216602082015281519081900390910190f35b34801561054d57600080fd5b506102d7610fc2565b34801561056257600080fd5b506102fa600160a060020a036004358116906024351661113e565b34801561058957600080fd5b5061059e600160a060020a036004351661115b565b604080519115158252519081900360200190f35b3480156105be57600080fd5b506102d7611170565b3480156105d357600080fd5b506102fa611478565b3480156105e857600080fd5b506102fa61147e565b3480156105fd57600080fd5b506102fa611484565b34801561061257600080fd5b5061059e600160a060020a03600435166116b1565b34801561063357600080fd5b5061063c6116c6565b60408051600160a060020a039092168252519081900360200190f35b34801561066457600080fd5b506102d7600160a060020a03600435166024356116d5565b34801561068857600080fd5b5061063c6004356116e0565b3480156106a057600080fd5b506102d7600160a060020a0360043581169060243516604435611708565b3480156106ca57600080fd5b5061059e600160a060020a036004351661172e565b3480156106eb57600080fd5b5061059e600160a060020a0360043516611743565b34801561070c57600080fd5b50604080516020600480358082013583810280860185019096528085526102d7953695939460249493850192918291850190849080828437509497506117589650505050505050565b34801561076157600080fd5b506102fa600160a060020a0360043516611970565b34801561078257600080fd5b5061059e611982565b34801561079757600080fd5b506102d761198b565b3480156107ac57600080fd5b5061063c611994565b3480156107c157600080fd5b506102d7611a89565b3480156107d657600080fd5b506102d7600435611bcc565b3480156107ee57600080fd5b506102fa611c07565b34801561080357600080fd5b506102fa600160a060020a0360043516611c0d565b34801561082457600080fd5b506102d7611c1f565b34801561083957600080fd5b506102d7611e59565b34801561084e57600080fd5b5060408051602060046044358181013583810280860185019096528085526102d7958335600160a060020a0316956024803596369695606495939492019291829185019084908082843750949750611f0e9650505050505050565b3480156108b557600080fd5b506102fa611f34565b3480156108ca57600080fd5b506102fa600160a060020a0360043516611f3a565b3480156108eb57600080fd5b5061059e600160a060020a0360043516611f4c565b34801561090c57600080fd5b506102d7600435611f61565b34801561092457600080fd5b5061092d611f9c565b6040518082600581111561093d57fe5b60ff16815260200191505060405180910390f35b34801561095d57600080fd5b506102d7611fa5565b34801561097257600080fd5b506102fa6121b7565b34801561098757600080fd5b506102d7600160a060020a03600435166121bd565b6109a8338484846121e1565b505050565b600a6020526000908152604090205481565b600e5481565b60175481565b60165481565b600f5481565b60005433600160a060020a039081169116146109f257600080fd5b6109fe848484846121e1565b50505050565b600080808080808080600380601b5460ff166005811115610a2157fe5b14610a2b57600080fd5b610a33611484565b6016549099508914610a8357601654604080518b8152602081019290925280517f04e9f9a05f2b0f7b76cbaeafc40a3136a1870f82f8eff85e766f7eb868a8b9e09281900390910190a160168990555b601654610a8e612477565b1015610a9957600080fd5b610aa1610e80565b600160a060020a038216600090815260196020526040902054601754929a50909850610ad3919063ffffffff61247d16565b600160a060020a03881660009081526019602052604081205491975090955093508515610b2557610b2285610b1688670de0b6b3a764000063ffffffff61249416565b9063ffffffff6124bd16565b93505b600092508991505b600160a060020a033381166000908152601a60209081526040808320938c1683529290522054821015610d1357600160a060020a033381166000908152601a60209081526040808320938c16835292905220805483908110610b8b57fe5b600091825260209091206002600390920201015460ff161515610d0857600160a060020a033381166000908152601a60209081526040808320938c16835292905220805486919084908110610bdc57fe5b906000526020600020906003020160010154101515610bfa57610d13565b600160a060020a033381166000908152601a60209081526040808320938c168352929052208054610cae91610ca191610c59919086908110610c3857fe5b9060005260206000209060030201600101548861247d90919063ffffffff16565b600160a060020a033381166000908152601a60209081526040808320938f16835292905220805486908110610c8a57fe5b9060005260206000209060030201600001546124d2565b849063ffffffff6124ea16565b600160a060020a033381166000908152601a60209081526040808320938d16835292905220805491945060019184908110610ce557fe5b60009182526020909120600390910201600201805460ff19169115159190911790555b600190910190610b2d565b600054600160a060020a031663a9059cbb33610d35868863ffffffff61249416565b6040518363ffffffff1660e060020a0281526004018083600160a060020a0316600160a060020a0316815260200182815260200192505050602060405180830381600087803b158015610d8757600080fd5b505af1158015610d9b573d6000803e3d6000fd5b505050506040513d6020811015610db157600080fd5b50511515610dbb57fe5b7f9001ab89f4ed649b6c20a790e2bdeebce84d1843d739a56a1f77a4410a200d1833610ded858763ffffffff61249416565b60408051600160a060020a03909316835260208301919091528051918290030190a150505050505050505050565b60096020526000908152604090205481565b60015481565b60025481565b610e42336124f7565b565b60065481565b610e553383836126ff565b5050565b60005433600160a060020a03908116911614610e7457600080fd5b610e7d816124f7565b50565b600080600080600080610e91611994565b9350600160a060020a03841615610ea9576000610ece565b600780546000908110610eb857fe5b600091825260209091200154600160a060020a03165b600160a060020a03811660009081526019602052604081205491945090925090505b60075460ff82161015610fb7576019600060078360ff16815481101515610f1357fe5b6000918252602080832090910154600160a060020a0316835282019290925260400190205482108015610f6e57506007805460ff8316908110610f5257fe5b600091825260209091200154600160a060020a03858116911614155b15610faf576007805460ff8316908110610f8457fe5b6000918252602080832090910154600160a060020a0316808352601990915260409091205490935091505b600101610ef0565b509194909350915050565b600080601b5460ff166005811115610fd657fe5b14610fe057600080fd5b600160a060020a03331660009081526008602052604090205460ff16151561100757600080fd5b600160a060020a03331660009081526010602052604090205460ff16151561102e57600080fd5b600160a060020a033381166000818152601060209081526040808320805460ff191690558254600a83528184205482517fa9059cbb00000000000000000000000000000000000000000000000000000000815260048101969096526024860152905194169363a9059cbb93604480820194918390030190829087803b1580156110b657600080fd5b505af11580156110ca573d6000803e3d6000fd5b505050506040513d60208110156110e057600080fd5b505115156110ed57600080fd5b600160a060020a0333166000818152600a602090815260409182902054825190815291517ff915f6adcfba53634fa63225573ad1f78d2f842387fe91379c27c14a259537cf9281900390910190a250565b600d60209081526000928352604080842090915290825290205481565b60086020526000908152604090205460ff1681565b600080600180601b5460ff16600581111561118757fe5b1461119157600080fd5b600160a060020a03331660009081526008602052604090205460ff1615156111b857600080fd5b60145460ff1615156111c957600080fd5b6014805460ff19169055600092505b60075460ff8416101561143f576013600060078560ff168154811015156111fb57fe5b6000918252602080832090910154600160a060020a0316835282019290925260400190205460ff16156114345760006013600060078660ff1681548110151561124057fe5b600091825260208083209190910154600160a060020a031683528201929092526040018120805460ff19169215159290921790915560078054600a92919060ff871690811061128b57fe5b6000918252602080832090910154600160a060020a03168352820192909252604001812054600780549192600c9290919060ff88169081106112c957fe5b6000918252602080832090910154600160a060020a0316835282019290925260400190205411156114345761137c600a600060078660ff1681548110151561130d57fe5b6000918252602080832090910154600160a060020a03168352820192909252604001812054600780549192600c9290919060ff891690811061134b57fe5b6000918252602080832090910154600160a060020a031683528201929092526040019020549063ffffffff61247d16565b60005460078054929450600160a060020a039091169163a9059cbb919060ff87169081106113a657fe5b60009182526020808320909101546040805160e060020a63ffffffff8716028152600160a060020a039092166004830152602482018890525160448083019491928390030190829087803b1580156113fd57600080fd5b505af1158015611411573d6000803e3d6000fd5b505050506040513d602081101561142757600080fd5b5051151561143457600080fd5b6001909201916111d8565b604051600160a060020a033316907fc42ff889a5bf104cb88fddd83f34d59c6162fb4c97c5c075d3e5143b977407d090600090a2505050565b60055481565b60185481565b600080808080600380601b5460ff16600581111561149e57fe5b146114a857600080fd5b6016546114b3612477565b10156114be576116a9565b6114e1670de0b6b3a7640000610b1660055460175461249490919063ffffffff16565b601854111561150b5760006018556004546016546115049163ffffffff6124ea16565b95506116a9565b600080805260196020527fd2ac945fcc0096878c763e37d6929b78378c1a2defabde8ba7ee5ed1d6e7a5b254955093505b60075460ff851610156115d457846019600060078760ff1681548110151561156057fe5b6000918252602080832090910154600160a060020a0316835282019290925260400190205411156115c9576019600060078660ff168154811015156115a157fe5b6000918252602080832090910154600160a060020a0316835282019290925260400190205494505b60019093019261153c565b600080805260196020527fd2ac945fcc0096878c763e37d6929b78378c1a2defabde8ba7ee5ed1d6e7a5b254909350851415611611578260010192505b600091505b60075460ff8316101561167757846019600060078560ff1681548110151561163a57fe5b6000918252602080832090910154600160a060020a03168352820192909252604001902054141561166c578260010192505b600190910190611616565b60018360ff1611156116a357600060185560045461150490611697612477565b9063ffffffff6124ea16565b60165495505b505050505090565b60126020526000908152604090205460ff1681565b600054600160a060020a031681565b610e55338383612a40565b60078054829081106116ee57fe5b600091825260209091200154600160a060020a0316905081565b60005433600160a060020a0390811691161461172357600080fd5b6109a8838383612a40565b60116020526000908152604090205460ff1681565b60136020526000908152604090205460ff1681565b60008080600380601b5460ff16600581111561177057fe5b1461177a57600080fd5b600160a060020a03331660009081526008602052604090205460ff1615156117a157600080fd5b6007548551146117b057600080fd5b6015546117bb612477565b106117c557600080fd5b6000935060009250600091505b60075460ff831610156118de57848260ff168151811015156117f057fe5b90602001906020020151600d600033600160a060020a0316600160a060020a03168152602001908152602001600020600060078560ff1681548110151561183357fe5b6000918252602080832090910154600160a060020a03168352820192909252604001902055845161188490869060ff851690811061186d57fe5b60209081029091010151859063ffffffff6124ea16565b93506118d1600a600060078560ff1681548110151561189f57fe5b6000918252602080832090910154600160a060020a03168352820192909252604001902054849063ffffffff6124ea16565b92506001909101906117d2565b8383146118ea57600080fd5b33600160a060020a03167fe98983adb63591508c2f748970470e7487b3bebd763d08abc3334beeb72a00b0866040518080602001828103825283818151815260200191508051906020019060200280838360005b8381101561195657818101518382015260200161193e565b505050509050019250505060405180910390a25050505050565b60196020526000908152604090205481565b60145460ff1681565b610e4233612d7a565b600080805260196020527fd2ac945fcc0096878c763e37d6929b78378c1a2defabde8ba7ee5ed1d6e7a5b25481805b60075460ff82161015611a82576019600060078360ff168154811015156119e657fe5b6000918252602080832090910154600160a060020a03168352820192909252604001902054831015611a7a576019600060078360ff16815481101515611a2857fe5b6000918252602080832090910154600160a060020a03168352820192909252604001902054600780549194509060ff8316908110611a6257fe5b600091825260209091200154600160a060020a031691505b6001016119c3565b5092915050565b600080600180601b5460ff166005811115611aa057fe5b14611aaa57600080fd5b600160a060020a03331660009081526008602052604090205460ff161515611ad157600080fd5b600160a060020a03331660009081526011602052604090205460ff1615611af757600080fd5b600160a060020a0333166000908152601160205260408120805460ff19166001908117909155935091505b60075460ff83161015611b8357828015611b7657506011600060078460ff16815481101515611b4d57fe5b6000918252602080832090910154600160a060020a0316835282019290925260400190205460ff165b9250600190910190611b22565b8215611b9357611b9360026132ce565b604051600160a060020a033316907fcdfedae112bb2610775e69a6ffd348e7dfdd996e3fb3a5f6d46b52651867b49790600090a2505050565b601d8190556040805182815290517ff54bf4ed226aa1df732802a8bd56e85755aab0a0ef7c2fbf204cf0de0765f0739181900360200190a150565b60155481565b600b6020526000908152604090205481565b600080600280601b5460ff166005811115611c3657fe5b14611c4057600080fd5b600160a060020a03331660009081526008602052604090205460ff161515611c6757600080fd5b600160a060020a03331660009081526012602052604090205460ff1615611c8d57600080fd5b600160a060020a033381166000818152601260209081526040808320805460ff191660011790558254600983528184205482517fa9059cbb00000000000000000000000000000000000000000000000000000000815260048101969096526024860152905194169363a9059cbb93604480820194918390030190829087803b158015611d1857600080fd5b505af1158015611d2c573d6000803e3d6000fd5b505050506040513d6020811015611d4257600080fd5b50511515611d4f57600080fd5b60019250600091505b60075460ff83161015611dfb57828015611dee57506012600060078460ff16815481101515611d8357fe5b6000918252602080832090910154600160a060020a0316835282019290925260400190205460ff1680611dee57506009600060078460ff16815481101515611dc757fe5b6000918252602080832090910154600160a060020a03168352820192909252604001902054155b9250600190910190611d58565b600160a060020a03331660008181526009602090815260409182902054825190815291517f76cc4dd05e1fc280969f3363b5db432911cddfadcfae9bef818a492c0f8d57329281900390910190a282156109a8576109a860046132ce565b600180601b5460ff166005811115611e6d57fe5b14611e7757600080fd5b600160a060020a03331660009081526008602052604090205460ff161515611e9e57600080fd5b600160a060020a03331660009081526011602052604090205460ff161515611ec557600080fd5b600160a060020a033316600081815260116020526040808220805460ff19169055517f6faffafe1cb6a0bf26e66cc0178734aa9fe07d7c6961884c4a93920423c0bd0e9190a250565b60005433600160a060020a03908116911614611f2957600080fd5b6109a88383836126ff565b60045481565b600c6020526000908152604090205481565b60106020526000908152604090205460ff1681565b601c8190556040805182815290517fb5650d845cdd2d20be38618a709ffc597b681b4a60ec873333f2959dead54e399181900360200190a150565b601b5460ff1681565b60008080600380601b5460ff166005811115611fbd57fe5b14611fc757600080fd5b600160a060020a03331660009081526008602052604090205460ff161515611fee57600080fd5b611ff6611484565b60165490945084146120465760165460408051868152602081019290925280517f04e9f9a05f2b0f7b76cbaeafc40a3136a1870f82f8eff85e766f7eb868a8b9e09281900390910190a160168490555b601654612051612477565b101561205c57600080fd5b600160a060020a03331660009081526012602052604090205460ff161561208257600080fd5b600160a060020a0333166000908152601260205260409020805460ff191660011790556120ad611994565b600160a060020a038082166000908152600d6020908152604080832033851680855290835281842054845483517fa9059cbb0000000000000000000000000000000000000000000000000000000081526004810193909352602483018290529251969950975093169363a9059cbb93604480820194918390030190829087803b15801561213957600080fd5b505af115801561214d573d6000803e3d6000fd5b505050506040513d602081101561216357600080fd5b5051151561216d57fe5b60408051600160a060020a03331681526020810184905281517f529314119e568ebeb046e7fb288642e03aea33279f2f6762afd0e56a74c7aa42929181900390910190a150505050565b60035481565b60005433600160a060020a039081169116146121d857600080fd5b610e7d81612d7a565b60008080600180601b5460ff1660058111156121f957fe5b1461220357600080fd5b600160a060020a038816600090815260086020526040902054889060ff16151561222c57600080fd5b60145460ff161561223c57600080fd5b6014805460ff19166001179055600754885114801561225d57506007548751145b151561226857600080fd5b6000945060009350600092505b60075460ff8416101561237d57878360ff1681518110151561229357fe5b90602001906020020151600b600060078660ff168154811015156122b357fe5b6000918252602080832090910154600160a060020a031683528201929092526040019020558651879060ff85169081106122e957fe5b90602001906020020151600c600060078660ff1681548110151561230957fe5b6000918252602080832090910154600160a060020a03168352820192909252604001902055875161234390899060ff861690811061186d57fe5b9350612370878460ff1681518110151561235957fe5b60209081029091010151869063ffffffff6124ea16565b9450600190920191612275565b84841461238957600080fd5b600f86905561239789612d7a565b88600160a060020a03167fd33aabc7fc9a1f5861dc19acc754cc8fe8c4400063f1e32d2bf90ac64b628daf8989896040518080602001806020018460001916600019168152602001838103835286818151815260200191508051906020019060200280838360005b838110156124175781810151838201526020016123ff565b50505050905001838103825285818151815260200191508051906020019060200280838360005b8381101561245657818101518382015260200161243e565b505050509050019550505050505060405180910390a2505050505050505050565b601d5490565b60008282111561248957fe5b508082035b92915050565b60008215156124a55750600061248e565b508181028183828115156124b557fe5b041461248e57fe5b600081838115156124ca57fe5b049392505050565b60008183106124e157816124e3565b825b9392505050565b8181018281101561248e57fe5b6000808080601b5460ff16600581111561250d57fe5b1461251757600080fd5b600160a060020a038416600090815260086020526040902054849060ff16151561254057600080fd5b600160a060020a03851660009081526010602052604090205460ff161561256657600080fd5b600160a060020a038086166000818152601060209081526040808320805460ff191660011790558254600a83528184205482517f23b872dd00000000000000000000000000000000000000000000000000000000815260048101969096523087166024870152604486015290519416936323b872dd93606480820194918390030190829087803b1580156125f957600080fd5b505af115801561260d573d6000803e3d6000fd5b505050506040513d602081101561262357600080fd5b5051151561263057600080fd5b60019350600092505b60075460ff8416101561269a5783801561268d57506010600060078560ff1681548110151561266457fe5b6000918252602080832090910154600160a060020a0316835282019290925260400190205460ff165b9350600190920191612639565b83156126aa576126aa60016132ce565b600160a060020a0385166000818152600a602090815260409182902054825190815291517fa8cc9409769b9614f3ae4056957bfbb32d986e4b61c886b5e29b324b5bf92d0a9281900390910190a25050505050565b6000808080600180601b5460ff16600581111561271857fe5b1461272257600080fd5b600160a060020a038816600090815260086020526040902054889060ff16151561274b57600080fd5b60075487511461275a57600080fd5b61276460036132ce565b6000955060009450600093505b60075460ff8516101561287d57868460ff1681518110151561278f57fe5b90602001906020020151600d60008b600160a060020a0316600160a060020a03168152602001908152602001600020600060078760ff168154811015156127d257fe5b6000918252602080832090910154600160a060020a03168352820192909252604001902055865161282390889060ff871690811061280c57fe5b60209081029091010151879063ffffffff6124ea16565b9550612870600a600060078760ff1681548110151561283e57fe5b6000918252602080832090910154600160a060020a03168352820192909252604001902054869063ffffffff6124ea16565b9450600190930192612771565b85851461288957600080fd5b6128aa670de0b6b3a7640000610b166006548861249490919063ffffffff16565b8810156128b657600080fd5b6128c96128c1612477565b6002546124ea565b60158190556001546128db91906124ea565b6016556017889055600092505b60075460ff841610156129ab5788600160a060020a031660078460ff1681548110151561291157fe5b600091825260209091200154600160a060020a0316146129a05784600d600060078660ff1681548110151561294257fe5b6000918252602080832090910154600160a060020a0316835282019290925260400181206007805491929160ff881690811061297a57fe5b6000918252602080832090910154600160a060020a031683528201929092526040019020555b6001909201916128e8565b88600160a060020a03167f978fff33bfee4716da21bf89e67d0757d6550d4b6f53676919de1d1d209f5ef0886040518080602001828103825283818151815260200191508051906020019060200280838360005b83811015612a175781810151838201526020016129ff565b505050509050019250505060405180910390a2612a35898a8a612a40565b505050505050505050565b6000612a4a61335f565b600380601b5460ff166005811115612a5e57fe5b14612a6857600080fd5b612a70611484565b6016549093508314612ac05760165460408051858152602081019290925280517f04e9f9a05f2b0f7b76cbaeafc40a3136a1870f82f8eff85e766f7eb868a8b9e09281900390910190a160168390555b601654612acb612477565b10612ad557600080fd5b601554612ae0612477565b101580612b055750600160a060020a03861660009081526008602052604090205460ff165b1515612b1057600080fd5b600160a060020a03851660009081526008602052604090205460ff1680612b3e5750600160a060020a038516155b1515612b4957600080fd5b612b6c670de0b6b3a7640000610b1660065460175461249490919063ffffffff16565b841015612b7857600080fd5b60408051606081018252858152600160a060020a038088166000908152601960209081528482205481850152838501829052815485517f23b872dd0000000000000000000000000000000000000000000000000000000081528c851660048201523085166024820152604481018b90529551949750909216936323b872dd936064808301949391928390030190829087803b158015612c1657600080fd5b505af1158015612c2a573d6000803e3d6000fd5b505050506040513d6020811015612c4057600080fd5b50511515612c4d57600080fd5b601654612c629061070863ffffffff61247d16565b612c6a612477565b10612c8657601854612c82908563ffffffff6124ea16565b6018555b601754612c99908563ffffffff6124ea16565b601755600160a060020a038516600090815260196020526040902054612cc5908563ffffffff6124ea16565b600160a060020a03868116600081815260196020908152604080832095909555928a16808252601a845284822083835284528482208054600180820183559184529285902088516003909402019283558785015190830155868501516002909201805460ff19169215159290921790915583519081529182015280820186905290517f484413c33463e7d976e3ded2a85b0c31610d0906977df2cd9cbd6d12a6872a84916060908290030190a1505050505050565b600080808080600180601b5460ff166005811115612d9457fe5b14612d9e57600080fd5b600160a060020a038716600090815260086020526040902054879060ff161515612dc757600080fd5b60145460ff161515612dd857600080fd5b600160a060020a03881660009081526013602052604090205460ff1615612dfe57600080fd5b600160a060020a0388166000908152601360209081526040808320805460ff19166001179055600a825280832054600c909252909120541115612f2157600160a060020a0388166000908152600a6020908152604080832054600c90925290912054612e6f9163ffffffff61247d16565b60008054604080517f23b872dd000000000000000000000000000000000000000000000000000000008152600160a060020a038d811660048301523081166024830152604482018690529151949b509116926323b872dd92606480840193602093929083900390910190829087803b158015612eea57600080fd5b505af1158015612efe573d6000803e3d6000fd5b505050506040513d6020811015612f1457600080fd5b50511515612f2157600080fd5b60019550600094505b60075460ff86161015612f8b57858015612f7e57506013600060078760ff16815481101515612f5557fe5b6000918252602080832090910154600160a060020a0316835282019290925260400190205460ff165b9550600190940193612f2a565b604051600160a060020a038916907fa49e1bf6eca68fcbe0f530f9389e60870664cb4b8cd290ade9d0fe3b7c4d9c7590600090a285156132c4576014805460ff19169055600093505b60075460ff851610156132bd5760006013600060078760ff16815481101515612ff957fe5b600091825260208083209190910154600160a060020a031683528201929092526040018120805460ff19169215159290921790915560078054600a92919060ff881690811061304457fe5b6000918252602080832090910154600160a060020a03168352820192909252604001812054600780549192600c9290919060ff891690811061308257fe5b6000918252602080832090910154600160a060020a0316835282019290925260400190205410156131bc57613104600c600060078760ff168154811015156130c657fe5b6000918252602080832090910154600160a060020a03168352820192909252604001812054600780549192600a9290919060ff8a1690811061134b57fe5b60005460078054929550600160a060020a039091169163a9059cbb919060ff881690811061312e57fe5b60009182526020808320909101546040805160e060020a63ffffffff8716028152600160a060020a039092166004830152602482018990525160448083019491928390030190829087803b15801561318557600080fd5b505af1158015613199573d6000803e3d6000fd5b505050506040513d60208110156131af57600080fd5b505115156131bc57600080fd5b600c600060078660ff168154811015156131d257fe5b6000918252602080832090910154600160a060020a03168352820192909252604001812054600780549192600a9290919060ff891690811061321057fe5b6000918252602080832090910154600160a060020a0316835282019290925260400181209190915560078054600b92919060ff881690811061324e57fe5b6000918252602080832090910154600160a060020a0316835282019290925260400181205460078054919260099290919060ff891690811061328c57fe5b6000918252602080832090910154600160a060020a0316835282019290925260400190205560019390930192612fd4565b600f54600e555b5050505050505050565b601b547f7a86a836fcb7b1724e95db8cca29b460e17febee51b6f03e272720350340352e9060ff16826132ff612477565b6040518084600581111561330f57fe5b60ff16815260200183600581111561332357fe5b60ff168152602001828152602001935050505060405180910390a1601b805482919060ff1916600183600581111561335757fe5b021790555050565b606060405190810160405280600081526020016000815260200160001515815250905600a165627a7a72305820bc0a902ad8ce0cb017b263a91e8c2cc76891a99a146cec7e34c735c382aab0890029",
  "source": "pragma solidity ^0.4.23;\n\nimport \"../Arbitration.sol\";\n\ncontract ArbitrationMock is Arbitration {\n\n  event MockBlockNumber(uint256 _blockNumber);\n  event MockNow(uint256 _mockedNow);\n\n  uint blockNumber = 0;\n\n  uint mockedNow = 0;\n\n  constructor(address _jurToken, address[] _parties, uint256[] _dispersal, uint256[] _funding, bytes32 _agreementHash) public\n    Arbitration(_jurToken, _parties, _dispersal, _funding, _agreementHash)\n  {\n\n  }\n\n  function getBlockNumber() view internal returns (uint) {\n      return blockNumber;\n  }\n\n  function setMockedBlockNumber(uint256 _blockNumber) public {\n      blockNumber = _blockNumber;\n      emit MockBlockNumber(blockNumber);\n  }\n\n  function getNow() view internal returns (uint256) {\n      return mockedNow;\n  }\n\n  function setMockedNow(uint256 _mockedNow) public {\n      mockedNow = _mockedNow;\n      emit MockNow(mockedNow);\n  }\n\n}\n",
  "sourcePath": "/Users/adamdossa/Development/Ethereum/mvp-smart-contract/contracts/mock/ArbitrationMock.sol",
  "compiler": {
    "name": "solc",
    "version": "0.4.23+commit.124ca40d.Emscripten.clang"
  },
  "schemaVersion": "2.0.0",
  "updatedAt": "2018-06-05T14:06:13.661Z"
}