{
  "contractName": "JURToken",
  "abi": [
    {
      "constant": true,
      "inputs": [],
      "name": "mintingFinished",
      "outputs": [
        {
          "name": "",
          "type": "bool"
        }
      ],
      "payable": false,
      "stateMutability": "view",
      "type": "function"
    },
    {
      "constant": false,
      "inputs": [
        {
          "name": "_spender",
          "type": "address"
        },
        {
          "name": "_value",
          "type": "uint256"
        }
      ],
      "name": "approve",
      "outputs": [
        {
          "name": "",
          "type": "bool"
        }
      ],
      "payable": false,
      "stateMutability": "nonpayable",
      "type": "function"
    },
    {
      "constant": true,
      "inputs": [],
      "name": "totalSupply",
      "outputs": [
        {
          "name": "",
          "type": "uint256"
        }
      ],
      "payable": false,
      "stateMutability": "view",
      "type": "function"
    },
    {
      "constant": false,
      "inputs": [
        {
          "name": "_from",
          "type": "address"
        },
        {
          "name": "_to",
          "type": "address"
        },
        {
          "name": "_value",
          "type": "uint256"
        }
      ],
      "name": "transferFrom",
      "outputs": [
        {
          "name": "",
          "type": "bool"
        }
      ],
      "payable": false,
      "stateMutability": "nonpayable",
      "type": "function"
    },
    {
      "constant": false,
      "inputs": [
        {
          "name": "_to",
          "type": "address"
        },
        {
          "name": "_amount",
          "type": "uint256"
        }
      ],
      "name": "mint",
      "outputs": [
        {
          "name": "",
          "type": "bool"
        }
      ],
      "payable": false,
      "stateMutability": "nonpayable",
      "type": "function"
    },
    {
      "constant": false,
      "inputs": [
        {
          "name": "_spender",
          "type": "address"
        },
        {
          "name": "_subtractedValue",
          "type": "uint256"
        }
      ],
      "name": "decreaseApproval",
      "outputs": [
        {
          "name": "",
          "type": "bool"
        }
      ],
      "payable": false,
      "stateMutability": "nonpayable",
      "type": "function"
    },
    {
      "constant": true,
      "inputs": [
        {
          "name": "_owner",
          "type": "address"
        }
      ],
      "name": "balanceOf",
      "outputs": [
        {
          "name": "",
          "type": "uint256"
        }
      ],
      "payable": false,
      "stateMutability": "view",
      "type": "function"
    },
    {
      "constant": false,
      "inputs": [],
      "name": "finishMinting",
      "outputs": [
        {
          "name": "",
          "type": "bool"
        }
      ],
      "payable": false,
      "stateMutability": "nonpayable",
      "type": "function"
    },
    {
      "constant": true,
      "inputs": [],
      "name": "owner",
      "outputs": [
        {
          "name": "",
          "type": "address"
        }
      ],
      "payable": false,
      "stateMutability": "view",
      "type": "function"
    },
    {
      "constant": false,
      "inputs": [
        {
          "name": "_to",
          "type": "address"
        },
        {
          "name": "_value",
          "type": "uint256"
        }
      ],
      "name": "transfer",
      "outputs": [
        {
          "name": "",
          "type": "bool"
        }
      ],
      "payable": false,
      "stateMutability": "nonpayable",
      "type": "function"
    },
    {
      "constant": false,
      "inputs": [
        {
          "name": "_spender",
          "type": "address"
        },
        {
          "name": "_addedValue",
          "type": "uint256"
        }
      ],
      "name": "increaseApproval",
      "outputs": [
        {
          "name": "",
          "type": "bool"
        }
      ],
      "payable": false,
      "stateMutability": "nonpayable",
      "type": "function"
    },
    {
      "constant": true,
      "inputs": [
        {
          "name": "_owner",
          "type": "address"
        },
        {
          "name": "_spender",
          "type": "address"
        }
      ],
      "name": "allowance",
      "outputs": [
        {
          "name": "",
          "type": "uint256"
        }
      ],
      "payable": false,
      "stateMutability": "view",
      "type": "function"
    },
    {
      "constant": false,
      "inputs": [
        {
          "name": "newOwner",
          "type": "address"
        }
      ],
      "name": "transferOwnership",
      "outputs": [],
      "payable": false,
      "stateMutability": "nonpayable",
      "type": "function"
    },
    {
      "inputs": [
        {
          "name": "_allowedFunctions",
          "type": "bytes4[]"
        }
      ],
      "payable": false,
      "stateMutability": "nonpayable",
      "type": "constructor"
    },
    {
      "anonymous": false,
      "inputs": [
        {
          "indexed": true,
          "name": "to",
          "type": "address"
        },
        {
          "indexed": false,
          "name": "amount",
          "type": "uint256"
        }
      ],
      "name": "Mint",
      "type": "event"
    },
    {
      "anonymous": false,
      "inputs": [],
      "name": "MintFinished",
      "type": "event"
    },
    {
      "anonymous": false,
      "inputs": [
        {
          "indexed": true,
          "name": "previousOwner",
          "type": "address"
        },
        {
          "indexed": true,
          "name": "newOwner",
          "type": "address"
        }
      ],
      "name": "OwnershipTransferred",
      "type": "event"
    },
    {
      "anonymous": false,
      "inputs": [
        {
          "indexed": true,
          "name": "owner",
          "type": "address"
        },
        {
          "indexed": true,
          "name": "spender",
          "type": "address"
        },
        {
          "indexed": false,
          "name": "value",
          "type": "uint256"
        }
      ],
      "name": "Approval",
      "type": "event"
    },
    {
      "anonymous": false,
      "inputs": [
        {
          "indexed": true,
          "name": "from",
          "type": "address"
        },
        {
          "indexed": true,
          "name": "to",
          "type": "address"
        },
        {
          "indexed": false,
          "name": "value",
          "type": "uint256"
        }
      ],
      "name": "Transfer",
      "type": "event"
    },
    {
      "constant": false,
      "inputs": [
        {
          "name": "_sig",
          "type": "bytes4"
        },
        {
          "name": "_valid",
          "type": "bool"
        }
      ],
      "name": "setAllowedFunction",
      "outputs": [],
      "payable": false,
      "stateMutability": "nonpayable",
      "type": "function"
    },
    {
      "constant": false,
      "inputs": [
        {
          "name": "_spender",
          "type": "address"
        },
        {
          "name": "_value",
          "type": "uint256"
        },
        {
          "name": "_data",
          "type": "bytes"
        }
      ],
      "name": "approveAndCall",
      "outputs": [
        {
          "name": "",
          "type": "bool"
        }
      ],
      "payable": true,
      "stateMutability": "payable",
      "type": "function"
    }
  ],
  "bytecode": "0x60806040526003805460a060020a60ff021916905534801561002057600080fd5b50604051610e1c380380610e1c83398101604052805160038054600160a060020a03191633600160a060020a03161790550160005b81518160ff1610156100cb57600160046000848460ff1681518110151561007857fe5b6020908102919091018101517fffffffff00000000000000000000000000000000000000000000000000000000168252810191909152604001600020805460ff1916911515919091179055600101610055565b5050610d40806100dc6000396000f3006080604052600436106100c15763ffffffff60e060020a60003504166305d2035b81146100c6578063095ea7b3146100ef57806318160ddd1461011357806323b872dd1461013a57806340c10f1914610164578063661884631461018857806370a08231146101ac5780637d64bcb4146101cd5780638da5cb5b146101e2578063a9059cbb14610213578063c7fdb40b14610237578063cae9ca5114610275578063d73dd623146102d1578063dd62ed3e146102f5578063f2fde38b1461031c575b600080fd5b3480156100d257600080fd5b506100db61033d565b604080519115158252519081900360200190f35b3480156100fb57600080fd5b506100db600160a060020a036004351660243561035e565b34801561011f57600080fd5b506101286103c8565b60408051918252519081900360200190f35b34801561014657600080fd5b506100db600160a060020a03600435811690602435166044356103ce565b34801561017057600080fd5b506100db600160a060020a036004351660243561054e565b34801561019457600080fd5b506100db600160a060020a036004351660243561066d565b3480156101b857600080fd5b50610128600160a060020a0360043516610766565b3480156101d957600080fd5b506100db610781565b3480156101ee57600080fd5b506101f761082b565b60408051600160a060020a039092168252519081900360200190f35b34801561021f57600080fd5b506100db600160a060020a036004351660243561083a565b34801561024357600080fd5b506102737bffffffffffffffffffffffffffffffffffffffffffffffffffffffff19600435166024351515610933565b005b604080516020600460443581810135601f81018490048402850184019095528484526100db948235600160a060020a031694602480359536959460649492019190819084018382808284375094975061098f9650505050505050565b3480156102dd57600080fd5b506100db600160a060020a0360043516602435610abb565b34801561030157600080fd5b50610128600160a060020a0360043581169060243516610b5d565b34801561032857600080fd5b50610273600160a060020a0360043516610b88565b60035474010000000000000000000000000000000000000000900460ff1681565b600160a060020a03338116600081815260026020908152604080832094871680845294825280832086905580518681529051929493927f8c5be1e5ebec7d5bd14f71427d1e84f3dd0314c0f7b2291e5b200ac8c7c3b925929181900390910190a350600192915050565b60015490565b6000600160a060020a03831615156103e557600080fd5b600160a060020a03841660009081526020819052604090205482111561040a57600080fd5b600160a060020a038085166000908152600260209081526040808320339094168352929052205482111561043d57600080fd5b600160a060020a038416600090815260208190526040902054610466908363ffffffff610c2116565b600160a060020a03808616600090815260208190526040808220939093559085168152205461049b908363ffffffff610c3316565b600160a060020a03808516600090815260208181526040808320949094558783168252600281528382203390931682529190915220546104e1908363ffffffff610c2116565b600160a060020a038086166000818152600260209081526040808320338616845282529182902094909455805186815290519287169391927fddf252ad1be2c89b69c2b068fc378daa952ba7f163c4a11628f55a4df523b3ef929181900390910190a35060019392505050565b60035460009033600160a060020a0390811691161461056c57600080fd5b60035474010000000000000000000000000000000000000000900460ff161561059457600080fd5b6001546105a7908363ffffffff610c3316565b600155600160a060020a0383166000908152602081905260409020546105d3908363ffffffff610c3316565b600160a060020a03841660008181526020818152604091829020939093558051858152905191927f0f6798a560793a54c3bcfe86a93cde1e73087d944c0ea20544137d412139688592918290030190a2604080518381529051600160a060020a038516916000917fddf252ad1be2c89b69c2b068fc378daa952ba7f163c4a11628f55a4df523b3ef9181900360200190a350600192915050565b600160a060020a033381166000908152600260209081526040808320938616835292905290812054808311156106ca57600160a060020a033381166000908152600260209081526040808320938816835292905290812055610701565b6106da818463ffffffff610c2116565b600160a060020a033381166000908152600260209081526040808320938916835292905220555b600160a060020a0333811660008181526002602090815260408083209489168084529482529182902054825190815291517f8c5be1e5ebec7d5bd14f71427d1e84f3dd0314c0f7b2291e5b200ac8c7c3b9259281900390910190a35060019392505050565b600160a060020a031660009081526020819052604090205490565b60035460009033600160a060020a0390811691161461079f57600080fd5b60035474010000000000000000000000000000000000000000900460ff16156107c757600080fd5b6003805474ff00000000000000000000000000000000000000001916740100000000000000000000000000000000000000001790556040517fae5184fba832cb2b1f702aca6117b8d265eaf03ad33eb133f19dde0f5920fa0890600090a150600190565b600354600160a060020a031681565b6000600160a060020a038316151561085157600080fd5b600160a060020a03331660009081526020819052604090205482111561087657600080fd5b600160a060020a03331660009081526020819052604090205461089f908363ffffffff610c2116565b600160a060020a0333811660009081526020819052604080822093909355908516815220546108d4908363ffffffff610c3316565b600160a060020a03808516600081815260208181526040918290209490945580518681529051919333909316927fddf252ad1be2c89b69c2b068fc378daa952ba7f163c4a11628f55a4df523b3ef92918290030190a350600192915050565b60035433600160a060020a0390811691161461094e57600080fd5b7bffffffffffffffffffffffffffffffffffffffffffffffffffffffff19919091166000908152600460205260409020805460ff1916911515919091179055565b600030600160a060020a031684600160a060020a0316141515156109b257600080fd5b600460006109bf84610c46565b7bffffffffffffffffffffffffffffffffffffffffffffffffffffffff1916815260208101919091526040016000205460ff1615156109fd57600080fd5b33600160a060020a0316610a1083610cc7565b600160a060020a031614610a2357600080fd5b610a2d848461035e565b5083600160a060020a0316348360405180828051906020019080838360005b83811015610a64578181015183820152602001610a4c565b50505050905090810190601f168015610a915780820380516001836020036101000a031916815260200191505b5091505060006040518083038185875af1925050501515610ab157600080fd5b5060019392505050565b600160a060020a033381166000908152600260209081526040808320938616835292905290812054610af3908363ffffffff610c3316565b600160a060020a0333811660008181526002602090815260408083209489168084529482529182902085905581519485529051929391927f8c5be1e5ebec7d5bd14f71427d1e84f3dd0314c0f7b2291e5b200ac8c7c3b9259281900390910190a350600192915050565b600160a060020a03918216600090815260026020908152604080832093909416825291909152205490565b60035433600160a060020a03908116911614610ba357600080fd5b600160a060020a0381161515610bb857600080fd5b600354604051600160a060020a038084169216907f8be0079c531659141344cd1fd0a4f28419497f9722a3daafe3b4186f6b6457e090600090a36003805473ffffffffffffffffffffffffffffffffffffffff1916600160a060020a0392909216919091179055565b600082821115610c2d57fe5b50900390565b81810182811015610c4057fe5b92915050565b60008060006004845110610c5b576004610c5e565b83515b9150600090505b81811015610cc05780600183030360080260020a8482815181101515610c8757fe5b90602001015160f860020a900460f860020a0260f860020a9004028360e060020a90040160e060020a0292508080600101915050610c65565b5050919050565b60008060235b600f8114610d0d578060230360020260100a8482815181101515610ced57fe5b016020015160f860020a9081900481020402919091019060001901610ccd565b50929150505600a165627a7a7230582068599d86c80898f3871d6ceac5aa83589281d3742748dfd73dee3b13f09ae8e80029",
  "source": "pragma solidity ^0.4.23;\n\n\nimport 'openzeppelin-solidity/contracts/token/ERC20/MintableToken.sol';\n\ncontract JURToken is MintableToken {\n\n  mapping (bytes4 => bool) allowedFunctions;\n\n  constructor(bytes4[] _allowedFunctions) public {\n    for (uint8 i = 0; i < _allowedFunctions.length; i++) {\n      allowedFunctions[_allowedFunctions[i]] = true;\n    }\n  }\n\n  function setAllowedFunction(bytes4 _sig, bool _valid) onlyOwner public {\n    allowedFunctions[_sig] = _valid;\n  }\n\n  // The first 4 bytes of msg.data are the method name. The next 32 bytes are\n  // the 20 bytes of address padded to bytes32. From this 36 bytes of data, we\n  // start from the end (the LSB) and work back towwards the 16th byte (ie we\n  // ignore the first 4 bytes AND the zero padding) creating a uint that can be\n  // converted to an address.\n  function getAddr(bytes data) internal pure returns (address) {\n    uint result = 0;\n    for (uint i = 35; i != 15; --i) {\n      result += uint(data[i]) * (16 ** ((35 - i) * 2));\n    }\n    return address(result);\n  }\n\n  function getSig(bytes _data) internal pure returns (bytes4 sig) {\n      uint len = _data.length < 4 ? _data.length : 4;\n      for (uint i = 0; i < len; i++) {\n          sig = bytes4(uint(sig) + uint(_data[i]) * (2 ** (8 * (len - 1 - i))));\n      }\n  }\n\n  /**\n   * @dev Addition to ERC20 token methods. It allows to\n   * @dev approve the transfer of value and execute a call with the sent data.   *\n   *\n   * @param _spender The address that will spend the funds.\n   * @param _value The amount of tokens to be spent.\n   * @param _data ABI-encoded contract call to call `_to` address.\n   *\n   * @return true if the call function was executed successfully\n   */\n  function approveAndCall(address _spender, uint256 _value, bytes _data) public payable returns (bool) {\n    require(_spender != address(this));\n    // Only allow explicitely approved functions to be called\n    require(allowedFunctions[getSig(_data)]);\n    // First argument must be senders address\n    require(getAddr(_data) == msg.sender);\n\n    super.approve(_spender, _value);\n\n    // solium-disable-next-line security/no-call-value\n    require(_spender.call.value(msg.value)(_data));\n\n    return true;\n  }\n\n}\n",
  "sourcePath": "/Users/adamdossa/Development/Ethereum/mvp-smart-contract/contracts/JURToken.sol",
  "compiler": {
    "name": "solc",
    "version": "0.4.23+commit.124ca40d.Emscripten.clang"
  },
  "schemaVersion": "2.0.0",
  "updatedAt": "2018-06-05T14:06:13.659Z"
}